:020000040800F2
:100000000000022089850008993B00089B3B0008FE
:100010009D3B00089F3B0008A13B0008000000003A
:10002000000000000000000000000000A33B0008EA
:10003000A53B000800000000A73B0008A93B000802
:10004000D9850008D9850008D9850008D985000818
:10005000D9850008D9850008D9850008D985000808
:10006000D9850008D98500080D3C0008D98500080D
:10007000D9850008D9850008D9850008D9850008E8
:10008000D9850008D9850008D9850008000000003E
:10009000000000000000000000000000D9850008FA
:1000A000D9850008D9850008D9850008D9850008B8
:1000B000D9850008D9850008D9850008E13B0008EA
:1000C000FD3B0008D9850008D9850008193C0008C7
:1000D000D9850008B13B0008C13B000800000000C2
:1000E000D9850008D9850008D985000800000000DE
:1000F000000000000000000000000000D98500089A
:1001000000000000D9850008D9850008D9850008BD
:1001100000000000000000000000000000000000DF
:10012000D9850008D9850008D9850008D985000837
:10013000D985000800000000000000000000000059
:10014000000000000000000000000000D985000849
:10015000D9850008D9850008D9850008D13B000859
:10016000D9850008D98500080000000000000000C3
:10017000000000000000000000000000000000007F
:1001800000000000D9850008000000000000000009
:08019000D9850008D98500089B
:1001A0000348044B834202D0034B03B11847704706
:1001B0006800002068000020000000000548064B91
:1001C0001B1AD90F01EBA301491002D0034B03B155
:1001D00018477047680000206800002000000000F9
:1001E00010B5064C237843B9FFF7DAFF044B13B17F
:1001F0000448AFF300800123237010BD6800002085
:1002000000000000B09C000808B5044B1BB1044975
:100210000448AFF30080BDE80840CFE700000000CD
:100220006C000020B09C000810F8012B11F8013B75
:10023000012A28BF9A42F7D0D01A7047034613F814
:10024000012B002AFBD1181A01387047000000006A
:1002500001F0FF01102A2BDB10F0070F08D010F877
:10026000013B013A8B422DD010F0070F42B3F6D17B
:10027000F0B441EA012141EA014122F007047FF094
:1002800000070023F0E80256083C85EA010586EAEB
:10029000010685FA47F5A3FA87F586FA47F6A5FA27
:1002A00087F68EB9EED1F0BC01F0FF0102F0070233
:1002B00032B110F8013B013A83EA010313B1F8D1DE
:1002C0000020704701387047002D06BF35460338BF
:1002D000073815F0010F07D1013015F4807F02BFF8
:1002E000013015F4C03F0130F0BC0138704700BF49
:1002F00053B94AB9002908BF00281CBF4FF0FF318D
:100300004FF0FF3000F09CB9ADF1080C6DE904CE60
:1003100000F006F8DDF804E0DDE9022304B07047E0
:100320002DE9F04782B00646DDF828E00846B446DD
:100330000D46002B4ED18A4214466DD9B2FA82F294
:1003400042B1C2F12003954026FA03F394401D43C5
:1003500006FA02FC260CA7B2B5FBF6F14FEA1C43E5
:1003600006FB115543EA054301FB07F0984209D902
:10037000E31801F1FF3580F00381984240F20081DB
:10038000023923441B1A1FFA8CFCB3FBF6F006FB60
:1003900010334CEA034C00FB07F363450AD914EB16
:1003A0000C0C00F1FF3580F0ED80634540F2EA80EF
:1003B000A444023840EA0140ACEB030C0021BEF13A
:1003C000000F04D02CFA02F30022CEE9003202B072
:1003D000BDE8F0878B4209D9BEF1000F01D0CEE90C
:1003E00000610021084602B0BDE8F087B3FA83F14E
:1003F000174600294DD1834202D3B24200F20F8149
:10040000B6EB070C60EB030301201D46BEF1000FA5
:10041000DDD0CEE900C5DAE7002A00F098801A4660
:10042000B4FA84F3002B40F0AF800B1B270CA6B26C
:100430000121B3FBF7F54FEA1C4007FB153340EAF7
:10044000034306FB05F8984507D9E31805F1FF308B
:1004500002D2984500F2E8800546A3EB08031FFA94
:100460008CFCB3FBF7F007FB10334CEA034C06FBA4
:1004700000F3634508D914EB0C0C00F1FF3602D2EF
:10048000634500F2CE803046ACEB030C40EA0540F9
:1004900095E7C1F120058B4022FA05FC4CEA030CDC
:1004A00000FA01F426FA05F3E84002FA01F943EAFA
:1004B00004084FEA1C4206FA01FAB0FBF2F71FFAF1
:1004C0008CF602FB17004FEA184444EA004407FB8D
:1004D00006F0A0420AD91CEB040407F1FF3380F0B8
:1004E0009C80A04240F29980023F6444241A1FFA83
:1004F00088F3B4FBF2F002FB104443EA044300FB30
:1005000006F69E4209D91CEB030300F1FF3480F08C
:1005100082809E427FD90238634440EA0740A0FBB4
:1005200009749B1BA3423E46A04664D361D0BEF132
:10053000000F0AD0BAEB060263EB080303FA05F5D5
:10054000CA401543CB40CEE9005300213FE7730872
:1005500043EAC1734A08190C41EA02414FEAC67CDA
:100560009BB2B2FBF4F02646A04627461F2243EA80
:100570000143B1FBF4F1A3EB080341EA004158E762
:100580002946FFE6284615E71A46C3F120019C409C
:1005900026FA01F320FA01F190400343270C06FAF2
:1005A00002FCB1FBF7F0A6B207FB1015190C41EAEB
:1005B000054100FB06F58D423BD9611801D28D4201
:1005C00020D8491B0138B1FBF7F5019505FB06F86A
:1005D000019D9BB207FB151143EA0143434526D217
:1005E000E31805F1FF31C6D24345C4D2A91E234406
:1005F000C1E7BA459BD2B7EB090664EB0C0401389E
:10060000A04694E7651B29440238B1FBF7F5019534
:1006100005FB06F8DCE720467FE71F4666E708464D
:10062000F4E6A44402382FE7023D234415E701997C
:10063000A1E7491BB1FBF7F5019505FB06F8C7E7F4
:10064000704700BF72B6FEE710B594B008AC302218
:100650000021204608F042FA0023039304930593F7
:100660000693079301931E4A116C41F08051116467
:10067000126C02F080520192019A0293194A116899
:1006800041F440411160126802F440420292029A21
:100690000222089201210B9110210C910E920F93CE
:1006A000082310936423119312920423139320467A
:1006B00007F064F978B90F2303930223049305909C
:1006C0004FF4805206920790032103A807F0C2FB63
:1006D00018B914B010BDFFF7B5FFFFF7B3FF00BFA7
:1006E000003802400070004008B507F0A3FEFFF795
:1006F000ABFF00F007F800F049F800F033FB03F01F
:10070000D3F9FCE786B0002200921F4B196B41F031
:1007100001011963196B01F0010100910099019227
:10072000196B41F002011963196B01F0020101918B
:1007300001990292196B41F004011963196B01F0E0
:100740000401029102990392196B41F008011963A7
:10075000196B01F00801039103990492196B41F0A0
:1007600010011963196B01F01001049104990592AD
:100770001A6B42F080021A631B6B03F0800305932F
:10078000059B06B0704700BF0038024008B50A4814
:100790000A4B03604FF4E133436000238360C3607E
:1007A00003610C2242618361C36103F085FB00B9E0
:1007B00008BDFFF747FFFBE71401002000100140D0
:1007C00000B58DB000230793089309930A930B9308
:1007D00003684A4A934207D0494A934231D0494A72
:1007E00093425CD00DB000BD00210191464B1A6CC4
:1007F00042F400321A641A6C02F400320192019A37
:1008000002911A6B42F001021A631B6B03F00103A1
:100810000293029B0C23079302230893012309935D
:1008200003230A9307230B9307A9384807F0E8FB33
:1008300000221146262007F0AFFD262007F0BCFD60
:10084000D0E700210391304B5A6C42F010025A64F9
:100850005A6C02F010020392039A04911A6B42F050
:1008600001021A631B6B03F001030493049B4FF412
:10087000C0630793022308930123099303230A9378
:1008800007230B9307A9214807F0BAFB0022114662
:10089000252007F081FD252007F08EFDA2E700212D
:1008A0000591194B5A6C42F020025A645A6C02F0BE
:1008B00020020592059A06911A6B42F001021A6312
:1008C0001B6B03F001030693069B4FF4C053079381
:1008D000022308930123099303230A9308230B930C
:1008E00007A90A4807F08CFB00221146472007F0B1
:1008F00053FD472007F060FD74E700BF004400404F
:100900000010014000140140003802400000024085
:10091000BFF34F8F0549CA6802F4E062044B1343EA
:10092000CB60BFF34F8F00BFFDE700BF00ED00E0DD
:100930000400FA05044B188880B2044B1B889BB254
:10094000C01A18BF012070477E0500207C050020DA
:100950000D4B1A8892B20D4B1B889BB29A4210D055
:100960000A4A13889BB20A49C85CC0B213889BB27A
:1009700001335942DBB2C9B258BF4B429BB213801C
:1009800070470020704700BF7E0500207C050020D6
:100990008005002000B589B00023039304930593DC
:1009A0000693079303F1804303F58833984207D0F9
:1009B0002D4B984220D02D4B984238D009B000BD25
:1009C000002300932A4B1A6B42F001021A631B6B3F
:1009D00003F001030093009B4FF4C06303930223D1
:1009E000049301230593032306930723079303A985
:1009F000204807F005FBE1E7002301931C4B1A6B2D
:100A000042F001021A631B6B03F001030193019B87
:100A10000C230393022304930123059303230693DA
:100A20000723079303A9134807F0EAFAC6E7002350
:100A300002930F4B1A6B42F001021A631B6B03F017
:100A400001030293029B4FF4C053039302230493C8
:100A500001230593032306930823079303A905485D
:100A600007F0CEFAAAE700BF00440040001401409E
:100A7000003802400000024000B589B00023039313
:100A800004930593069307931D4B984204D01D4B86
:100A900098421AD009B000BD002301931A4B1A6B7B
:100AA00042F001021A631B6B03F001030193019BE7
:100AB000F023039302230493032306930523079350
:100AC00003A9124807F09CFAE4E7002302930E4BB7
:100AD0001A6B42F010021A631B6B03F010030293AF
:100AE000029B4FF4E04303930223049303230693F2
:100AF0000623079303A9064807F082FACAE700BF56
:100B00000030014000500140003802400000024027
:100B10000010024010B504461549FFF785FBE0B10F
:100B200014492046FFF780FBC8B113492046FFF760
:100B30007BFBB0B111492046FFF776FB98B1104915
:100B40002046FFF771FB80B10E492046FFF76CFB92
:100B500008B90D4802E0002000E00C4810BD0B4829
:100B6000FCE70A48FAE70848F8E70748F6E700BF55
:100B7000589D0008609D0008689D00086C9D000855
:100B8000749D00087C9D000884000020CC0000209B
:100B900010B504462349FFF747FB80B3224920469E
:100BA000FFF742FB68B321492046FFF73DFB50B3F6
:100BB0001F492046FFF738FB38B31E492046FFF790
:100BC00033FB20B31C492046FFF72EFB08B31B491B
:100BD0002046FFF729FBF0B119492046FFF724FB17
:100BE000D8B118492046FFF71FFBC0B1164920466F
:100BF000FFF71AFB08B9154802E0002000E014488E
:100C000010BD1348FCE71348FAE71248F8E712480A
:100C1000F6E71148F4E71148F2E71048F0E70B480F
:100C2000EEE700BF809D0008889D00088C9D0008AD
:100C3000689D0008949D00089C9D0008A09D0008E8
:100C4000A89D0008AC9D0008B49D0008AC030020DE
:100C50000C050020B40400205C04002004040020E3
:100C6000F0B583B004460F461646002534E0013443
:100C70002378202BFBD0092BF9D08BB30023ADF8C0
:100C800004304FF000028DF806202378ABB1617874
:100C9000A1F13002D2B2092A09D9A1F14102D2B29E
:100CA000052A04D9A1F16102D2B2052A05D88DF82E
:100CB000043002348DF8051006E030238DF804303E
:100CC00014F8013B8DF805301022002101A807F02F
:100CD00003FD6B1C78559DB223780BB1B542C7D389
:100CE000284603B0F0BD000008B5124B984200D072
:100CF00008BD114B1B889BB201335A42DBB2D2B202
:100D000058BF53429BB20D4A128892B29A420AD0FF
:100D10000948028892B20A490978C9B2DFF824C0AA
:100D20000CF80210038001220549024803F0B3FBCE
:100D3000DEE700BF140100207E0500207C050020B6
:100D4000800600208005002010B50446FFF776FAE3
:100D5000012382B22146024803F0DEF810BD00BF35
:100D6000140100202DE9F0438FB000240094324D8F
:100D70002B6B43F001032B632B6B03F001030093F8
:100D8000009B01942B6B43F002032B632B6B03F04E
:100D900002030193019B02942B6B43F004032B632A
:100DA0002B6B03F004030293029B09A909944C6086
:100DB0008C60CC600C614FF40058CDF82480012683
:100DC0000A961E4F384607F01BF9822221461C481E
:100DD00007F084FEDFF87C904FF48072214648468D
:100DE00007F07CFE682389F87530582389F8D030E5
:100DF00003942B6B43F004032B632B6B03F004036E
:100E00000393039B04A904944C608C60CC600C6138
:100E1000CDF810800596384607F0F2F832460949B9
:100E2000094803F038FB0948FFF78EFF0848FFF731
:100E30008BFF0FB0BDE8F08300380240000802408D
:100E4000840600208006002014010020B89D0008C0
:100E5000BC9D00086C0100200FB410B5A2B024ABFB
:100E600053F8042B019302AC8021204607F018FEB2
:100E70002046FFF769FF22B0BDE8104004B070477C
:100E800070B5A0B004460D4640F22112002128465C
:100E900007F024FE7F222146684607F054FE1449DD
:100EA000684607F063FE00B30146002301E0EC54FE
:100EB0000133CC5C74B1A4F16102D2B2192AF6D824
:100EC000203CE4B2F3E701341F2205EB441007F0A5
:100ED0003AFEE4B20649002007F048FE014608B198
:100EE000072CF0D985F82041012020B070BD00BF4B
:100EF000DC9D00080146A0F16103DBB2192B02D88A
:100F0000A0F12001C9B2002200E00132054B03EB41
:100F1000C203586820B1034B13F832308B42F4D12E
:100F2000704700BFD8BF00080F2804D8012303FA78
:100F300000F080B2704700207047F8B504460546BF
:100F40000E461746FFF77AF9012820D92378502B4F
:100F500016D0702B14D023461C461878FFF7CAFF12
:100F60003060A8B12046013007F037FBC0B2FFF770
:100F7000DBFF388068B96B78302B0CD1012007E09B
:100F8000022802D92B460133E6E72B46E4E700208E
:100F9000F8BD0120FCE70020FAE700002DE9F04150
:100FA00092B090F820315BB100F1200398460DF12A
:100FB000420211A91846FFF7C0FF28B1002309E03B
:100FC0003E48FFF7C1FE74E041463D48FFF744FF4D
:100FD0006FE001330F2B08DCBDF842201A4112F0FC
:100FE000010FF6D05FFA83FC01E04FF0000C119C7A
:100FF00023684FEA4C05EB4003F00306DFF8E4E01A
:101000009EE80F000CAF87E80F00636823FA0CF32B
:1010100003F001070AAB0EF1100292E8030083E827
:101020000300A368EB4003F0030301930DF1180CD8
:101030000EF118030FCB8CE80F00E368EB4003F0D0
:1010400003050DF1080C0EF1280E9EE80F008CE848
:101050000F00BDF84210204607F0C2F80446414692
:101060001848FFF7F9FE12AA02EB860353F8181C82
:101070001548FFF7F1FE12AA02EB870353F8201C74
:101080001248FFF7E9FE12AA019B02EB830353F813
:10109000301C0F48FFF7E0FE12AB03EB850353F85B
:1010A000401C0C48FFF7D8FE34B10B490B48FFF742
:1010B000D3FE12B0BDE8F0810949F7E7E09D0008D2
:1010C000109E00082C9E0008389E0008489E0008CC
:1010D000589E0008689E00080CBD0008789E000815
:1010E0001CBD0008C89C000810B58CB090F82031D9
:1010F00033B300F120031C460DF12A020BA9184658
:10110000FFF71BFF00B30B98354B984221D0354BAE
:1011100098423ED0344B984248D0344B984252D0FB
:10112000334B984221D100230493324B1A6B42F087
:1011300010021A631B6B03F010030493049B14E06A
:101140002D48FFF701FE22E021462C48FFF784FEE0
:101150001DE000230093274B1A6B42F001021A6333
:101160001B6B03F001030093009B05A9002305936B
:101170004B608B60CB600B61BDF82A300593012377
:10118000069306F03DFF21461D48FFF765FE0CB0B3
:1011900010BD00230193174B1A6B42F002021A6331
:1011A0001B6B03F002030193019BDEE70023029314
:1011B000104B1A6B42F004021A631B6B03F004031A
:1011C0000293029BD1E7002303930A4B1A6B42F070
:1011D00008021A631B6B03F008030393039BC4E725
:1011E000000002400004024000080240000C0240DF
:1011F0000010024000380240889E0008109E00083F
:10120000A49E000870B58CB090F820313BB3044622
:1012100000F120031E460DF12A020BA91846FFF724
:101220008CFE00B30B9D424B9D4221D0414B9D4211
:101230003DD0414B9D4247D0404B9D4251D0404B09
:101240009D4221D1002304933E4B1A6B42F01002C1
:101250001A631B6B03F010030493049B14E03A48D9
:10126000FFF772FD5DE031463848FFF7F5FD58E0C5
:1012700000230093334B1A6B42F001021A631B6B7D
:1012800003F001030093009B94F82031012B35D922
:1012900040342F492046FEF7C7FF002843D02D4990
:1012A0002046FEF7C1FF00283FD0002227E00023A0
:1012B0000193244B1A6B42F002021A631B6B03F07A
:1012C00002030193019BDFE7002302931D4B1A6B7E
:1012D00042F004021A631B6B03F004030293029BA7
:1012E000D2E700230393174B1A6B42F008021A63EC
:1012F0001B6B03F008030393039BC5E7002205A9BA
:10130000002305934B608B60CB600B61BDF82A30E6
:1013100005930792284606F073FE31460E48FFF704
:101320009BFD0CB070BD0122E9E70222E7E700BF98
:10133000000002400004024000080240000C02408D
:101340000010024000380240C49E0008109E0008B1
:10135000F09E0008F49E0008FC9E000810B582B0C4
:1013600090F82031ABB100F120031C460DF10202D0
:1013700001A91846FFF7E1FD78B10122BDF802107E
:10138000019806F034FF21460648FFF765FD02B0DC
:1013900010BD0548FFF7D8FCF9E721460348FFF7E1
:1013A0005BFDF4E7349F00081C9F0008109E0008B6
:1013B00010B582B090F82031ABB100F120031C468B
:1013C0000DF1020201A91846FFF7B7FD78B100221E
:1013D000BDF80210019806F00AFF21460648FFF703
:1013E0003BFD02B010BD0548FFF7AEFCF9E7214612
:1013F0000348FFF731FDF4E75C9F0008449F0008B5
:10140000109E000810B582B090F82031B3B100F101
:1014100020031C460DF1020201A91846FFF78DFDBD
:1014200080B1BDF80210019806F0DAFE78B1094AE1
:1014300021460948FFF710FD02B010BD0748FFF72D
:1014400083FCF9E721460648FFF706FDF4E7054A65
:10145000EEE700BF0CBD0008849F00086C9F0008E9
:10146000109E00081CBD000810B582B090F8203115
:10147000DBB100F120031C460DF1020201A9184660
:10148000FFF75BFDA8B1BDF80210019806F0B5FEAC
:10149000BDF80210019806F0A3FE78B1084A214673
:1014A0000848FFF7D9FC02B010BD0748FFF74CFC15
:1014B000F9E721460548FFF7CFFCF4E7044AEEE7D9
:1014C0000CBD0008AC9F0008909F0008109E00080B
:1014D0001CBD000870B58CB090F82031012B27D9C5
:1014E000044600F120031E460DF12A020BA91846FE
:1014F000FFF723FD00B30B9D464B9D4221D0464B89
:101500009D424CD0454B9D4256D0454B9D4260D0AC
:10151000444B9D4221D100230493434B1A6B42F06C
:1015200010021A631B6B03F010030493049B14E076
:101530003E48FFF709FC30E031463D48FFF78CFCA0
:101540002BE000230093384B1A6B42F001021A6320
:101550001B6B03F001030093009B0023059306938C
:10156000079308930993BDF82A3005934034314915
:101570002046FEF759FE38B12F492046FEF754FEAB
:10158000002833D10123069305A9284606F038FD2B
:10159000224631462948FFF75FFC0CB070BD00239E
:1015A0000193214B1A6B42F002021A631B6B03F08A
:1015B00002030193019BD0E7002302931A4B1A6B9D
:1015C00042F004021A631B6B03F004030293029BB4
:1015D000C3E700230393144B1A6B42F008021A630B
:1015E0001B6B03F008030393039BB6E714492046E3
:1015F000FEF71AFE10B902230693C5E711492046EB
:10160000FEF712FE10B903230693BDE70E48FFF75D
:101610009BFBC2E7000002400004024000080240B9
:10162000000C02400010024000380240C49F000835
:10163000109E000888BF0008F0BC000820A0000829
:10164000EC9F0008F09F0008F49F0008F0B583B0FD
:1016500090F82031012B33D9054600F120031F46B5
:101660001846FFF757FA044688B305F1400006F024
:10167000B4FF0646A0F59672404B9A422BD8404BD9
:101680009C422CD066600023A360E36023610C229F
:101690006261A361E36195F82031022B36D995F898
:1016A0006030452B2CD0652B2AD04F2B01D06F2BCF
:1016B0002CD14FF4C06323614FF48053A36025E025
:1016C0003048FFF741FB3048FFF73EFB54E02F481E
:1016D000FFF73AFB50E02E48FFF736FB4CE00023C3
:1016E00001932C4B5A6C42F010025A645B6C03F06D
:1016F00010030193019B28482060FFF74BF9C1E7D5
:101700004FF4806323614FF48053A36095F8203138
:10171000032B03D995F88030322B14D0204602F0E9
:10172000CBFBA0B9202384F8413084F842302368F1
:10173000194A93420FD002F5806293420BD006F013
:101740003FFC05460AE04FF40053E360E6E7134828
:10175000FFF7FAFA10E006F043FC05463946104858
:10176000FFF77AFB31460F48FFF776FB23689A684C
:1017700029460D48FFF770FB03B0F0BD94C52D005E
:101780001401002038A000086CA0000890A00008F8
:10179000C8A000080038024000100140F0A0000876
:1017A0000CA1000828A1000840A10008F0B589B0EC
:1017B00090F82031012B4DD9044600F12005284630
:1017C000FFF7A8F900284CD00368304A93424FD065
:1017D000A2F54C42934248D002231F4604F1400632
:1017E0000DF11A0207A93046FFF7A7FB002842D0E7
:1017F000274B079A43F8372003EBC703BDF81A209D
:101800009A8094F82031022B3AD80120204C04EB26
:10181000C704A0710122E27101A9002301934B606A
:101820008B60CB600B61BDF81A3001930292079870
:1018300006F0E6FBA279B2FA82F25209BDF81A105C
:10184000079806F0D4FC324629461248FFF704FBFD
:1018500009B0F0BD1048FFF777FA1048FFF774FAA7
:10186000F6E70F48FFF770FAF2E701231F46B5E7E6
:1018700000231F46B2E731460A48FFF7EDFAE7E7D3
:1018800004F1600006F0A9FEC0B2BFE700100140FD
:1018900064050020E4A100085CA1000884A1000800
:1018A000A4A10008C4A10008F0B5C1B090F820318F
:1018B000012B0FD905462030FFF72CF9064668B1F9
:1018C00003687BB1802200210DEB020007F006F9CE
:1018D000012411E05048FFF737FA85E04F48FFF741
:1018E00033FA81E04E48FFF72FFA7DE0013405EB33
:1018F000441120A807F018F995F82031A34209DD1A
:10190000012CF3DD20AF3846FEF798FC454B1B88D1
:101910003B52EBE7002420AA18E074290ED10921DC
:101920000DF80410013410E00D210DF804100134FD
:101930000BE05C210DF80410013406E00DF80410F2
:10194000013402E00DF804300134013213789BB108
:101950007E2C11DC5C2BF5D151780029F2D00132BC
:101960007229E1D0D9D85C29E3D06E29E6D10A21C9
:101970000DF804100134E8E700220DF80420336864
:1019800002F1804202F58832934231D0A2F54C42F6
:1019900093422BD002200746234B03EBC003DB7995
:1019A00043BB4FF47A73A2B26946304602F0B4FAF0
:1019B00005461D4B03EBC703DB7983B133681B6816
:1019C00013F0400FFAD0184B03EBC7018A79B2FA33
:1019D00082F25209898853F8370006F008FCB5B93D
:1019E00021461248FFF738FA41B0F0BD0120D2E796
:1019F0000020D0E70C4B03EBC0018A79003A18BFF6
:101A00000122898853F8300006F0F1FBC9E7084845
:101A1000FFF79AF9E8E700BF08A20008A4A10008B0
:101A200028A200085CA200086405002060A200084B
:101A300074A200082DE9F04796B090F82031012BF0
:101A400056D904462030FFF765F80546002853D0E4
:101A50000368002B54D090F84130202B54D1002241
:101A600002922B68196802915968029102990392B7
:101A70001968039159680391039904921A680492B2
:101A80005B680493049B04F1400006F0A6FD86B257
:101A9000402E00D9402694F82031022B3FD84FF435
:101AA0007A78B246424631465A48FFF7D5F95A4B42
:101AB0001B681B6813F0400FF9D095F8411095F89A
:101AC00042206B6C5548FFF7C7F9534B1B681B68E6
:101AD00013F0400FF9D04122002105A806F0FEFFC7
:101AE00006F0CEFC07464E48FFF72EF9002425E00D
:101AF0004C48FFF729F985E04B48FFF725F981E0CD
:101B00004A48FFF721F97DE090F841104848FFF777
:101B1000A3F9202385F8413085F842309FE704F18E
:101B2000600006F05AFD8046BBE74248FFF794F993
:101B30004C4603E03F48FFF78FF94C46A6422AD9AE
:101B400006F09EFCC01B404525D800238DF80730C9
:101B50000A2301220DF10701284602F043FA00286A
:101B6000ECD104F101091FFA89F99DF8071004F17D
:101B700058030DEB030404F8441CA1F12003DBB26D
:101B80005E2BD2D90D29D5D00A29D3D02A48FFF708
:101B9000DBF84C46D2E72948FFF7D6F806F070FC90
:101BA000C11B94B32546002204F158036B4403F88B
:101BB000442CA64212D9534622462148FFF74CF93D
:101BC0002048FFF7C1F805A8FFF7BEF81B48FFF74C
:101BD000BBF81D48FFF7B8F800240EE05346224634
:101BE0001A48FFF739F9EBE704F158036B4413F88F
:101BF000441C1748FFF730F90134A542F4DC0F48C4
:101C0000FFF7A2F816B0BDE8F0871248FFF79CF87E
:101C1000F8E700BF0CA30008CC00002038A30008A0
:101C200074A3000890A20008A4A10008C0A20008A4
:101C3000E0A200087CA3000880A30008B89D00086B
:101C400084A30008D0A30008D8A30008ACA3000810
:101C5000E0A30008E8A3000808B50A48FFF774F8F5
:101C6000094B59680948FFF7F7F8094B1B682BB176
:101C7000074B59680748FFF7EFF808BD0648FFF71C
:101C800063F8FAE704A40008CC00002014A40008BC
:101C90001401002038A4000858A4000830B589B009
:101CA00090F820317BB300F120042046FEF732FF8C
:101CB000054680B3036893B320220021684606F0EE
:101CC0000DFF21462848FFF7C7F8284C132221466C
:101CD0002748FFF7C1F8642313222146284602F063
:101CE0001BF900BB4FF4FA7313226946284602F031
:101CF00079F9E0B103282FD01E48FFF725F81E48D8
:101D0000FFF722F805E01D48FFF71EF81C48FFF713
:101D10001BF809B030BD1B48FFF716F8F9E71A4861
:101D2000FFF712F8F5E71948FFF70EF8F1E78DF81D
:101D30001300132269461648FFF78EF813226946EE
:101D40000A4806F0BBFE18B91248FEF7FDFFE0E7AF
:101D50001148FEF7F9FFDCE71048FEF7F5FF1048E1
:101D6000FEF7F2FFD5E700BFB4A40008D4A4000832
:101D7000E8A40008B8A50008C8A5000874A40008D5
:101D800090A40008A4A1000828A2000800A500084B
:101D900010A5000828A5000848A500086CA50008A3
:101DA00090A500082DE9F04192B090F82031022B67
:101DB00072D9044600F120063046FEF7E9FE0546DA
:101DC00000287FD0304606F008FC04F1600006F0E1
:101DD00004FC0746A0F16402AF4B9A4276D8AF4BA1
:101DE0009D4277D0AE4B9D4200F08580AD4B9D4229
:101DF00000F09280AC4B9D4200F09F80AB4B9D4227
:101E000000F0AC8094F82031012B40F2B88094F8B7
:101E10004030002B00F0B38004F140039846A44901
:101E20001846FEF701FA0446002840F071812A683E
:101E3000A04B9A4200F0A78000236B604FF4007320
:101E4000AB610023AB60EB602B616B612B622A6896
:101E5000984B9A4200F06C8106F0B2F8B7EB102F65
:101E600040F26981B7EBD01F40F27181B7EB901F50
:101E700040F26F81B7EB501F40F26D81B7EB101F3E
:101E800040F26B81B7EBD00F40F26981B7EB900F56
:101E900000F2678108234FE18748FEF755FF874826
:101EA000FEF752FF8648FEF74FFF8648FEF74CFFCD
:101EB0008548FEF749FF8548FEF746FF8448FEF750
:101EC00043FF41E18348FEF73FFF3DE18248FEF7D3
:101ED0003BFF39E100230093804B5A6C42F480525F
:101EE0005A645B6C03F480530093009B7148286034
:101EF000FEF7C2FD86E700230193784B1A6C42F48B
:101F000080421A641B6C03F480430193019B744864
:101F10002860FEF7B1FD75E7002302936F4B1A6C42
:101F200042F400421A641B6C03F400430293029BC8
:101F30006C482860FEF7A0FD64E700230393674B1D
:101F40005A6C42F400525A645B6C03F400530393DE
:101F5000039B65482860FEF78FFD53E70023049339
:101F60005E4B5A6C42F480125A645B6C03F480132B
:101F70000493049B5D482860FEF77EFD42E75C48C1
:101F8000FEF7E2FEE0E0059003F584335A6C42F47C
:101F900080525A645A6C02F480520592059A069057
:101FA0001A6B42F001021A631B6B03F001030693E4
:101FB000069B07AE0790089009900A900B90E023CB
:101FC00007930223089303230A9305220B923146B9
:101FD000484806F015F810230793022308930522BA
:101FE0000B923146434806F00BF8324B2B606C6085
:101FF000AC60EC602C616C61AC612C62284602F034
:102000008AFB3D4B582283F850200DF1300C3B4E9B
:102010000FCEACE80F0096E803008CE8030009E05F
:1020200004F1080304F148026A4412F8181C324A09
:10203000D1540134172CF3DD2F4B502283F8772035
:10204000C32283F87820002483F87940802283F823
:102050007A2083F87B4083F87C400126284B1E7051
:1020600022460521232006F097F9232006F0A4F943
:10207000224605210A2006F08FF90A2006F09CF975
:10208000204958230B7033461F4A284602F078FE39
:102090001E48FEF759FE57E01CF0FA020C0500201E
:1020A000B40400205C04002004040020AC030020E1
:1020B000F8A7000800300140DCA5000838A6000899
:1020C00060A6000894A60008C8A60008FCA60008A0
:1020D0003CA700087CA70008A4A70008003802401D
:1020E00000380040003C00400034014000500140F6
:1020F000D0A70008000002406C0100206CA8000876
:1021000061010020680100206401002000A800088F
:1021100015494046FEF788F830B94FF482736B607A
:102120004FF40073AB618CE61048FEF70DFE0BE038
:1021300005F056FF92E63823EB61284602F0EBFAF1
:1021400031460B48FEF788FE12B0BDE8F08130231F
:10215000F2E72823F0E72023EEE71823ECE710232B
:10216000EAE70023E8E700BF20A8000828A8000845
:1021700050A800082DE9F041B0B090F82031012BB3
:1021800016D9054600F120042046FEF701FD8046E1
:10219000D8B10368CBB1204606F01FFAC7B2013FA1
:1021A000FFB28022002110A806F098FC012418E05C
:1021B0003848FEF7C9FD3848FEF7C6FD3748FEF738
:1021C000C3FD3748FEF7C0FD02E03648FEF7BCFD10
:1021D00030B0BDE8F081013405EB441110A806F0E1
:1021E000A3FC95F82031A34209DD012CF3DD10AEEC
:1021F0003046FEF723F82C4B1B883352EBE7402286
:1022000069460DEB0200FEF72BFD054610B3274B88
:1022100003EBC7039B790BBB4FF47A732A466946DD
:10222000404602F0D7FA0446204B03EBC7039B79E4
:10223000F3B95CBB29461E48FEF70EFEA54221DD20
:1022400004F1C0036B4413F8C01C1A48FEF704FEE7
:102250000134F3E71848FEF777FDB9E7134B03EBBA
:10226000C7010022898853F8370005F0C0FFD3E783
:102270000E4B03EBC7010122898853F8370005F0A4
:10228000B6FFD6E70D48FEF75FFDA1E70C48FEF765
:102290005BFD9DE788A80008ACA80008D0A800084E
:1022A000FCA8000840A900085CA20008B0BF000814
:1022B00090A90008E0A3000874A90008B89D0008D0
:1022C00074A20008F0B593B090F82031012B3ED9EC
:1022D000044600F120052846FEF75AFC0646002871
:1022E0003FD00368002B3CD0284606F076F9C5B2F3
:1022F000013DEDB204F1400006F06FF983B21F46D4
:10230000402B01D940231F4694F82031022B2DD8B1
:102310004FF47A744122002101A806F0DFFB2C4A19
:1023200002EBC50293793BBB23463A4601A93046EE
:1023300002F064FC0446264B03EBC5039B7923BBE8
:102340006CB3032C40D02348FEF7FEFC0CE022487F
:10235000FEF7FAFC2148FEF7F7FC2148FEF7F4FCF3
:1023600002E02048FEF7F0FC13B0F0BD04F160007D
:1023700006F033F90446CDE7154B11460022898853
:1023800053F8350005F033FFCEE7114B03EBC501E1
:102390000122898853F8350005F029FFD0E7394636
:1023A0003D461148FEF758FDA54209DD04F14803FA
:1023B0006B4413F8441C0D48FEF74EFD0134F3E75F
:1023C0000B48FEF7C1FCCFE70A48FEF7BDFCCBE7A0
:1023D000B0BF00080CAA0008A4A90008D4A90008EE
:1023E000FCA8000840A90008F4A90008E0A3000820
:1023F000B89D0008E8A300082DE9F041C2B090F8AC
:102400002031012B16D9054600F120042046FEF7A5
:10241000BFFB8046D8B10368CBB1204606F0DDF89B
:10242000C7B2013FFFB28022002122A806F056FB6E
:10243000012418E04448FEF787FC4448FEF784FC7A
:102440004348FEF781FC4348FEF77EFC02E0424829
:10245000FEF77AFC42B0BDE8F081013405EB44118F
:1024600022A806F061FB95F82031A34209DD012C7A
:10247000F3DD22AE3046FDF7E1FE384B1B883352C8
:10248000EBE740242246002102A806F027FB224663
:1024900012A922A8FEF7E4FB054640B3304B03EB3C
:1024A000C7039B793BBB4FF47A7300932B4602AA78
:1024B00012A9404602F070FA0446294B03EBC70309
:1024C0009B7913BB002C3BD129462648FEF7C4FC60
:1024D0002548FEF739FCA54221DD04F584736B44E1
:1024E00013F8C01C2148FEF7B7FC0134F3E720487D
:1024F000FEF72AFCAEE71A4B03EBC70100228988DE
:1025000053F8370005F073FECDE7154B03EBC70119
:102510000122898853F8370005F069FED2E7154893
:10252000FEF712FC0024A54206DD02AB195D0F4840
:10253000FEF792FC0134F6E70F48FEF705FC89E749
:102540000E48FEF701FC85E724AA00084CAA000803
:1025500074AA0008FCA8000840A900085CA20008B2
:10256000B0BF0008A8AA0008CCAA0008E0A3000891
:1025700074A90008D4AA0008B89D0008E0AA0008C1
:1025800030B58DB090F82031012B27D9044600F1E9
:1025900020031D460DF12A020BA91846FEF7CDFCBB
:1025A00038B30B984A4B984228D04A4B984259D09E
:1025B000494B984263D0494B98426DD0484B984262
:1025C00028D100230493474B1A6B42F010021A6380
:1025D0001B6B03F010030493049B1BE04248FEF7BF
:1025E000B3FB4248FEF7B0FB4148FEF7ADFB0DB030
:1025F00030BD29463F48FEF72FFCF8E70023009343
:10260000384B1A6B42F001021A631B6B03F0010393
:102610000093009B05A9002305934B608B60CB6062
:102620000B61BDF82A300593012306930323089319
:1026300005F0E6FC403430492046FDF7F5FD002862
:1026400037D02E492046FDF7EFFD00283CD1024649
:10265000BDF82A100B9805F0CAFD29462848FEF758
:10266000FBFBC4E7002301931E4B1A6B42F00202EE
:102670001A631B6B03F002030193019BCAE700235B
:102680000293184B1A6B42F004021A631B6B03F09F
:1026900004030293029BBDE700230393114B1A6BC3
:1026A00042F008021A631B6B03F008030393039BB9
:1026B000B0E70122BDF82A100B9805F098FD2946D5
:1026C0001048FEF7C9FB92E70F48FEF73DFB8EE787
:1026D000000002400004024000080240000C0240DA
:1026E0000010024000380240FCAA000820AB00089D
:1026F0004CAB0008109E00080CBD00081CBD000873
:1027000098AB000878AB0008B8AB000830B59FB0B4
:102710003A48FEF719FB3A4C19AD04F1380CBCE805
:102720000F000FC5DCF800302B6014AD4C340FCC1B
:102730000FC523682B603C22002105A806F0CEF9C6
:10274000304B0593304B0693304B0893304B099335
:10275000304B0B93304B0C93304B0E93304B0F930D
:10276000304B1193304B1293002429E005F038FCD4
:10277000EB69C3F3C20202239340B0FBF3F31EAA3A
:1027800002EB840252F8141C6A68B2F5827F25D0ED
:10279000DFF8A8C004EB44001EAA02EB800050F84A
:1027A000642C50F8600CED68B5F5006F19D01F4D22
:1027B00002950190009262461D48FEF74DFB0134E0
:1027C000042C19DC1EAB03EB840353F8285C2B6844
:1027D0004BB1002CCAD005F0F3FBC9E7DFF860C0AD
:1027E000D8E7144DE4E71EAB03EB840353F8141C45
:1027F0001148FEF731FBE2E71FB030BDECAB00083B
:10280000C89C0008FCAB000808AC00080CAC000831
:102810001CAC000824AC000830AC000838AC000840
:1028200044AC000848AC000858AC0008E4AB000811
:1028300060AC0008DCAB000880AC0008F8A700081A
:1028400020A8000810B504460A49FDF7EDFC68B160
:1028500009492046FDF7E8FC50B108492046FDF73C
:10286000E3FC08B9064802E0002000E0054810BD7E
:102870000548FCE7889D0008689D00089C9D0008AD
:10288000B0020020580300200403002000B587B0E8
:10289000002301930293039304930593134B9842EF
:1028A00001D007B000BD00230093114B1A6B42F01A
:1028B00002021A631B6B03F002030093009BC02308
:1028C000019312230293012303930323049304230C
:1028D00005930DEB0301074805F092FB064AD2F879
:1028E000003423F48053C2F80034DAE70054004087
:1028F0000038024000040240005000402DE9F0433F
:1029000085B090F82031022B73D9044600F12003E2
:102910001F46184605F061FE8046431E9946022B6D
:1029200073D83846FFF78EFF054600286AD004F1B9
:1029300040031E467149184606F0D8F800286CD0AE
:102940006F49304606F0D2F8002862D104F16000E9
:1029500005F043FE0646A0F57A726A4B9A4265D8A6
:102960000024694B9D4265D0684B9D4273D0684BF3
:102970009D4200F08180284603F059FB654B6B6057
:102980000023AB604FF480422A616B61AB61EB6165
:102990002B62002C40F081806E60EC60284603F0D2
:1029A00059FA002840F08280002C00F083802846ED
:1029B00004F054F9324641465748FEF74DFA1021CB
:1029C000284604F09AFF0021284604F0B7FF002CA7
:1029D00076D1524B03F80940494A39465048FEF730
:1029E0003BFA002C00F0848031464E48FEF734FA62
:1029F00008E04D48FEF7A8F94C48FEF7A5F94C4809
:102A0000FEF7A2F905B0BDE8F0834A48FEF79CF94D
:102A1000F8E74948FEF798F9F4E71022014604F177
:102A2000600005F059FE064601249AE74348FEF788
:102A30008BF9E7E700230193414B1A6C42F4001233
:102A40001A641B6C03F400130193019B3D4828603A
:102A5000FFF71CFF8FE700230293394B1A6C42F4F7
:102A600080021A641B6C03F480030293029B3648B5
:102A70002860FFF70BFF7EE700230393304B1A6CAF
:102A800042F400021A641B6C03F400030393039BDB
:102A90002E482860FFF7FAFE6DE77300EB604FF4F5
:102AA000807200212A4806F019F877E72948FEF7D6
:102AB0004BF9A7E7324641462748FEF7CDF97EE7B6
:102AC000002201211F2005F067FC1F2005F074FC87
:102AD00000220121202005F05FFC202005F06CFC85
:102AE000284604F0BBF80D4B03F80940034A74E78D
:102AF00031461A48FEF7B0F984E700BFF8A700088E
:102B000020A800089816060058030020040300209F
:102B1000B0020020A0860100B0AD0008AC02002089
:102B2000F8AD000818AE000898AC0008D8AC000852
:102B30000CAD000844AD000828A800086CAD0008E2
:102B4000003802400054004000580040005C004043
:102B50006C01002094AD0008D8AD00082CAE000830
:102B600070B590F820317BB100F120042046FFF7CA
:102B700069FE064660B1036853B121461548FEF769
:102B80006BF90124002509E01348FEF7DDF802E0A7
:102B90001248FEF7D9F870BD0134A4B27F2C0FD8CB
:102BA000610089B202231A46304603F0EFFE002886
:102BB000F2D121460A48FEF74FF90135EDB2EBE7B5
:102BC0001DB90848FEF7C0F8E5E729460648FEF7B4
:102BD00043F9E0E78CAE000840AE000858AE0008AC
:102BE000A4AE0008C0AE0008D4AE00082DE9F04342
:102BF000B3B090F82031022B1FD9054600F1200414
:102C0000204605F0EAFC431E1F46022B1ED8204634
:102C1000FFF718FE8046E8B10368DBB110220021FF
:102C200005F1400005F058FD83B29946802200214D
:102C300012A805F053FF02241DE02A48FEF784F88D
:102C40002948FEF781F833B0BDE8F0832748FEF746
:102C50007BF8F8E72648FEF777F8F4E712AE30463F
:102C6000FDF7ECFA234B1B883352013405EB44117A
:102C700012A805F059FF95F82031A34202DD022C7D
:102C8000F3DDEBE7402202A912A8FDF7E9FF0446B5
:102C900098B1194BDB5DA3B11848FEF755F841F226
:102CA0008833224602A9404603F020FC0146A9B918
:102CB00021461348FEF7D0F8C5E71248FEF744F85E
:102CC000C1E74B46590089B24FF47A73009303462B
:102CD00002AA404603F0C4F90146E8E70A48FEF7B5
:102CE000BBF8B0E7F8AE000824AF000848AF000812
:102CF00068AF00085CA20008AC02002088AF0008A2
:102D0000A8AF000874A90008C8AF0008F0B595B0D6
:102D100090F82031022B31D9044600F120031D46E2
:102D2000184605F05AFC431E1E46022B2ED8284694
:102D3000FFF788FD054668B303685BB310220021E6
:102D400004F1400005F0C8FC83B21F4604F16000A6
:102D500005F043FC84B2402C00D9402441220021DC
:102D600003A805F0BBFE224B9B5DDBB1284603F0B8
:102D700075FF98B91F48FDF7E7FF05E01E48FDF70E
:102D8000E3FF1E48FDF7E0FF15B0F0BD1C48FDF75E
:102D9000DBFFF9E71B48FDF7D7FFF5E71A48FDF71A
:102DA000D3FFF1E7780081B24FF47A7300932346A2
:102DB00003AA284603F014FA0146A8B9254621467D
:102DC0001248FEF749F8002408E004F150036B4470
:102DD00013F8441C0E48FEF73FF80134A542F4DC1A
:102DE0000C48FDF7B1FFCFE70B48FEF735F8CBE70E
:102DF000AC02002050B00008ECAF000814B000088E
:102E000048AF000868AF000834B0000870B0000890
:102E1000E0A30008B89D000884B0000838B590F819
:102E20002031012B14D9044600221146203005F030
:102E3000CBFC05460022114604F1400005F0C4FC1D
:102E4000C2B2E9B2044B5A540448FEF705F838BD43
:102E50000348FDF779FFFAE76C010020CCB00008C9
:102E6000A8B0000838B590F82031012B15D90446D8
:102E700000221146203005F0A7FCC5B2C5F58072CE
:102E800092B20849294404F14000FDF7E9FE0146E9
:102E90002A460548FDF7E0FF38BD0448FDF754FF1A
:102EA000FAE700BF6C01002014B10008E8B0000888
:102EB0002DE9F041A6B090F82031032B44D9044607
:102EC0002030FFF7BFFC0546002844D00368002BE4
:102ED00041D01022002104F1400005F0FDFB8046A6
:102EE00083B21F46402216A904F16000FDF7B8FE28
:102EF000064604F1800005F070FB84B2402C00D936
:102F000040244122002105A805F0E8FD012E26D02D
:102F1000022E34D07B009BB219461F464FF47A73C1
:102F20000093334616AA284603F09AF80146002873
:102F300039D14FF47A730093234605AA39462846BF
:102F400003F04EF901462DE02648FDF7FDFE264828
:102F5000FDF7FAFE2AE02548FDF7F6FE26E07900A7
:102F600089B24FF47A730293019405AB0093012365
:102F70009DF85820284603F085FB014612E09DF895
:102F800058009DF85920790089B24FF47A73029362
:102F9000019405AB0093102342EA0022284603F077
:102FA00071FB014629B11248FDF756FF26B0BDE876
:102FB000F08125461FFA88F221460E48FDF74CFFA6
:102FC000002408E004F198036B4413F8841C0A48B9
:102FD000FDF742FF0134A542F4DC0848FDF7B4FEDA
:102FE000E4E700BF40B1000880B1000868AF000806
:102FF000DCB10008BCB10008E0A30008B89D0008DF
:1030000070B58CB03048FDF79FFE304C04F1600382
:1030100093E807000CAB03E9070006AB04F16C0270
:1030200007CA83E807006D4678340FCC0FC594E8D3
:10303000030085E80300002410E0254A21E0254A2A
:103040002548FDF709FF0CAB03EBC40353F82C2C08
:1030500053F8301C2148FDF7FFFE0134022C31DC0F
:103060000CAB03EB840353F8185C2B680BB31C4BBD
:103070001E5D0CAB03EB840353F80C1C002EDCD05C
:10308000184A1948FDF7E8FE3EB1E96849082B697E
:10309000B3F5404FD3D0154AD2E769682B69B3F531
:1030A000404F04D0114A1248FDF7D6FECBE7094A3B
:1030B000F9E70CAB03EB840353F80C1C0D48FDF748
:1030C000CBFECAE70CB070BD14B20008C89C000863
:1030D00020A8000804B2000840B2000884B200082A
:1030E000AC020020F8A7000824B200080CB20008C7
:1030F00060B2000880AC000808B54248FDF724FE25
:103100004148FDF721FE4148FDF71EFE4048FDF70E
:103110001BFE4048FDF718FE3F48FDF715FE3F48EF
:10312000FDF712FE3E48FDF70FFE3E48FDF70CFE90
:103130003D48FDF709FE3D48FDF706FE3C48FDF71A
:1031400003FE3C48FDF700FE3B48FDF7FDFD3B4814
:10315000FDF7FAFD3A48FDF7F7FD3A48FDF7F4FDB3
:103160003948FDF7F1FD3948FDF7EEFD3848FDF728
:10317000EBFD3848FDF7E8FD3748FDF7E5FD37483A
:10318000FDF7E2FD3648FDF7DFFD3648FDF7DCFDD3
:103190003548FDF7D9FD3548FDF7D6FD3448FDF734
:1031A000D3FD3448FDF7D0FD3348FDF7CDFD33485E
:1031B000FDF7CAFD3248FDF7C7FD3248FDF7C4FDF3
:1031C0003148FDF7C1FD3148FDF7BEFD3048FDF740
:1031D000BBFD3048FDF7B8FD2F48FDF7B5FD2F4882
:1031E000FDF7B2FD2E48FDF7AFFD2E48FDF7ACFD13
:1031F0002D48FDF7A9FD2D48FDF7A6FD2C48FDF74C
:10320000A3FD08BDB89D00089CB20008C0B200082C
:10321000D4B200081CB300084CB3000890B30008F7
:10322000BCB30008E8B3000818B4000844B40008B0
:1032300080B4000894B40008C0B40008E4B40008E6
:1032400010B5000834B5000868B500087CB5000862
:10325000C4B50008F0B5000824B600085CB6000844
:1032600080B60008B4B60008E8B600081CB700082D
:1032700030B7000874B70008A8B70008E0B7000826
:1032800014B8000854B8000890B80008A4B80008A2
:10329000D4B8000800B9000830B900085CB90008CB
:1032A00070B90008A4B90008DCB900080CBA00081D
:1032B00048BA000808B506490648FDF7CDFD06489E
:1032C000FDF742FD054A06490648FDF7C5FD08BD64
:1032D00094BA00089CBA0008B4BA0008D8BA00082A
:1032E000E4BA0008F0BA000808B52148FDF72CFD43
:1032F00005F0C6F801461F48FDF7AEFD1E4B5968A4
:103300001E48FDF7A9FD1E48FDF71EFD1D4B1B6B5A
:1033100013F0010F17D11B4B1B6B13F0020F16D1CB
:10332000184B1B6B13F0040F15D1164B1B6B13F0CE
:10333000080F14D1134B1B6B13F0100F13D112484D
:10334000FDF702FD08BD1148FDF7FEFCE3E710485C
:10335000FDF7FAFCE4E70F48FDF7F6FCE5E70E4859
:10336000FDF7F2FCE6E70D48FDF7EEFCE7E700BFEE
:1033700000BB00081CBB00081401002030BB000883
:1033800048BB000800380240B89D000864BB000834
:1033900070BB00087CBB000888BB000894BB000819
:1033A00008B50448FDF7D0FC642005F06FF8FDF780
:1033B000AFFA00BFA0BB00082DE9F04393B090F82E
:1033C0002031022B2CD905462030FDF7A3FB074600
:1033D00098B30368ABB305F14003994605F160006B
:1033E00005F0FBF8044695F82031032B2DD84FF457
:1033F000FA7801AD4B46254A4221284605F0B2FA3B
:103400002846FCF71BFFC6B22CB32246434649466A
:103410001F48FDF721FD1F48FDF796FC002520E021
:103420001D48FDF791FC1D48FDF78EFC1C48FDF77B
:103430008BFC1C48FDF788FC25E01B48FDF784FC4D
:1034400021E01A48FDF780FC1DE005F1800005F041
:10345000C4F88046CDE74FF0FF32D7E7404605F08D
:1034600015F80CB1A5420AD26423324601A93846A8
:1034700000F052FD0135002CF0D0AC42EED82946C8
:103480000B48FDF7E9FC13B0BDE8F08368BC000809
:1034900070BC00089CBC0008B0BB0008E8BB00087A
:1034A00010BC00083CBC0008A4A1000828A2000829
:1034B000C0BC000800B5CBB001A9FDF7E1FC78B1B4
:1034C0009DF8043063B1854901A8FCF7ADFE20B139
:1034D000834901A8FCF7A8FE20B901A8FDF75EFD0D
:1034E0004BB000BD7F4901A8FCF79EFE20B17E498C
:1034F00001A8FCF799FE18B901A8FDF7F5FDEFE763
:103500007A4901A8FCF790FE20B1794901A8FCF79F
:103510008BFE18B901A8FDF775FEE1E7754901A812
:10352000FCF782FE20B1744901A8FCF77DFE18B9B2
:1035300001A8FDF713FFD3E7704901A8FCF774FE5B
:1035400020B16F4901A8FCF76FFE18B901A8FDF77B
:103550002FFFC5E76B4901A8FCF766FE20B16A4959
:1035600001A8FCF761FE18B901A8FDF74BFFB7E70A
:10357000664901A8FCF758FE20B1654901A8FCF78F
:1035800053FE18B901A8FDF76FFFA9E7614901A82B
:10359000FCF74AFE20B1604901A8FCF745FE18B9C6
:1035A00001A8FDF797FF9BE75C4901A8FCF73CFEEB
:1035B00020B15B4901A8FCF737FE18B901A8FEF756
:1035C00045F88DE7574901A8FCF72EFE20B1564972
:1035D00001A8FCF729FE18B901A8FEF765F97FE7F5
:1035E000524901A8FCF720FE20B1514901A8FCF77F
:1035F0001BFE18B901A8FEF71DFA71E74D4901A895
:10360000FCF712FEB8B14C4901A8FCF70DFEB0B1B1
:103610004A4901A8FCF708FEA8B1494901A8FCF7EE
:1036200003FE20B1474901A8FCF7FEFD78B901A8C7
:10363000FFF7C2FE54E701A8FEF70EFB50E701A812
:10364000FEF72CFB4CE701A8FEF7B0F848E73E492F
:1036500001A8FCF7E9FD20B13C4901A8FCF7E4FD15
:1036600018B901A8FEF79EFB3AE7394901A8FCF713
:10367000DBFD20B1374901A8FCF7D6FD18B901A838
:10368000FEF778FD2CE7344901A8FCF7CDFD20B109
:10369000324901A8FCF7C8FD18B901A8FEF712FECF
:1036A0001EE72F4901A8FCF7BFFD20B12D4901A855
:1036B000FCF7BAFD18B901A8FEF79EFE10E72A49EB
:1036C00001A8FCF7B1FD28B1284901A8FCF7ACFD21
:1036D00000284DD101A8FEF753FF01E7D8BC000830
:1036E000E4BC0008E8BC0008F4BC0008F8BC000812
:1036F00004BD000808BD000814BD000818BD00087E
:1037000020BD000824BD000830BD000834BD0008FD
:1037100040BD000844BD000850BD000854BD00086D
:1037200060BD000864BD00088CBE000870BD0008C4
:103730007CBD000880BD00088CBD000898BD000855
:10374000A4BD0008F09E0008B0BD0008BCBD000884
:10375000C0BD0008CCBD0008D0BD0008DCBD00081D
:10376000E0BD0008F0BD0008F4BD0008FCBD000885
:10377000524901A8FCF758FD68B1514901A8FCF76E
:1037800053FD20B14F4901A8FCF74EFD38B901A8FF
:10379000FFF7B4F8A4E601A8FEF7B8FFA0E64A498F
:1037A00001A8FCF741FD20B1484901A8FCF73CFD08
:1037B00018B901A8FFF7D4F992E6454901A8FCF72A
:1037C00033FD20B1434901A8FCF72EFD18B901A82B
:1037D000FFF70CFA84E6404901A8FCF725FD20B16B
:1037E0003E4901A8FCF720FD18B901A8FFF78EFAA1
:1037F00076E63B4901A8FCF717FD20B1394901A83D
:10380000FCF712FD18B901A8FFF752FB68E636492C
:1038100001A8FCF709FD20B1344901A8FCF704FD1B
:1038200018B901A8FFF7FAFA5AE6314901A8FCF7DE
:10383000FBFC20B12F4901A8FCF7F6FC18B901A840
:10384000FFF710FB4CE62C4901A8FCF7EDFC18B97A
:1038500001A8FFF7D5FB43E6284901A8FCF7E4FCE3
:1038600020B1274901A8FCF7DFFC18B901A8FFF730
:1038700043FC35E6234901A8FCF7D6FC20B12249D8
:1038800001A8FCF7D1FC18B901A8FFF713FD27E642
:103890001E4901A8FCF7C8FC18B901A8FFF724FDD0
:1038A0001EE61B4901A8FCF7BFFC10B901A8FFF7F1
:1038B00077FD01A91748FDF7CFFA11E600BE000811
:1038C0000CBE000818BE00081CBE000828BE000878
:1038D0002CBE000838BE00083CBE000848BE0008E8
:1038E0004CBE00085CBE000860BE00086CBE00084C
:1038F00070BE000880BE000884BE000890BE0008AC
:1039000098BE00089CBE0008A4BE000888BE00083F
:10391000A8BE0008B0BE000808B501290BD00A4BAC
:103920001978C1F58072202392B2DFF828C0614473
:1039300003F0F0F808BD054B00221A7001231A4667
:10394000034903F039F9F5E76A010020600100201E
:103950006C0200206C01002008B50F4B1B786BB97E
:103960000E4B19780E4B197001220B4B1A70042361
:10397000DFF830C0614403F01FF908BD084B197827
:103980000131C9B2197004230122DFF818C0614463
:1039900003F012F9F1E700BF600100206C02002083
:1039A0006A0100206C010020704708B503F056F949
:1039B00008BD08B503F052F908BD000008B502685B
:1039C000164B9A4200D008BD154B1B78154A127849
:1039D00082B903F07F03144A1370124A0121117057
:1039E000124AD25C124B1A7001230D4A104901F0A1
:1039F000C7F9E8E70C4A1378013303F07F0313702B
:103A00000A4AD15C0A4A11707A2BEDD1074A92F822
:103A10007A30013382F87A30E6E700BF00300140A7
:103A200064010020620100206A0100206C01002076
:103A300068010020102800D0704708B50A4B1B69A8
:103A400013F0100F00D008BD0023084A1370084A75
:103A50001370084801F0FEF90123074A044905489C
:103A600001F08EF9EFE700BF000002406201002084
:103A7000680100200C05002064010020064B1B6932
:103A800013F0100F07D0054B00221A70044B93F867
:103A9000D020044B1A7070470000024062010020E1
:103AA0006C0100206801002038B504F0E9FC294BC6
:103AB0001B68C01AB0F5FA7F0DD94FF400512648A3
:103AC00004F09BFB04F0DCFC224B186003E0234B6A
:103AD00093F88030EBB9FCF72DFF002837D0FCF7C6
:103AE00037FF0D28F3D00A28F1D0082822D07F28EC
:103AF00020D0A0F12003DBB25E2BECD8174B93F85B
:103B000080307E2BE7D8154A591C82F88010D0549B
:103B1000E1E71348FDF718F9104C94F880300025C0
:103B2000E5542046FFF7C6FC84F880500D48FDF7A9
:103B30000BF9D0E7094B93F88030002BCBD0013B39
:103B4000064A82F880300848FDF7FEF8C3E7FFF721
:103B500095FF38BD5C01002000080240840600206B
:103B6000B89D0008D0BE0008D4BE00080268074B0C
:103B70009A4200D0704710B5044601F073FB012350
:103B8000034A0449204601F0FBF810BD0030014013
:103B90006401002068010020FEE7FEE7FEE7FEE783
:103BA000FEE770477047704708B504F05DFC08BD3C
:103BB00008B5024800F006FB08BD00BF1401002054
:103BC00008B5024800F0FEFA08BD00BFCC00002096
:103BD00008B5024800F0F6FA08BD00BF84000020D6
:103BE00008B54FF40051034804F007FB024803F006
:103BF0004BFD08BD000802405803002008B50248EC
:103C000003F01AFE08BD00BF5803002008B51020BD
:103C100004F0FCFA08BD000008B5024801F082FA81
:103C200008BD00BF0C05002000B583B00021009145
:103C30000C4B5A6C42F480425A645A6C02F4804233
:103C40000092009A01911A6C42F080521A641B6C27
:103C500003F080530193019B072004F08BFB03B01A
:103C600000BD00BF00380240026802F10C0353E8B7
:103C7000003F23F490730C3242E800310029F3D165
:103C8000026802F1140353E8003F23F001031432E9
:103C900042E800310029F3D1036B012B05D020232A
:103CA00080F84230002303637047026802F10C037E
:103CB00053E8003F23F010030C3242E800310029A2
:103CC000F3D1ECE790F84130212B01D0022070476E
:103CD0008368B3F5805F17D0036A5A1C02621A78B2
:103CE00003685A60C38C9BB2013B9BB2C3844BB93F
:103CF0000268D36823F08003D3600268D36843F07E
:103D00004003D360002070470369002BE4D1036AAD
:103D10001B880268C3F308035360036A023303621B
:103D2000E0E7000010B504460268136923F440532D
:103D3000C1680B431361836802691A4343691A43DC
:103D4000C3691A430168CB6823F4164323F00C03BC
:103D50001343CB600268536923F4407381690B43BA
:103D600053610368314A934206D002F58062934260
:103D700002D004F025F901E004F032F9E369B3F56B
:103D8000004F29D00021031849411B1841F10001BF
:103D9000C90041EA5371DB00181863684FEA8302D7
:103DA0004FEA937341F10001FCF7A2FA204AA2FB0B
:103DB00000314909642303FB11031B013233A2FBC9
:103DC00003235B0903F0F00202EB011203F00F037F
:103DD000216813448B6010BD0023021843EB0301DC
:103DE000121841F10001C90041EA5271D2001018C5
:103DF00041F10001626892185B41FCF779FA0C4AC4
:103E0000A2FB00314909642303FB1103DB003233B9
:103E1000A2FB03235B095A0002F4F87202EB0112C1
:103E200003F00703216813448B60D4E700100140BE
:103E30001F85EB512DE9F04182B004460D46164630
:103E40009846089F23681B6835EA03030CBF4FF0B0
:103E5000010C4FF0000CB44526D1B7F1FF3FF1D073
:103E600004F00EFB4346C01AB84221D817B32368AA
:103E7000DA6812F0040FE5D0802DE3D0402DE1D0B8
:103E80001A6812F0080FDDD0002501951A6801921A
:103E90005B680193019B2046FFF7E6FE08236364FD
:103EA00084F84050012000E0002002B0BDE8F0811D
:103EB0000320FAE70320F8E760B310B5044690F852
:103EC000413013B3242384F841302268D36823F4AB
:103ED0000053D3602046FFF725FF2268136923F4BF
:103EE000904313612268536923F02A0353612268C7
:103EF000D36843F40053D36000206064202384F827
:103F0000413084F84230606310BD80F84030FCF7E7
:103F100057FCD7E7012070472DE9F04184B01E46D9
:103F200090F84130202B57D104460D46002957D038
:103F300003920AB9012050E000234364212380F852
:103F4000413004F09DFA0746039BA384E384A368F1
:103F5000B3F5805F02D00023984616E023693BB397
:103F60000023984611E0202384F84130032034E0F8
:103F7000424632F8023B90462268C3F3080353607E
:103F8000E28C92B2013A92B2E284E38C9BB293B19A
:103F900000963B46002280212046FFF74BFF002879
:103FA000E1D1002DE4D015F8012B23685A60E7E732
:103FB000A8461D46E9E700963B46002240212046E0
:103FC000FFF738FF18B9202384F8413005E020239B
:103FD00084F84130032000E0022004B0BDE8F08105
:103FE0000120FAE72DE9F04182B01E4690F84230F8
:103FF000202B5AD104460D461746002959D00AB93C
:10400000012053E000234364222280F8422003630E
:1040100004F036FA8046A785E785A368B3F5805F8C
:1040200002D000231F461CE02369002B35D000235B
:104030001F4616E0202384F84230032036E0236830
:104040005B68C3F308033A4622F8023B174603E0D5
:1040500023685B682B700135E28D92B2013A92B20F
:10406000E285E38D9BB2DBB100964346002220211E
:104070002046FFF7DFFE0028DCD1002DDFD0A3684B
:10408000B3F5805FE4D013B92369002BE0D0236837
:104090005B6803F07F032B70DDE72F461D46E0E7EA
:1040A000202384F84230002000E0022002B0BDE866
:1040B000F0810120FAE7704708B50168CA6822F06C
:1040C0004002CA60202280F84120FFF7F4FF002060
:1040D00008BD704708B5806B0023C385FFF7F9FF63
:1040E00008BD704790F84230222B67D18368B3F542
:1040F000805F4DD0826AB3F5805F04D0002B54D12D
:104100000369002B51D103685B681370836A013324
:104110008362C38D9BB2013B9BB2C385002B4FD101
:1041200000B583B00268D36823F02003D36002682F
:10413000D36823F48073D3600268536923F00103CA
:104140005361202380F8423000234363036B012B2B
:1041500031D100230363026802F10C0353E8003FEE
:1041600023F010030C3242E800310029F3D1036838
:104170001A6812F0100F05D001911A6801925B685D
:104180000193019B818DFFF7ACFF002003B000BDC0
:104190000269002AAED1826A03685B68C3F3080330
:1041A0001380836A02338362B3E703685B6803F0BA
:1041B0007F031370AAE7FCF797FDE6E7022070473C
:1041C0000020704710B582B0044602681368D068BA
:1041D000516913F00F0F09D113F0200F0CD010F01C
:1041E000200F09D02046FFF77DFF16E011F00101F6
:1041F00015D110F4907F12D1216B012979D013F0E1
:10420000800F03D010F0800F40F01F8113F0400F9B
:1042100003D010F0400F40F01C8102B010BD13F02D
:10422000010F06D010F4807F03D0626C42F00102CF
:10423000626413F0040F04D019B1626C42F0020200
:10424000626413F0020F04D019B1626C42F00402F0
:10425000626413F0080F07D010F0200F00D119B1DD
:10426000626C42F008026264626C002AD5D013F0DE
:10427000200F02D010F0200F29D123685B6903F0D2
:104280004003626C12F0080F00D163B32046FFF7C1
:10429000EBFC23685B6913F0400F20D0226802F129
:1042A000140353E8003F23F04003143242E8003186
:1042B0000029F3D1E36B73B1684A1A65E06B03F030
:1042C000FDFF0028A9D0E06B036D9847A5E72046C5
:1042D000FFF708FFD1E72046FFF7FBFE9DE72046EA
:1042E000FFF7F7FE99E72046FFF7F3FE002363642C
:1042F00093E713F0100F82D010F0100F3FF47FAF50
:10430000002301931368019353680193019B536940
:1043100013F0400F5ED0E26B13685B689BB2002B1A
:1043200049D0A18D994246D9E385D369B3F5807F01
:1043300036D0226802F10C0353E8003F23F4807367
:104340000C3242E800310029F3D1226802F1140353
:1043500053E8003F23F00103143242E80031002902
:10436000F3D1226802F1140353E8003F23F0400325
:10437000143242E800310029F3D1202384F842307E
:104380002163226802F10C0353E8003F23F010037D
:104390000C3242E800310029F3D1E06B03F044FF16
:1043A00002236363A18DE38D9BB2C91A89B22046B3
:1043B000FFF797FE31E7A18D99427FF42EAFD369C5
:1043C000B3F5807F7FF429AF022363632046FFF7B4
:1043D00088FE22E7A18DE38D9BB2C91A89B2E38DD5
:1043E0009BB2002B3FF419AF00293FF416AF2268AF
:1043F00002F10C0353E8003F23F490730C3242E8BF
:1044000000300028F3D1226802F1140353E8003F82
:1044100023F00103143242E800300028F3D12023B6
:1044200084F842302063226802F10C0353E8003F15
:1044300023F010030C3242E800300028F3D10223AD
:1044400063632046FFF74DFEE7E62046FFF73AFCA0
:10445000E3E62046FFF730FEDFE600BFD540000868
:1044600081628285C28500234364222380F8423022
:10447000036923B10268D36843F48073D360026890
:10448000536943F0010353610268D36843F020038A
:10449000D3600020704708B590F84230202B08D137
:1044A00049B10AB9012008BD00230363FFF7D8FF13
:1044B000F9E70220F7E70120F5E7000082B00023CA
:1044C0000193164B1B68164AA2FB03235B0A642266
:1044D00002FB03F30093009B43B1009B013B00935D
:1044E00003689B6813F0020FF5D003E0436D43F0BF
:1044F000400343650268136823F0400313600268B9
:10450000536823F0E00353600368DB680193019B69
:10451000072380F8513002B0704700BF0800002028
:10452000F11976050268536823F08003536002682E
:10453000136823F040031360072380F8513070475D
:104540002DE9F04383B004460F4616461D4603F09E
:1045500097FF0A9B1B1A03EB050803F091FF8146A6
:10456000284B1B68C3F3CB3308FB03F30193236889
:104570009B6837EA03030CBF01230023B3423DD0FD
:10458000B5F1FF3FF3D003F07BFF4B46C01A404527
:1045900003D2019B73BB9846E9E72268536823F076
:1045A000E00353606368B3F5827F0BD0A36AB3F571
:1045B000005F14D0012384F85130002384F8503078
:1045C00003201CE0A368B3F5004F02D0B3F5806F61
:1045D000ECD12268136823F040031360E6E72268F9
:1045E000136823F4005313602268136843F40053E4
:1045F0001360DFE7019B013B0193B8E7002003B0A4
:10460000BDE8F0830800002070B584B004460B4676
:104610000D461646009201220221FFF791FFD0B904
:10462000174B1B68174AA2FB03235B0D4FF47A72EA
:1046300002FB03F303936368B3F5827F11D0039BFE
:104640003BB1039B013B039323689B6813F0800FEE
:10465000F5D104B070BD636D43F0200363650320A2
:10466000F7E700962B46002280212046FFF768FFDF
:104670000028EED0636D43F0200363650320E8E774
:1046800008000020819F5E1610B582B004460B46DC
:104690004168B1F5827F14D06168B1F5827F2AD17B
:1046A000A168B1F5806F19D00092002280212046C8
:1046B000FFF746FF30B3636D43F0200363650320CB
:1046C00020E08168B1F5004F02D0B1F5806FE3D1F1
:1046D0002068016821F040010160DDE700920022BE
:1046E00001212046FFF72CFF60B1636D43F02003EA
:1046F0006365032006E00092002201212046FFF7B7
:104700001FFF08B902B010BD636D43F0200363655D
:104710000320F7E7704700285AD010B50446436AD3
:1047200033B94368B3F5827F05D00023C36102E04B
:104730000023036143610023A36294F85130002BEE
:1047400040D0022384F851302268136823F04003DC
:104750001360636803F48273A26802F40442134393
:10476000E26802F400621343226902F0020213437A
:10477000626902F001021343A26902F4007213435A
:10478000E26902F038021343226A02F08002134306
:10479000A26A02F40052216813430B60638B03F09A
:1047A0000403626A02F01002216813434B6022681E
:1047B000D36923F40063D36100206065012384F88A
:1047C000513010BD84F850302046FFF7A3FFB8E702
:1047D000012070472DE9F04383B004468946904696
:1047E0001D4603F04DFE94F85130012B40F0CD8072
:1047F0000646DFB24946002900F0C8804246002A3A
:1048000000F0C48094F85030012B00F0C3800123E5
:1048100084F85030032384F8513000236365C4F8D2
:104820003090A4F83480A4F83680A363A387E3878C
:1048300063642364A368B3F5004F1ED023681A682D
:1048400012F0400F03D11A6842F040021A60E36888
:10485000B3F5006F1CD0636813B14346012B5FD1E1
:10486000226B236812781A73236B01332363E38E60
:104870009BB2013B9BB2E38652E02268136823F0AF
:10488000400313602268136843F480431360D5E744
:10489000636813B14346012B15D1226B236812883C
:1048A000DA60236B02332363E38E9BB2013B9BB23E
:1048B000E38608E003F0E4FD801BA84202D3B5F1D3
:1048C000FF3F15D1A5B1E38E9BB2002B42D02368E8
:1048D0009A6812F0020FEDD0226B1288DA60236B17
:1048E00002332363E38E9BB2013B9BB2E386EAE78C
:1048F000012384F85130002384F85030032745E029
:10490000226B12781A73236B01332363B4F836C019
:104910001FFA8CFC0CF1FF3C1FFA8CFCA4F836C08B
:10492000E38E9BB2B3B123689A6812F0020FE7D10D
:1049300003F0A6FD801BA84202D3B5F1FF3F01D1D1
:10494000002DEDD1012384F85130002384F850303C
:1049500003271BE0324629462046FFF755FE08B1E3
:1049600020236365A36833B901932368DA68019251
:104970009B680193019B012384F85130002384F844
:104980005030636D13B91F4600E00227384603B06C
:10499000BDE8F0830227F9E72DE9F04383B0044630
:1049A0000F46914698460A9D03F06AFD064694F824
:1049B00051306268012B0BD0D9B2B2F5827F40F042
:1049C0000D81A368002B40F00D81042940F00C817B
:1049D000002F00F00B814B46002B00F0098143466D
:1049E000002B00F0078194F85030012B00F0048177
:1049F000012384F8503094F85130042B02D0052361
:104A000084F8513000236365C4F83890A4F83E80E0
:104A1000A4F83C802763A4F83680A4F8348023648B
:104A2000636423681A6812F0400F03D11A6842F0D9
:104A300040021A60E368B3F5006F13D0636813B1E6
:104A40004346012B0BD1226B236812781A73236B18
:104A500001332363E38E9BB2013B9BB2E3860123C8
:104A60001F4674E0636813B14346012B0BD1226BE0
:104A700023681288DA60236B02332363E38E9BB2D0
:104A8000013B9BB2E38601231F461BE0226893682B
:104A900013F001030ED0E18F89B259B1D168A26B36
:104AA0001180A26B0232A263E28F92B2013A92B2FB
:104AB000E2871F4603F0E4FC801BA84202D3B5F155
:104AC000FF3F1FD1E38E9BB21BB9E38F9BB2002B3C
:104AD00064D023689A6812F0020FD7D0E28E92B2A7
:104AE000002AD3D0002FD1D0226B1288DA60236B3A
:104AF00002332363E38E9BB2013B9BB2E386002328
:104B00001F46C3E7012384F85130002384F8503056
:104B1000032064E02268936813F001030ED0E18F54
:104B200089B259B1D168A26B1170A26B0132A26334
:104B3000E28F92B2013A92B2E2871F4603F0A0FCE4
:104B4000831BAB4202D3B5F1FF3F1FD1F5B1E38E1A
:104B50009BB213B9E38F9BB203B323689A6812F038
:104B6000020FD7D0E28E92B2002AD3D0002FD1D03C
:104B7000226B12781A73236B01332363E38E9BB28B
:104B8000013B9BB2E38600231F46C3E7012384F861
:104B90005130002384F85030032020E0324629466B
:104BA0002046FFF731FD90B9A36833B9019323681C
:104BB000DA6801929B680193019B012384F85130CC
:104BC000002384F85030636D4BB1012007E02023AF
:104BD0006365002384F85030012000E0022003B018
:104BE000BDE8F0830220FAE70220F8E70120F6E7AB
:104BF0000120F4E70120F2E70220F0E72DE9F0437D
:104C000083B01D4690F85130012B40F0B28004462D
:104C100088469146DEB2002900F0AC80002A00F000
:104C2000A9804368B3F5827F01D1836853B303F051
:104C300027FC074694F85030012B00F09F80012399
:104C400084F85030042384F8513000236365C4F89D
:104C50003880A4F83C90A4F83E902363A386E386B2
:104C600023646364A368B3F5004F15D023681A6802
:104C700012F0400F03D11A6842F040021A60E36854
:104C8000F3B143E0042380F85130009513460A46FF
:104C9000FFF782FE06466DE02268136823F04003AA
:104CA00013602268136823F480431360DEE703F087
:104CB000E7FBC01BA84202D3B5F1FF3F15D1A5B158
:104CC000E38F9BB2002B42D023689A6812F0010F49
:104CD000EDD0A26B1B7B1370A36B0133A363E38F37
:104CE0009BB2013B9BB2E387EAE7012384F8513092
:104CF000002384F8503003263CE003F0C1FBC01BC6
:104D0000A84202D3B5F1FF3F19D1C5B1E38F9BB2E1
:104D1000EBB123689A6812F0010FEED0DA68A36B4A
:104D20001A80A36B0233A363B4F83EC01FFA8CFC55
:104D30000CF1FF3C1FFA8CFCA4F83EC0E6E701230F
:104D400084F85130002384F85030032612E03A46AC
:104D500029462046FFF798FC08B12023636501230C
:104D600084F85130002384F85030636D13B91E4627
:104D700000E00226304603B0BDE8F0830226F9E7E2
:104D800030B5154690F851C0D0F804E0BCF1010FE1
:104D900009D05FFA8CF2BEF5827F44D18468002C82
:104DA00043D1042A43D1002943D0002D43D0002B06
:104DB00043D090F850C0BCF1010F40D04FF0010C2F
:104DC00080F850C090F851C0BCF1040F03D04FF0F0
:104DD000050C80F851C04FF0000CC0F854C00163BE
:104DE0008386C38685638387C387C368B3B1154B46
:104DF0000364154B436403681A6812F0400F03D133
:104E00001A6842F040021A60002380F850300168AE
:104E10004A6842F0E0024A60184605E00B4B036422
:104E20000B4B4364E7E7022030BD0220FCE7022081
:104E3000FAE70120F8E70120F6E70120F4E7022075
:104E4000F2E700BFED500008B55000087D500008A3
:104E50004550000810B584B004464A4B1B684A4AC6
:104E6000A2FB03235B0A642202FB03F30293029B6F
:104E700003930268536823F0200353600268536869
:104E800013F0800F11D0414B4364039B3BB1039B54
:104E9000013B039394F85130072BF6D103E0636D87
:104EA00043F040036365029B0393536813F0400F84
:104EB00011D0374B2364039B3BB1039B013B03930E
:104EC00094F85130072BF6D103E0636D43F04003B3
:104ED0006365029B0393536813F0020F1DD0A36C0C
:104EE000DBB100221A65A06C03F09EF908B14023E3
:104EF00063652268536823F002035360039B43B148
:104F0000039B013B039323689B6813F0020FF5D0CA
:104F100003E0636D43F04003636523685B6813F04F
:104F2000010F13D0E36C8BB100221A65E06C03F023
:104F30007BF908B1402363652268136823F04003BE
:104F400013602268536823F0010353600023E38752
:104F5000E386636D402B12D0002060650022009232
:104F60002368D968009199680091009901929B6823
:104F70000193019B012384F8513004B010BD01203E
:104F8000ECE700BF08000020F11976052545000870
:104F9000BD4400087047000010B582B00446274B9E
:104FA0001B68274AA2FB03235B0A642202FB03F36C
:104FB000019303F065FA024621684B6823F0200351
:104FC0004B60019B43B1019B013B019323689B68AC
:104FD00013F0020FF5D003E0636D43F02003636527
:104FE00064212046FFF710FB18B1636D43F02003E6
:104FF0006365A36833B900932368DA6800929B68FD
:105000000093009B636D93B994F85130042B07D043
:10501000012384F851302046FEF7D0FC02B010BDC9
:10502000012384F851302046FFF7B4FFF6E701234F
:1050300084F851302046FEF799FDEFE70800002084
:10504000F119760508B5026B036812781A73036BC1
:1050500001330363C38E9BB2013B9BB2C386C38EF5
:105060009BB23BB90268536823F080035360C38F3F
:105070009BB203B108BDFFF78FFFFBE708B50268DD
:10508000836B127B1A70836B01338363C38F9BB274
:10509000013B9BB2C387C38F9BB23BB90268536885
:1050A00023F060035360C38E9BB203B108BDFFF7CA
:1050B00073FFFBE708B5026B03681288DA60036BC5
:1050C00002330363C38E9BB2013B9BB2C386C38E84
:1050D0009BB23BB90268536823F080035360C38FCF
:1050E0009BB203B108BDFFF757FFFBE708B50368A4
:1050F000DA68836B1A80836B02338363C38F9BB23E
:10510000013B9BB2C387C38F9BB23BB90268536814
:1051100023F040035360C38E9BB203B108BDFFF779
:105120003BFFFBE710B584B0044602685168936802
:10513000C3F3801013F0400F05D113F0010F02D01C
:1051400011F0400F6DD113F0020F02D011F0800F5B
:105150006BD1C3F3401C13F0200F03D110B913F42B
:10516000807F65D011F0200F62D070B194F85100AB
:1051700003285FD0606D40F004006065002000905F
:10518000D0680090906800900098BCF1000F0CD09F
:10519000606D40F001006065002002909068029010
:1051A000106820F040001060029A13F4807F09D04C
:1051B000636D43F0080363650023039323689B68D2
:1051C0000393039B636D002B32D02268536823F056
:1051D000E0035360012384F8513011F0020F02D133
:1051E00011F0010F2ED02268536823F0030353609F
:1051F000E36C4BB1154A1A65E06C03F05FF818B127
:10520000636D43F040036365A36C8BB10F4A1A656D
:10521000A06C03F053F858B1636D43F0400363652D
:1052200006E0236C2046984702E0636C20469847CE
:1052300004B010BD00230193D368019393680193D8
:10524000019BF5E72046FEF791FCF1E7515200087B
:1052500008B5806B0023C387C386FEF787FC08BDB3
:105260007047000070B584B00446514B1B68514A2A
:10527000A2FB03235B0A642202FB03F30293029B5B
:1052800003930268536823F0200353600268536855
:1052900013F0800F11D0484B4364039B3BB1039B39
:1052A000013B039394F85130072BF6D103E0636D73
:1052B00043F040036365029B0393536813F0400F70
:1052C00011D03E4B2364039B3BB1039B013B0393F3
:1052D00094F85130072BF6D103E0636D43F040039F
:1052E0006365029B0393A36C2BB1526812F0020F0B
:1052F0001CD0334A1A65E36C33B12268526812F04D
:10530000010F16D02F4A1A6523685B6813F0020F4D
:1053100012D0A06C38B302F0D1FF38B3A36C0022D6
:105320001A654023636501231E4607E000221A65C3
:10533000E1E700221A65E7E701231E4623685B6860
:1053400013F0010F0AD0E06C40B102F0B7FF054640
:1053500030B1E36C00221A654023636546B93546D7
:10536000284604B070BD01231E46E7E70646E5E780
:105370000023E387E386636D402B15D0002363652C
:105380001D46002200922368D96800919968009117
:10539000009901929B680193019B012384F851308D
:1053A0002046FFF75DFFDBE701231D46E9E700BF6D
:1053B00008000020F119760525450008BD440008C5
:1053C00041540008C953000810B582B0846B2268AC
:1053D000136823F040031360E36C00221A6522680F
:1053E000536823F00103536003F04AF80246642136
:1053F0002046FFF709F918B1636D43F04003636578
:10540000A36C0BB11B6DC3B9E387E386636D402BBF
:1054100001D000236365002200922368D9680091BF
:1054200099680091009901929B680193019B012367
:1054300084F851302046FFF713FF02B010BD000082
:1054400000B585B0806B836C00221A651D4B1B680C
:105450001D4AA2FB03235B0A642202FB03F30393AE
:105460000268536823F002035360039B43B1039B1C
:10547000013B039303689B6813F0020FF5D003E030
:10548000436D43F040034365C36C0BB11B6DBBB967
:10549000C387C386436D402B01D0002343650022A0
:1054A00001920368D968019199680191019902926A
:1054B0009B680293029B012380F85130FFF7D0FED6
:1054C00005B000BD08000020F119760503685A698F
:1054D00012F0800F01D000221A61704790F83E3020
:1054E000402B10D00369B3F5804F1BD0036D002B08
:1054F00038D1436CC3F3C813026803F0060343F0CA
:10550000F00313617047036D2BB9436C026803F01D
:10551000FE0313617047436C026843F00103DBB282
:105520001361704790F83D30212B0FD0436C026817
:1055300043F00103DBB21361436B6BB1DB6B5BB117
:105540000268536843F4006353607047436C026819
:1055500003F0FE031361EFE7836B33B1DB6B002BCA
:10556000EED102E0036D012B00D07047436CC3F312
:10557000C813026803F0060343F0F1031361F4E774
:10558000436C0268DBB21361436B3BB1DB6B2BB145
:105590000268536843F4006353607047836B002BC9
:1055A000FBD0DB6B002BF3D1F7E78AB090F83E30ED
:1055B000C16AD0F830C090F83D20222A09D00023DB
:1055C000099303685A6909929B690993099B0AB078
:1055D0007047DBB2026D0AB9402B17D0036D1BB9BF
:1055E0000369B3F5404F19D0438D9BB2002B25D1F1
:1055F000029303685A6902929A690292029A1A689F
:1056000042F400721A6000230365E0E70092036829
:105610005A6900929B690093009BD8E7002301938D
:1056200003685A6901929A690192019A1A6842F4D0
:1056300080721A60036D01330365C8E7438D9BB226
:10564000012B25D0438D9BB2022B7CD002681368BE
:1056500043F48063136003685A6812F4006F0ED03D
:1056600011F5803F07D0012905D0082903D0102962
:1056700001D0202903D15A6842F480525A60002395
:10568000089303685A6908929B690893089BBAE7D4
:1056900011F5803F12D0082935D0202933D0BCF134
:1056A000120F2ED0042940D002293ED010293CD020
:1056B0000268136823F4806313603BE00268136898
:1056C00023F48063136003685A6812F4006F0CD0EF
:1056D0001A6822F480621A600023039303685A69EF
:1056E00003929B690393039B8DE7002204925A69FE
:1056F00004929A690492049A1A6842F400721A6039
:1057000081E70129D0D00268136823F48063136015
:105710000023069303685A6906929A690692069ACC
:105720001A6842F400721A606DE70268136843F465
:10573000806313600023059303685A6905929B698F
:105740000593059B5FE704290ED002290CD0102990
:105750000AD00268136823F4806313600268136838
:1057600043F40063136004E00268136843F4806349
:10577000136003685A6812F4006F0ED011F5803F71
:1057800007D0012905D0082903D0102901D02029EC
:1057900003D15A6842F480525A6000230793036889
:1057A0005A6907929B690793079B2CE7438D9BB22D
:1057B0005BB1426A036812781A61436A013343623B
:1057C000438D9BB2013B9BB243857047438D9BB297
:1057D0005BB103681A69436A1A70436A0133436212
:1057E000438D9BB2013B9BB24385704782B000233F
:1057F00001930E4B1B68DB080D4AA2FB03231B0A17
:1058000003EB83030193019B013B0193019B33B1A4
:1058100003681B6813F4007FF5D1002004E0036CDB
:1058200043F020030364012002B070470800002009
:1058300089B5F81403685A6912F4806F01D1002009
:1058400070476FF480625A6100230363202280F85E
:105850003D2080F83E30026C42F00402026480F881
:105860003C3001207047C36AB3F52A0F04D0C36AE5
:10587000B3F12A4F03D070470123C3627047082356
:10588000C362F8E72DE9F04106460C4617469846F4
:105890003BE002F0F5FD069BC01A404502D8B8F186
:1058A000000F32D1012D18D033689B6924EA03031D
:1058B0009BB2B3FA83F35B099F4226D10023336383
:1058C000202286F83D2086F83E30326C42F02002DD
:1058D000326486F83C30012027E033685B6924EAB3
:1058E00003039BB2B3FA83F35B09E5E733685B69B3
:1058F00024EA030C1FFA8CFCBCFA8CFC4FEA5C1CFB
:10590000674511D1B8F1FF3FC3D1C4F30745012D5D
:10591000ECD033689B6924EA030C1FFA8CFCBCFAB8
:105920008CFC4FEA5C1CEBE70020BDE8F0812DE920
:10593000F04104460D461746984652E01A6842F474
:1059400000721A6023686FF480625A610023236337
:10595000202284F83D2084F83E30226C42F004027C
:10596000226484F83C30012049E002F089FD43467E
:10597000C01AB84201D8002F33D1012E17D02368A6
:105980009B6925EA03039BB2003B18BF012343B385
:1059900000232363202284F83D2084F83E30226CCB
:1059A00042F02002226484F83C30012027E0236882
:1059B0005B6925EA03039BB2003B18BF0123E6E7BE
:1059C00023689B6925EA03039BB2003B18BF0123B0
:1059D000A3B123685A6912F4806FAFD1B7F1FF3FCA
:1059E000C3D1C5F30746012EEAD123685B6925EAD6
:1059F00003039BB2003B18BF0123E9E71846BDE84B
:105A0000F0810000F0B583B004460E4617461D46EF
:105A1000C36A082B0DD0012B0BD013F5803F08D0A3
:105A2000036B122B0AD10268136843F4807313606E
:105A300004E02268136843F48073136000953B46CA
:105A400000224FF001112046FFF71CFF80B92369A7
:105A5000B3F5804F16D1236806F0FE021A612B467B
:105A60003A4613492046FFF762FFF8B903B0F0BD8C
:105A700023681B6813F4807F02D04FF40073236403
:105A80000320F3E7F311226803F0060343F0F00369
:105A900013612B463A4607492046FFF748FF18B9DD
:105AA0002268F3B21361DAE70120DFE70120DDE7C6
:105AB00002000100080001002DE9F04184B0044615
:105AC0000E4617461D46C26A01680B6843F48063A0
:105AD0000B60082A0DD0012A0BD012F5803F08D0A8
