:020000040800F2
:100000000000022095850008A53B0008A73B0008DA
:10001000A93B0008AB3B0008AD3B00080000000016
:10002000000000000000000000000000AF3B0008DE
:10003000B13B000800000000B33B0008B53B0008DE
:10004000E5850008E5850008E5850008E5850008E8
:10005000E5850008E5850008E5850008E5850008D8
:10006000E5850008E5850008193C0008E5850008DD
:10007000E5850008E5850008E5850008E5850008B8
:10008000E5850008E5850008E5850008000000001A
:10009000000000000000000000000000E5850008EE
:1000A000E5850008E5850008E5850008E585000888
:1000B000E5850008E5850008E5850008ED3B0008BA
:1000C000093C0008E5850008E5850008253C000896
:1000D000E5850008BD3B0008CD3B0008000000009E
:1000E000E5850008E5850008E585000800000000BA
:1000F000000000000000000000000000E58500088E
:1001000000000000E5850008E5850008E585000899
:1001100000000000000000000000000000000000DF
:10012000E5850008E5850008E5850008E585000807
:10013000E58500080000000000000000000000004D
:10014000000000000000000000000000E58500083D
:10015000E5850008E5850008E5850008DD3B000829
:10016000E5850008E58500080000000000000000AB
:10017000000000000000000000000000000000007F
:1001800000000000E58500080000000000000000FD
:08019000E5850008E585000883
:1001A0000348044B834202D0034B03B11847704706
:1001B0006800002068000020000000000548064B91
:1001C0001B1AD90F01EBA301491002D0034B03B155
:1001D00018477047680000206800002000000000F9
:1001E00010B5064C237843B9FFF7DAFF044B13B17F
:1001F0000448AFF300800123237010BD6800002085
:1002000000000000BC9C000808B5044B1BB1044969
:100210000448AFF30080BDE80840CFE700000000CD
:100220006C000020BC9C000810F8012B11F8013B69
:10023000012A28BF9A42F7D0D01A7047034613F814
:10024000012B002AFBD1181A01387047000000006A
:1002500001F0FF01102A2BDB10F0070F08D010F877
:10026000013B013A8B422DD010F0070F42B3F6D17B
:10027000F0B441EA012141EA014122F007047FF094
:1002800000070023F0E80256083C85EA010586EAEB
:10029000010685FA47F5A3FA87F586FA47F6A5FA27
:1002A00087F68EB9EED1F0BC01F0FF0102F0070233
:1002B00032B110F8013B013A83EA010313B1F8D1DE
:1002C0000020704701387047002D06BF35460338BF
:1002D000073815F0010F07D1013015F4807F02BFF8
:1002E000013015F4C03F0130F0BC0138704700BF49
:1002F00053B94AB9002908BF00281CBF4FF0FF318D
:100300004FF0FF3000F09CB9ADF1080C6DE904CE60
:1003100000F006F8DDF804E0DDE9022304B07047E0
:100320002DE9F04782B00646DDF828E00846B446DD
:100330000D46002B4ED18A4214466DD9B2FA82F294
:1003400042B1C2F12003954026FA03F394401D43C5
:1003500006FA02FC260CA7B2B5FBF6F14FEA1C43E5
:1003600006FB115543EA054301FB07F0984209D902
:10037000E31801F1FF3580F00381984240F20081DB
:10038000023923441B1A1FFA8CFCB3FBF6F006FB60
:1003900010334CEA034C00FB07F363450AD914EB16
:1003A0000C0C00F1FF3580F0ED80634540F2EA80EF
:1003B000A444023840EA0140ACEB030C0021BEF13A
:1003C000000F04D02CFA02F30022CEE9003202B072
:1003D000BDE8F0878B4209D9BEF1000F01D0CEE90C
:1003E00000610021084602B0BDE8F087B3FA83F14E
:1003F000174600294DD1834202D3B24200F20F8149
:10040000B6EB070C60EB030301201D46BEF1000FA5
:10041000DDD0CEE900C5DAE7002A00F098801A4660
:10042000B4FA84F3002B40F0AF800B1B270CA6B26C
:100430000121B3FBF7F54FEA1C4007FB153340EAF7
:10044000034306FB05F8984507D9E31805F1FF308B
:1004500002D2984500F2E8800546A3EB08031FFA94
:100460008CFCB3FBF7F007FB10334CEA034C06FBA4
:1004700000F3634508D914EB0C0C00F1FF3602D2EF
:10048000634500F2CE803046ACEB030C40EA0540F9
:1004900095E7C1F120058B4022FA05FC4CEA030CDC
:1004A00000FA01F426FA05F3E84002FA01F943EAFA
:1004B00004084FEA1C4206FA01FAB0FBF2F71FFAF1
:1004C0008CF602FB17004FEA184444EA004407FB8D
:1004D00006F0A0420AD91CEB040407F1FF3380F0B8
:1004E0009C80A04240F29980023F6444241A1FFA83
:1004F00088F3B4FBF2F002FB104443EA044300FB30
:1005000006F69E4209D91CEB030300F1FF3480F08C
:1005100082809E427FD90238634440EA0740A0FBB4
:1005200009749B1BA3423E46A04664D361D0BEF132
:10053000000F0AD0BAEB060263EB080303FA05F5D5
:10054000CA401543CB40CEE9005300213FE7730872
:1005500043EAC1734A08190C41EA02414FEAC67CDA
:100560009BB2B2FBF4F02646A04627461F2243EA80
:100570000143B1FBF4F1A3EB080341EA004158E762
:100580002946FFE6284615E71A46C3F120019C409C
:1005900026FA01F320FA01F190400343270C06FAF2
:1005A00002FCB1FBF7F0A6B207FB1015190C41EAEB
:1005B000054100FB06F58D423BD9611801D28D4201
:1005C00020D8491B0138B1FBF7F5019505FB06F86A
:1005D000019D9BB207FB151143EA0143434526D217
:1005E000E31805F1FF31C6D24345C4D2A91E234406
:1005F000C1E7BA459BD2B7EB090664EB0C0401389E
:10060000A04694E7651B29440238B1FBF7F5019534
:1006100005FB06F8DCE720467FE71F4666E708464D
:10062000F4E6A44402382FE7023D234415E701997C
:10063000A1E7491BB1FBF7F5019505FB06F8C7E7F4
:10064000704700BF72B6FEE710B594B008AC302218
:100650000021204608F048FA0023039304930593F1
:100660000693079301931E4A116C41F08051116467
:10067000126C02F080520192019A0293194A116899
:1006800041F440411160126802F440420292029A21
:100690000222089201210B9110210C910E920F93CE
:1006A000082310936423119312920423139320467A
:1006B00007F06AF978B90F23039302230493059096
:1006C0004FF4805206920790032103A807F0C8FB5D
:1006D00018B914B010BDFFF7B5FFFFF7B3FF00BFA7
:1006E000003802400070004008B507F0A9FEFFF78F
:1006F000ABFF00F007F800F049F800F033FB03F01F
:10070000EDF9FCE786B0002200921F4B196B41F017
:1007100001011963196B01F0010100910099019227
:10072000196B41F002011963196B01F0020101918B
:1007300001990292196B41F004011963196B01F0E0
:100740000401029102990392196B41F008011963A7
:10075000196B01F00801039103990492196B41F0A0
:1007600010011963196B01F01001049104990592AD
:100770001A6B42F080021A631B6B03F0800305932F
:10078000059B06B0704700BF0038024008B50A4814
:100790000A4B03604FF4E133436000238360C3607E
:1007A00003610C2242618361C36103F08BFB00B9DA
:1007B00008BDFFF747FFFBE71401002000100140D0
:1007C00000B58DB000230793089309930A930B9308
:1007D00003684A4A934207D0494A934231D0494A72
:1007E00093425CD00DB000BD00210191464B1A6CC4
:1007F00042F400321A641A6C02F400320192019A37
:1008000002911A6B42F001021A631B6B03F00103A1
:100810000293029B0C23079302230893012309935D
:1008200003230A9307230B9307A9384807F0EEFB2D
:1008300000221146262007F0B5FD262007F0C2FD54
:10084000D0E700210391304B5A6C42F010025A64F9
:100850005A6C02F010020392039A04911A6B42F050
:1008600001021A631B6B03F001030493049B4FF412
:10087000C0630793022308930123099303230A9378
:1008800007230B9307A9214807F0C0FB002211465C
:10089000252007F087FD252007F094FDA2E7002121
:1008A0000591194B5A6C42F020025A645A6C02F0BE
:1008B00020020592059A06911A6B42F001021A6312
:1008C0001B6B03F001030693069B4FF4C053079381
:1008D000022308930123099303230A9308230B930C
:1008E00007A90A4807F092FB00221146472007F0AB
:1008F00059FD472007F066FD74E700BF0044004043
:100900000010014000140140003802400000024085
:10091000BFF34F8F0549CA6802F4E062044B1343EA
:10092000CB60BFF34F8F00BFFDE700BF00ED00E0DD
:100930000400FA05044B188880B2044B1B889BB254
:10094000C01A18BF012070477A05002078050020E2
:100950000D4B1A8892B20D4B1B889BB29A4210D055
:100960000A4A13889BB20A49C85CC0B213889BB27A
:1009700001335942DBB2C9B258BF4B429BB213801C
:1009800070470020704700BF7A05002078050020DE
:100990007C05002000B589B00023039304930593E0
:1009A0000693079303F1804303F58833984207D0F9
:1009B0002D4B984220D02D4B984238D009B000BD25
:1009C000002300932A4B1A6B42F001021A631B6B3F
:1009D00003F001030093009B4FF4C06303930223D1
:1009E000049301230593032306930723079303A985
:1009F000204807F00BFBE1E7002301931C4B1A6B27
:100A000042F001021A631B6B03F001030193019B87
:100A10000C230393022304930123059303230693DA
:100A20000723079303A9134807F0F0FAC6E700234A
:100A300002930F4B1A6B42F001021A631B6B03F017
:100A400001030293029B4FF4C053039302230493C8
:100A500001230593032306930823079303A905485D
:100A600007F0D4FAAAE700BF004400400014014098
:100A7000003802400000024000B589B00023039313
:100A800004930593069307931D4B984204D01D4B86
:100A900098421AD009B000BD002301931A4B1A6B7B
:100AA00042F001021A631B6B03F001030193019BE7
:100AB000F023039302230493032306930523079350
:100AC00003A9124807F0A2FAE4E7002302930E4BB1
:100AD0001A6B42F010021A631B6B03F010030293AF
:100AE000029B4FF4E04303930223049303230693F2
:100AF0000623079303A9064807F088FACAE700BF50
:100B00000030014000500140003802400000024027
:100B10000010024010B504461549FFF785FBE0B10F
:100B200014492046FFF780FBC8B113492046FFF760
:100B30007BFBB0B111492046FFF776FB98B1104915
:100B40002046FFF771FB80B10E492046FFF76CFB92
:100B500008B90D4802E0002000E00C4810BD0B4829
:100B6000FCE70A48FAE70848F8E70748F6E700BF55
:100B7000649D00086C9D0008749D0008789D000825
:100B8000809D0008889D000884000020CC00002083
:100B900010B504462349FFF747FB80B3224920469E
:100BA000FFF742FB68B321492046FFF73DFB50B3F6
:100BB0001F492046FFF738FB38B31E492046FFF790
:100BC00033FB20B31C492046FFF72EFB08B31B491B
:100BD0002046FFF729FBF0B119492046FFF724FB17
:100BE000D8B118492046FFF71FFBC0B1164920466F
:100BF000FFF71AFB08B9154802E0002000E014488E
:100C000010BD1348FCE71348FAE71248F8E712480A
:100C1000F6E71148F4E71148F2E71048F0E70B480F
:100C2000EEE700BF8C9D0008949D0008989D000889
:100C3000749D0008A09D0008A89D0008AC9D0008B8
:100C4000B49D0008B89D0008C09D0008A8030020BE
:100C500008050020B00400205804002000040020F3
:100C6000F0B583B004460F461646002534E0013443
:100C70002378202BFBD0092BF9D08BB30023ADF8C0
:100C800004304FF000028DF806202378ABB1617874
:100C9000A1F13002D2B2092A09D9A1F14102D2B29E
:100CA000052A04D9A1F16102D2B2052A05D88DF82E
:100CB000043002348DF8051006E030238DF804303E
:100CC00014F8013B8DF805301022002101A807F02F
:100CD00009FD6B1C78559DB223780BB1B542C7D383
:100CE000284603B0F0BD000008B5124B984200D072
:100CF00008BD114B1B889BB201335A42DBB2D2B202
:100D000058BF53429BB20D4A128892B29A420AD0FF
:100D10000948028892B20A490978C9B2DFF824C0AA
:100D20000CF80210038001220549024803F0B9FBC8
:100D3000DEE700BF140100207A05002078050020BE
:100D40007C0600207C05002010B50446FFF776FAEB
:100D5000012382B22146024803F0E4F810BD00BF2F
:100D6000140100202DE9F0438FB000240094324D8F
:100D70002B6B43F001032B632B6B03F001030093F8
:100D8000009B01942B6B43F002032B632B6B03F04E
:100D900002030193019B02942B6B43F004032B632A
:100DA0002B6B03F004030293029B09A909944C6086
:100DB0008C60CC600C614FF40058CDF82480012683
:100DC0000A961E4F384607F021F9822221461C4818
:100DD00007F08AFEDFF87C904FF480722146484687
:100DE00007F082FE682389F87530582389F8D030DF
:100DF00003942B6B43F004032B632B6B03F004036E
:100E00000393039B04A904944C608C60CC600C6138
:100E1000CDF810800596384607F0F8F832460949B3
:100E2000094803F03EFB0948FFF78EFF0848FFF72B
:100E30008BFF0FB0BDE8F08300380240000802408D
:100E4000800600207C06002014010020C49D0008BC
:100E5000C89D0008680100200FB410B5A2B024ABF3
:100E600053F8042B019302AC8021204607F01EFEAC
:100E70002046FFF769FF22B0BDE8104004B070477C
:100E800070B5A0B004460D4640F22112002128465C
:100E900007F02AFE7F222146684607F05AFE1449D1
:100EA000684607F069FE00B30146002301E0EC54F8
:100EB0000133CC5C74B1A4F16102D2B2192AF6D824
:100EC000203CE4B2F3E701341F2205EB441007F0A5
:100ED00040FEE4B20649002007F04EFE014608B18C
:100EE000072CF0D985F82041012020B070BD00BF4B
:100EF000E89D00080146A0F16103DBB2192B02D87E
:100F0000A0F12001C9B2002200E00132054B03EB41
:100F1000C203586820B1034B13F832308B42F4D12E
:100F2000704700BFE4BF00080F2804D8012303FA6C
:100F300000F080B2704700207047F8B504460546BF
:100F40000E461746FFF77AF9012820D92378502B4F
:100F500016D0702B14D023461C461878FFF7CAFF12
:100F60003060A8B12046013007F03DFBC0B2FFF76A
:100F7000DBFF388068B96B78302B0CD1012007E09B
:100F8000022802D92B460133E6E72B46E4E700208E
:100F9000F8BD0120FCE70020FAE700002DE9F04150
:100FA00092B090F820315BB100F1200398460DF12A
:100FB000420211A91846FFF7C0FF28B1002309E03B
:100FC0003E48FFF7C1FE74E041463D48FFF744FF4D
:100FD0006FE001330F2B08DCBDF842201A4112F0FC
:100FE000010FF6D05FFA83FC01E04FF0000C119C7A
:100FF00023684FEA4C05EB4003F00306DFF8E4E01A
:101000009EE80F000CAF87E80F00636823FA0CF32B
:1010100003F001070AAB0EF1100292E8030083E827
:101020000300A368EB4003F0030301930DF1180CD8
:101030000EF118030FCB8CE80F00E368EB4003F0D0
:1010400003050DF1080C0EF1280E9EE80F008CE848
:101050000F00BDF84210204607F0C8F8044641468C
:101060001848FFF7F9FE12AA02EB860353F8181C82
:101070001548FFF7F1FE12AA02EB870353F8201C74
:101080001248FFF7E9FE12AA019B02EB830353F813
:10109000301C0F48FFF7E0FE12AB03EB850353F85B
:1010A000401C0C48FFF7D8FE34B10B490B48FFF742
:1010B000D3FE12B0BDE8F0810949F7E7EC9D0008C6
:1010C0001C9E0008389E0008449E0008549E00089C
:1010D000649E0008749E000818BD0008849E0008E5
:1010E00028BD0008D49C000810B58CB090F82031C1
:1010F00033B300F120031C460DF12A020BA9184658
:10110000FFF71BFF00B30B98354B984221D0354BAE
:1011100098423ED0344B984248D0344B984252D0FB
:10112000334B984221D100230493324B1A6B42F087
:1011300010021A631B6B03F010030493049B14E06A
:101140002D48FFF701FE22E021462C48FFF784FEE0
:101150001DE000230093274B1A6B42F001021A6333
:101160001B6B03F001030093009B05A9002305936B
:101170004B608B60CB600B61BDF82A300593012377
:10118000069306F043FF21461D48FFF765FE0CB0AD
:1011900010BD00230193174B1A6B42F002021A6331
:1011A0001B6B03F002030193019BDEE70023029314
:1011B000104B1A6B42F004021A631B6B03F004031A
:1011C0000293029BD1E7002303930A4B1A6B42F070
:1011D00008021A631B6B03F008030393039BC4E725
:1011E000000002400004024000080240000C0240DF
:1011F0000010024000380240949E00081C9E000827
:10120000B09E000870B58CB090F820313BB3044616
:1012100000F120031E460DF12A020BA91846FFF724
:101220008CFE00B30B9D424B9D4221D0414B9D4211
:101230003DD0414B9D4247D0404B9D4251D0404B09
:101240009D4221D1002304933E4B1A6B42F01002C1
:101250001A631B6B03F010030493049B14E03A48D9
:10126000FFF772FD5DE031463848FFF7F5FD58E0C5
:1012700000230093334B1A6B42F001021A631B6B7D
:1012800003F001030093009B94F82031012B35D922
:1012900040342F492046FEF7C7FF002843D02D4990
:1012A0002046FEF7C1FF00283FD0002227E00023A0
:1012B0000193244B1A6B42F002021A631B6B03F07A
:1012C00002030193019BDFE7002302931D4B1A6B7E
:1012D00042F004021A631B6B03F004030293029BA7
:1012E000D2E700230393174B1A6B42F008021A63EC
:1012F0001B6B03F008030393039BC5E7002205A9BA
:10130000002305934B608B60CB600B61BDF82A30E6
:1013100005930792284606F079FE31460E48FFF7FE
:101320009BFD0CB070BD0122E9E70222E7E700BF98
:10133000000002400004024000080240000C02408D
:101340000010024000380240D09E00081C9E000899
:10135000FC9E0008009F0008089F000810B582B09E
:1013600090F82031ABB100F120031C460DF10202D0
:1013700001A91846FFF7E1FD78B10122BDF802107E
:10138000019806F03AFF21460648FFF765FD02B0D6
:1013900010BD0548FFF7D8FCF9E721460348FFF7E1
:1013A0005BFDF4E7409F0008289F00081C9E000892
:1013B00010B582B090F82031ABB100F120031C468B
:1013C0000DF1020201A91846FFF7B7FD78B100221E
:1013D000BDF80210019806F010FF21460648FFF7FD
:1013E0003BFD02B010BD0548FFF7AEFCF9E7214612
:1013F0000348FFF731FDF4E7689F0008509F00089D
:101400001C9E000810B582B090F82031B3B100F1F5
:1014100020031C460DF1020201A91846FFF78DFDBD
:1014200080B1BDF80210019806F0E0FE78B1094ADB
:1014300021460948FFF710FD02B010BD0748FFF72D
:1014400083FCF9E721460648FFF706FDF4E7054A65
:10145000EEE700BF18BD0008909F0008789F0008C5
:101460001C9E000828BD000810B582B090F82031FD
:10147000DBB100F120031C460DF1020201A9184660
:10148000FFF75BFDA8B1BDF80210019806F0BBFEA6
:10149000BDF80210019806F0A9FE78B1084A21466D
:1014A0000848FFF7D9FC02B010BD0748FFF74CFC15
:1014B000F9E721460548FFF7CFFCF4E7044AEEE7D9
:1014C00018BD0008B89F00089C9F00081C9E0008DB
:1014D00028BD000870B58CB090F82031012B27D9B9
:1014E000044600F120031E460DF12A020BA91846FE
:1014F000FFF723FD00B30B9D464B9D4221D0464B89
:101500009D424CD0454B9D4256D0454B9D4260D0AC
:10151000444B9D4221D100230493434B1A6B42F06C
:1015200010021A631B6B03F010030493049B14E076
:101530003E48FFF709FC30E031463D48FFF78CFCA0
:101540002BE000230093384B1A6B42F001021A6320
:101550001B6B03F001030093009B0023059306938C
:10156000079308930993BDF82A3005934034314915
:101570002046FEF759FE38B12F492046FEF754FEAB
:10158000002833D10123069305A9284606F03EFD25
:10159000224631462948FFF75FFC0CB070BD00239E
:1015A0000193214B1A6B42F002021A631B6B03F08A
:1015B00002030193019BD0E7002302931A4B1A6B9D
:1015C00042F004021A631B6B03F004030293029BB4
:1015D000C3E700230393144B1A6B42F008021A630B
:1015E0001B6B03F008030393039BB6E714492046E3
:1015F000FEF71AFE10B902230693C5E711492046EB
:10160000FEF712FE10B903230693BDE70E48FFF75D
:101610009BFBC2E7000002400004024000080240B9
:10162000000C02400010024000380240D09F000829
:101630001C9E000894BF0008FCBC00082CA00008F9
:10164000F89F0008FC9F000800A00008F0B583B0D8
:1016500090F82031012B37D9054600F120031F46B1
:101660001846FFF757FA0446002834D005F1400029
:1016700006F0B9FF0646A0F596724B4B9A422ED85B
:101680004A4B9C422FD04A4B9C423DD0666000237F
:10169000A360E36023610C226261A361E36195F8BA
:1016A0002031022B47D995F86030452B3DD0652B72
:1016B0003BD04F2B01D06F2B3DD14FF4C063236142
:1016C0004FF48053A36036E03A48FFF73DFB3A48B9
:1016D000FFF73AFB65E03948FFF736FB61E0384831
:1016E000FFF732FB5DE000230093364B5A6C42F06B
:1016F00010025A645B6C03F010030093009B3248A5
:101700002060FFF747F9C1E7002301932D4B5A6C86
:1017100042F020025A645B6C03F020030193019BAA
:101720002A482060FFF736F9B0E74FF48063236161
:101730004FF48053A36095F82031032B03D995F81B
:101740008030322B14D0204602F0BCFBA0B92023FD
:1017500084F8413084F8423023681B4A93420FD00A
:1017600002F5806293420BD006F030FC05460AE099
:101770004FF40053E360E6E71548FFF7E5FA10E0A1
:1017800006F034FC054639461248FFF765FB314642
:101790001148FFF761FB23689A6829460F48FFF755
:1017A0005BFB03B0F0BD00BF94C52D001401002009
:1017B0008400002044A0000878A000089CA0000835
:1017C000D4A000080038024000100140001401407D
:1017D000FCA0000818A1000834A100084CA10008D2
:1017E000F0B589B090F82031012B4DD9044600F1B5
:1017F00020052846FFF78EF900284CD00368304AB0
:1018000093424FD0A2F54C42934248D002231F4648
:1018100004F140060DF11A0207A93046FFF78DFBCF
:10182000002842D0274B079A43F8372003EBC70321
:10183000BDF81A209A8094F82031022B3AD8012062
:10184000204C04EBC704A0710122E27101A900231E
:1018500001934B608B60CB600B61BDF81A30019334
:101860000292079806F0D2FBA279B2FA82F25209EC
:10187000BDF81A10079806F0C0FC324629461248F7
:10188000FFF7EAFA09B0F0BD1048FFF75DFA10481B
:10189000FFF75AFAF6E70F48FFF756FAF2E7012387
:1018A0001F46B5E700231F46B2E731460A48FFF757
:1018B000D3FAE7E704F1600006F095FEC0B2BFE797
:1018C0000010014060050020F0A1000868A1000898
:1018D00090A10008B0A10008D0A10008F0B5C1B0E7
:1018E00090F82031012B0FD905462030FFF712F96F
:1018F000064668B103687BB1802200210DEB02002F
:1019000007F0F2F8012411E05048FFF71DFA85E0D6
:101910004F48FFF719FA81E04E48FFF715FA7DE0CE
:10192000013405EB441120A807F004F995F82031A3
:10193000A34209DD012CF3DD20AF3846FEF77EFC23
:10194000454B1B883B52EBE7002420AA18E0742982
:101950000ED109210DF80410013410E00D210DF80D
:10196000041001340BE05C210DF80410013406E092
:101970000DF80410013402E00DF804300134013296
:1019800013789BB17E2C11DC5C2BF5D151780029AA
:10199000F2D001327229E1D0D9D85C29E3D06E2986
:1019A000E6D10A210DF804100134E8E700220DF811
:1019B0000420336802F1804202F58832934231D02C
:1019C000A2F54C4293422BD002200746234B03EB57
:1019D000C003DB7943BB4FF47A73A2B26946304649
:1019E00002F0A0FA05461D4B03EBC703DB7983B178
:1019F00033681B6813F0400FFAD0184B03EBC70194
:101A00008A79B2FA82F25209898853F8370006F0CF
:101A1000F4FBB5B921461248FFF71EFA41B0F0BDFC
:101A20000120D2E70020D0E70C4B03EBC0018A79FC
:101A3000003A18BF0122898853F8300006F0DDFB18
:101A4000C9E70848FFF780F9E8E700BF14A20008DB
:101A5000B0A1000834A2000868A2000860050020B8
:101A60006CA2000880A200082DE9F04796B090F81B
:101A70002031012B56D904462030FFF74BF805469C
:101A8000002853D00368002B54D090F84130202B0D
:101A900054D1002202922B68196802915968029170
:101AA000029903921968039159680391039904926A
:101AB0001A6804925B680493049B04F1400006F0EA
:101AC00092FD86B2402E00D9402694F82031022B98
:101AD0003FD84FF47A78B246424631465A48FFF72B
:101AE000BBF95A4B1B681B6813F0400FF9D095F8EF
:101AF000411095F842206B6C5548FFF7ADF9534BF8
:101B00001B681B6813F0400FF9D04122002105A883
:101B100006F0EAFF06F0BAFC07464E48FFF714F954
:101B2000002425E04C48FFF70FF985E04B48FFF70C
:101B30000BF981E04A48FFF707F97DE090F8411082
:101B40004848FFF789F9202385F8413085F842306D
:101B50009FE704F1600006F046FD8046BBE742487F
:101B6000FFF77AF94C4603E03F48FFF775F94C461A
:101B7000A6422AD906F08AFCC01B404525D800237E
:101B80008DF807300A2301220DF10701284602F0E3
:101B90002FFA0028ECD104F101091FFA89F99DF808
:101BA000071004F158030DEB030404F8441CA1F1E1
:101BB0002003DBB25E2BD2D90D29D5D00A29D3D090
:101BC0002A48FFF7C1F84C46D2E72948FFF7BCF88E
:101BD00006F05CFCC11B94B32546002204F15803B7
:101BE0006B4403F8442CA64212D95346224621489E
:101BF000FFF732F92048FFF7A7F805A8FFF7A4F888
:101C00001B48FFF7A1F81D48FFF79EF800240EE0DF
:101C1000534622461A48FFF71FF9EBE704F1580331
:101C20006B4413F8441C1748FFF716F90134A5421A
:101C3000F4DC0F48FFF788F816B0BDE8F0871248CB
:101C4000FFF782F8F8E700BF18A30008CC000020D7
:101C500044A3000880A300089CA20008B0A10008CB
:101C6000CCA20008ECA2000888A300088CA30008FE
:101C7000C49D000890A30008DCA30008E4A30008AA
:101C8000B8A30008ECA30008F4A3000808B50A48AC
:101C9000FFF75AF8094B59680948FFF7DDF8094B77
:101CA0001B682BB1074B59680748FFF7D5F808BDEB
:101CB0000648FFF749F8FAE710A40008CC00002016
:101CC00020A400081401002044A4000864A4000813
:101CD00030B589B090F820317BB300F12004204664
:101CE000FEF718FF054680B3036893B32022002156
:101CF000684606F0F9FE21462848FFF7ADF8284C63
:101D0000132221462748FFF7A7F864231322214610
:101D1000284602F007F900BB4FF4FA731322694614
:101D2000284602F065F9E0B103282FD01E48FFF7DE
:101D30000BF81E48FFF708F805E01D48FFF704F808
:101D40001C48FFF701F809B030BD1B48FEF7FCFF47
:101D5000F9E71A48FEF7F8FFF5E71948FEF7F4FF30
:101D6000F1E78DF81300132269461648FFF774F85F
:101D7000132269460A4806F0A7FE18B91248FEF772
:101D8000E3FFE0E71148FEF7DFFFDCE71048FEF76E
:101D9000DBFF1048FEF7D8FFD5E700BFC0A400085E
:101DA000E0A40008F4A40008C4A50008D4A5000815
:101DB00080A400089CA40008B0A1000834A2000878
:101DC0000CA500081CA5000834A5000854A50008AF
:101DD00078A500089CA500082DE9F04192B090F884
:101DE0002031022B72D9044600F120063046FEF75E
:101DF000CFFE054600287FD0304606F0F4FB04F104
:101E0000600006F0F0FB0746A0F16402AF4B9A4277
:101E100076D8AF4B9D4277D0AE4B9D4200F0858087
:101E2000AD4B9D4200F09280AC4B9D4200F09F80F4
:101E3000AB4B9D4200F0AC8094F82031012B40F276
:101E4000B88094F84030002B00F0B38004F14003D8
:101E50009846A4491846FEF7E7F90446002840F0E2
:101E600071812A68A04B9A4200F0A78000236B6022
:101E70004FF40073AB610023AB60EB602B616B61CF
:101E80002B622A68984B9A4200F06C8106F09EF80B
:101E9000B7EB102F40F26981B7EBD01F40F2718190
:101EA000B7EB901F40F26F81B7EB501F40F26D818E
:101EB000B7EB101F40F26B81B7EBD00F40F2698196
:101EC000B7EB900F00F2678108234FE18748FEF7D8
:101ED0003BFF8748FEF738FF8648FEF735FF864808
:101EE000FEF732FF8548FEF72FFF8548FEF72CFFEF
:101EF0008448FEF729FF41E18348FEF725FF3DE1D5
:101F00008248FEF721FF39E100230093804B5A6C91
:101F100042F480525A645B6C03F480530093009B3C
:101F200071482860FEF7A8FD86E700230193784BEF
:101F30001A6C42F480421A641B6C03F480430193D0
:101F4000019B74482860FEF797FD75E70023029314
:101F50006F4B1A6C42F400421A641B6C03F400438A
:101F60000293029B6C482860FEF786FD64E700231D
:101F70000393674B5A6C42F400525A645B6C03F44F
:101F800000530393039B65482860FEF775FD53E7F4
:101F9000002304935E4B5A6C42F480125A645B6CCB
:101FA00003F480130493049B5D482860FEF764FDEE
:101FB00042E75C48FEF7C8FEE0E0059003F5843395
:101FC0005A6C42F480525A645A6C02F48052059260
:101FD000059A06901A6B42F001021A631B6B03F01C
:101FE00001030693069B07AE0790089009900A909C
:101FF0000B90E02307930223089303230A930522FF
:102000000B923146484806F001F81023079302234B
:10201000089305220B923146434805F0F7FF324BF7
:102020002B606C60AC60EC602C616C61AC612C620C
:10203000284602F076FB3D4B582283F850200DF1E4
:10204000300C3B4E0FCEACE80F0096E803008CE856
:10205000030009E004F1080304F148026A4412F89D
:10206000181C324AD1540134172CF3DD2F4B502267
:1020700083F87720C32283F87820002483F87940FE
:10208000802283F87A2083F87B4083F87C40012605
:10209000284B1E7022460521232006F083F92320B9
:1020A00006F090F9224605210A2006F07BF90A2065
:1020B00006F088F9204958230B7033461F4A2846FA
:1020C00002F064FE1E48FEF73FFE57E01CF0FA02E5
:1020D00008050020B004002058040020000400205F
:1020E000A803002004A8000800300140E8A500086B
:1020F00044A600086CA60008A0A60008D4A6000804
:1021000008A7000848A7000888A70008B0A700088B
:102110000038024000380040003C004000340140DC
:1021200000500140DCA700080000024068010020C8
:1021300078A800085D0100206401002060010020F3
:102140000CA8000815494046FEF76EF830B94FF468
:1021500082736B604FF40073AB618CE61048FEF73E
:10216000F3FD0BE005F042FF92E63823EB612846D1
:1021700002F0D7FA31460B48FEF76EFE12B0BDE80A
:10218000F0813023F2E72823F0E72023EEE718233D
:10219000ECE71023EAE70023E8E700BF2CA80008DB
:1021A00034A800085CA800082DE9F041B0B090F810
:1021B0002031012B16D9054600F120042046FEF7F8
:1021C000E7FC8046D8B10368CBB1204606F00BFA95
:1021D000C7B2013FFFB28022002110A806F084FCA4
:1021E000012418E03848FEF7AFFD3848FEF7ACFD93
:1021F0003748FEF7A9FD3748FEF7A6FD02E036484E
:10220000FEF7A2FD30B0BDE8F081013405EB4411CA
:1022100010A806F08FFC95F82031A34209DD012CAF
:10222000F3DD10AE3046FEF709F82C4B1B88335215
:10223000EBE7402269460DEB0200FEF711FD054673
:1022400010B3274B03EBC7039B790BBB4FF47A7397
:102250002A466946404602F0C3FA0446204B03EB87
:10226000C7039B79F3B95CBB29461E48FEF7F4FD12
:10227000A54221DD04F1C0036B4413F8C01C1A48C9
:10228000FEF7EAFD0134F3E71848FEF75DFDB9E714
:10229000134B03EBC7010022898853F8370005F080
:1022A000ACFFD3E70E4B03EBC7010122898853F83B
:1022B000370005F0A2FFD6E70D48FEF745FDA1E780
:1022C0000C48FEF741FD9DE794A80008B8A8000857
:1022D000DCA8000808A900084CA9000868A20008AA
:1022E000BCBF00089CA90008ECA3000880A9000856
:1022F000C49D000880A20008F0B593B090F820318A
:10230000012B3ED9044600F120052846FEF740FC8B
:10231000064600283FD00368002B3CD0284606F034
:1023200062F9C5B2013DEDB204F1400006F05BF97F
:1023300083B21F46402B01D940231F4694F8203119
:10234000022B2DD84FF47A744122002101A806F007
:10235000CBFB2C4A02EBC50293793BBB23463A46A2
:1023600001A9304602F050FC0446264B03EBC5039E
:102370009B7923BB6CB3032C40D02348FEF7E4FCCD
:102380000CE02248FEF7E0FC2148FEF7DDFC214886
:10239000FEF7DAFC02E02048FEF7D6FC13B0F0BDF1
:1023A00004F1600006F01FF90446CDE7154B114615
:1023B0000022898853F8350005F01FFFCEE7114B46
:1023C00003EBC5010122898853F8350005F015FF9C
:1023D000D0E739463D461148FEF73EFDA54209DDEE
:1023E00004F148036B4413F8441C0D48FEF734FD18
:1023F0000134F3E70B48FEF7A7FCCFE70A48FEF7E6
:10240000A3FCCBE7BCBF000818AA0008B0A90008CD
:10241000E0A9000808A900084CA9000800AA0008C3
:10242000ECA30008C49D0008F4A300082DE9F041C6
:10243000C2B090F82031012B16D9054600F12004D6
:102440002046FEF7A5FB8046D8B10368CBB12046F5
:1024500006F0C9F8C7B2013FFFB28022002122A8CE
:1024600006F042FB012418E04448FEF76DFC4448A6
:10247000FEF76AFC4348FEF767FC4348FEF764FC3E
:1024800002E04248FEF760FC42B0BDE8F081013452
:1024900005EB441122A806F04DFB95F82031A3422C
:1024A00009DD012CF3DD22AE3046FDF7C7FE384BC7
:1024B0001B883352EBE740242246002102A806F095
:1024C00013FB224612A922A8FEF7CAFB054640B319
:1024D000304B03EBC7039B793BBB4FF47A730093FC
:1024E0002B4602AA12A9404602F05CFA0446294B88
:1024F00003EBC7039B7913BB002C3BD1294626482D
:10250000FEF7AAFC2548FEF71FFCA54221DD04F5D5
:1025100084736B4413F8C01C2148FEF79DFC013402
:10252000F3E72048FEF710FCAEE71A4B03EBC701B8
:102530000022898853F8370005F05FFECDE7154B80
:1025400003EBC7010122898853F8370005F055FED7
:10255000D2E71548FEF7F8FB0024A54206DD02ABE2
:10256000195D0F48FEF778FC0134F6E70F48FEF7D7
:10257000EBFB89E70E48FEF7E7FB85E730AA00088A
:1025800058AA000880AA000808A900084CA9000859
:1025900068A20008BCBF0008B4AA0008D8AA0008B6
:1025A000ECA3000880A90008E0AA0008C49D000868
:1025B000ECAA000830B58DB090F82031012B27D956
:1025C000044600F120031D460DF12A020BA918460E
:1025D000FEF7B3FC38B30B984A4B984228D04A4BCD
:1025E000984259D0494B984263D0494B98426DD09C
:1025F000484B984228D100230493474B1A6B42F072
:1026000010021A631B6B03F010030493049B1BE07E
:102610004248FEF799FB4248FEF796FB4148FEF719
:1026200093FB0DB030BD29463F48FEF715FCF8E797
:1026300000230093384B1A6B42F001021A631B6BA4
:1026400003F001030093009B05A9002305934B6051
:102650008B60CB600B61BDF82A3005930123069394
:102660000323089305F0D2FC403430492046FDF79F
:10267000DBFD002837D02E492046FDF7D5FD002888
:102680003CD10246BDF82A100B9805F0B6FD29464C
:102690002848FEF7E1FBC4E7002301931E4B1A6BA9
:1026A00042F002021A631B6B03F002030193019BC9
:1026B000CAE700230293184B1A6B42F004021A6314
:1026C0001B6B03F004030293029BBDE700230393FB
:1026D000114B1A6B42F008021A631B6B03F00803DC
:1026E0000393039BB0E70122BDF82A100B9805F075
:1026F00084FD29461048FEF7AFFB92E70F48FEF72E
:1027000023FB8EE700000240000402400008024064
:10271000000C0240001002400038024008AB0008E4
:102720002CAB000858AB00081C9E000818BD000820
:1027300028BD0008A4AB000884AB0008C4AB0008A7
:1027400030B59FB03A48FEF7FFFA3A4C19AD04F1A4
:10275000380CBCE80F000FC5DCF800302B6014AD5E
:102760004C340FCC0FC523682B603C22002105A8F8
:1027700006F0BAF9304B0593304B0693304B089373
:10278000304B0993304B0B93304B0C93304B0E93E3
:10279000304B0F93304B1193304B1293002429E0B0
:1027A00005F024FCEB69C3F3C20202239340B0FBA3
:1027B000F3F31EAA02EB840252F8141C6A68B2F505
:1027C000827F25D0DFF8A8C004EB44001EAA02EBEC
:1027D000800050F8642C50F8600CED68B5F5006F7F
:1027E00019D01F4D02950190009262461D48FEF7D8
:1027F00033FB0134042C19DC1EAB03EB840353F8C8
:10280000285C2B684BB1002CCAD005F0DFFBC9E770
:10281000DFF860C0D8E7144DE4E71EAB03EB840398
:1028200053F8141C1148FEF717FBE2E71FB030BD48
:10283000F8AB0008D49C000808AC000814AC0008F1
:1028400018AC000828AC000830AC00083CAC00080C
:1028500044AC000850AC000854AC000864AC00085C
:10286000F0AB00086CAC0008E8AB00088CAC0008CA
:1028700004A800082CA8000810B504460A49FDF772
:10288000D3FC68B109492046FDF7CEFC50B1084998
:102890002046FDF7C9FC08B9064802E0002000E028
:1028A000054810BD0548FCE7949D0008749D00088C
:1028B000A89D0008AC020020540300200003002063
:1028C00000B587B00023019302930393049305930B
:1028D000134B984201D007B000BD00230093114B69
:1028E0001A6B42F002021A631B6B03F0020300939F
:1028F000009BC0230193122302930123039303231C
:102900000493042305930DEB0301074805F07EFBB8
:10291000064AD2F8003423F48053C2F80034DAE7D0
:1029200000540040003802400004024000500040C3
:102930002DE9F04385B090F82031022B73D904467D
:1029400000F120031F46184605F04DFE8046431E49
:102950009946022B73D83846FFF78EFF05460028AC
:102960006AD004F140031E467149184606F0C4F8C7
:1029700000286CD06F49304606F0BEF8002862D1BE
:1029800004F1600005F02FFE0646A0F57A726A4B4E
:102990009A4265D80024694B9D4265D0684B9D42A0
:1029A00073D0684B9D4200F08180284603F045FBC0
:1029B000654B6B600023AB604FF480422A616B6112
:1029C000AB61EB612B62002C40F081806E60EC60AB
:1029D000284603F045FA002840F08280002C00F0E1
:1029E0008380284604F040F9324641465748FEF7B6
:1029F00033FA1021284604F086FF0021284604F00F
:102A0000A3FF002C76D1524B03F80940494A3946BE
:102A10005048FEF721FA002C00F0848031464E48E1
:102A2000FEF71AFA08E04D48FEF78EF94C48FEF71B
:102A30008BF94C48FEF788F905B0BDE8F0834A48A9
:102A4000FEF782F9F8E74948FEF77EF9F4E710222D
:102A5000014604F1600005F045FE064601249AE7B0
:102A60004348FEF771F9E7E700230193414B1A6CE5
:102A700042F400121A641B6C03F400130193019BCF
:102A80003D482860FFF71CFF8FE700230293394B76
:102A90001A6C42F480021A641B6C03F480030293E4
:102AA000029B36482860FFF70BFF7EE70023039365
:102AB000304B1A6C42F400021A641B6C03F40003DE
:102AC0000393039B2E482860FFF7FAFE6DE773001F
:102AD000EB604FF4807200212A4806F005F877E792
:102AE0002948FEF731F9A7E7324641462748FEF765
:102AF000B3F97EE7002201211F2005F053FC1F20BF
:102B000005F060FC00220121202005F04BFC202074
:102B100005F058FC284604F0A7F80D4B03F80940CF
:102B2000034A74E731461A48FEF796F984E700BF76
:102B300004A800082CA800089816060054030020DA
:102B400000030020AC020020A0860100BCAD0008FC
:102B5000A802002004AE000824AE0008A4AC0008BF
:102B6000E4AC000818AD000850AD000834A8000817
:102B700078AD000800380240005400400058004082
:102B8000005C004068010020A0AD0008E4AD000832
:102B900038AE000870B590F820317BB100F1200408
:102BA0002046FFF769FE064660B1036853B121462F
:102BB0001548FEF751F90124002509E01348FEF7F6
:102BC000C3F802E01248FEF7BFF870BD0134A4B2AA
:102BD0007F2C0FD8610089B202231A46304603F0D9
:102BE000DBFE0028F2D121460A48FEF735F901350F
:102BF000EDB2EBE71DB90848FEF7A6F8E5E7294670
:102C00000648FEF729F9E0E798AE00084CAE000848
:102C100064AE0008B0AE0008CCAE0008E0AE00081C
:102C20002DE9F043B3B090F82031022B1FD90546AF
:102C300000F12004204605F0D6FC431E1F46022B5F
:102C40001ED82046FFF718FE8046E8B10368DBB1C6
:102C50001022002105F1400005F044FD83B29946A1
:102C60008022002112A805F03FFF02241DE02A481F
:102C7000FEF76AF82948FEF767F833B0BDE8F0833D
:102C80002748FEF761F8F8E72648FEF75DF8F4E715
:102C900012AE3046FDF7D2FA234B1B883352013473
:102CA00005EB441112A805F045FF95F82031A34229
:102CB00002DD022CF3DDEBE7402202A912A8FDF7AA
:102CC000CFFF044698B1194BDB5DA3B11848FEF75E
:102CD0003BF841F28833224602A9404603F00CFC3F
:102CE0000146A9B921461348FEF7B6F8C5E71248D0
:102CF000FEF72AF8C1E74B46590089B24FF47A73C0
:102D00000093034602AA404603F0B0F90146E8E703
:102D10000A48FEF7A1F8B0E704AF000830AF00089A
:102D200054AF000874AF000868A20008A802002091
:102D300094AF0008B4AF000880A90008D4AF000821
:102D4000F0B595B090F82031022B31D9044600F14E
:102D500020031D46184605F046FC431E1E46022B66
:102D60002ED82846FFF788FD054668B303685BB395
:102D70001022002104F1400005F0B4FC83B21F468C
:102D800004F1600005F02FFC84B2402C00D94024EF
:102D90004122002103A805F0A7FE224B9B5DDBB179
:102DA000284603F061FF98B91F48FDF7CDFF05E005
:102DB0001E48FDF7C9FF1E48FDF7C6FF15B0F0BD60
:102DC0001C48FDF7C1FFF9E71B48FDF7BDFFF5E71C
:102DD0001A48FDF7B9FFF1E7780081B24FF47A7332
:102DE0000093234603AA284603F000FA0146A8B937
:102DF000254621461248FEF72FF8002408E004F18A
:102E000050036B4413F8441C0E48FEF725F80134B8
:102E1000A542F4DC0C48FDF797FFCFE70B48FEF71F
:102E20001BF8CBE7A80200205CB00008F8AF000850
:102E300020B0000854AF000874AF000840B000088C
:102E40007CB00008ECA30008C49D000890B0000806
:102E500038B590F82031012B14D9044600221146D0
:102E6000203005F0B7FC05460022114604F1400071
:102E700005F0B0FCC2B2E9B2044B5A540448FDF765
:102E8000EBFF38BD0348FDF75FFFFAE7680100205C
:102E9000D8B00008B4B0000838B590F82031012B44
:102EA00015D9044600221146203005F093FCC5B226
:102EB000C5F5807292B20849294404F14000FDF73B
:102EC000CFFE01462A460548FDF7C6FF38BD044837
:102ED000FDF73AFFFAE700BF6801002020B10008C3
:102EE000F4B000082DE9F041A6B090F82031032B92
:102EF00044D904462030FFF7BFFC0546002844D0E3
:102F00000368002B41D01022002104F1400005F09D
:102F1000E9FB804683B21F46402216A904F16000F7
:102F2000FDF79EFE064604F1800005F05CFB84B2CE
:102F3000402C00D940244122002105A805F0D4FDF1
:102F4000012E26D0022E34D07B009BB219461F469C
:102F50004FF47A730093334616AA284603F086F896
:102F60000146002839D14FF47A730093234605AA0D
:102F70003946284603F03AF901462DE02648FDF788
:102F8000E3FE2648FDF7E0FE2AE02548FDF7DCFEDB
:102F900026E0790089B24FF47A730293019405AB6D
:102FA000009301239DF85820284603F071FB014649
:102FB00012E09DF858009DF85920790089B24FF42D
:102FC0007A730293019405AB0093102342EA002226
:102FD000284603F05DFB014629B11248FDF73CFF8E
:102FE00026B0BDE8F08125461FFA88F221460E483A
:102FF000FDF732FF002408E004F198036B4413F856
:10300000841C0A48FDF728FF0134A542F4DC084877
:10301000FDF79AFEE4E700BF4CB100088CB1000850
:1030200074AF0008E8B10008C8B10008ECA30008BC
:10303000C49D000870B58CB03048FDF785FE304C5B
:1030400004F1600393E807000CAB03E9070006AB4B
:1030500004F16C0207CA83E807006D4678340FCC90
:103060000FC594E8030085E80300002410E0254A1A
:1030700021E0254A2548FDF7EFFE0CAB03EBC40326
:1030800053F82C2C53F8301C2148FDF7E5FE013491
:10309000022C31DC0CAB03EB840353F8185C2B6877
:1030A0000BB31C4B1E5D0CAB03EB840353F80C1CE1
:1030B000002EDCD0184A1948FDF7CEFE3EB1E96873
:1030C00049082B69B3F5404FD3D0154AD2E7696858
:1030D0002B69B3F5404F04D0114A1248FDF7BCFEEE
:1030E000CBE7094AF9E70CAB03EB840353F80C1C5C
:1030F0000D48FDF7B1FECAE70CB070BD20B2000864
:10310000D49C00082CA8000810B200084CB200089B
:1031100090B20008A802002004A8000830B20008FD
:1031200018B200086CB200088CAC000808B5424820
:10313000FDF70AFE4148FDF707FE4148FDF704FE92
:103140004048FDF701FE4048FDF7FEFD3F48FDF712
:10315000FBFD3F48FDF7F8FD3E48FDF7F5FD3E4815
:10316000FDF7F2FD3D48FDF7EFFD3D48FDF7ECFDB5
:103170003C48FDF7E9FD3C48FDF7E6FD3B48FDF71F
:10318000E3FD3B48FDF7E0FD3A48FDF7DDFD3A4839
:10319000FDF7DAFD3948FDF7D7FD3948FDF7D4FDD5
:1031A0003848FDF7D1FD3848FDF7CEFD3748FDF72B
:1031B000CBFD3748FDF7C8FD3648FDF7C5FD36485D
:1031C000FDF7C2FD3548FDF7BFFD3548FDF7BCFDF5
:1031D0003448FDF7B9FD3448FDF7B6FD3348FDF737
:1031E000B3FD3348FDF7B0FD3248FDF7ADFD324881
:1031F000FDF7AAFD3148FDF7A7FD3148FDF7A4FD15
:103200003048FDF7A1FD3048FDF79EFD2F48FDF742
:103210009BFD2F48FDF798FD2E48FDF795FD2E48A4
:10322000FDF792FD2D48FDF78FFD2D48FDF78CFD34
:103230002C48FDF789FD08BDC49D0008A8B2000810
:10324000CCB20008E0B2000828B3000858B3000868
:103250009CB30008C8B30008F4B3000824B4000805
:1032600050B400088CB40008A0B40008CCB4000826
:10327000F0B400081CB5000840B5000874B500089B
:1032800088B50008D0B50008FCB5000830B60008C5
:1032900068B600088CB60008C0B60008F4B600088E
:1032A00028B700083CB7000880B70008B4B700088A
:1032B000ECB7000820B8000860B800089CB8000807
:1032C000B0B80008E0B800080CB900083CB9000824
:1032D00068B900087CB90008B0B90008E8B900086E
:1032E00018BA000854BA000808B506490648FDF7A0
:1032F000B3FD0648FDF728FD054A06490648FDF7D7
:10330000ABFD08BDA0BA0008A8BA0008C0BA000802
:10331000E4BA0008F0BA0008FCBA000808B5214871
:10332000FDF712FD05F0B2F801461F48FDF794FDC8
:103330001E4B59681E48FDF78FFD1E48FDF704FD22
:103340001D4B1B6B13F0010F17D11B4B1B6B13F0A5
:10335000020F16D1184B1B6B13F0040F15D1164B2F
:103360001B6B13F0080F14D1134B1B6B13F0100FD2
:1033700013D11248FDF7E8FC08BD1148FDF7E4FC45
:10338000E3E71048FDF7E0FCE4E70F48FDF7DCFC5D
:10339000E5E70E48FDF7D8FCE6E70D48FDF7D4FC5D
:1033A000E7E700BF0CBB000828BB000814010020A1
:1033B0003CBB000854BB000800380240C49D000814
:1033C00070BB00087CBB000888BB000894BB0008E9
:1033D000A0BB000808B50448FDF7B6FC642005F062
:1033E0005BF8FDF795FA00BFACBB00082DE9F04390
:1033F00093B090F82031022B2CD905462030FDF7F0
:1034000089FB074698B30368ABB305F140039946BF
:1034100005F1600005F0E7F8044695F82031032B2C
:103420002DD84FF4FA7801AD4B46254A4221284663
:1034300005F09EFA2846FCF701FFC6B22CB32246DF
:10344000434649461F48FDF707FD1F48FDF77CFC32
:10345000002520E01D48FDF777FC1D48FDF774FCB2
:103460001C48FDF771FC1C48FDF76EFC25E01B486D
:10347000FDF76AFC21E01A48FDF766FC1DE005F146
:10348000800005F0B0F88046CDE74FF0FF32D7E777
:10349000404605F001F80CB1A5420AD26423324639
:1034A00001A9384600F03EFD0135002CF0D0AC42B9
:1034B000EED829460B48FDF7CFFC13B0BDE8F083EA
:1034C00074BC00087CBC0008A8BC0008BCBB000899
:1034D000F4BB00081CBC000848BC0008B0A10008F0
:1034E00034A20008CCBC000800B5CBB001A9FDF7A0
:1034F000C7FC78B19DF8043063B1854901A8FCF799
:1035000093FE20B1834901A8FCF78EFE20B901A8E3
:10351000FDF744FD4BB000BD7F4901A8FCF784FED8
:1035200020B17E4901A8FCF77FFE18B901A8FDF77C
:10353000DBFDEFE77A4901A8FCF776FE20B1794977
:1035400001A8FCF771FE18B901A8FDF75BFEE1E7E1
:10355000754901A8FCF768FE20B1744901A8FCF781
:1035600063FE18B901A8FDF7F9FED3E7704901A879
:10357000FCF75AFE20B16F4901A8FCF755FE18B9B7
:1035800001A8FDF715FFC5E76B4901A8FCF74CFE44
:1035900020B16A4901A8FCF747FE18B901A8FDF758
:1035A00031FFB7E7664901A8FCF73EFE20B1654947
:1035B00001A8FCF739FE18B901A8FDF755FFA9E7E6
:1035C000614901A8FCF730FE20B1604901A8FCF771
:1035D0002BFE18B901A8FDF77DFF9BE75C4901A808
:1035E000FCF722FE20B15B4901A8FCF71DFE18B9CB
:1035F00001A8FEF72BF88DE7574901A8FCF714FE48
:1036000020B1564901A8FCF70FFE18B901A8FEF732
:1036100065F97FE7524901A8FCF706FE20B1514940
:1036200001A8FCF701FE18B901A8FEF71DFA71E721
:103630004D4901A8FCF7F8FDB8B14C4901A8FCF7C9
:10364000F3FDB0B14A4901A8FCF7EEFDA8B1494924
:1036500001A8FCF7E9FD20B1474901A8FCF7E4FD0A
:1036600078B901A8FFF7C2FE54E701A8FEF70EFBE8
:1036700050E701A8FEF72CFB4CE701A8FEF7B0F8D5
:1036800048E73E4901A8FCF7CFFD20B13C4901A81D
:10369000FCF7CAFD18B901A8FEF79EFB3AE73949C5
:1036A00001A8FCF7C1FD20B1374901A8FCF7BCFD1A
:1036B00018B901A8FEF778FD2CE7344901A8FCF7FA
:1036C000B3FD20B1324901A8FCF7AEFD18B901A83D
:1036D000FEF712FE1EE72F4901A8FCF7A5FD20B159
:1036E0002D4901A8FCF7A0FD18B901A8FEF79EFE20
:1036F00010E72A4901A8FCF797FD28B1284901A83D
:10370000FCF792FD00284DD101A8FEF753FF01E719
:10371000E4BC0008F0BC0008F4BC000800BD0008D0
:1037200004BD000810BD000814BD000820BD00083D
:1037300024BD00082CBD000830BD00083CBD0008B9
:1037400040BD00084CBD000850BD00085CBD00082D
:1037500060BD00086CBD000870BD000898BE000880
:103760007CBD000888BD00088CBD000898BD00081D
:10377000A4BD0008B0BD0008FC9E0008BCBD000848
:10378000C8BD0008CCBD0008D8BD0008DCBD0008DD
:10379000E8BD0008ECBD0008FCBD000800BE000844
:1037A00008BE0008524901A8FCF73EFD68B1514926
:1037B00001A8FCF739FD20B14F4901A8FCF734FD01
:1037C00038B901A8FFF7B4F8A4E601A8FEF7B8FFDE
:1037D000A0E64A4901A8FCF727FD20B1484901A805
:1037E000FCF722FD18B901A8FFF7D4F992E6454984
:1037F00001A8FCF719FD20B1434901A8FCF714FD0D
:1038000018B901A8FFF70CFA84E6404901A8FCF7B3
:103810000BFD20B13E4901A8FCF706FD18B901A82F
:10382000FFF78EFA76E63B4901A8FCF7FDFC20B1D4
:10383000394901A8FCF7F8FC18B901A8FFF752FBB9
:1038400068E6364901A8FCF7EFFC20B1344901A82D
:10385000FCF7EAFC18B901A8FFF7FAFA5AE6314971
:1038600001A8FCF7E1FC20B12F4901A8FCF7DCFC22
:1038700018B901A8FFF710FB4CE62C4901A8FCF78A
:10388000D3FC18B901A8FFF7D5FB43E6284901A8E6
:10389000FCF7CAFC20B1274901A8FCF7C5FC18B900
:1038A00001A8FFF743FC35E6234901A8FCF7BCFC5F
:1038B00020B1224901A8FCF7B7FC18B901A8FFF70D
:1038C00013FD27E61E4901A8FCF7AEFC18B901A8B4
:1038D000FFF724FD1EE61B4901A8FCF7A5FC10B963
:1038E00001A8FFF777FD01A91748FDF7B5FA11E622
:1038F0000CBE000818BE000824BE000828BE000840
:1039000034BE000838BE000844BE000848BE0008A7
:1039100054BE000858BE000868BE00086CBE00080F
:1039200078BE00087CBE00088CBE000890BE00086F
:103930009CBE0008A4BE0008A8BE0008B0BE0008D7
:1039400094BE0008B4BE0008BCBE000808B501293A
:103950000BD00A4B1978C1F58072202392B2DFF8A0
:1039600028C0614403F0DCF808BD054B00221A7042
:1039700001231A46034903F025F9F5E76601002003
:103980005C010020680200206801002008B50F4B90
:103990001B786BB90E4B19780E4B197001220B4B2B
:1039A0001A700423DFF830C0614403F00BF908BD3E
:1039B000084B19780131C9B2197004230122DFF8CC
:1039C00018C0614403F0FEF8F1E700BF5C0100207D
:1039D000680200206601002068010020704708B5D9
:1039E00003F042F908BD08B503F03EF908BD000038
:1039F00008B50268164B9A4200D008BD154B1B78DB
:103A0000154A127882B903F07F03144A1370124AE0
:103A100001211170124AD25C124B1A7001230D4A17
:103A2000104901F0B3F9E8E70C4A1378013303F0C9
:103A30007F0313700A4AD15C0A4A11707A2BEDD1C8
:103A4000074A92F87A30013382F87A30E6E700BF0D
:103A500000300140600100205E010020660100206E
:103A60006801002064010020102800D0704708B5CC
:103A70000A4B1B6913F0100F00D008BD0023084A41
:103A80001370084A1370084801F0EAF90123074A45
:103A90000449054801F07AF9EFE700BF0000024051
:103AA0005E01002064010020080500206001002064
:103AB000064B1B6913F0100F07D0054B00221A703C
:103AC000044B93F8D020044B1A707047000002405A
:103AD0005E010020680100206401002038B503E089
:103AE000214B93F88030EBB9FCF724FF002837D046
:103AF000FCF72EFF0D28F3D00A28F1D0082822D099
:103B00007F2820D0A0F12003DBB25E2BECD8164B2F
:103B100093F880307E2BE7D8134A591C82F8801026
:103B2000D054E1E71148FDF70FF90F4C94F88030BD
:103B30000025E5542046FFF7D7FC84F880500C4858
:103B4000FDF702F9D0E7084B93F88030002BCBD07B
:103B5000013B054A82F880300648FDF7F5F8C3E7D7
:103B6000FFF7A6FF38BD00BF80060020C49D0008F7
:103B7000DCBE0008E0BE00080268074B9A4200D095
:103B8000704710B5044601F073FB0123034A044952
:103B9000204601F0FBF810BD00300140600100201C
:103BA00064010020FEE7FEE7FEE7FEE7FEE7704760
:103BB0007047704708B504F05DFC08BD08B50248C1
:103BC00000F006FB08BD00BF1401002008B5024844
:103BD00000F0FEFA08BD00BFCC00002008B5024886
:103BE00000F0F6FA08BD00BF8400002008B54FF4CD
:103BF0000051034804F007FB024803F04BFD08BDE9
:103C0000000802405403002008B5024803F01AFEE1
:103C100008BD00BF5403002008B5102004F0FCFAD2
:103C200008BD000008B5024801F082FA08BD00BFD7
:103C30000805002000B583B0002100910C4B5A6CA0
:103C400042F480425A645A6C02F480420092009A14
:103C500001911A6C42F080521A641B6C03F080537D
:103C60000193019B072004F08BFB03B000BD00BF54
:103C700000380240026802F10C0353E8003F23F4CD
:103C800090730C3242E800310029F3D1026802F14E
:103C9000140353E8003F23F00103143242E80031DB
:103CA0000029F3D1036B012B05D0202380F842308B
:103CB000002303637047026802F10C0353E8003FDE
:103CC00023F010030C3242E800310029F3D1ECE775
:103CD00090F84130212B01D0022070478368B3F562
:103CE000805F17D0036A5A1C02621A7803685A6010
:103CF000C38C9BB2013B9BB2C3844BB90268D368AF
:103D000023F08003D3600268D36843F04003D3609C
:103D1000002070470369002BE4D1036A1B88026806
:103D2000C3F308035360036A02330362E0E7000051
:103D300010B504460268136923F44053C1680B436D
:103D40001361836802691A4343691A43C3691A43BA
:103D50000168CB6823F4164323F00C031343CB60B4
:103D60000268536923F4407381690B43536103680C
:103D7000314A934206D002F58062934202D004F0A9
:103D800025F901E004F032F9E369B3F5004F29D0D9
:103D90000021031849411B1841F10001C90041EA03
:103DA0005371DB00181863684FEA83024FEA93737C
:103DB00041F10001FCF79CFA204AA2FB00314909BD
:103DC000642303FB11031B013233A2FB03235B09B2
:103DD00003F0F00202EB011203F00F032168134419
:103DE0008B6010BD0023021843EB0301121841F150
:103DF0000001C90041EA5271D200101841F10001DE
:103E0000626892185B41FCF773FA0C4AA2FB00311E
:103E10004909642303FB1103DB003233A2FB0323B4
:103E20005B095A0002F4F87202EB011203F0070377
:103E3000216813448B60D4E7001001401F85EB51CB
:103E40002DE9F04182B004460D4616469846089F7B
:103E500023681B6835EA03030CBF4FF0010C4FF0D9
:103E6000000CB44526D1B7F1FF3FF1D004F00EFBB2
:103E70004346C01AB84221D817B32368DA6812F053
:103E8000040FE5D0802DE3D0402DE1D01A6812F068
:103E9000080FDDD0002501951A6801925B68019337
:103EA000019B2046FFF7E6FE0823636484F8405038
:103EB000012000E0002002B0BDE8F0810320FAE715
:103EC0000320F8E760B310B5044690F8413013B30F
:103ED000242384F841302268D36823F40053D3604C
:103EE0002046FFF725FF2268136923F490431361EE
:103EF0002268536923F02A0353612268D36843F48C
:103F00000053D36000206064202384F8413084F89B
:103F10004230606310BD80F84030FCF751FCD7E7B9
:103F2000012070472DE9F04184B01E4690F84130E1
:103F3000202B57D104460D46002957D003920AB9C9
:103F4000012050E000234364212380F8413004F035
:103F50009DFA0746039BA384E384A368B3F5805FBF
:103F600002D00023984616E023693BB3002398460D
:103F700011E0202384F84130032034E0424632F837
:103F8000023B90462268C3F308035360E28C92B26E
:103F9000013A92B2E284E38C9BB293B100963B4625
:103FA000002280212046FFF74BFF0028E1D1002DA1
:103FB000E4D015F8012B23685A60E7E7A8461D46B0
:103FC000E9E700963B46002240212046FFF738FFF4
:103FD00018B9202384F8413005E0202384F84130CB
:103FE000032000E0022004B0BDE8F0810120FAE7E0
:103FF0002DE9F04182B01E4690F84230202B5AD174
:1040000004460D461746002959D00AB9012053E04D
:1040100000234364222280F84220036304F036FA2E
:104020008046A785E785A368B3F5805F02D00023AB
:104030001F461CE02369002B35D000231F4616E0E5
:10404000202384F84230032036E023685B68C3F302
:1040500008033A4622F8023B174603E023685B68F0
:104060002B700135E28D92B2013A92B2E285E38D76
:104070009BB2DBB100964346002220212046FFF789
:10408000DFFE0028DCD1002DDFD0A368B3F5805F10
:10409000E4D013B92369002BE0D023685B6803F0F8
:1040A0007F032B70DDE72F461D46E0E7202384F8D1
:1040B0004230002000E0022002B0BDE8F081012083
:1040C000FAE7704708B50168CA6822F04002CA6082
:1040D000202280F84120FFF7F4FF002008BD704740
:1040E00008B5806B0023C385FFF7F9FF08BD704753
:1040F00090F84230222B67D18368B3F5805F4DD0B2
:10410000826AB3F5805F04D0002B54D10369002B81
:1041100051D103685B681370836A01338362C38D76
:104120009BB2013B9BB2C385002B4FD100B583B03E
:104130000268D36823F02003D3600268D36823F4B5
:104140008073D3600268536923F001035361202315
:1041500080F8423000234363036B012B31D10023ED
:104160000363026802F10C0353E8003F23F01003DD
:104170000C3242E800310029F3D103681A6812F0CA
:10418000100F05D001911A6801925B680193019BA1
:10419000818DFFF7ACFF002003B000BD0269002A4B
:1041A000AED1826A03685B68C3F308031380836A35
:1041B00002338362B3E703685B6803F07F03137025
:1041C000AAE7FCF791FDE6E7022070470020704760
:1041D00010B582B0044602681368D068516913F0C4
:1041E0000F0F09D113F0200F0CD010F0200F09D0C1
:1041F0002046FFF77DFF16E011F0010115D110F404
:10420000907F12D1216B012979D013F0800F03D058
:1042100010F0800F40F01F8113F0400F03D010F01A
:10422000400F40F01C8102B010BD13F0010F06D00A
:1042300010F4807F03D0626C42F00102626413F0DC
:10424000040F04D019B1626C42F00202626413F0F0
:10425000020F04D019B1626C42F00402626413F0E0
:10426000080F07D010F0200F00D119B1626C42F096
:1042700008026264626C002AD5D013F0200F02D0CD
:1042800010F0200F29D123685B6903F04003626CB2
:1042900012F0080F00D163B32046FFF7EBFC236850
:1042A0005B6913F0400F20D0226802F1140353E839
:1042B000003F23F04003143242E800310029F3D1DB
:1042C000E36B73B1684A1A65E06B03F0FDFF0028E9
:1042D000A9D0E06B036D9847A5E72046FFF708FFDC
:1042E000D1E72046FFF7FBFE9DE72046FFF7F7FEEC
:1042F00099E72046FFF7F3FE0023636493E713F08A
:10430000100F82D010F0100F3FF47FAF0023019305
:104310001368019353680193019B536913F0400F95
:104320005ED0E26B13685B689BB2002B49D0A18D15
:10433000994246D9E385D369B3F5807F36D02268A8
:1043400002F10C0353E8003F23F480730C3242E87F
:1043500000310029F3D1226802F1140353E8003F31
:1043600023F00103143242E800310029F3D122681E
:1043700002F1140353E8003F23F04003143242E8F3
:1043800000310029F3D1202384F8423021632268D0
:1043900002F10C0353E8003F23F010030C3242E813
:1043A00000310029F3D1E06B03F044FF0223636383
:1043B000A18DE38D9BB2C91A89B22046FFF797FE03
:1043C00031E7A18D99427FF42EAFD369B3F5807F99
:1043D0007FF429AF022363632046FFF788FE22E7BC
:1043E000A18DE38D9BB2C91A89B2E38D9BB2002BDC
:1043F0003FF419AF00293FF416AF226802F10C0315
:1044000053E8003F23F490730C3242E80030002858
:10441000F3D1226802F1140353E8003F23F00103B3
:10442000143242E800300028F3D1202384F84230CF
:104430002063226802F10C0353E8003F23F01003CD
:104440000C3242E800300028F3D102236363204697
:10445000FFF74DFEE7E62046FFF73AFCE3E620468D
:10446000FFF730FEDFE600BFE14000088162828591
:10447000C28500234364222380F84230036923B1BC
:104480000268D36843F48073D3600268536943F0D1
:10449000010353610268D36843F02003D360002016
:1044A000704708B590F84230202B08D149B10AB9BD
:1044B000012008BD00230363FFF7D8FFF9E70220BE
:1044C000F7E70120F5E7000082B000230193164BC7
:1044D0001B68164AA2FB03235B0A642202FB03F358
:1044E0000093009B43B1009B013B009303689B68D2
:1044F00013F0020FF5D003E0436D43F04003436532
:104500000268136823F0400313600268536823F0C5
:10451000E00353600368DB680193019B072380F885
:10452000513002B0704700BF08000020F119760535
:104530000268536823F0800353600268136823F015
:1045400040031360072380F8513070472DE9F04392
:1045500083B004460F4616461D4603F097FF0A9B9C
:104560001B1A03EB050803F091FF8146284B1B68DB
:10457000C3F3CB3308FB03F3019323689B6837EA4B
:1045800003030CBF01230023B3423DD0B5F1FF3F2D
:10459000F3D003F07BFF4B46C01A404503D2019B8A
:1045A00073BB9846E9E72268536823F0E003536041
:1045B0006368B3F5827F0BD0A36AB3F5005F14D0B4
:1045C000012384F85130002384F8503003201CE08C
:1045D000A368B3F5004F02D0B3F5806FECD1226829
:1045E000136823F040031360E6E72268136823F49E
:1045F000005313602268136843F400531360DFE72D
:10460000019B013B0193B8E7002003B0BDE8F083B4
:104610000800002070B584B004460B460D461646CF
:10462000009201220221FFF791FFD0B9174B1B68BE
:10463000174AA2FB03235B0D4FF47A7202FB03F3CC
:1046400003936368B3F5827F11D0039B3BB1039B57
:10465000013B039323689B6813F0800FF5D104B0EE
:1046600070BD636D43F0200363650320F7E7009698
:104670002B46002280212046FFF768FF0028EED05D
:10468000636D43F0200363650320E8E70800002022
:10469000819F5E1610B582B004460B464168B1F5A5
:1046A000827F14D06168B1F5827F2AD1A168B1F50B
:1046B000806F19D00092002280212046FFF746FF2C
:1046C00030B3636D43F020036365032020E081680D
:1046D000B1F5004F02D0B1F5806FE3D120680168D9
:1046E00021F040010160DDE7009200220121204617
:1046F000FFF72CFF60B1636D43F020036365032077
:1047000006E00092002201212046FFF71FFF08B9B2
:1047100002B010BD636D43F0200363650320F7E72B
:10472000704700285AD010B50446436A33B943682D
:10473000B3F5827F05D00023C36102E0002303614B
:1047400043610023A36294F85130002B40D0022330
:1047500084F851302268136823F0400313606368C3
:1047600003F48273A26802F404421343E26802F481
:1047700000621343226902F002021343626902F0ED
:1047800001021343A26902F400721343E26902F0CA
:1047900038021343226A02F080021343A26A02F431
:1047A0000052216813430B60638B03F00403626AB9
:1047B00002F01002216813434B602268D36923F48E
:1047C0000063D36100206065012384F8513010BD7F
:1047D00084F850302046FFF7A3FFB8E70120704768
:1047E0002DE9F04383B00446894690461D4603F008
:1047F0004DFE94F85130012B40F0CD800646DFB2DB
:104800004946002900F0C8804246002A00F0C480D2
:1048100094F85030012B00F0C380012384F850300D
:10482000032384F8513000236365C4F83090A4F862
:104830003480A4F83680A363A387E387636423648A
:10484000A368B3F5004F1ED023681A6812F0400F1A
:1048500003D11A6842F040021A60E368B3F5006FB2
:104860001CD0636813B14346012B5FD1226B2368D0
:1048700012781A73236B01332363E38E9BB2013BDF
:104880009BB2E38652E02268136823F04003136072
:104890002268136843F480431360D5E7636813B15B
:1048A0004346012B15D1226B23681288DA60236BF3
:1048B00002332363E38E9BB2013B9BB2E38608E0A5
:1048C00003F0E4FD801BA84202D3B5F1FF3F15D1F0
:1048D000A5B1E38E9BB2002B42D023689A6812F0F8
:1048E000020FEDD0226B1288DA60236B0233236350
:1048F000E38E9BB2013B9BB2E386EAE7012384F897
:104900005130002384F85030032745E0226B1278A1
:104910001A73236B01332363B4F836C01FFA8CFC7F
:104920000CF1FF3C1FFA8CFCA4F836C0E38E9BB25E
:10493000B3B123689A6812F0020FE7D103F0A6FD25
:10494000801BA84202D3B5F1FF3F01D1002DEDD16C
:10495000012384F85130002384F8503003271BE0F2
:10496000324629462046FFF755FE08B120236365ED
:10497000A36833B901932368DA6801929B680193B5
:10498000019B012384F85130002384F85030636D7B
:1049900013B91F4600E00227384603B0BDE8F08394
:1049A0000227F9E72DE9F04383B004460F4691460C
:1049B00098460A9D03F06AFD064694F851306268F5
:1049C000012B0BD0D9B2B2F5827F40F00D81A368E4
:1049D000002B40F00D81042940F00C81002F00F0E5
:1049E0000B814B46002B00F009814346002B00F061
:1049F000078194F85030012B00F00481012384F8E2
:104A0000503094F85130042B02D0052384F85130F3
:104A100000236365C4F83890A4F83E80A4F83C8075
:104A20002763A4F83680A4F8348023646364236881
:104A30001A6812F0400F03D11A6842F040021A605F
:104A4000E368B3F5006F13D0636813B14346012BDD
:104A50000BD1226B236812781A73236B0133236303
:104A6000E38E9BB2013B9BB2E38601231F4674E0B9
:104A7000636813B14346012B0BD1226B2368128864
:104A8000DA60236B02332363E38E9BB2013B9BB25C
:104A9000E38601231F461BE02268936813F001039D
:104AA0000ED0E18F89B259B1D168A26B1180A26B8F
:104AB0000232A263E28F92B2013A92B2E2871F46BB
:104AC00003F0E4FC801BA84202D3B5F1FF3F1FD1E5
:104AD000E38E9BB21BB9E38F9BB2002B64D023689B
:104AE0009A6812F0020FD7D0E28E92B2002AD3D089
:104AF000002FD1D0226B1288DA60236B023323633C
:104B0000E38E9BB2013B9BB2E38600231F46C3E7C3
:104B1000012384F85130002384F85030032064E0EE
:104B20002268936813F001030ED0E18F89B259B166
:104B3000D168A26B1170A26B0132A263E28F92B2B4
:104B4000013A92B2E2871F4603F0A0FC831BAB42FE
:104B500002D3B5F1FF3F1FD1F5B1E38E9BB213B97C
:104B6000E38F9BB203B323689A6812F0020FD7D089
:104B7000E28E92B2002AD3D0002FD1D0226B1278CD
:104B80001A73236B01332363E38E9BB2013B9BB209
:104B9000E38600231F46C3E7012384F85130002336
:104BA00084F85030032020E0324629462046FFF7A3
:104BB00031FD90B9A36833B901932368DA68019293
:104BC0009B680193019B012384F85130002384F8F2
:104BD0005030636D4BB1012007E020236365002353
:104BE00084F85030012000E0022003B0BDE8F083DB
:104BF0000220FAE70220F8E70120F6E70120F4E7B7
:104C00000120F2E70220F0E72DE9F04383B01D46D2
:104C100090F85130012B40F0B2800446884691460E
:104C2000DEB2002900F0AC80002A00F0A9804368C1
:104C3000B3F5827F01D1836853B303F027FC0746A5
:104C400094F85030012B00F09F80012384F85030FD
:104C5000042384F8513000236365C4F83880A4F835
:104C60003C90A4F83E902363A386E38623646364A8
:104C7000A368B3F5004F15D023681A6812F0400FEF
:104C800003D11A6842F040021A60E368F3B143E0CE
:104C9000042380F85130009513460A46FFF782FE40
:104CA00006466DE02268136823F040031360226813
:104CB000136823F480431360DEE703F0E7FBC01BB7
:104CC000A84202D3B5F1FF3F15D1A5B1E38F9BB246
:104CD000002B42D023689A6812F0010FEDD0A26B2E
:104CE0001B7B1370A36B0133A363E38F9BB2013B68
:104CF0009BB2E387EAE7012384F85130002384F86C
:104D0000503003263CE003F0C1FBC01BA84202D395
:104D1000B5F1FF3F19D1C5B1E38F9BB2EBB1236869
:104D20009A6812F0010FEED0DA68A36B1A80A36BB9
:104D30000233A363B4F83EC01FFA8CFC0CF1FF3CB5
:104D40001FFA8CFCA4F83EC0E6E7012384F851303A
:104D5000002384F85030032612E03A4629462046C4
:104D6000FFF798FC08B120236365012384F85130D4
:104D7000002384F85030636D13B91E4600E002260C
:104D8000304603B0BDE8F0830226F9E730B515469A
:104D900090F851C0D0F804E0BCF1010F09D05FFADF
:104DA0008CF2BEF5827F44D18468002C43D1042A62
:104DB00043D1002943D0002D43D0002B43D090F89D
:104DC00050C0BCF1010F40D04FF0010C80F850C032
:104DD00090F851C0BCF1040F03D04FF0050C80F8DF
:104DE00051C04FF0000CC0F854C001638386C386E5
:104DF00085638387C387C368B3B1154B0364154BC1
:104E0000436403681A6812F0400F03D11A6842F035
:104E100040021A60002380F8503001684A6842F06E
:104E2000E0024A60184605E00B4B03640B4B4364F9
:104E3000E7E7022030BD0220FCE70220FAE701206C
:104E4000F8E70120F6E70120F4E70220F2E700BFCF
:104E5000F9500008C150000889500008515000085E
:104E600010B584B004464A4B1B684A4AA2FB032390
:104E70005B0A642202FB03F30293029B0393026822
:104E8000536823F0200353600268536813F0800FC7
:104E900011D0414B4364039B3BB1039B013B039304
:104EA00094F85130072BF6D103E0636D43F04003D3
:104EB0006365029B0393536813F0400F11D0374B87
:104EC0002364039B3BB1039B013B039394F8513054
:104ED000072BF6D103E0636D43F040036365029B4B
:104EE0000393536813F0020F1DD0A36CDBB10022B3
:104EF0001A65A06C03F09EF908B14023636522682F
:104F0000536823F002035360039B43B1039B013BAF
:104F1000039323689B6813F0020FF5D003E0636DE1
:104F200043F04003636523685B6813F0010F13D0FF
:104F3000E36C8BB100221A65E06C03F07BF908B1D9
:104F4000402363652268136823F0400313602268DE
:104F5000536823F0010353600023E387E386636D06
:104F6000402B12D000206065002200922368D9688F
:104F7000009199680091009901929B680193019BAF
:104F8000012384F8513004B010BD0120ECE700BFCC
:104F900008000020F119760531450008C9440008D1
:104FA0007047000010B582B00446274B1B68274AA3
:104FB000A2FB03235B0A642202FB03F3019303F0C9
:104FC00065FA024621684B6823F020034B60019B81
:104FD00043B1019B013B019323689B6813F0020FCF
:104FE000F5D003E0636D43F0200363656421204640
:104FF000FFF710FB18B1636D43F020036365A368EE
:1050000033B900932368DA6800929B680093009B91
:10501000636D93B994F85130042B07D0012384F8C1
:1050200051302046FEF7E4FC02B010BD012384F8A5
:1050300051302046FFF7B4FFF6E7012384F85130E2
:105040002046FEF799FDEFE708000020F1197605EC
:1050500008B5026B036812781A73036B013303639C
:10506000C38E9BB2013B9BB2C386C38E9BB23BB93E
:105070000268536823F080035360C38F9BB203B16F
:1050800008BDFFF78FFFFBE708B50268836B127B53
:105090001A70836B01338363C38F9BB2013B9BB256
:1050A000C387C38F9BB23BB90268536823F0600388
:1050B0005360C38E9BB203B108BDFFF773FFFBE7DC
:1050C00008B5026B03681288DA60036B023303636E
:1050D000C38E9BB2013B9BB2C386C38E9BB23BB9CE
:1050E0000268536823F080035360C38F9BB203B1FF
:1050F00008BDFFF757FFFBE708B50368DA68836B65
:105100001A80836B02338363C38F9BB2013B9BB2D4
:10511000C387C38F9BB23BB90268536823F0400337
:105120005360C38E9BB203B108BDFFF73BFFFBE7A3
:1051300010B584B00446026851689368C3F38010C8
:1051400013F0400F05D113F0010F02D011F0400F02
:105150006DD113F0020F02D011F0800F6BD1C3F3A9
:10516000401C13F0200F03D110B913F4807F65D0D9
:1051700011F0200F62D070B194F8510003285FD075
:10518000606D40F00400606500200090D0680090E1
:10519000906800900098BCF1000F0CD0606D40F05A
:1051A000010060650020029090680290106820F075
:1051B00040001060029A13F4807F09D0636D43F0C1
:1051C000080363650023039323689B680393039B91
:1051D000636D002B32D02268536823F0E0035360E4
:1051E000012384F8513011F0020F02D111F0010FA8
:1051F0002ED02268536823F003035360E36C4BB155
:10520000154A1A65E06C03F05FF818B1636D43F05E
:1052100040036365A36C8BB10F4A1A65A06C03F061
:1052200053F858B1636D43F04003636506E0236CA7
:105230002046984702E0636C2046984704B010BDB2
:1052400000230193D368019393680193019BF5E7D1
:105250002046FEF791FCF1E75D52000808B5806B2F
:105260000023C387C386FEF787FC08BD7047000094
:1052700070B584B00446514B1B68514AA2FB03230E
:105280005B0A642202FB03F30293029B039302680E
:10529000536823F0200353600268536813F0800FB3
:1052A00011D0484B4364039B3BB1039B013B0393E9
:1052B00094F85130072BF6D103E0636D43F04003BF
:1052C0006365029B0393536813F0400F11D03E4B6C
:1052D0002364039B3BB1039B013B039394F8513040
:1052E000072BF6D103E0636D43F040036365029B37
:1052F0000393A36C2BB1526812F0020F1CD0334AF7
:105300001A65E36C33B12268526812F0010F16D0AF
:105310002F4A1A6523685B6813F0020F12D0A06C45
:1053200038B302F0D1FF38B3A36C00221A654023D2
:10533000636501231E4607E000221A65E1E70022AB
:105340001A65E7E701231E4623685B6813F0010F27
:105350000AD0E06C40B102F0B7FF054630B1E36C13
:1053600000221A654023636546B93546284604B0D5
:1053700070BD01231E46E7E70646E5E70023E38705
:10538000E386636D402B15D0002363651D46002224
:1053900000922368D9680091996800910099019260
:1053A0009B680193019B012384F851302046FFF74D
:1053B0005DFFDBE701231D46E9E700BF0800002091
:1053C000F119760531450008C94400084D5400081C
:1053D000D553000810B582B0846B2268136823F09F
:1053E00040031360E36C00221A652268536823F0BF
:1053F0000103536003F04AF8024664212046FFF798
:1054000009F918B1636D43F040036365A36C0BB1F8
:105410001B6DC3B9E387E386636D402B01D0002386
:105420006365002200922368D96800919968009111
:10543000009901929B680193019B012384F85130EC
:105440002046FFF713FF02B010BD000000B585B085
:10545000806B836C00221A651D4B1B681D4AA2FBE2
:1054600003235B0A642202FB03F30393026853687D
:1054700023F002035360039B43B1039B013B03935F
:1054800003689B6813F0020FF5D003E0436D43F00F
:1054900040034365C36C0BB11B6DBBB9C387C386A7
:1054A000436D402B01D00023436500220192036825
:1054B000D968019199680191019902929B680293C0
:1054C000029B012380F85130FFF7D0FE05B000BDEC
:1054D00008000020F119760503685A6912F0800F60
:1054E00001D000221A61704790F83E30402B10D056
:1054F0000369B3F5804F1BD0036D002B38D1436C8B
:10550000C3F3C813026803F0060343F0F00313610A
:105510007047036D2BB9436C026803F0FE031361FF
:105520007047436C026843F00103DBB213617047BC
:1055300090F83D30212B0FD0436C026843F00103FB
:10554000DBB21361436B6BB1DB6B5BB10268536819
:1055500043F4006353607047436C026803F0FE033A
:105560001361EFE7836B33B1DB6B002BEED102E00D
:10557000036D012B00D07047436CC3F3C81302685E
:1055800003F0060343F0F1031361F4E7436C026890
:10559000DBB21361436B3BB1DB6B2BB10268536829
:1055A00043F4006353607047836B002BFBD0DB6BCD
:1055B000002BF3D1F7E78AB090F83E30C16AD0F8FB
:1055C00030C090F83D20222A09D0002309930368B7
:1055D0005A6909929B690993099B0AB07047DBB22B
:1055E000026D0AB9402B17D0036D1BB90369B3F5DF
:1055F000404F19D0438D9BB2002B25D102930368F5
:105600005A6902929A690292029A1A6842F40072E6
:105610001A6000230365E0E7009203685A6900926C
:105620009B690093009BD8E70023019303685A69A4
:1056300001929A690192019A1A6842F480721A6082
:10564000036D01330365C8E7438D9BB2012B25D061
:10565000438D9BB2022B7CD00268136843F48063B5
:10566000136003685A6812F4006F0ED011F5803F82
:1056700007D0012905D0082903D0102901D02029FD
:1056800003D15A6842F480525A6000230893036899
:105690005A6908929B690893089BBAE711F5803F05
:1056A00012D0082935D0202933D0BCF1120F2ED0CA
:1056B000042940D002293ED010293CD0026813684A
:1056C00023F4806313603BE00268136823F4806373
:1056D000136003685A6812F4006F0CD01A6822F441
:1056E00080621A600023039303685A6903929B69DE
:1056F0000393039B8DE7002204925A6904929A69EE
:105700000492049A1A6842F400721A6081E701292F
:10571000D0D00268136823F48063136000230693DB
:1057200003685A6906929A690692069A1A6842F4C0
:1057300000721A606DE70268136843F480631360B7
:105740000023059303685A6905929B690593059B9D
:105750005FE704290ED002290CD010290AD0026874
:10576000136823F4806313600268136843F40063D2
:10577000136004E00268136843F4806313600368F5
:105780005A6812F4006F0ED011F5803F07D001293E
:1057900005D0082903D0102901D0202903D15A6847
:1057A00042F480525A600023079303685A690792B3
:1057B0009B690793079B2CE7438D9BB25BB1426AC1
:1057C000036812781A61436A01334362438D9BB2C6
:1057D000013B9BB243857047438D9BB25BB103682D
:1057E0001A69436A1A70436A01334362438D9BB25C
:1057F000013B9BB24385704782B0002301930E4B5F
:105800001B68DB080D4AA2FB03231B0A03EB83037F
:105810000193019B013B0193019B33B103681B681A
:1058200013F4007FF5D1002004E0036C43F0200363
:105830000364012002B070470800002089B5F81405
:1058400003685A6912F4806F01D1002070476FF429
:1058500080625A6100230363202280F83D2080F893
:105860003E30026C42F00402026480F83C300120B9
:105870007047C36AB3F52A0F04D0C36AB3F12A4F45
:1058800003D070470123C36270470823C362F8E75F
:105890002DE9F04106460C46174698463BE002F0DB
:1058A000F5FD069BC01A404502D8B8F1000F32D171
:1058B000012D18D033689B6924EA03039BB2B3FA25
:1058C00083F35B099F4226D100233363202286F8AD
:1058D0003D2086F83E30326C42F02002326486F879
:1058E0003C30012027E033685B6924EA03039BB264
:1058F000B3FA83F35B09E5E733685B6924EA030CD9
:105900001FFA8CFCBCFA8CFC4FEA5C1C674511D179
:10591000B8F1FF3FC3D1C4F30745012DECD0336884
:105920009B6924EA030C1FFA8CFCBCFA8CFC4FEA3E
:105930005C1CEBE70020BDE8F0812DE9F041044656
:105940000D461746984652E01A6842F400721A60F3
:1059500023686FF480625A6100232363202284F855
:105960003D2084F83E30226C42F00402226484F828
:105970003C30012049E002F089FD4346C01AB8429C
:1059800001D8002F33D1012E17D023689B6925EA57
:1059900003039BB2003B18BF012343B300232363DF
:1059A000202284F83D2084F83E30226C42F0200210
:1059B000226484F83C30012027E023685B6925EAF3
:1059C00003039BB2003B18BF0123E6E723689B69F2
:1059D00025EA03039BB2003B18BF0123A3B1236850
:1059E0005A6912F4806FAFD1B7F1FF3FC3D1C5F34D
:1059F0000746012EEAD123685B6925EA03039BB2BF
:105A0000003B18BF0123E9E71846BDE8F08100001C
:105A1000F0B583B004460E4617461D46C36A082BF0
:105A20000DD0012B0BD013F5803F08D0036B122B48
:105A30000AD10268136843F48073136004E022689B
:105A4000136843F48073136000953B4600224FF0C7
:105A500001112046FFF71CFF80B92369B3F5804F81
:105A600016D1236806F0FE021A612B463A46134906
:105A70002046FFF762FFF8B903B0F0BD23681B684A
:105A800013F4807F02D04FF4007323640320F3E704
:105A9000F311226803F0060343F0F00313612B4671
:105AA0003A4607492046FFF748FF18B92268F3B283
:105AB0001361DAE70120DFE70120DDE702000100E2
:105AC000080001002DE9F04184B004460E46174657
:105AD0001D46C26A01680B6843F480630B60082AA4
