:020000040800F2
:1000000000000220516A0008F1380008F3380008A7
:10001000F5380008F7380008F9380008000000003B
:10002000000000000000000000000000FB38000895
:10003000FD38000800000000FF3800080139000802
:10004000A16A0008A16A0008A16A0008A16A000864
:10005000A16A0008A16A0008A16A0008A16A000854
:10006000A16A0008A16A0008A16A0008A16A000844
:10007000A16A0008A16A0008A16A0008A16A000834
:10008000A16A0008A16A0008A16A00080000000037
:10009000000000000000000000000000A16A00084D
:1000A000A16A0008A16A0008A16A0008A16A000804
:1000B000A16A0008A16A0008A16A0008A16A0008F4
:1000C000A16A0008A16A0008A16A0008A16A0008E4
:1000D000A16A000809390008193900080000000069
:1000E000A16A0008A16A0008A16A000800000000D7
:1000F000000000000000000000000000A16A0008ED
:1001000000000000A16A0008A16A0008A16A0008B6
:1001100000000000000000000000000000000000DF
:10012000A16A0008A16A0008A16A0008A16A000883
:10013000A16A0008000000000000000000000000AC
:10014000000000000000000000000000A16A00089C
:10015000A16A0008A16A0008A16A000829390008FC
:10016000A16A0008A16A0008000000000000000069
:10017000000000000000000000000000000000007F
:1001800000000000A16A000800000000000000005C
:08019000A16A0008A16A000841
:1001A0000348044B834202D0034B03B11847704706
:1001B0006800002068000020000000000548064B91
:1001C0001B1AD90F01EBA301491002D0034B03B155
:1001D00018477047680000206800002000000000F9
:1001E00010B5064C237843B9FFF7DAFF044B13B17F
:1001F0000448AFF300800123237010BD6800002085
:10020000000000008880000808B5044B1BB10449B9
:100210000448AFF30080BDE80840CFE700000000CD
:100220006C0000208880000810F8012B11F8013BB9
:10023000012A28BF9A42F7D0D01A7047034613F814
:10024000012B002AFBD1181A01387047000000006A
:1002500001F0FF01102A2BDB10F0070F08D010F877
:10026000013B013A8B422DD010F0070F42B3F6D17B
:10027000F0B441EA012141EA014122F007047FF094
:1002800000070023F0E80256083C85EA010586EAEB
:10029000010685FA47F5A3FA87F586FA47F6A5FA27
:1002A00087F68EB9EED1F0BC01F0FF0102F0070233
:1002B00032B110F8013B013A83EA010313B1F8D1DE
:1002C0000020704701387047002D06BF35460338BF
:1002D000073815F0010F07D1013015F4807F02BFF8
:1002E000013015F4C03F0130F0BC0138704700BF49
:1002F00053B94AB9002908BF00281CBF4FF0FF318D
:100300004FF0FF3000F09CB9ADF1080C6DE904CE60
:1003100000F006F8DDF804E0DDE9022304B07047E0
:100320002DE9F04782B00646DDF828E00846B446DD
:100330000D46002B4ED18A4214466DD9B2FA82F294
:1003400042B1C2F12003954026FA03F394401D43C5
:1003500006FA02FC260CA7B2B5FBF6F14FEA1C43E5
:1003600006FB115543EA054301FB07F0984209D902
:10037000E31801F1FF3580F00381984240F20081DB
:10038000023923441B1A1FFA8CFCB3FBF6F006FB60
:1003900010334CEA034C00FB07F363450AD914EB16
:1003A0000C0C00F1FF3580F0ED80634540F2EA80EF
:1003B000A444023840EA0140ACEB030C0021BEF13A
:1003C000000F04D02CFA02F30022CEE9003202B072
:1003D000BDE8F0878B4209D9BEF1000F01D0CEE90C
:1003E00000610021084602B0BDE8F087B3FA83F14E
:1003F000174600294DD1834202D3B24200F20F8149
:10040000B6EB070C60EB030301201D46BEF1000FA5
:10041000DDD0CEE900C5DAE7002A00F098801A4660
:10042000B4FA84F3002B40F0AF800B1B270CA6B26C
:100430000121B3FBF7F54FEA1C4007FB153340EAF7
:10044000034306FB05F8984507D9E31805F1FF308B
:1004500002D2984500F2E8800546A3EB08031FFA94
:100460008CFCB3FBF7F007FB10334CEA034C06FBA4
:1004700000F3634508D914EB0C0C00F1FF3602D2EF
:10048000634500F2CE803046ACEB030C40EA0540F9
:1004900095E7C1F120058B4022FA05FC4CEA030CDC
:1004A00000FA01F426FA05F3E84002FA01F943EAFA
:1004B00004084FEA1C4206FA01FAB0FBF2F71FFAF1
:1004C0008CF602FB17004FEA184444EA004407FB8D
:1004D00006F0A0420AD91CEB040407F1FF3380F0B8
:1004E0009C80A04240F29980023F6444241A1FFA83
:1004F00088F3B4FBF2F002FB104443EA044300FB30
:1005000006F69E4209D91CEB030300F1FF3480F08C
:1005100082809E427FD90238634440EA0740A0FBB4
:1005200009749B1BA3423E46A04664D361D0BEF132
:10053000000F0AD0BAEB060263EB080303FA05F5D5
:10054000CA401543CB40CEE9005300213FE7730872
:1005500043EAC1734A08190C41EA02414FEAC67CDA
:100560009BB2B2FBF4F02646A04627461F2243EA80
:100570000143B1FBF4F1A3EB080341EA004158E762
:100580002946FFE6284615E71A46C3F120019C409C
:1005900026FA01F320FA01F190400343270C06FAF2
:1005A00002FCB1FBF7F0A6B207FB1015190C41EAEB
:1005B000054100FB06F58D423BD9611801D28D4201
:1005C00020D8491B0138B1FBF7F5019505FB06F86A
:1005D000019D9BB207FB151143EA0143434526D217
:1005E000E31805F1FF31C6D24345C4D2A91E234406
:1005F000C1E7BA459BD2B7EB090664EB0C0401389E
:10060000A04694E7651B29440238B1FBF7F5019534
:1006100005FB06F8DCE720467FE71F4666E708464D
:10062000F4E6A44402382FE7023D234415E701997C
:10063000A1E7491BB1FBF7F5019505FB06F8C7E7F4
:10064000704700BF72B6FEE710B594B008AC302218
:100650000021204606F02EFC00230393049305930B
:100660000693079301931E4A116C41F08051116467
:10067000126C02F080520192019A0293194A116899
:1006800041F440411160126802F440420292029A21
:100690000222089201210B9110210C910E920F93CE
:1006A000082310936423119312920423139320467A
:1006B00005F0DAFB78B90F23039302230493059026
:1006C0004FF4805206920790032103A805F038FEEC
:1006D00018B914B010BDFFF7B5FFFFF7B3FF00BFA7
:1006E000003802400070004008B506F007F9FFF737
:1006F000ABFF00F007F800F049F800F047FB03F00B
:100700009DF8FCE786B0002200921F4B196B41F068
:1007100001011963196B01F0010100910099019227
:10072000196B41F002011963196B01F0020101918B
:1007300001990292196B41F004011963196B01F0E0
:100740000401029102990392196B41F008011963A7
:10075000196B01F00801039103990492196B41F0A0
:1007600010011963196B01F01001049104990592AD
:100770001A6B42F080021A631B6B03F0800305932F
:10078000059B06B0704700BF0038024008B50A4814
:100790000A4B03604FF4E133436000238360C3607E
:1007A00003610C2242618361C36103F00DFA00B959
:1007B00008BDFFF747FFFBE71401002000100140D0
:1007C00000B58DB000230793089309930A930B9308
:1007D00003684A4A934207D0494A934231D0494A72
:1007E00093425CD00DB000BD00210191464B1A6CC4
:1007F00042F400321A641A6C02F400320192019A37
:1008000002911A6B42F001021A631B6B03F00103A1
:100810000293029B0C23079302230893012309935D
:1008200003230A9307230B9307A9384805F05EFEBC
:1008300000221146262006F013F8262006F020F8A4
:10084000D0E700210391304B5A6C42F010025A64F9
:100850005A6C02F010020392039A04911A6B42F050
:1008600001021A631B6B03F001030493049B4FF412
:10087000C0630793022308930123099303230A9378
:1008800007230B9307A9214805F030FE00221146EB
:10089000252005F0E5FF252005F0F2FFA2E7002165
:1008A0000591194B5A6C42F020025A645A6C02F0BE
:1008B00020020592059A06911A6B42F001021A6312
:1008C0001B6B03F001030693069B4FF4C053079381
:1008D000022308930123099303230A9308230B930C
:1008E00007A90A4805F002FE00221146472005F03C
:1008F000B7FF472005F0C4FF74E700BF0044004085
:100900000010014000140140003802400000024085
:10091000BFF34F8F0549CA6802F4E062044B1343EA
:10092000CB60BFF34F8F00BFFDE700BF00ED00E0DD
:100930000400FA05044B188880B2044B1B889BB254
:10094000C01A18BF0120704756040020540400202C
:100950000D4B1A8892B20D4B1B889BB29A4210D055
:100960000A4A13889BB20A49C85CC0B213889BB27A
:1009700001335942DBB2C9B258BF4B429BB213801C
:1009800070470020704700BF560400205404002028
:100990005804002010B504461549FFF745FCE0B1A6
:1009A00014492046FFF740FCC8B113492046FFF721
:1009B0003BFCB0B111492046FFF736FC98B1104915
:1009C0002046FFF731FC80B10E492046FFF72CFC92
:1009D00008B90D4802E0002000E00C4810BD0B48AB
:1009E000FCE70A48FAE70848F8E70748F6E700BFD7
:1009F00030810008388100084081000844810008E7
:100A00004C8100085481000884000020CC000020A4
:100A100010B504462349FFF707FC80B3224920465E
:100A2000FFF702FC68B321492046FFF7FDFB50B3F6
:100A30001F492046FFF7F8FB38B31E492046FFF751
:100A4000F3FB20B31C492046FFF7EEFB08B31B491C
:100A50002046FFF7E9FBF0B119492046FFF7E4FB18
:100A6000D8B118492046FFF7DFFBC0B11649204630
:100A7000FFF7DAFB08B9154802E0002000E014484F
:100A800010BD1348FCE71348FAE71248F8E712488C
:100A9000F6E71148F4E71148F2E71048F0E70B4891
:100AA000EEE700BF588100086081000864810008FB
:100AB000408100086C81000874810008788100087A
:100AC00080810008848100088C8100088402002055
:100AD000E40300208C03002034030020DC0200200B
:100AE00000B589B0002303930493059306930793FD
:100AF00003F1804303F58833984207D02D4B984289
:100B000020D02D4B984238D009B000BD002300936F
:100B10002A4B1A6B42F001021A631B6B03F00103AC
:100B20000093009B4FF4C0630393022304930123BB
:100B30000593032306930723079303A9204805F091
:100B4000D5FCE1E7002301931C4B1A6B42F0010234
:100B50001A631B6B03F001030193019B0C230393A6
:100B6000022304930123059303230693072307938A
:100B700003A9134805F0BAFCC6E7002302930F4B04
:100B80001A6B42F001021A631B6B03F0010302931C
:100B9000029B4FF4C0530393022304930123059354
:100BA000032306930823079303A9054805F09EFC39
:100BB000AAE700BF00440040001401400038024092
:100BC0000000024000B589B000230393049305930D
:100BD000069307931D4B984204D01D4B98421AD0A0
:100BE00009B000BD002301931A4B1A6B42F00102B9
:100BF0001A631B6B03F001030193019BE023039332
:100C000002230493032306930523079303A91248A1
:100C100005F06CFCE4E7002302930E4B1A6B42F0E4
:100C200010021A631B6B03F010030293029B4FF434
:100C3000E0430393022304930323069306230793BD
:100C400003A9064805F052FCCAE700BF0030014086
:100C500000500140003802400000024000100240F5
:100C6000F0B583B004460F461646002534E0013443
:100C70002378202BFBD0092BF9D08BB30023ADF8C0
:100C800004304FF000028DF806202378ABB1617874
:100C9000A1F13002D2B2092A09D9A1F14102D2B29E
:100CA000052A04D9A1F16102D2B2052A05D88DF82E
:100CB000043002348DF8051006E030238DF804303E
:100CC00014F8013B8DF805301022002101A805F031
:100CD00067FF6B1C78559DB223780BB1B542C7D323
:100CE000284603B0F0BD000008B5124B984200D072
:100CF00008BD114B1B889BB201335A42DBB2D2B202
:100D000058BF53429BB20D4A128892B29A420AD0FF
:100D10000948028892B20A490978C9B2DFF824C0AA
:100D20000CF80210038001220549024803F03BFA47
:100D3000DEE700BF14010020560400205404002008
:100D4000580500205804002010B50446FFF776FA35
:100D5000642382B22146024802F066FF10BD00BF44
:100D6000140100200FB410B5A2B024AB53F8042B2B
:100D7000019302AC8021204606F07EF82046FFF762
:100D8000E3FF22B0BDE8104004B0704710B58222E6
:100D90000021104806F08EF801220F490F4803F099
:100DA00002FA0F48FFF7D0FF0E4C2046FFF7CCFFAA
:100DB0000D48FFF7C9FF0D490D48FFF7D3FF0D4858
:100DC000FFF7C2FF2046FFF7BFFF0B48FFF7BCFF4E
:100DD00010BD00BF5C050020580500201401002054
:100DE0009081000894810008C0810008E881000813
:100DF000F0810008008200082082000870B5A0B0D1
:100E000004460D4640F221120021284606F052F811
:100E10007F222146684606F082F81449684606F0AB
:100E200091F800B30146002301E0EC540133CC5C9F
:100E300074B1A4F16102D2B2192AF6D8203CE4B20E
:100E4000F3E701341F2205EB441006F068F8E4B222
:100E50000649002006F076F8014608B1072CF0D9C3
:100E600085F82041012020B070BD00BF2C82000811
:100E70000146A0F16103DBB2192B02D8A0F12001D9
:100E8000C9B2002200E00132054B03EBC2035868EF
:100E900020B1034B13F832308B42F4D1704700BFBE
:100EA0009CA300080F2804D8012303FA00F080B2A5
:100EB00070470020704770B504460D461646FFF790
:100EC000BDF9012811D92078FFF7D2FF286068B159
:100ED000601C05F0E6FDC0B2FFF7E4FF308030B9DA
:100EE0006378302B05D1012000E0002070BD012087
:100EF000FCE70020FAE700002DE9F04192B090F8FD
:100F000020315BB100F1200398460DF1420211A996
:100F10001846FFF7D0FF28B1002309E03E48FFF74D
:100F200013FF74E041463D48FFF71CFF6FE00133BB
:100F30000F2B08DCBDF842201A4112F0010FF6D049
:100F40005FFA83FC01E04FF0000C119C23684FEA2C
:100F50004C05EB4003F00306DFF8E4E09EE80F00E9
:100F60000CAF87E80F00636823FA0CF303F0010766
:100F70000AAB0EF1100292E8030083E80300A368B5
:100F8000EB4003F0030301930DF1180C0EF118036D
:100F90000FCB8CE80F00E368EB4003F003050DF185
:100FA000080C0EF1280E9EE80F008CE80F00BDF82B
:100FB0004210204605F08AFB044641461848FFF7D8
:100FC000D1FE12AA02EB860353F8181C1548FFF74E
:100FD000C9FE12AA02EB870353F8201C1248FFF740
:100FE000C1FE12AA019B02EB830353F8301C0F4889
:100FF000FFF7B8FE12AB03EB850353F8401C0C4817
:10100000FFF7B0FE34B10B490B48FFF7ABFE12B04F
:10101000BDE8F0810949F7E73082000860820008E6
:101020007C8200088882000898820008A882000854
:10103000B88200081CA10008C88200082CA1000882
:10104000A080000810B58CB090F8203133B300F1C7
:1010500020031C460DF12A020BA91846FFF72BFFAF
:1010600000B30B98354B984221D0354B98423ED077
:10107000344B984248D0344B984252D0334B98422C
:1010800021D100230493324B1A6B42F010021A63F1
:101090001B6B03F010030493049B14E02D48FFF72F
:1010A00053FE22E021462C48FFF75CFE1DE00023A2
:1010B0000093274B1A6B42F001021A631B6B03F07B
:1010C00001030093009B05A9002305934B608B60EF
:1010D000CB600B61BDF82A3005930123069305F020
:1010E00005FA21461D48FFF73DFE0CB010BD002358
:1010F0000193174B1A6B42F002021A631B6B03F049
:1011000002030193019BDEE700230293104B1A6B4D
:1011100042F004021A631B6B03F004030293029B68
:10112000D1E7002303930A4B1A6B42F008021A63BB
:101130001B6B03F008030393039BC4E7000002400A
:101140000004024000080240000C0240001002406F
:1011500000380240D882000860820008F48200084B
:1011600070B58CB090F820313BB3044600F12003F9
:101170001E460DF12A020BA91846FFF79CFE00B38C
:101180000B9D424B9D4221D0414B9D423DD0414B56
:101190009D4247D0404B9D4251D0404B9D4221D172
:1011A000002304933E4B1A6B42F010021A631B6B30
:1011B00003F010030493049B14E03A48FFF7C4FDC6
:1011C0005DE031463848FFF7CDFD58E0002300933D
:1011D000334B1A6B42F001021A631B6B03F00103DD
:1011E0000093009B94F82031012B35D940342F49CE
:1011F0002046FFF719F8002843D02D492046FFF775
:1012000013F800283FD0002227E000230193244B4D
:101210001A6B42F002021A631B6B03F00203019384
:10122000019BDFE7002302931D4B1A6B42F004027F
:101230001A631B6B03F004030293029BD2E70023A3
:101240000393174B1A6B42F008021A631B6B03F0EF
:1012500008030393039BC5E7002205A90023059318
:101260004B608B60CB600B61BDF82A300593079211
:10127000284605F03BF931460E48FFF773FD0CB0E8
:1012800070BD0122E9E70222E7E700BF000002404B
:101290000004024000080240000C0240001002401E
:1012A0000038024014830008608200084083000870
:1012B000448300084C83000810B582B090F82031B8
:1012C000ABB100F120031C460DF1020201A9184642
:1012D000FFF7F1FD78B10122BDF80210019805F089
:1012E000FCF921460648FFF73DFD02B010BD054858
:1012F000FFF72AFDF9E721460348FFF733FDF4E73E
:10130000848300086C8300086082000810B582B0F6
:1013100090F82031ABB100F120031C460DF1020220
:1013200001A91846FFF7C7FD78B10022BDF80210E9
:10133000019805F0D2F921460648FFF713FD02B0E7
:1013400010BD0548FFF700FDF9E721460348FFF708
:1013500009FDF4E7AC83000894830008608200086C
:1013600010B582B090F82031B3B100F120031C46D3
:101370000DF1020201A91846FFF79DFD80B1BDF8ED
:101380000210019805F0A2F978B1094A21460948EE
:10139000FFF7E8FC02B010BD0748FFF7D5FCF9E7FE
:1013A00021460648FFF7DEFCF4E7054AEEE700BFFA
:1013B0001CA10008D4830008BC83000860820008D8
:1013C0002CA1000810B582B090F82031DBB100F1FB
:1013D00020031C460DF1020201A91846FFF76BFD20
:1013E000A8B1BDF80210019805F07DF9BDF8021012
:1013F000019805F06BF978B1084A21460848FFF7D3
:10140000B1FC02B010BD0748FFF79EFCF9E721468A
:101410000548FFF7A7FCF4E7044AEEE71CA1000823
:10142000FC830008E0830008608200082CA100080B
:1014300070B58CB090F82031012B27D9044600F10B
:1014400020031E460DF12A020BA91846FFF733FDB3
:1014500000B30B9D464B9D4221D0464B9D424CD044
:10146000454B9D4256D0454B9D4260D0444B9D42DA
:1014700021D100230493434B1A6B42F010021A63EC
:101480001B6B03F010030493049B14E03E48FFF72A
:101490005BFC30E031463D48FFF764FC2BE0002365
:1014A0000093384B1A6B42F001021A631B6B03F076
:1014B00001030093009B0023059306930793089371
:1014C0000993BDF82A300593403431492046FEF790
:1014D000ABFE38B12F492046FEF7A6FE002833D1D7
:1014E0000123069305A9284605F000F82246314657
:1014F0002948FFF737FC0CB070BD00230193214B46
:101500001A6B42F002021A631B6B03F00203019391
:10151000019BD0E7002302931A4B1A6B42F004029E
:101520001A631B6B03F004030293029BC3E70023BF
:101530000393144B1A6B42F008021A631B6B03F0FF
:1015400008030393039BB6E714492046FEF76CFE9D
:1015500010B902230693C5E711492046FEF764FE41
:1015600010B903230693BDE70E48FFF7EDFBC2E772
:10157000000002400004024000080240000C02404B
:101580000010024000380240148400086082000805
:1015900074A3000800A10008708400083C840008BF
:1015A0004084000844840008F0B583B090F82031EE
:1015B000012B33D9054600F120031F461846FFF7DB
:1015C000E9F9044688B305F1400005F06AFA0646D9
:1015D000A0F59672404B9A422BD8404B9C422CD09F
:1015E00066600023A360E36023610C226261A36153
:1015F000E36195F82031022B36D995F86030452B00
:101600002CD0652B2AD04F2B01D06F2B2CD14FF42F
:10161000C06323614FF48053A36025E03048FFF797
:1016200093FB3048FFF790FB54E02F48FFF78CFB0B
:1016300050E02E48FFF788FB4CE0002301932C4B31
:101640005A6C42F010025A645B6C03F01003019371
:10165000019B28482060FFF743FAC1E74FF48063FD
:1016600023614FF48053A36095F82031032B03D9F5
:1016700095F88030322B14D0204602F0A5FAA0B99C
:10168000202384F8413084F842302368194A934279
:101690000FD002F5806293420BD004F007FF05469D
:1016A0000AE04FF40053E360E6E71348FFF74CFB12
:1016B00010E004F00BFF054639461048FFF752FBD7
:1016C00031460F48FFF74EFB23689A6829460D48BC
:1016D000FFF748FB03B0F0BD94C52D0014010020B6
:1016E00088840008BC840008E0840008188500088D
:1016F0000038024000100140408500085C85000869
:101700007885000890850008F0B589B090F8203100
:10171000012B4DD9044600F120052846FFF73AF980
:1017200000284CD00368304A93424FD0A2F54C4277
:10173000934248D002231F4604F140060DF11A02DD
:1017400007A93046FFF7B7FB002842D0274B079A7E
:1017500043F8372003EBC703BDF81A209A8094F8AA
:101760002031022B3AD80120204C04EBC704A07191
:101770000122E27101A9002301934B608B60CB60D1
:101780000B61BDF81A3001930292079804F0AEFE87
:10179000A279B2FA82F25209BDF81A10079804F041
:1017A0009CFF324629461248FFF7DCFA09B0F0BD2B
:1017B0001048FFF7C9FA1048FFF7C6FAF6E70F48D6
:1017C000FFF7C2FAF2E701231F46B5E700231F46E1
:1017D000B2E731460A48FFF7C5FAE7E704F16000CF
:1017E00005F05FF9C0B2BFE7001001403C040020E3
:1017F00034860008AC850008D4850008F48500080C
:1018000014860008F0B5C1B090F82031012B0FD933
:1018100005462030FFF7BEF8064668B103687BB185
:10182000802200210DEB020005F044FB012411E0B1
:101830005048FFF789FA85E04F48FFF785FA81E0C5
:101840004E48FFF781FA7DE0013405EB441120A8F2
:1018500005F056FB95F82031A34209DD012CF3DD9C
:1018600020AF3846FEF7EAFC454B1B883B52EBE7BE
:10187000002420AA18E074290ED109210DF80410C3
:10188000013410E00D210DF8041001340BE05C214F
:101890000DF80410013406E00DF80410013402E0E4
:1018A0000DF804300134013213789BB17E2C11DC29
:1018B0005C2BF5D151780029F2D001327229E1D0A8
:1018C000D9D85C29E3D06E29E6D10A210DF804109D
:1018D0000134E8E700220DF80420336802F1804269
:1018E00002F58832934231D0A2F54C4293422BD07C
:1018F00002200746234B03EBC003DB7943BB4FF4C5
:101900007A73A2B26946304602F08EF905461D4B45
:1019100003EBC703DB7983B133681B6813F0400F17
:10192000FAD0184B03EBC7018A79B2FA82F2520956
:10193000898853F8370004F0D0FEB5B92146124823
:10194000FFF710FA41B0F0BD0120D2E70020D0E748
:101950000C4B03EBC0018A79003A18BF0122898839
:1019600053F8300004F0B9FEC9E70848FFF7ECF976
:10197000E8E700BF58860008F4850008788600086C
:10198000AC8600083C040020B0860008C48600082D
:101990002DE9F04796B090F82031012B56D9044636
:1019A0002030FEF7F7FF0546002853D00368002BD0
:1019B00054D090F84130202B54D1002202922B6851
:1019C000196802915968029102990392196803916A
:1019D00059680391039904921A6804925B6804930E
:1019E000049B04F1400005F05CF886B2402E00D95B
:1019F000402694F82031022B3FD84FF47A78B24633
:101A0000424631465A48FFF7ADF95A4B1B681B68EE
:101A100013F0400FF9D095F8411095F842206B6C07
:101A20005548FFF79FF9534B1B681B6813F0400F95
:101A3000F9D04122002105A805F03CFA04F084FF0A
:101A400007464E48FFF780F9002425E04C48FFF791
:101A50007BF985E04B48FFF777F981E04A48FFF7CB
:101A600073F97DE090F841104848FFF77BF9202397
:101A700085F8413085F842309FE704F1600005F0B9
:101A800010F88046BBE74248FFF76CF94C4603E08C
:101A90003F48FFF767F94C46A6422AD904F054FFA5
:101AA000C01B404525D800238DF807300A230122AA
:101AB0000DF10701284602F01DF90028ECD104F1D0
:101AC00001091FFA89F99DF8071004F158030DEB7D
:101AD000030404F8441CA1F12003DBB25E2BD2D92D
:101AE0000D29D5D00A29D3D02A48FFF72DF94C4625
:101AF000D2E72948FFF728F904F026FFC11B94B369
:101B00002546002204F158036B4403F8442CA642F6
:101B100012D9534622462148FFF724F92048FFF7FF
:101B200013F905A8FFF710F91B48FFF70DF91D4839
:101B3000FFF70AF900240EE0534622461A48FFF741
:101B400011F9EBE704F158036B4413F8441C1748F0
:101B5000FFF708F90134A542F4DC0F48FFF7F4F869
:101B600016B0BDE8F0871248FFF7EEF8F8E700BFBF
:101B70005C870008CC00002088870008C487000824
:101B8000E0860008F4850008108700083087000808
:101B9000CC870008D087000890810008D48700080F
:101BA0002088000828880008FC8700083088000882
:101BB0003888000808B50A48FFF7C6F8094B596885
:101BC0000948FFF7CFF8094B1B682BB1074B596841
:101BD0000748FFF7C7F808BD0648FFF7B5F8FAE76A
:101BE00054880008CC0000206488000814010020FC
:101BF00088880008A888000830B589B090F820319E
:101C00007BB300F120042046FEF7C4FE054680B3F6
:101C1000036893B320220021684605F04BF9214662
:101C20002848FFF79FF8284C132221462748FFF742
:101C300099F8642313222146284601F0F5FF00BBE2
:101C40004FF4FA7313226946284602F053F8E0B1C4
:101C500003282FD01E48FFF777F81E48FFF774F8C7
:101C600005E01D48FFF770F81C48FFF76DF809B054
:101C700030BD1B48FFF768F8F9E71A48FFF764F82A
:101C8000F5E71948FFF760F8F1E78DF81300132224
:101C900069461648FFF766F8132269460A4805F0B8
:101CA000F9F818B91248FFF74FF8E0E71148FFF7C5
:101CB0004BF8DCE71048FFF747F81048FFF744F807
:101CC000D5E700BF04890008248900083889000886
:101CD000088A0008188A0008C4880008E0880008FC
:101CE000F48500087886000850890008608900089B
:101CF0007889000898890008BC890008E0890008F4
:101D00002DE9F04F93B090F82031022B40F2A180E2
:101D1000054600F120063046FEF77AFE044600280C
:101D200000F0AF80304604F0BCFEC0B20138C3B250
:101D30009B4605F1600004F0B4FE8046A0F1640209
:101D40009D4B9A4200F2A1809C4B9C4200F0A180E6
:101D50009B4B9C4200F0AE809A4B9C4200F0BB80B3
:101D6000994B9C4200F0C880984B9C4200F0D58073
:101D700005F140039A4696491846FEF755FA0028A1
:101D800040F0DC804FF4827363600023A360E36063
:101D9000236163614FF40072A26123626362A362F4
:101DA0000A23E36295F82031032B04D995F880309B
:101DB000312B00F0CE8095F82031042B04D995F812
:101DC000A030312B00F0C88095F82031052B08D9C0
:101DD000804905F1C000FEF727FA10B94FF40063FF
:101DE000E36095F82031062B07D97B4905F1E00027
:101DF000FEF71AFA08B98023236295F82031072BE1
:101E000000F2AD802268754B9A4200F06E8104F0BA
:101E10004DFB0746B8EB172F40F26B81B8EBD71F8D
:101E200040F2A881B8EB971F40F2A781B8EB571F8B
:101E300040F2A681B8EB171F40F2A581B8EBD70F8F
:101E400040F2A481B8EB970F00F2A38108239946D2
:101E500051E16348FEF778FF6248FEF775FF62487C
:101E6000FEF772FF6148FEF76FFF6148FEF76CFFF7
:101E70006048FEF769FF6048FEF766FF13B0BDE8F3
:101E8000F08F5E48FEF760FFF8E75D48FEF75CFF05
:101E9000F4E7002302935B4B5A6C42F480525A647D
:101EA0005B6C03F480530293029B4C482060FEF766
:101EB00089FE5DE700230393524B1A6C42F4804283
:101EC0001A641B6C03F480430393039B4E48206009
:101ED000FEF778FE4CE7002304934A4B1A6C42F459
:101EE00000421A641B6C03F400430493049B4748AC
:101EF0002060FEF767FE3BE700230593414B5A6CD9
:101F000042F400525A645B6C03F400530593059B42
:101F10003F482060FEF756FE2AE700230693394B20
:101F20005A6C42F480125A645B6C03F4801306937B
:101F3000069B38482060FEF745FE19E736495046B3
:101F4000FEF772F908B960601FE73448FEF7FCFE3F
:101F500094E7022323612EE70123636134E705F54B
:101F600080731F460DF1060207A91846FEF7A3FF6E
:101F7000002800F0B5800798294B98425AD0294B89
:101F8000984200F08680284B984200F08F80274BC3
:101F9000984200F09880264B984257D100230C932A
:101FA000184B1A6B42F010021A631B6B03F01003FC
:101FB0000C930C9B4AE000BF1CF0FA02E4030020E3
:101FC0008C03002034030020DC0200208402002067
:101FD000288C0008608C0008308A0008003001401E
:101FE000348A0008908A0008B88A0008EC8A000841
:101FF000208B0008548B0008948B0008D48B0008B9
:10200000FC8B00080038024000380040003C0040D3
:102010000034014000500140308C0008388C00082A
:10202000000002400004024000080240000C024090
:1020300000100240002308935D4B1A6B42F001022E
:102040001A631B6B03F001030893089B0DA900237F
:102050000D934B608B60CB600B61BDF806300D9328
:1020600001230E930323109304F040FA0122BDF8DC
:102070000610079804F031FB4E4B079A43F83B20BB
:1020800003EBCB03BDF806209A804FF001029A7152
:10209000B8E600230993464B1A6B42F002021A631A
:1020A0001B6B03F002030993099BCFE700230A93FC
:1020B0003F4B1A6B42F004021A631B6B03F00403DC
:1020C0000A930A9BC2E700230B93394B1A6B42F029
:1020D00008021A631B6B03F008030B930B9BB5E715
:1020E00039463548FEF73EFE8CE604F0EFF9074628
:1020F00090E638239946C4F81C90204602F051F926
:10210000002849D14B46DB08022202FA03F3B7FB51
:10211000F3F31F4631462948FEF724FE514628486E
:10212000FEF720FE424639462648FEF71BFE21698F
:102130006269012A14BF00220122022914BF002172
:1021400001212148FEF70EFEE368B3F5006F27D0AA
:102150000821236A33BB1D4A1D48FEF703FE154BB9
:1021600003EBCB039B79FBB105F580711948FEF7B2
:10217000F9FD83E630239946BDE728239946BAE75F
:1021800020239946B7E718239946B4E710239946C8
:10219000B1E700239946AEE70F48FEF7D5FD6DE69F
:1021A0001021D6E70D4AD7E70D48FEF7CDFD65E6CD
:1021B000003802405C020020648C0008B48C0008E7
:1021C000CC8C0008DC8C0008048D00082C8A0008E8
:1021D0001C8D0008448D0008988C0008308A000887
:1021E0006C8D00082DE9F041B0B090F82031012B42
:1021F00016D9054600F120042046FEF709FC80466A
:10220000D8B10368CBB1204604F04BFCC7B2013F04
:10221000FFB28022002110A804F04CFE012418E037
:102220003848FEF791FD3848FEF78EFD3748FEF737
:102230008BFD3748FEF788FD02E03648FEF784FD47
:1022400030B0BDE8F081013405EB441110A804F072
:1022500057FE95F82031A34209DD012CF3DD10AEC5
:102260003046FDF7EBFF2C4B1B883352EBE7402247
:1022700069460DEB0200FEF7F3FC054610B3274B51
:1022800003EBC7039B790BBB4FF47A732A4669466D
:10229000404602F0E5F80446204B03EBC7039B7968
:1022A000F3B95CBB29461E48FEF75CFDA54221DD63
:1022B00004F1C0036B4413F8C01C1A48FEF752FD2A
:1022C0000134F3E71848FEF73FFDB9E7134B03EB82
:1022D000C7010022898853F8370004F0FEF9D3E7DC
:1022E0000E4B03EBC7010122898853F8370004F035
:1022F000F4F9D6E70D48FEF727FDA1E70C48FEF7F5
:1023000023FD9DE7988D0008BC8D0008E08D000836
:102310000C8E0008508E0008AC8600085C0200207D
:10232000A08E000830880008848E00089081000884
:10233000C4860008F0B593B090F82031012B3ED947
:10234000044600F120052846FEF762FB06460028F9
:102350003FD00368002B3CD0284604F0A2FBC5B256
:10236000013DEDB204F1400004F09BFB83B21F4637
:10237000402B01D940231F4694F82031022B2DD841
:102380004FF47A744122002101A804F093FD2C4AF5
:1023900002EBC50293793BBB23463A4601A930467E
:1023A00002F072FA0446264B03EBC5039B7923BB6C
:1023B0006CB3032C40D02348FEF7C6FC0CE0224847
:1023C000FEF7C2FC2148FEF7BFFC2148FEF7BCFC2B
:1023D00002E02048FEF7B8FC13B0F0BD04F1600045
:1023E00004F05FFB0446CDE7154B114600228988B7
:1023F00053F8350004F071F9CEE7114B03EBC5013A
:102400000122898853F8350004F067F9D0E739468E
:102410003D461148FEF7A6FCA54209DD04F148033C
:102420006B4413F8441C0D48FEF79CFC0134F3E7A1
:102430000B48FEF789FCCFE70A48FEF785FCCBE79F
:102440005C0200201C8F0008B48E0008E48E000897
:102450000C8E0008508E0008048F00083088000899
:1024600090810008388800082DE9F041C2B090F84A
:102470002031012B16D9054600F120042046FEF735
:10248000C7FA8046D8B10368CBB1204604F009FBF7
:10249000C7B2013FFFB28022002122A804F00AFD4A
:1024A000012418E04448FEF74FFC4448FEF74CFC7A
:1024B0004348FEF749FC4348FEF746FC02E0424829
:1024C000FEF742FC42B0BDE8F081013405EB441157
:1024D00022A804F015FD95F82031A34209DD012C56
:1024E000F3DD22AE3046FDF7A9FE384B1B88335290
:1024F000EBE740242246002102A804F0DBFC224640
:1025000012A922A8FEF7ACFB054640B3304B03EB03
:10251000C7039B793BBB4FF47A7300932B4602AA07
:1025200012A9404602F07EF80446294B03EBC7038C
:102530009B7913BB002C3BD129462648FEF712FCA1
:102540002548FEF701FCA54221DD04F584736B44A8
:1025500013F8C01C2148FEF705FC0134F3E72048BE
:10256000FEF7F2FBAEE71A4B03EBC70100228988A6
:1025700053F8370004F0B1F8CDE7154B03EBC70172
:102580000122898853F8370004F0A7F8D2E71548EC
:10259000FEF7DAFB0024A54206DD02AB195D0F4809
:1025A000FEF7E0FB0134F6E70F48FEF7CDFB89E7C5
:1025B0000E48FEF7C9FB85E7348F00085C8F0008E2
:1025C000848F00080C8E0008508E0008AC8600082E
:1025D0005C020020B88F0008DC8F000830880008FB
:1025E000848E0008E48F000890810008F08F0008B6
:1025F00030B58DB090F82031012B27D9044600F179
:1026000020031D460DF12A020BA91846FEF753FCC4
:1026100038B30B984A4B984228D04A4B984259D02D
:10262000494B984263D0494B98426DD0484B9842F1
:1026300028D100230493474B1A6B42F010021A630F
:102640001B6B03F010030493049B1BE04248FEF74E
:102650007BFB4248FEF778FB4148FEF775FB0DB067
:1026600030BD29463F48FEF77DFBF8E70023009385
:10267000384B1A6B42F001021A631B6B03F0010323
:102680000093009B05A9002305934B608B60CB60F2
:102690000B61BDF82A3005930123069303230893A9
:1026A00003F024FF403430492046FDF7BDFD0028EB
:1026B00037D02E492046FDF7B7FD00283CD1024611
:1026C000BDF82A100B9804F008F829462848FEF7B0
:1026D00049FBC4E7002301931E4B1A6B42F0020230
:1026E0001A631B6B03F002030193019BCAE70023EB
:1026F0000293184B1A6B42F004021A631B6B03F02F
:1027000004030293029BBDE700230393114B1A6B52
:1027100042F008021A631B6B03F008030393039B48
:10272000B0E70122BDF82A100B9803F0D6FF294626
:102730001048FEF717FB92E70F48FEF705FB8EE700
:10274000000002400004024000080240000C024069
:1027500000100240003802400C9000083090000841
:102760005C900008608200081CA100082CA10008F1
:10277000A890000888900008C890000830B59FB065
:102780003A48FEF7E1FA3A4C19AD04F1380CBCE8CE
:102790000F000FC5DCF800302B6014AD4C340FCCAB
:1027A0000FC523682B603C22002105A804F082FBA2
:1027B000304B0593304B0693304B0893304B0993C5
:1027C000304B0B93304B0C93304B0E93304B0F939D
:1027D000304B1193304B1293002429E003F076FE26
:1027E000EB69C3F3C20202239340B0FBF3F31EAACA
:1027F00002EB840252F8141C6A68B2F5827F25D07D
:10280000DFF8A8C004EB44001EAA02EB800050F8D9
:10281000642C50F8600CED68B5F5006F19D01F4DB1
:1028200002950190009262461D48FEF79BFA013422
:10283000042C19DC1EAB03EB840353F8285C2B68D3
:102840004BB1002CCAD003F031FEC9E7DFF860C0FD
:10285000D8E7144DE4E71EAB03EB840353F8141CD4
:102860001148FEF77FFAE2E71FB030BDFC90000888
:10287000A08000080C910008189100081C91000825
:102880002C910008349100084091000848910008FC
:10289000549100085891000868910008F4900008CD
:1028A00070910008EC90000890910008308C0008AE
:1028B000288C000810B504460A49FDF7B5FC68B13C
:1028C00009492046FDF7B0FC50B108492046FDF704
:1028D000ABFC08B9064802E0002000E0054810BD46
:1028E0000548FCE760810008408100087481000809
:1028F0006001002008020020B401002000B587B06C
:10290000002301930293039304930593104B984281
:1029100001D007B000BD002300930E4B1A6B42F0AC
:1029200002021A631B6B03F002030093009B4FF437
:10293000407301931223029301230393032304930F
:10294000042305930DEB0301034803F0CFFDE0E7FB
:102950000054004000380240000402402DE9F043DA
:1029600085B090F82031022B67D9044600F120038E
:102970001F46184604F095F8431E9846022B68D867
:102980003846FFF797FF054600285FD004F1400363
:102990001E465C49184604F095FA002861D05A4951
:1029A000304604F08FFA002857D104F1600004F09B
:1029B00078F88146A0F57A72544B9A425BD800238E
:1029C0001E46534B9D425AD0524B9D4268D0524BAB
:1029D0009D4276D00023AB604FF480422A616B6148
:1029E000AB61EB612B62002E7CD04C4B6B604B4695
:1029F0005B00EB6094F82031032B08D9484904F1BF
:102A00008000FDF711FC10B94FF440432B612846BC
:102A100002F02AFB00286AD1424B03F80860002E1E
:102A200069D0384A39464048FEF79CF9002E64D0F8
:102A300049463E48FEF796F908E03D48FEF784F91E
:102A40003C48FEF781F93C48FEF77EF905B0BDE849
:102A5000F0833A48FEF778F9F8E73948FEF774F959
:102A6000F4E71022014604F1600004F099F8814671
:102A700001231E46A5E73348FEF766F9E6E7002383
:102A80000193314B1A6C42F400121A641B6C03F46C
:102A900000130193019B2D482860FFF72FFF99E752
:102AA00000230293284B1A6C42F480021A641B6CB8
:102AB00003F480030293029B25482860FFF71EFF62
:102AC00088E700230393204B1A6C42F400021A6437
:102AD0001B6C03F400030393039B1E482860FFF75D
:102AE0000DFF77E7C5F804900023EB6082E71A48F2
:102AF000FEF72AF9AAE7044A94E749461748FEF781
:102B000031F9A3E7308C0008288C000898160600DD
:102B100008020020B401002060010020A08601000E
:102B2000A49200085C010020C4920008E49200080E
:102B3000A8910008E89100081C920008549200082F
:102B4000388C00087C920008003802400054004095
:102B500000580040005C0040A8920008F89200086D
:102B600070B590F820317BB100F120042046FFF7CA
:102B7000A1FE064660B1036853B121461548FEF731
:102B8000F1F80124002509E01348FEF7DDF802E022
:102B90001248FEF7D9F870BD0134A4B27F2C0FD8CB
:102BA000610089B202231A46304603F099F80028E2
:102BB000F2D121460A48FEF7D5F80135EDB2EBE730
:102BC0001DB90848FEF7C0F8E5E729460648FEF7B4
:102BD000C9F8E0E7589300080C9300082493000814
:102BE000709300088C930008A09300082DE9F0432F
:102BF000B3B090F82031022B1FD9054600F1200414
:102C0000204603F04EFF431E1F46022B1ED82046CF
:102C1000FFF750FE8046E8B10368DBB110220021C7
:102C200005F1400003F0BCFF83B2994680220021E9
:102C300012A804F03FF902241DE02A48FEF784F8A8
:102C40002948FEF781F833B0BDE8F0832748FEF746
:102C50007BF8F8E72648FEF777F8F4E712AE30463F
:102C6000FDF7ECFA234B1B883352013405EB44117A
:102C700012A804F045F995F82031A34202DD022C98
:102C8000F3DDEBE7402202A912A8FDF7E9FF0446B5
:102C900098B1194BDB5DA3B11848FEF755F841F226
:102CA0008833224602A9404602F010FD0146A9B928
:102CB00021461348FEF756F8C5E71248FEF744F8D8
:102CC000C1E74B46590089B24FF47A73009303462B
:102CD00002AA404602F0B4FA0146E8E70A48FEF7C5
:102CE00041F8B0E7C4930008F0930008149400087A
:102CF00034940008AC8600085C010020549400085D
:102D000074940008848E000894940008F0B595B07F
:102D100090F82031022B3ED9044600F120031D46D5
:102D2000184603F0BEFE431E1E46022B3BD8284623
:102D3000FFF7C0FD0546002839D00368002B36D0C8
:102D40001022002104F1400003F02AFF83B21F4645
:102D500004F1600003F0A5FE84B2402C00D94024A9
:102D60004122002103A804F0A5F8224B9B5D13B378
:102D70002148FDF7E9FF41F28833224603A928469E
:102D800002F070FD014689BB254621461B48FDF730
:102D9000E9FF002424E01A48FDF7D6FF1948FDF7A3
:102DA000D3FF15B0F0BD1848FDF7CEFFF9E717487F
:102DB000FDF7CAFFF5E7780081B24FF47A7300930C
:102DC000234603AA284602F0FBFA0146DBE704F19A
:102DD00050036B4413F8441C0D48FDF7C3FF013446
:102DE000A542F4DC0B48FDF7AFFFDAE70A48FDF730
:102DF000B9FFD6E75C010020009500082095000887
:102E0000B8940008E0940008149400083494000872
:102E10003088000890810008349500082DE9F041C1
:102E2000A6B090F82031032B44D904462030FFF798
:102E300041FD0546002844D00368002B41D01022F4
:102E4000002104F1400003F0ABFE804683B21F4630
:102E5000402216A904F16000FDF702FF064604F1C6
:102E6000800003F01EFE84B2402C00D94024412291
:102E7000002105A804F01EF8012E26D0022E34D021
:102E80007B009BB219461F464FF47A73009333467A
:102E900016AA284602F0D4F90146002839D14FF489
:102EA0007A730093234605AA3946284602F088FA29
:102EB00001462DE02648FDF747FF2648FDF744FF71
:102EC0002AE02548FDF740FF26E0790089B24FF45B
:102ED0007A730293019405AB009301239DF8582067
:102EE000284602F079FD014612E09DF858009DF851
:102EF0005920790089B24FF47A730293019405AB9B
:102F00000093102342EA0022284602F065FD0146A4
:102F100029B11248FDF726FF26B0BDE8F08125460D
:102F20001FFA88F221460E48FDF71CFF002408E036
:102F300004F198036B4413F8841C0A48FDF712FF50
:102F40000134A542F4DC0848FDF7FEFEE4E700BFCB
:102F5000589500089895000834940008F4950008E6
:102F6000D4950008308800089081000870B58CB0B6
:102F70003048FDF7E9FE304C04F1600393E80700A8
:102F80000CAB03E9070006AB04F16C0207CA83E847
:102F900007006D4678340FCC0FC594E8030085E830
:102FA0000300002410E0254A21E0254A2548FDF7CA
:102FB000D9FE0CAB03EBC40353F82C2C53F8301C94
:102FC0002148FDF7CFFE0134022C31DC0CAB03EBC2
:102FD000840353F8185C2B680BB31C4B1E5D0CABC1
:102FE00003EB840353F80C1C002EDCD0184A19485C
:102FF000FDF7B8FE3EB1E96849082B69B3F5404FCB
:10300000D3D0154AD2E769682B69B3F5404F04D095
:10301000114A1248FDF7A6FECBE7094AF9E70CABC7
:1030200003EB840353F80C1C0D48FDF79BFECAE725
:103030000CB070BD2C960008A0800008288C0008F9
:103040001C960008589600089C9600085C01002019
:10305000308C00083C9600082496000878960008FA
:103060009091000808B54248FDF76EFE4148FDF713
:103070006BFE4148FDF768FE4048FDF765FE40489D
:10308000FDF762FE3F48FDF75FFE3F48FDF75CFE3F
:103090003E48FDF759FE3E48FDF756FE3D48FDF718
:1030A00053FE3D48FDF750FE3C48FDF74DFE3C48C1
:1030B000FDF74AFE3B48FDF747FE3B48FDF744FE5F
:1030C0003A48FDF741FE3A48FDF73EFE3948FDF724
:1030D0003BFE3948FDF738FE3848FDF735FE3848E5
:1030E000FDF732FE3748FDF72FFE3748FDF72CFE7F
:1030F0003648FDF729FE3648FDF726FE3548FDF730
:1031000023FE3548FDF720FE3448FDF71DFE344808
:10311000FDF71AFE3348FDF717FE3348FDF714FE9E
:103120003248FDF711FE3248FDF70EFE3148FDF73B
:103130000BFE3148FDF708FE3048FDF705FE30482C
:10314000FDF702FE2F48FDF7FFFD2F48FDF7FCFDC0
:103150002E48FDF7F9FD2E48FDF7F6FD2D48FDF749
:10316000F3FD2D48FDF7F0FD2C48FDF7EDFD08BD02
:1031700090810008B4960008D8960008EC960008E4
:103180003497000864970008A8970008D4970008AF
:1031900000980008309800085C980008989800088B
:1031A000AC980008D8980008FC98000828990008F6
:1031B0004C9900088099000894990008DC9900084F
:1031C000089A00083C9A0008749A0008989A000827
:1031D000CC9A0008009B0008349B0008489B00081C
:1031E0008C9B0008C09B0008F89B00082C9C0008E2
:1031F0006C9C0008A89C0008BC9C0008EC9C000883
:10320000189D0008489D0008749D0008889D0008CE
:10321000BC9D0008F49D0008249E0008609E0008E4
:1032200008B506490648FDF79DFD0648FDF78CFDEB
:10323000054A06490648FDF795FD08BDE8810008E6
:10324000AC9E0008C49E0008E89E0008F49E00089A
:10325000009F000808B52148FDF776FD03F074FBD8
:1032600001461F48FDF77EFD1E4B59681E48FDF7BD
:1032700079FD1E48FDF768FD1D4B1B6B13F0010F18
:1032800017D11B4B1B6B13F0020F16D1184B1B6B86
:1032900013F0040F15D1164B1B6B13F0080F14D14C
:1032A000134B1B6B13F0100F13D11248FDF74CFD9D
:1032B00008BD1148FDF748FDE3E71048FDF744FD60
:1032C000E4E70F48FDF740FDE5E70E48FDF73CFD5C
:1032D000E6E70D48FDF738FDE7E700BF109F00085F
:1032E0002C9F000814010020409F0008589F0008F0
:1032F0000038024090810008749F0008809F0008F9
:103300008C9F0008989F0008A49F000808B50448F7
:10331000FDF71AFD642003F01DFBFDF7F9FA00BF6D
:10332000B09F00082DE9F04393B090F82031022BB4
:103330002CD905462030FDF72DFB074698B30368CE
:10334000ABB305F14003994605F1600003F0A9FB1A
:10335000044695F82031032B2DD84FF4FA7801ADAF
:103360004B46254A4221284603F0E8FC2846FCF754
:1033700065FFC6B22CB32246434649461F48FDF7B7
:10338000F1FC1F48FDF7E0FC002520E01D48FDF79B
:10339000DBFC1D48FDF7D8FC1C48FDF7D5FC1C489C
:1033A000FDF7D2FC25E01B48FDF7CEFC21E01A48D2
:1033B000FDF7CAFC1DE005F1800003F072FB8046BA
:1033C000CDE74FF0FF32D7E7404603F0C3FA0CB128
:1033D000A5420AD26423324601A9384600F024FCF3
:1033E0000135002CF0D0AC42EED829460B48FDF751
:1033F000B9FC13B0BDE8F08378A0000880A00008F5
:10340000ACA00008C09F0008F89F000820A000089A
:103410004CA00008F485000878860008D0A00008B9
:1034200000B5CBB001A9FDF7E9FC78B19DF80430F7
:1034300063B1854901A8FCF7F7FE20B1834901A8D3
:10344000FCF7F2FE20B901A8FDF756FD4BB000BD18
:103450007F4901A8FCF7E8FE20B17E4901A8FCF7EE
:10346000E3FE18B901A8FDF7EDFDEFE77A4901A8E1
:10347000FCF7DAFE20B1794901A8FCF7D5FE18B9AE
:1034800001A8FDF76DFEE1E7754901A8FCF7CCFE48
:1034900020B1744901A8FCF7C7FE18B901A8FDF7CF
:1034A0000BFFD3E7704901A8FCF7BEFE20B16F49BE
:1034B00001A8FCF7B9FE18B901A8FDF727FFC5E779
:1034C0006B4901A8FCF7B0FE20B16A4901A8FCF7DE
:1034D000ABFE18B901A8FDF743FFB7E7664901A89D
:1034E000FCF7A2FE20B1654901A8FCF79DFE18B9C2
:1034F00001A8FDF767FFA9E7614901A8FCF794FE61
:1035000020B1604901A8FCF78FFE18B901A8FDF7AA
:103510008FFF9BE75C4901A8FCF786FE20B15B4961
:1035200001A8FCF781FE18B901A8FEF73DF88DE768
:10353000574901A8FCF778FE20B1564901A8FCF7CD
:1035400073FE18B901A8FEF75DF97FE7524901A89B
:10355000FCF76AFE20B1514901A8FCF765FE18B9D5
:1035600001A8FEF715FA71E74D4901A8FCF75CFECA
:10357000B8B14C4901A8FCF757FEB0B14A4901A8BF
:10358000FCF752FEA8B1494901A8FCF74DFE20B155
:10359000474901A8FCF748FE78B901A8FFF7C2FE29
:1035A00054E701A8FEF706FB50E701A8FEF724FB4D
:1035B0004CE701A8FEF7A8F848E73E4901A8FCF748
:1035C00033FE20B13C4901A8FCF72EFE18B901A832
:1035D000FEF796FB3AE7394901A8FCF725FE20B132
:1035E000374901A8FCF720FE18B901A8FEF7FAFD3B
:1035F0002CE7344901A8FCF717FE20B1324901A895
:10360000FCF712FE18B901A8FEF794FE1EE72F4939
:1036100001A8FCF709FE20B12D4901A8FCF704FE22
:1036200018B901A8FEF720FF10E72A4901A8FCF706
:10363000FBFD28B1284901A8FCF7F6FD00284DD173
:1036400001A8FEF7D5FF01E7E8A00008F4A00008F4
:10365000F8A0000804A1000808A1000814A10008AF
:1036600018A1000824A1000828A1000830A1000822
:1036700034A1000840A1000844A1000850A100089E
:1036800054A1000860A1000864A1000870A100080E
:1036900074A1000878A2000880A100088CA100088D
:1036A00090A100089CA10008A8A10008B4A10008EE
:1036B00040830008C0A10008CCA10008D0A10008E8
:1036C000DCA10008E0A10008ECA10008F0A10008BE
:1036D00000A2000804A200080CA20008444901A8A6
:1036E000FCF7A2FD68B1434901A8FCF79DFD20B19C
:1036F000414901A8FCF798FD38B901A8FFF72EF958
:10370000A4E601A8FFF73AF8A0E63C4901A8FCF7B7
:103710008BFD20B13A4901A8FCF786FD18B901A834
:10372000FFF71EFA92E6374901A8FCF77DFD20B1AC
:10373000354901A8FCF778FD18B901A8FFF756FA3A
:1037400084E6324901A8FCF76FFD20B1304901A899
:10375000FCF76AFD18B901A8FFF7D8FA76E62D49FB
:1037600001A8FCF761FD20B12B4901A8FCF75CFD25
:1037700018B901A8FFF752FB68E6284901A8FCF731
:1037800053FD18B901A8FFF7F1FB5FE6244901A832
:10379000FCF74AFD20B1234901A8FCF745FD18B903
:1037A00001A8FFF75FFC51E61F4901A8FCF73CFDAB
:1037B00020B11E4901A8FCF737FD18B901A8FFF791
:1037C0002FFD43E61A4901A8FCF72EFD18B901A800
:1037D000FFF740FD3AE6174901A8FCF725FD10B9AF
:1037E00001A8FFF793FD01A91348FDF7BBFA2DE6E9
:1037F00010A200081CA2000828A200082CA20008A1
:1038000038A200083CA2000848A200084CA2000808
:1038100058A200085CA200086CA2000870A2000870
:103820007CA2000884A2000888A2000890A20008D8
:1038300074A2000894A200089CA2000830B583B0CE
:1038400003E0264B93F8803043BBFDF773F8002864
:1038500042D0FDF77DF88DF807000A2301220DF113
:1038600007011F4800F0E0F99DF807300D2BE8D064
:103870000A2BE6D0082B22D07F2B20D0A3F12002E8
:10388000D2B25E2AE1D8154A92F880207E2ADCD88E
:103890001249501C81F880008B54D6E71148FDF77F
:1038A00053FA0E4C94F880300025E5542046FFF77B
:1038B000B7FD84F880500C48FDF746FAC5E7074B82
:1038C00093F88030002BC0D0013B044A82F880304E
:1038D0000648FDF739FAB8E703B030BD5C050020B3
:1038E0001401002090810008BCA20008C0A20008BA
:1038F000FEE7FEE7FEE7FEE7FEE77047704770472A
:1039000008B503F015F808BD08B5024800F0E2FA62
:1039100008BD00BF1401002008B5024800F0DAFA23
:1039200008BD00BFCC00002008B5024800F0D2FA64
:1039300008BD00BF8400002000B583B000210091C5
:103940000C4B5A6C42F480425A645A6C02F4804226
:103950000092009A01911A6C42F080521A641B6C1A
:1039600003F080530193019B072002F067FF03B02F
:1039700000BD00BF00380240026802F10C0353E8AA
:10398000003F23F490730C3242E800310029F3D158
:10399000026802F1140353E8003F23F001031432DC
:1039A00042E800310029F3D1036B012B05D020231D
:1039B00080F84230002303637047026802F10C0371
:1039C00053E8003F23F010030C3242E80031002995
:1039D000F3D1ECE790F84130212B01D00220704761
:1039E0008368B3F5805F17D0036A5A1C02621A78A5
:1039F00003685A60C38C9BB2013B9BB2C3844BB932
:103A00000268D36823F08003D3600268D36843F070
:103A10004003D360002070470369002BE4D1036AA0
:103A20001B880268C3F308035360036A023303620E
:103A3000E0E7000010B504460268136923F4405320
:103A4000C1680B431361836802691A4343691A43CF
:103A5000C3691A430168CB6823F4164323F00C03AF
:103A60001343CB600268536923F4407381690B43AD
:103A700053610368314A934206D002F58062934253
:103A800002D002F013FD01E002F020FDE369B3F57E
:103A9000004F29D00021031849411B1841F10001B2
:103AA000C90041EA5371DB00181863684FEA8302CA
:103AB0004FEA937341F10001FCF71AFC204AA2FB84
:103AC00000314909642303FB11031B013233A2FBBC
:103AD00003235B0903F0F00202EB011203F00F0372
:103AE000216813448B6010BD0023021843EB0301CF
:103AF000121841F10001C90041EA5271D2001018B8
:103B000041F10001626892185B41FCF7F1FB0C4A3D
:103B1000A2FB00314909642303FB1103DB003233AC
:103B2000A2FB03235B095A0002F4F87202EB0112B4
:103B300003F00703216813448B60D4E700100140B1
:103B40001F85EB512DE9F04182B004460D46164623
:103B50009846089F23681B6835EA03030CBF4FF0A3
:103B6000010C4FF0000CB44526D1B7F1FF3FF1D066
:103B700002F0EAFE4346C01AB84221D817B32368C0
:103B8000DA6812F0040FE5D0802DE3D0402DE1D0AB
:103B90001A6812F0080FDDD0002501951A6801920D
:103BA0005B680193019B2046FFF7E6FE08236364F0
:103BB00084F84050012000E0002002B0BDE8F08110
:103BC0000320FAE70320F8E760B310B5044690F845
:103BD000413013B3242384F841302268D36823F49E
:103BE0000053D3602046FFF725FF2268136923F4B2
:103BF000904313612268536923F02A0353612268BA
:103C0000D36843F40053D36000206064202384F819
:103C1000413084F84230606310BD80F84030FCF7DA
:103C2000CFFDD7E7012070472DE9F04184B01E4653
:103C300090F84130202B57D104460D46002957D02B
:103C400003920AB9012050E000234364212380F845
:103C5000413002F079FE0746039BA384E384A36806
:103C6000B3F5805F02D00023984616E023693BB38A
:103C70000023984611E0202384F84130032034E0EB
:103C8000424632F8023B90462268C3F30803536071
:103C9000E28C92B2013A92B2E284E38C9BB293B18D
:103CA00000963B46002280212046FFF74BFF00286C
:103CB000E1D1002DE4D015F8012B23685A60E7E725
:103CC000A8461D46E9E700963B46002240212046D3
:103CD000FFF738FF18B9202384F8413005E020238E
:103CE00084F84130032000E0022004B0BDE8F081F8
:103CF0000120FAE72DE9F04182B01E4690F84230EB
:103D0000202B5AD104460D461746002959D00AB92E
:103D1000012053E000234364222280F84220036301
:103D200002F012FE8046A785E785A368B3F5805FA1
:103D300002D000231F461CE02369002B35D000234E
:103D40001F4616E0202384F84230032036E0236823
:103D50005B68C3F308033A4622F8023B174603E0C8
:103D600023685B682B700135E28D92B2013A92B202
:103D7000E285E38D9BB2DBB1009643460022202111
:103D80002046FFF7DFFE0028DCD1002DDFD0A3683E
:103D9000B3F5805FE4D013B92369002BE0D023682A
:103DA0005B6803F07F032B70DDE72F461D46E0E7DD
:103DB000202384F84230002000E0022002B0BDE859
:103DC000F0810120FAE7704708B50168CA6822F05F
:103DD0004002CA60202280F84120FFF7F4FF002053
:103DE00008BD704708B5806B0023C385FFF7F9FF56
:103DF00008BD704790F84230222B67D18368B3F535
:103E0000805F4DD0826AB3F5805F04D0002B54D11F
:103E10000369002B51D103685B681370836A013317
:103E20008362C38D9BB2013B9BB2C385002B4FD1F4
:103E300000B583B00268D36823F02003D360026822
:103E4000D36823F48073D3600268536923F00103BD
:103E50005361202380F8423000234363036B012B1E
:103E600031D100230363026802F10C0353E8003FE1
:103E700023F010030C3242E800310029F3D103682B
:103E80001A6812F0100F05D001911A6801925B6850
:103E90000193019B818DFFF7ACFF002003B000BDB3
:103EA0000269002AAED1826A03685B68C3F3080323
:103EB0001380836A02338362B3E703685B6803F0AD
:103EC0007F031370AAE7FCF70FFFE6E702207047B5
:103ED0000020704710B582B0044602681368D068AD
:103EE000516913F00F0F09D113F0200F0CD010F00F
:103EF000200F09D02046FFF77DFF16E011F00101E9
:103F000015D110F4907F12D1216B012979D013F0D3
:103F1000800F03D010F0800F40F01F8113F0400F8E
:103F200003D010F0400F40F01C8102B010BD13F020
:103F3000010F06D010F4807F03D0626C42F00102C2
:103F4000626413F0040F04D019B1626C42F00202F3
:103F5000626413F0020F04D019B1626C42F00402E3
:103F6000626413F0080F07D010F0200F00D119B1D0
:103F7000626C42F008026264626C002AD5D013F0D1
:103F8000200F02D010F0200F29D123685B6903F0C5
:103F90004003626C12F0080F00D163B32046FFF7B4
:103FA000EBFC23685B6913F0400F20D0226802F11C
:103FB000140353E8003F23F04003143242E8003179
:103FC0000029F3D1E36B73B1684A1A65E06B02F024
:103FD000DDFB0028A9D0E06B036D9847A5E72046DC
:103FE000FFF708FFD1E72046FFF7FBFE9DE72046DD
:103FF000FFF7F7FE99E72046FFF7F3FE002363641F
:1040000093E713F0100F82D010F0100F3FF47FAF42
:10401000002301931368019353680193019B536933
:1040200013F0400F5ED0E26B13685B689BB2002B0D
:1040300049D0A18D994246D9E385D369B3F5807FF4
:1040400036D0226802F10C0353E8003F23F480735A
:104050000C3242E800310029F3D1226802F1140346
:1040600053E8003F23F00103143242E800310029F5
:10407000F3D1226802F1140353E8003F23F0400318
:10408000143242E800310029F3D1202384F8423071
:104090002163226802F10C0353E8003F23F0100370
:1040A0000C3242E800310029F3D1E06B02F024FB2E
:1040B00002236363A18DE38D9BB2C91A89B22046A6
:1040C000FFF797FE31E7A18D99427FF42EAFD369B8
:1040D000B3F5807F7FF429AF022363632046FFF7A7
:1040E00088FE22E7A18DE38D9BB2C91A89B2E38DC8
:1040F0009BB2002B3FF419AF00293FF416AF2268A2
:1041000002F10C0353E8003F23F490730C3242E8B1
:1041100000300028F3D1226802F1140353E8003F75
:1041200023F00103143242E800300028F3D12023A9
:1041300084F842302063226802F10C0353E8003F08
:1041400023F010030C3242E800300028F3D10223A0
:1041500063632046FFF74DFEE7E62046FFF73AFC93
:10416000E3E62046FFF730FEDFE600BFE53D00084E
:1041700081628285C28500234364222380F8423015
:10418000036923B10268D36843F48073D360026883
:10419000536943F0010353610268D36843F020037D
:1041A000D3600020704708B590F84230202B08D12A
:1041B00049B10AB9012008BD00230363FFF7D8FF06
:1041C000F9E70220F7E70120F5E700002DE9F043C9
:1041D00083B004460F4616461D4602F0B5FB0A9B07
:1041E0001B1A03EB050802F0AFFB8146284B1B6846
:1041F000C3F3CB3308FB03F3019323689B6837EACF
:1042000003030CBF01230023B3423DD0B5F1FF3FB0
:10421000F3D002F099FB4B46C01A404503D2019BF4
:1042200073BB9846E9E72268536823F0E0035360C4
:104230006368B3F5827F0BD0A36AB3F5005F14D037
:10424000012384F85130002384F8503003201CE00F
:10425000A368B3F5004F02D0B3F5806FECD12268AC
:10426000136823F040031360E6E72268136823F421
:10427000005313602268136843F400531360DFE7B0
:10428000019B013B0193B8E7002003B0BDE8F08338
:104290000800002070B584B004460B460D46164653
:1042A000009201220221FFF791FFD0B9174B1B6842
:1042B000174AA2FB03235B0D4FF47A7202FB03F350
:1042C00003936368B3F5827F11D0039B3BB1039BDB
:1042D000013B039323689B6813F0800FF5D104B072
:1042E00070BD636D43F0200363650320F7E700961C
:1042F0002B46002280212046FFF768FF0028EED0E1
:10430000636D43F0200363650320E8E708000020A5
:10431000819F5E1610B582B004460B464168B1F528
:10432000827F14D06168B1F5827F2AD1A168B1F58E
:10433000806F19D00092002280212046FFF746FFAF
:1043400030B3636D43F020036365032020E0816890
:10435000B1F5004F02D0B1F5806FE3D1206801685C
:1043600021F040010160DDE700920022012120469A
:10437000FFF72CFF60B1636D43F0200363650320FA
:1043800006E00092002201212046FFF71FFF08B936
:1043900002B010BD636D43F0200363650320F7E7AF
:1043A000704700285AD010B50446436A33B94368B1
:1043B000B3F5827F05D00023C36102E000230361CF
:1043C00043610023A36294F85130002B40D00223B4
:1043D00084F851302268136823F040031360636847
:1043E00003F48273A26802F404421343E26802F405
:1043F00000621343226902F002021343626902F071
:1044000001021343A26902F400721343E26902F04D
:1044100038021343226A02F080021343A26A02F4B4
:104420000052216813430B60638B03F00403626A3C
:1044300002F01002216813434B602268D36923F411
:104440000063D36100206065012384F8513010BD02
:1044500084F850302046FFF7A3FFB8E701207047EB
:104460002DE9F04383B00446894690461D4602F08C
:104470006BFA94F85130012B40F0CD800646DFB244
:104480004946002900F0C8804246002A00F0C48056
:1044900094F85030012B00F0C380012384F8503091
:1044A000032384F8513000236365C4F83090A4F8E6
:1044B0003480A4F83680A363A387E387636423640E
:1044C000A368B3F5004F1ED023681A6812F0400F9E
:1044D00003D11A6842F040021A60E368B3F5006F36
:1044E0001CD0636813B14346012B5FD1226B236854
:1044F00012781A73236B01332363E38E9BB2013B63
:104500009BB2E38652E02268136823F040031360F5
:104510002268136843F480431360D5E7636813B1DE
:104520004346012B15D1226B23681288DA60236B76
:1045300002332363E38E9BB2013B9BB2E38608E028
:1045400002F002FA801BA84202D3B5F1FF3F15D159
:10455000A5B1E38E9BB2002B42D023689A6812F07B
:10456000020FEDD0226B1288DA60236B02332363D3
:10457000E38E9BB2013B9BB2E386EAE7012384F81A
:104580005130002384F85030032745E0226B127825
:104590001A73236B01332363B4F836C01FFA8CFC03
:1045A0000CF1FF3C1FFA8CFCA4F836C0E38E9BB2E2
:1045B000B3B123689A6812F0020FE7D102F0C4F990
:1045C000801BA84202D3B5F1FF3F01D1002DEDD1F0
:1045D000012384F85130002384F8503003271BE076
:1045E000324629462046FFF755FE08B12023636571
:1045F000A36833B901932368DA6801929B68019339
:10460000019B012384F85130002384F85030636DFE
:1046100013B91F4600E00227384603B0BDE8F08317
:104620000227F9E72DE9F04383B004460F4691468F
:1046300098460A9D02F088F9064694F8513062685F
:10464000012B0BD0D9B2B2F5827F40F00D81A36867
:10465000002B40F00D81042940F00C81002F00F068
:104660000B814B46002B00F009814346002B00F0E4
:10467000078194F85030012B00F00481012384F865
:10468000503094F85130042B02D0052384F8513077
:1046900000236365C4F83890A4F83E80A4F83C80F9
:1046A0002763A4F83680A4F8348023646364236805
:1046B0001A6812F0400F03D11A6842F040021A60E3
:1046C000E368B3F5006F13D0636813B14346012B61
:1046D0000BD1226B236812781A73236B0133236387
:1046E000E38E9BB2013B9BB2E38601231F4674E03D
:1046F000636813B14346012B0BD1226B23681288E8
:10470000DA60236B02332363E38E9BB2013B9BB2DF
:10471000E38601231F461BE02268936813F0010320
:104720000ED0E18F89B259B1D168A26B1180A26B12
:104730000232A263E28F92B2013A92B2E2871F463E
:1047400002F002F9801BA84202D3B5F1FF3F1FD14E
:10475000E38E9BB21BB9E38F9BB2002B64D023681E
:104760009A6812F0020FD7D0E28E92B2002AD3D00C
:10477000002FD1D0226B1288DA60236B02332363BF
:10478000E38E9BB2013B9BB2E38600231F46C3E747
:10479000012384F85130002384F85030032064E072
:1047A0002268936813F001030ED0E18F89B259B1EA
:1047B000D168A26B1170A26B0132A263E28F92B238
:1047C000013A92B2E2871F4602F0BEF8831BAB4269
:1047D00002D3B5F1FF3F1FD1F5B1E38E9BB213B900
:1047E000E38F9BB203B323689A6812F0020FD7D00D
:1047F000E28E92B2002AD3D0002FD1D0226B127851
:104800001A73236B01332363E38E9BB2013B9BB28C
:10481000E38600231F46C3E7012384F851300023B9
:1048200084F85030032020E0324629462046FFF726
:1048300031FD90B9A36833B901932368DA68019216
:104840009B680193019B012384F85130002384F875
:104850005030636D4BB1012007E0202363650023D6
:1048600084F85030012000E0022003B0BDE8F0835E
:104870000220FAE70220F8E70120F6E70120F4E73A
:104880000120F2E70220F0E72DE9F04383B01D4656
:1048900090F85130012B40F0B28004468846914692
:1048A000DEB2002900F0AC80002A00F0A980436845
:1048B000B3F5827F01D1836853B302F045F8074610
:1048C00094F85030012B00F09F80012384F8503081
:1048D000042384F8513000236365C4F83880A4F8B9
:1048E0003C90A4F83E902363A386E386236463642C
:1048F000A368B3F5004F15D023681A6812F0400F73
:1049000003D11A6842F040021A60E368F3B143E051
:10491000042380F85130009513460A46FFF782FEC3
:1049200006466DE02268136823F040031360226896
:10493000136823F480431360DEE702F005F8C01B20
:10494000A84202D3B5F1FF3F15D1A5B1E38F9BB2C9
:10495000002B42D023689A6812F0010FEDD0A26BB1
:104960001B7B1370A36B0133A363E38F9BB2013BEB
:104970009BB2E387EAE7012384F85130002384F8EF
:10498000503003263CE001F0DFFFC01BA84202D3F9
:10499000B5F1FF3F19D1C5B1E38F9BB2EBB12368ED
:1049A0009A6812F0010FEED0DA68A36B1A80A36B3D
:1049B0000233A363B4F83EC01FFA8CFC0CF1FF3C39
:1049C0001FFA8CFCA4F83EC0E6E7012384F85130BE
:1049D000002384F85030032612E03A462946204648
:1049E000FFF798FC08B120236365012384F8513058
:1049F000002384F85030636D13B91E4600E0022690
:104A0000304603B0BDE8F0830226F9E703685A692F
:104A100012F4806F01D1002070476FF480625A61F8
:104A200000230363202280F83D2080F83E30026C92
:104A300042F00402026480F83C30012070472DE906
:104A4000F04106460C46174698463BE001F07CFFD5
:104A5000069BC01A404502D8B8F1000F32D1012D93
:104A600018D033689B6924EA03039BB2B3FA83F33B
:104A70005B099F4226D100233363202286F83D2024
:104A800086F83E30326C42F02002326486F83C30C8
:104A9000012027E033685B6924EA03039BB2B3FA81
:104AA00083F35B09E5E733685B6924EA030C1FFACB
:104AB0008CFCBCFA8CFC4FEA5C1C674511D1B8F148
:104AC000FF3FC3D1C4F30745012DECD033689B6988
:104AD00024EA030C1FFA8CFCBCFA8CFC4FEA5C1C29
:104AE000EBE70020BDE8F0812DE9F04104460D46DA
:104AF0001746984652E01A6842F400721A6023681A
:104B00006FF480625A6100232363202284F83D20E1
:104B100084F83E30226C42F00402226484F83C3077
:104B2000012049E001F010FF4346C01AB84201D805
:104B3000002F33D1012E17D023689B6925EA030388
:104B40009BB2003B18BF012343B300232363202201
:104B500084F83D2084F83E30226C42F0200222642A
:104B600084F83C30012027E023685B6925EA0303D1
:104B70009BB2003B18BF0123E6E723689B6925EA47
:104B800003039BB2003B18BF0123A3B123685A69FA
:104B900012F4806FAFD1B7F1FF3FC3D1C5F3074621
:104BA000012EEAD123685B6925EA03039BB2003B2F
:104BB00018BF0123E9E71846BDE8F081F0B583B0DE
:104BC00004460E4617461D46C36A082B0DD0012B1E
:104BD0000BD013F5803F08D0036B122B0AD102686B
:104BE000136843F48073136004E02268136843F48D
:104BF0008073136000953B4600224FF00111204660
:104C0000FFF71DFF80B92369B3F5804F16D12368E4
:104C100006F0FE021A612B463A4613492046FFF77A
:104C200063FFF8B903B0F0BD23681B6813F4807FFD
:104C300002D04FF4007323640320F3E7F3112268DA
:104C400003F0060343F0F00313612B463A4607498D
:104C50002046FFF749FF18B92268F3B21361DAE77B
:104C60000120DFE70120DDE702000100080001006C
:104C70002DE9F04184B004460E4617461D46C26A2F
:104C800001680B6843F480630B60082A0DD0012A89
:104C90000BD012F5803F08D0036B112B0AD10268AC
:104CA000136843F48073136004E02268136843F4CC
:104CB0008073136000953B4600224FF0011120469F
:104CC000FFF7BDFE98B92369B3F5804F19D122686B
:104CD00046F00103DBB213612B463A462A492046CF
:104CE000FFF702FF00284DD104B0BDE8F081236832
:104CF0001B6813F4807F02D04FF4007323640320F9
:104D0000F2E7F31103F006031A469846236842F0CF
:104D1000F0021A612B463A461C492046FFF7E4FE92
:104D200008B10120E0E72268F3B213612B463A464E
:104D300015492046FFF7D8FE08B10120D4E7024606
:104D4000039023685969039199690391039919683C
:104D500041F48071196000953B464FF001112046E7
:104D6000FFF76DFE20B9226848F0F1031361B3E745
:104D700023681B6813F4807F02D04FF40073236410
:104D80000320B1E70120AFE70200010008000100A5
:104D900070B504460D46164623685B6913F0800F14
:104DA00021D12046FFF732FEF8B9B5F1FF3FF3D02D
:104DB00001F0CAFD801BA84201D8002DECD1236868
:104DC0005B6913F0800FE7D100232363202284F86E
:104DD0003D2084F83E30226C42F02002226484F8A8
:104DE0003C30012000E0002070BD0120FCE7000005
:104DF000F0B585B004460D4616461F460268136896
:104E000043F4806313600268136843F48073136093
:104E10000B9B00930A9B00224FF00111FFF70FFE3E
:104E200060B9236805F0FE021A610B9B0A9A40499B
:104E30002046FFF759FE60B1012008E023681B6897
:104E400013F4807F02D04FF400732364032005B075
:104E5000F0BD039023685A6903929B690393039BF7
:104E60000B9A0A992046FFF793FF80B9012F19D1B9
:104E70002368F2B21A610B9A0A992046FFF788FF5D
:104E800000282DD0236C042B24D00120DFE7236CD5
:104E9000042B01D00120DAE72268136843F4007381
:104EA0001360F7E7330A226813610B9A0A992046C8
:104EB000FFF76EFF18B92268F3B21361DBE7236CCA
:104EC000042B01D00120C2E72268136843F4007369
:104ED0001360F7E72268136843F400731360D4E7A4
:104EE0002268136843F4807313600B9B00930A9B42
:104EF00002464FF001112046FFF7A1FD70B922686C
:104F000045F00103DBB213610B9B0A9A0849204666
:104F1000FFF7EAFD00289AD0012098E723681B6874
:104F200013F4807F02D04FF40073236403208EE7D4
:104F30000200010070B504460D46164623685B6901
:104F400013F0040F21D12046FFF760FDF8B9B5F149
:104F5000FF3FF3D001F0F8FC801BA84201D8002DE0
:104F6000ECD123685B6913F0040FE7D100232363BE
:104F7000202284F83D2084F83E30226C42F020024A
:104F8000226484F83C30012000E0002070BD012044
:104F9000FCE770B504460D46164614E06FF01002AB
:104FA0005A6100232363202284F83D2084F83E3098
:104FB000226C226484F83C30012025E023685B6980
:104FC00013F0400F10D02368586910F0400F1AD129
:104FD000586910F0100FE1D101F0B6FC801BA84217
:104FE000ECD8002DEFD1E9E700232363202284F8D9
:104FF0003D2084F83E30226C42F02002226484F886
:105000003C30012000E0002070BD70B504460D4624
:10501000164604E023685B6913F0100F10D0236874
:105020005B6913F0100F1AD12046FFF7EFFCC0B9EF
:1050300001F08AFC801BA842ECD8002DEFD1E9E7F3
:1050400000232363202284F83D2084F83E30226C24
:1050500042F02002226484F83C30012000E000206D
:1050600070BD0120FCE77047002800F0DA8038B5F9
:10507000044690F83D30002B51D0242384F83D3075
:105080002268136823F0010313602268136843F455
:10509000004313602268136823F40043136001F097
:1050A00005FA6268614B9A423ED8614B98428CBFC8
:1050B00000230123002B40F0B6805E49A1FB0031A4
:1050C0008B0CD4F800C0DCF8042022F03F0242EA46
:1050D0009142CCF8042021680A6A22F03F02DFF8EE
:1050E0004CC16568654525D8013313430B622168BF
:1050F000CA6922F44F4222F0FF02D4F804C04B4B9D
:105100009C4522D8431E4FEA4C0CB3FBFCF3013301
:1051100040F6FC70034254D0C3F30B0352E080F816
:105120003C30FFF7A0FFA8E7434B98428CBF002319
:105130000123BFE74FF4967C0CFB03F3DFF8FCC0C0
:10514000ACFB03C39B090133CFE7D4F808E0BEF101
:10515000000F1AD1431E0CEB4C05B3FBF5F30133E2
:10516000C3F30B03B3FA83F35B09002B57D1BEF1F2
:10517000000F19D1431E0CEB4C0CB3FBFCF30133B5
:10518000C3F30B0343F400431CE00CEB8C0303EB71
:1051900083031D46431EB3FBF5F30133C3F30B0337
:1051A000B3FA83F35B09E0E7431E0CEB8C0C0CEBCA
:1051B0008C0CB3FBFCF30133C3F30B0343F4404308
:1051C00000E004231A43CA6121680B6823F0C0037E
:1051D000E269206A024313430B6021688B6823F461
:1051E000034323F0FF032269E068024313438B600B
:1051F0002168CB6823F0FF036269A069024313436F
:10520000CB602268136843F0010313600020206420
:10521000202384F83D30206384F83E0038BD01230C
:10522000D0E7012070470120F8E700BFA086010009
:105230007F841E0083DE1B43FF083D00D34D6210B8
:105240002DE9F04385B004460F46904699460C9EE2
:1052500001F07AFB94F83D10202905D002231F4667
:10526000384605B0BDE8F0830546009019230122B9
:1052700051492046FFF7E3FB002840F0938094F863
:105280003C30012B00F09180012384F83C302368EE
:105290001A6812F0010F03D11A6842F001021A6075
:1052A0002268136823F400631360212384F83D30DF
:1052B000102384F83E3000232364C4F82480A4F82B
:1052C0002A90638D23853D4BE3622B463246394657
:1052D0002046FFF773FC0746002869D10390236836
:1052E0005A6903929B690393039B12E0236C042B7E
:1052F00002D001231F46B3E72268136843F400730A
:105300001360F6E72A4631462046FFF713FE0028D1
:105310002ED1238D002B37D02A4631462046FFF769
:1053200037FD0028E2D1626A236812781A61606A48
:10533000431C6362618D89B2013989B26185238D15
:10534000013B9BB223852268516911F0040FD9D02B
:10535000002BD7D043781361636A01336362638D96
:105360009BB2013B9BB26385238D013B2385C9E73B
:10537000236C042B02D001231F4671E722681368B7
:1053800043F400731360F6E72268136843F4007374
:105390001360202384F83D30002384F83E3084F8E5
:1053A0003C305DE702231F465AE702231F4657E7BA
:1053B00001231F4654E700BF020010000000FFFF5A
:1053C0002DE9F04387B004460F46904699460E9E5D
:1053D00001F0BAFA94F83D10202905D002231F46A7
:1053E000384607B0BDE8F083054600901923012236
:1053F00089492046FFF723FB002840F04E8194F8AE
:105400003C30012B00F04C81012384F83C302368B0
:105410001A6812F0010F03D11A6842F001021A60F3
:105420002268136823F400631360222384F83D305C
:10543000102384F83E3000232364C4F82480A4F8A9
:105440002A90638D2385754BE3622B46324639469D
:105450002046FFF70DFC0746002840F02481238DED
:105460005BB9029323685A6902929A690292029A7E
:105470001A6842F400721A607AE0012B0FD0022BF6
:105480001FD02268136843F48063136000230593E0
:1054900023685A6905929B690593059B68E0226819
:1054A000136823F4806313600023039323685A690D
:1054B00003929A690392039A1A6842F400721A607E
:1054C00056E02268136823F480631360226813682F
:1054D00043F4006313600023049323685A69049221
:1054E0009B690493049B43E02A4631462046FFF71C
:1054F00050FD002840F0DA8023681A69636A1A7048
:10550000636A01336362238D013B2385638D9BB204
:10551000013B9BB263852BE0009533460022404956
:105520002046FFF78CFA002840F0C38022681368F9
:1055300043F40073136023681A69636A1A70626A1D
:10554000531C6362238D013B2385638D9BB2013B1A
:105550009BB2638523681B695370636A013363627E
:10556000238D013B2385638D9BB2013B9BB26385F9
:10557000218D002900F08980032953D80129B3D057
:105580000229C9D000953346002225492046FFF75D
:1055900056FA002840F090802268136823F4806354
:1055A000136023681A69636A1A70636A013363625D
:1055B000238D013B2385618D89B2013989B26185D3
:1055C00000953346024616492046FFF738FA002870
:1055D00075D12268136843F40073136023681A6955
:1055E000636A1A70626A531C6362238D013B2385D0
:1055F000638D9BB2013B9BB2638523681B6953702B
:10560000636A01336362238D013B2385638D9BB203
:10561000013B9BB26385ABE7020010000000FFFF77
:10562000040001002A4631462046FFF7B2FC00285C
:1056300048D123681A69636A1A70636A0133636226
:10564000228D013A92B22285638D9BB2013B9BB2BF
:1056500063852368596911F0040F89D0032A0FD09C
:1056600023681A69636A1A70636A01336362238D5F
:10567000013B2385638D9BB2013B9BB2638577E73A
:105680001A6822F480621A60EAE7202384F83D3029
:1056900084F83E1084F83C10A2E602231F469FE6E1
:1056A00002231F469CE601231F4699E601231F465D
:1056B00096E601231F4693E601231F4690E6012349
:1056C0001F468DE601231F468AE600BF2DE9F04103
:1056D00084B004460D461646984601F035F994F814
:1056E0003D30202B40F0AA800746002D00F0AA8014
:1056F000002E00F0A98094F83C30012B00F0A68029
:10570000012384F83C3023681A6812F0010F03D19A
:105710001A6842F001021A602268136823F40063D9
:105720001360212384F83D30202384F83E3000228A
:10573000226465626685638D2385484BE362216838
:105740000B6843F480630B6000974346444920464E
:10575000FFF775F900287BD1029023685A690292FD
:105760009B690293029B2369B3F5404F33D0238D8D
:10577000002B48D03A4641462046FFF709FB002857
:105780003AD1626A236812781A61616A4B1C6362BB
:10579000B4F82AC01FFA8CFC0CF1FF3C1FFA8CFCF9
:1057A000A4F82AC0228D013A92B222852368586952
:1057B00010F0040FDBD0002AD9D04A781A61636A4E
:1057C00001336362638D9BB2013B9BB26385238D82
:1057D000013B2385CBE700974346024620492046FC
:1057E000FFF72DF9002835D1039023685A690392F9
:1057F0009B690393039BBAE72268136823F48063D1
:10580000136001201BE00097434600224FF48231D1
:105810002046FFF714F9F8B923686FF480625A61E3
:105820002268136823F480631360202384F83D30DA
:10583000002384F83E3084F83C3000E0022004B0BD
:10584000BDE8F0810120FAE70120F8E70220F6E741
:105850000120F4E70120F2E70120F0E70000FFFF5C
:10586000020001002DE9F04184B004460E461746BF
:10587000984601F069F894F83D30202B40F09C8068
:105880000546002E00F09C80002F00F09B8094F8CD
:105890003C30012B00F09880012384F83C302368D1
:1058A0001A6812F0010F03D11A6842F001021A605F
:1058B0002268136823F400631360222384F83D30C8
:1058C000202384F83E300022226466626785638D5F
:1058D00023853F4BE36221680B6843F480630B60D0
:1058E000009543463B492046FFF7A9F800286DD1B3
:1058F000029023685A6902929B690293029B238D4E
:10590000002B36D02A4641462046FFF742FB48BBD3
:1059100023681A69636A1A70636A5A1C6262228D6C
:10592000013A92B22285B4F82AC01FFA8CFC0CF11D
:10593000FF3C1FFA8CFCA4F82AC02168486910F0CB
:10594000040FDCD0002ADAD00A695A70636A013386
:105950006362238D013B2385638D9BB2013B9BB228
:105960006385CCE72268136823F480631360012009
:1059700023E02A4641462046FFF747FB30B1226824
:10598000136823F480631360012016E003902268FB
:1059900051690391116841F001011160039A216876
:1059A0000A6822F480620A60202284F83D2084F88C
:1059B0003E0084F83C0000E0022004B0BDE8F08125
:1059C0000120FAE70120F8E70220F6E70120F4E7DA
:1059D0000000FFFF020001002DE9F04387B00446FC
:1059E0000F4690469946109E00F0AEFF94F83D2079
:1059F000202A05D002231F46384607B0BDE8F083B1
:105A0000054600901923012288492046FFF717F820
:105A1000002840F04D8194F83C30012B00F04B8180
:105A2000012384F83C3023681A6812F0010F03D177
:105A30001A6842F001021A602268136823F40063B6
:105A40001360222384F83D30402384F83E30002345
:105A500023640E9B6362BDF83C306385638D2385B0
:105A6000734BE362019500964B4642463946204609
:105A7000FFF7BEF90746002840F02081238D5BB96F
:105A8000029323685A6902929A690292029A1A68EA
:105A900042F400721A6075E0012B0AD0022B1AD072
:105AA0000023059323685A6905929B690593059B1A
:105AB00068E02268136823F4806313600023039373
:105AC00023685A6903929A690392039A1A6842F406
:105AD00000721A6056E02268136823F48063136032
