:020000040800F2
:100000000000022055660008693500086B350008BD
:100010006D3500086F3500087135000800000000DC
:100020000000000000000000000000007335000820
:1000300075350008000000007735000879350008A4
:10004000A5660008A5660008A5660008A566000864
:10005000A5660008A5660008A5660008A566000854
:10006000A5660008A5660008A5660008A566000844
:10007000A5660008A5660008A5660008A566000834
:10008000A5660008A5660008A56600080000000037
:10009000000000000000000000000000A56600084D
:1000A000A5660008A5660008A5660008A566000804
:1000B000A5660008A5660008A5660008A5660008F4
:1000C000A5660008A5660008A5660008A5660008E4
:1000D000A5660008A566000881350008000000003C
:1000E000A5660008A5660008A566000800000000D7
:1000F000000000000000000000000000A5660008ED
:1001000000000000A5660008A5660008A5660008B6
:1001100000000000000000000000000000000000DF
:10012000A5660008A5660008A5660008A566000883
:10013000A5660008000000000000000000000000AC
:10014000000000000000000000000000A56600089C
:10015000A5660008A5660008A5660008A566000853
:10016000A5660008A5660008000000000000000069
:10017000000000000000000000000000000000007F
:1001800000000000A566000800000000000000005C
:08019000A5660008A566000841
:1001A00010F8012B11F8013B012A28BF9A42F7D021
:1001B000D01A7047034613F8012B002AFBD1181AF6
:1001C000013870470000000000000000000000003F
:1001D00001F0FF01102A2BDB10F0070F08D010F8F8
:1001E000013B013A8B422DD010F0070F42B3F6D1FC
:1001F000F0B441EA012141EA014122F007047FF015
:1002000000070023F0E80256083C85EA010586EA6B
:10021000010685FA47F5A3FA87F586FA47F6A5FAA7
:1002200087F68EB9EED1F0BC01F0FF0102F00702B3
:1002300032B110F8013B013A83EA010313B1F8D15E
:100240000020704701387047002D06BF354603383F
:10025000073815F0010F07D1013015F4807F02BF78
:10026000013015F4C03F0130F0BC0138704700BFC9
:1002700053B94AB9002908BF00281CBF4FF0FF310D
:100280004FF0FF3000F00CB8ADF1080C6DE904CE72
:1002900007F002FDDDF804E0DDE9022304B0704759
:1002A000704700BF10B5054C237833B9044B13B128
:1002B0000448AFF300800123237010BD68000020C4
:1002C00000000000547F000808B5034B1BB1034930
:1002D0000348AFF3008008BD000000006C00002060
:1002E000547F000872B6FEE710B594B008AC302217
:1002F0000021204606F0EAFB0023039304930593B4
:100300000693079301931E4A116C41F080511164CA
:10031000126C02F080520192019A0293194A1168FC
:1003200041F440411160126802F440420292029A84
:100330000222089201210B9110210C910E920F9331
:1003400008231093642311931292042313932046DD
:1003500005F0A0FB80B90F2303930223049300232D
:1003600005934FF4805206920793032103A805F0EA
:10037000FBFD18B914B010BDFFF7B4FFFFF7B2FFD3
:10038000003802400070004008B506F0BBF8FFF7E7
:10039000ABFF00F007F800F021F800F04BFB03F092
:1003A00089F8FCE782B0002100910B4B1A6B42F0F8
:1003B00001021A631A6B02F001020092009A019185
:1003C0001A6B42F004021A631B6B03F004030193DF
:1003D000019B02B0704700BF0038024008B50A48D0
:1003E0000A4B03604FF41653436000238360C360DD
:1003F00003610C2242618361C36103F012FA00B908
:1004000008BDFFF76FFFFBE78400002000440040B9
:1004100010B58CB000230793089309930A930B93AC
:100420000368414A934207D0404A934231D0404A40
:10043000934254D00CB010BD002401943D4B1A6C73
:1004400042F400321A641A6C02F400320192019AEA
:1004500002941A6B42F001021A631B6B03F0010352
:100460000293029B0C230793022308930123099311
:1004700003230A9307230B9307A92F4805F04AFE8D
:1004800022462146262005F0EFFF262005F0FCFF3E
:10049000D0E700210391274B5A6C42F010025A64B6
:1004A0005A6C02F010020392039A04911A6B42F004
:1004B00001021A631B6B03F001030493049B4FF4C6
:1004C000C0630793022308930123099303230A932C
:1004D00007230B9307A9184805F01CFEAAE7002183
:1004E0000591144B5A6C42F020025A645A6C02F087
:1004F00020020592059A06911A6B42F004021A63D3
:100500001B6B03F004030693069BC023079302238F
:1005100008930123099303230A9308230B9307A944
:10052000064805F0F7FD85E7004400400010014053
:100530000014014000380240000002400008024060
:10054000BFF34F8F0549CA6802F4E062044B1343BE
:10055000CB60BFF34F8F00BFFDE700BF00ED00E0B1
:100560000400FA05044B188880B2044B1B889BB228
:10057000C01A18BF012070473E0400203C04002030
:100580000D4B1A8892B20D4B1B889BB29A4210D029
:100590000A4A13889BB20A49C85CC0B213889BB24E
:1005A00001335942DBB2C9B258BF4B429BB21380F0
:1005B00070470020704700BF3E0400203C0400202C
:1005C0004004002010B504461549FFF7E9FDE0B1ED
:1005D00014492046FFF7E4FDC8B113492046FFF750
:1005E000DFFDB0B111492046FFF7DAFD98B110499F
:1005F0002046FFF7D5FD80B10E492046FFF7D0FD1C
:1006000008B90D4802E0002000E00C4810BD0B487E
:10061000FCE70A48FAE70848F8E70748F6E700BFAA
:10062000FC7F0008048000080C800008108000088F
:100630001880000820800008AC030020F40300208C
:1006400010B504462349FFF7ABFD80B3224920468D
:10065000FFF7A6FD68B321492046FFF7A1FD50B37F
:100660001F492046FFF79CFD38B31E492046FFF77F
:1006700097FD20B31C492046FFF792FD08B31B49A4
:100680002046FFF78DFDF0B119492046FFF788FDA0
:10069000D8B118492046FFF783FDC0B1164920465E
:1006A000FFF77EFD08B9154802E0002000E014487D
:1006B00010BD1348FCE71348FAE71248F8E7124860
:1006C000F6E71148F4E71148F2E71048F0E70B4865
:1006D000EEE700BF248000080C8000082C80000892
:1006E00034800008388000084080000844800008FA
:1006F0004C8000085080000858800008F401002059
:1007000054030020FC020020A40200204C02002020
:1007100000B589B0002303930493059306930793D0
:1007200003F1804303F58833984205D01E4B98426D
:100730001ED009B05DF804FB002301931B4B1A6B1C
:1007400042F001021A631B6B03F001030193019B4A
:100750004FF4C063039302230493012305930323FF
:1007600006930723079303A9114805F0D3FCE0E79C
:10077000002302930D4B1A6B42F004021A631B6BA9
:1007800003F004030293029BC02303930223049308
:1007900001230593032306930823079303A9054820
:1007A00005F0B8FCC5E700BF001401400038024066
:1007B000000002400008024000B58BB00023059302
:1007C0000693079308930993484B98420ED0484BE1
:1007D000984224D0474B98423BD0474B984251D047
:1007E000464B984267D00BB05DF804FB00230093A2
:1007F000434B1A6B42F001021A631B6B03F00103B7
:100800000093009BE02305930223069303230893A0
:100810000523099305A93B4805F07CFCE3E7002389
:100820000193374B1A6B42F002021A631B6B03F001
:1008300002030193019B4FF4604305930223069347
:10084000032308930523099305A92F4805F062FCAB
:10085000C9E7002302932A4B1A6B42F002021A6383
:100860001B6B03F002030293029B382305930223C0
:100870000693032308930623099305A9224805F04C
:1008800049FCB0E7002303931D4B1A6B42F01002A2
:100890001A631B6B03F010030393039B64230593FC
:1008A00002230693032308930523099305A91748F8
:1008B00005F030FC97E700230493114B1A6B42F0CC
:1008C00010021A631B6B03F010030493049B4FF494
:1008D000E043059302230693032308930623099319
:1008E00005A90A4805F016FC7DE700BF003001406D
:1008F00000380040003C00400034014000500140FE
:100900000038024000000240000402400010024093
:10091000F0B583B004460F461646002532E0013498
:100920002378202BFBD0092BF9D07BB30023ADF823
:1009300004308DF806302378ABB16178A1F1300234
:10094000D2B2092A09D9A1F14102D2B2052A04D9A9
:10095000A1F16102D2B2052A05D88DF80430023423
:100960008DF8051006E030238DF8043014F8013BB3
:100970008DF805301022002101A805F013FF6B1C33
:1009800078559DB223780BB1B542C9D3284603B040
:10099000F0BD0000114B834200D0704710B5104BE2
:1009A0001B889BB201335A42DBB2D2B258BF5342CA
:1009B0009BB20C4A128892B29A4208D00848028828
:1009C00092B209490978C9B2084CA15403800122A6
:1009D0000549024803F017FA10BD00BF840000204B
:1009E0003E0400203C04002040050020400400207C
:1009F00010B50446FFF7DEFB642382B221460248AD
:100A000002F03FFF10BD00BF840000200FB410B5FE
:100A1000A2B024AB53F8042B019302AC80212046F2
:100A200006F036F82046FFF7E3FF22B0BDE810409D
:100A300004B0704710B582220021104806F046F835
:100A400001220F490F4803F0DEF90F48FFF7D0FFEE
:100A50000E4C2046FFF7CCFF0D48FFF7C9FF0D49AC
:100A60000D48FFF7D3FF0D48FFF7C2FF2046FFF701
:100A7000BFFF0B48FFF7BCFF10BD00BF44050020BF
:100A800040050020840000205C8000086080000891
:100A90008C800008B4800008BC800008CC8000086E
:100AA000EC80000870B5A0B004460D4640F221125B
:100AB0000021284606F00AF87F222146684606F003
:100AC00038F81549684606F047F810B30146002388
:100AD00001E0EC540133CC5C74B1A4F16102D2B2F8
:100AE000192AF6D8203CE4B2F3E701341F2205EBC3
:100AF000441006F01EF8E4B20749002006F02CF876
:100B0000014608B1072CF0D985F82041012020B01A
:100B100070BD0020FBE700BFF88000080146A0F18F
:100B20006103DBB2192B02D8A0F12001C9B2002267
:100B300000E00132054B03EBC203586820B1034BC0
:100B400013F832308B42F4D1704700BF0CA200087A
:100B50000F2804D8012303FA00F080B27047002068
:100B6000704770B504460D461646FFF723FB012873
:100B700011D92078FFF7D2FF286070B1601C05F012
:100B800092FDC0B2FFF7E4FF308040B96378302BAC
:100B900007D1012000E0002070BD0020FCE701200B
:100BA000FAE70020F8E700002DE9F04790B090F850
:100BB000203153B100F120050DF13A020FA928466A
:100BC000FFF7CFFF28B1002309E03F48FFF710FFF0
:100BD00075E029463D48FFF719FF70E001330F2B00
:100BE00008DCBDF83A201A4112F0010FF6D05FFA86
:100BF00083FC01E04FF0000CDDF83CE0DEF8003053
:100C00004FEA4C0A23FA0AF909F00309304C0AAEFC
:100C100094E80F0086E80F00DEF8043023FA0CF8A1
:100C200008F0010808AB04F1100292E8030083E821
:100C30000300DEF8087027FA0AF707F0030704AE8E
:100C400004F118030FCB86E80F00DEF80C6026FADB
:100C50000AF606F00306283494E80F008DE80F002A
:100C6000BDF83A10704605F039FB0446294619488C
:100C7000FFF7CCFE10AB03EB890959F8181C164896
:100C8000FFF7C4FE10AB03EB880858F8201C13488C
:100C9000FFF7BCFE10AB03EB870757F8301C10487A
:100CA000FFF7B4FE10AB03EB860656F8401C0D4868
:100CB000FFF7ACFE34B10C490C48FFF7A7FE10B0AB
:100CC000BDE8F0870A49F7E7FC8000082C8100089E
:100CD0006C7F000848810008548100086481000886
:100CE0007481000884810008989F0008948100089E
:100CF000A89F000810B58CB090F820312BB300F1FC
:100D000020040DF12A020BA92046FFF72AFF00B3A9
:100D10000B98364B984221D0354B98423ED0354BFC
:100D2000984248D0344B984252D0344B984221D10B
:100D300000230493324B1A6B42F010021A631B6BB0
:100D400003F010030493049B14E02E48FFF750FEB9
:100D500022E021462C48FFF759FE1DE000230093B6
:100D6000274B1A6B42F001021A631B6B03F001035D
:100D70000093009B05A9002305934B608B60CB601B
:100D80000B61BDF82A3005930123069305F0C2F9E3
:100D900021461E48FFF73AFE0CB010BD0023019318
:100DA000174B1A6B42F002021A631B6B03F002032B
:100DB0000193019BDEE700230293114B1A6B42F073
:100DC00004021A631B6B03F004030293029BD1E736
:100DD000002303930A4B1A6B42F008021A631B6B41
:100DE00003F008030393039BC4E700BF0000024025
:100DF0000004024000080240000C024000100240C3
:100E000000380240A48100082C810008C08100083D
:100E100070B58CB090F8203133B3044600F1200651
:100E20000DF12A020BA93046FFF79BFE00B30B9D84
:100E3000414B9D4221D0414B9D423DD0404B9D4274
:100E400047D0404B9D4251D03F4B9D4221D1002382
:100E500004933E4B1A6B42F010021A631B6B03F0B3
:100E600010030493049B14E03948FFF7C1FD5DE0D3
:100E700031463848FFF7CAFD58E000230093334B52
:100E80001A6B42F001021A631B6B03F0010300931B
:100E9000009B94F82031012B35D940342E4920464F
:100EA000FFF77EF9002843D02C492046FFF778F958
:100EB00000283FD0002227E000230193234B1A6B28
:100EC00042F002021A631B6B03F002030193019BC1
:100ED000DFE7002302931D4B1A6B42F004021A63F2
:100EE0001B6B03F004030293029BD2E700230393DE
:100EF000164B1A6B42F008021A631B6B03F00803CF
:100F00000393039BC5E7002205A9002305934B60CB
:100F10008B60CB600B61BDF82A30059307922846A1
:100F200005F0F8F831460E48FFF770FD0CB070BDC3
:100F30000122E9E70222E7E7000002400004024044
:100F400000080240000C024000100240003802403D
:100F5000E08100082C8100080C8200081082000843
:100F60001882000810B582B090F82031A3B100F1CA
:100F700020040DF1020201A92046FFF7F2FD78B12D
:100F80000122BDF80210019805F0AFF9214607488B
:100F9000FFF73CFD02B010BD0548FFF729FDF9E75A
:100FA00021460448FFF732FDF4E700BF50820008F5
:100FB000388200082C81000810B582B090F82031EA
:100FC000A3B100F120040DF1020201A92046FFF7B0
:100FD000C8FD78B10022BDF80210019805F085F92E
:100FE00021460748FFF712FD02B010BD0548FFF784
:100FF000FFFCF9E721460448FFF708FDF4E700BFCE
:1010000078820008608200082C81000810B582B048
:1010100090F82031ABB100F120040DF1020201A9DA
:101020002046FFF79EFD80B1BDF80210019805F043
:1010300055F978B1084A21460848FFF7E7FC02B0A5
:1010400010BD0748FFF7D4FCF9E721460548FFF734
:10105000DDFCF4E7044AEEE7989F0008A082000850
:10106000888200082C810008A89F000810B582B073
:1010700090F82031D3B100F120040DF1020201A952
:101080002046FFF76EFDA8B1BDF80210019805F0EB
:1010900032F9BDF80210019805F020F978B1094A3B
:1010A00021460948FFF7B2FC02B010BD0748FFF720
:1010B0009FFCF9E721460648FFF7A8FCF4E7054A3C
:1010C000EEE700BF989F0008C8820008AC820008C5
:1010D0002C810008A89F000870B58CB090F82031D2
:1010E000012B26D9044600F120060DF12A020BA996
:1010F0003046FFF736FD00B30B9D474B9D4221D094
:10110000464B9D424CD0464B9D4256D0454B9D424E
:1011100060D0454B9D4221D100230493434B1A6B71
:1011200042F010021A631B6B03F010030493049B3C
:1011300014E03F48FFF75CFC30E031463D48FFF7E4
:1011400065FC2BE000230093384B1A6B42F0010240
:101150001A631B6B03F001030093009B00230593AC
:101160000693079308930993BDF82A3005934034FA
:1011700031492046FFF714F838B130492046FFF7CF
:101180000FF8002833D10123069305A9284604F05F
:10119000C1FF224631462A48FFF738FC0CB070BD2B
:1011A00000230193214B1A6B42F002021A631B6B5E
:1011B00003F002030193019BD0E7002302931B4B32
:1011C0001A6B42F004021A631B6B03F004030293D0
:1011D000029BC3E700230393144B1A6B42F00802EF
:1011E0001A631B6B03F008030393039BB6E71549CF
:1011F0002046FEF7D5FF10B902230693C5E7124932
:101200002046FEF7CDFF10B903230693BDE70F4834
:10121000FFF7EEFBC2E700BF0000024000040240FF
:1012200000080240000C024000100240003802405A
:10123000E08200082C810008E4A100087C9F0008DF
:101240003C830008088300080C8300081083000812
:10125000F0B583B090F82031012B2ED9054600F16E
:1012600020073846FFF7AEF9044668B305F14000A1
:1012700005F019FA0646A0F596724D4B9A4227D80A
:101280004C4B9C4228D04C4B9C4236D0666000238D
:10129000A360E36023610C226261A361E36195F8BE
:1012A0002031022B49D995F86030652B3FD035D8D5
:1012B000452B3CD04F2B33D03FE04048FFF798FB05
:1012C0003F48FFF795FB70E03E48FFF791FB6CE06D
:1012D0003D48FFF78DFB68E0002300933B4B5A6CC1
:1012E00042F010025A645B6C03F010030093009B01
:1012F00037482060FFF70CFAC8E700230193334B0F
:101300005A6C42F020025A645B6C03F02003019394
:10131000019B30482060FFF7FBF9B7E76F2B0CD13A
:101320004FF4C06323614FF48053A36005E04FF492
:10133000806323614FF48053A36095F82031032B21
:1013400003D995F88030322B14D0204602F069FA88
:10135000A0B9202384F8413084F8423023681C4A25
:1013600093420FD002F5806293420BD004F0B2FE9C
:1013700005460AE04FF40053E360E6E71648FFF73E
:1013800037FB12E004F0B6FE054623689B68394639
:101390001248FFF73BFB31461148FFF737FB236844
:1013A0009A6829460F48FFF731FB03B0F0BD00BF34
:1013B00094C52D00F4030020AC03002054830008E2
:1013C00088830008AC830008E483000800380240EA
:1013D00000100140001401400C840008288400081B
:1013E000448400085C840008F0B5C1B090F8203156
:1013F000012B0FD905462030FFF7E4F8064668B107
:1014000003687BB1802200210DEB020005F05EFB3A
:10141000012411E04C48FFF7EBFA8EE04B48FFF750
:10142000E7FA8AE04A48FFF7E3FA86E0013405EB81
:10143000441120A805F06EFB95F82031A34209DD88
:10144000012CF3DD20AF3846FEF7B4FE414B1B887C
:101450003B52EBE7002420AA1BE00A210DF8041000
:10146000013415E00D210DF80410013410E00921BC
:101470000DF8041001340BE05C210DF80410013468
:1014800006E00DF80410013402E00DF804300134D8
:1014900001321378002B41D07E2C3FDC5C2BF4D141
:1014A00051780029F1D00132A1F15C03182BE8D862
:1014B00001A050F823F000BF79140008831400083D
:1014C00083140008831400088314000883140008A0
:1014D0008314000883140008831400088314000890
:1014E0008314000883140008831400088314000880
:1014F0008314000883140008831400088314000870
:101500005B14000883140008831400088314000887
:1015100065140008831400086F140008694600234E
:101520000DF804304FF47A73A2B2304602F0A9F9F4
:1015300028B921460848FFF769FA41B0F0BD0748CD
:10154000FFF756FAF9E700BF78840008988400088E
:10155000B8840008EC840008F084000804850008C2
:101560002DE9F04796B090F82031012B56D904466A
:101570002030FFF727F80546002853D00368002BDA
:1015800054D090F84130202B54D1002202922B6885
:10159000196802915968029102990392196803919E
:1015A00059680391039904921A6804925B68049342
:1015B000049B04F1400005F076F886B2402E00D975
:1015C000402694F82031022B3FD84FF47A78B14668
:1015D000424631465A48FFF719FA5A4B1B681B68B6
:1015E00013F0400FF9D095F8411095F842206B6C3C
:1015F0005548FFF70BFA534B1B681B6813F0400F5D
:10160000F9D04122002105A805F060FA04F0A0FFFE
:1016100007464E48FFF7ECF9002425E04C48FFF759
:10162000E7F985E04B48FFF7E3F981E04A48FFF727
:10163000DFF97DE090F841104848FFF7E7F92023F3
:1016400085F8413085F842309FE704F1600005F0ED
:101650002AF88046BBE74248FFF7D8F9544603E032
:101660003F48FFF7D3F95446A6422AD904F070FF49
:10167000C01B404525D800238DF807300A230122DE
:101680000DF10701284602F061F90028ECD104F1C0
:10169000010A1FFA8AFA9DF8071004F158030DEBAE
:1016A000030404F8441CA1F12003DBB25E2BD2D961
:1016B0000D29D5D00A29D3D02A48FFF799F95446E5
:1016C000D2E72948FFF794F904F042FFC11B94B315
:1016D0002546002204F158036B4403F8442CA6422B
:1016E00012D94B4622462148FFF790F92048FFF7D0
:1016F0007FF905A8FFF77CF91B48FFF779F91D482A
:10170000FFF776F900240EE04B4622461A48FFF711
:101710007DF9EBE704F158036B4413F8441C1748B8
:10172000FFF774F90134A542F4DC0F48FFF760F9C4
:1017300016B0BDE8F0871248FFF75AF9F8E700BF86
:101740009C85000884000020C885000804860008E5
:1017500020850008988400085085000870850008DE
:101760000C860008108600085C80000814860008BB
:1017700060860008688600083C86000870860008BD
:101780007886000808B51048FFF732F90F4B596802
:101790000F48FFF73BF90F4B1B686BB10D4B5968B6
:1017A0000D48FFF733F90D4B1B684BB10B4B5968D4
:1017B0000B48FFF72BF908BD0A48FFF719F9F2E7C4
:1017C0000948FFF715F9F6E7948600088400002021
:1017D000A4860008F4030020C8860008AC0300209B
:1017E00004870008E88600082487000830B589B01F
:1017F00090F820317BB300F120042046FEF7E2FE92
:10180000054680B3036893B320220021684605F0A3
:101810005DF921462848FFF7F9F8284C13222146A4
:101820002748FFF7F3F8642313222146284602F0E5
:1018300028F800BB4FF4FA7313226946284602F0D9
:1018400085F8E0B1032830D01E48FFF7D1F81E48D4
:10185000FFF7CEF805E01D48FFF7CAF81C48FFF770
:10186000C7F809B030BD1B48FFF7C2F8F9E71A48BE
:10187000FFF7BEF8F5E71948FFF7BAF8F1E70023DC
:101880008DF81330132269461548FFF7BFF813226D
:1018900069460A4805F00AF918B91248FFF7A8F88E
:1018A000DFE71148FFF7A4F8DBE71048FFF7A0F8DF
:1018B0000F48FFF79DF8D4E780870008A08700084D
:1018C000B4870008848800089488000840870008CE
:1018D0005C87000898840008B8840008CC8700085A
:1018E000DC870008F487000814880008388800089E
:1018F0005C8800082DE9F04F93B090F82031022B5E
:1019000040F29F80054600F120084046FEF798FE11
:101910000446002800F0AD80404604F0C4FEC0B28A
:101920000138C6B205F1600004F0BDFE0746A0F123
:1019300064029D4B9A4200F2A0809C4B9C4200F0B6
:10194000A0809B4B9C4200F0AD809A4B9C4200F0E3
:10195000BA80994B9C4200F0C780984B9C4200F0A3
:10196000D48005F1400A96495046FEF719FC00283C
:1019700040F0DC804FF4827363600023A360E36077
:10198000236163614FF40072A26123626362A36208
:101990000A23E36295F82031032B04D995F88030AF
:1019A000312B00F0CF8095F82031042B04D995F825
:1019B000A030312B00F0C98095F82031052B08D9D3
:1019C000804905F1C000FEF7EBFB10B94FF400634E
:1019D000E36095F82031062B07D97B4905F1E0003B
:1019E000FEF7DEFB08B98023236295F82031072B30
:1019F00000F2AE802268754B9A4200F06F8104F0CD
:101A000069FB8146B7EB192F40F26C81B7EBD91F08
:101A100040F2A881B7EB991F40F2A781B7EB591F9D
:101A200040F2A681B7EB191F40F2A581B7EBD90FA1
:101A300040F2A481B7EB990F00F2A3814FF0080B9D
:101A400052E16348FEF7D4FF6248FEF7D1FF6248D7
:101A5000FEF7CEFF6148FEF7CBFF6148FEF7C8FFF7
:101A60006048FEF7C5FF6048FEF7C2FF13B0BDE84F
:101A7000F08F5E48FEF7BCFFF8E75D48FEF7B8FF61
:101A8000F4E7002302935B4B5A6C42F480525A6491
:101A90005B6C03F480530293029B4C482060FEF77A
:101AA0008BFE5EE700230393524B1A6C42F4804294
:101AB0001A641B6C03F480430393039B4E4820601D
:101AC000FEF77AFE4DE7002304934A4B1A6C42F46A
:101AD00000421A641B6C03F400430493049B4748C0
:101AE0002060FEF769FE3CE700230593414B5A6CEA
:101AF00042F400525A645B6C03F400530593059B57
:101B00003F482060FEF758FE2BE700230693394B31
:101B10005A6C42F480125A645B6C03F4801306938F
:101B2000069B38482060FEF747FE1AE736495046C4
:101B3000FEF736FB10B9002363601EE73348FEF75B
:101B400057FF93E7022323612DE70123636133E706
:101B500005F580790DF1060207A94846FFF701F85F
:101B6000002800F0B6800798294B98425AD0294B9C
:101B7000984200F08780284B984200F09080274BD5
:101B8000984200F09980264B984257D100230C933D
:101B9000184B1A6B42F010021A631B6B03F0100310
:101BA0000C930C9B4AE000BF1CF0FA025403002087
:101BB000FC020020A40200204C020020F4010020BE
:101BC000A48A0008DC8A0008AC88000800300140C4
:101BD000B08800080C89000834890008688900086A
:101BE0009C890008D0890008108A0008508A0008E3
:101BF000788A00080038024000380040003C00406D
:101C00000034014000500140AC8A0008B48A00084A
:101C1000000002400004024000080240000C0240A4
:101C200000100240002308935D4B1A6B42F0010242
:101C30001A631B6B03F001030893089B0DA9002393
:101C40000D934B608B60CB600B61BDF806300D933C
:101C50004FF00109CDF838900323109304F05AFA9D
:101C60004A46BDF80610079804F03FFB4D4B079A13
:101C700043F8362003EBC603BDF806209A8083F8AC
:101C80000690B7E600230993454B1A6B42F0020217
:101C90001A631B6B03F002030993099BCEE7002331
:101CA0000A933F4B1A6B42F004021A631B6B03F05A
:101CB00004030A930A9BC1E700230B93384B1A6B6A
:101CC00042F008021A631B6B03F008030B930B9B93
:101CD000B4E749463448FEF799FE8BE604F00AFA69
:101CE00081468FE64FF0380BC4F81CB0204602F056
:101CF00088F9002848D14FEADB0B022303FA0BF3E3
:101D0000B9FBF3F941462948FEF780FE51462848C1
:101D1000FEF77CFE3A4649462648FEF777FE2169E3
:101D20006269012A14BF00220122022914BF002186
:101D300001212148FEF76AFEE368B3F5006F27D062
:101D40000821236A33BB1D4A1D48FEF75FFE154B71
:101D500003EBC6039B79FBB105F580711948FEF7CB
:101D600055FE83E64FF0300BBEE74FF0280BBBE784
:101D70004FF0200BB8E74FF0180BB5E74FF0100B02
:101D8000B2E74FF0000BAFE70F48FEF731FE6DE60C
:101D90001021D6E70D4AD7E70D48FEF729FE65E684
:101DA00000380240CC010020E08A0008308B000897
:101DB000488B0008588B0008808B0008A888000812
:101DC000988B0008C08B0008148B0008AC880008B2
:101DD000E88B00082DE9F041B0B090F82031012BDC
:101DE00016D9054600F120042046FEF729FC80465E
:101DF000D8B10368CBB1204604F055FCC7B2013F0F
:101E0000FFB28022002110A804F060FE012418E037
:101E10003848FEF7EDFD3848FEF7EAFD3748FEF793
:101E2000E7FD3748FEF7E4FD02E03648FEF7E0FD47
:101E300030B0BDE8F081013405EB441110A804F086
:101E400069FE95F82031A34209DD012CF3DD10AEC7
:101E50003046FEF7AFF92C4B1B883352EBE740229C
:101E600069460DEB0200FEF753FD054610B3274B04
:101E700003EBC7039B790BBB4FF47A732A46694681
:101E8000404602F01DF90446204B03EBC7039B7943
:101E9000F3B95CBB29461E48FEF7B8FDA54221DD1B
:101EA00004F1C0036B4413F8C01C1A48FEF7AEFDE2
:101EB0000134F3E71848FEF79BFDB9E7134B03EB3A
:101EC000C7010022898853F8370004F00EFAD3E7DF
:101ED0000E4B03EBC7010122898853F8370004F049
:101EE00004FAD6E70D48FEF783FDA1E70C48FEF79C
:101EF0007FFD9DE7148C0008388C00085C8C00087E
:101F0000888C0008CC8C0008EC840008CC010020F0
:101F10001C8D000870860008008D00085C80000899
:101F200004850008F0B593B090F82031012B3CD91E
:101F3000044600F120052846FEF782FB07460028EC
:101F40003DD00368002B3AD0284604F0ACFBC5B264
:101F5000013DEDB204F1400004F0A5FB86B2402E35
:101F600000D9402694F82031022B2DD84FF47A74F2
:101F70004122002101A804F0A9FD2C4A02EBC50270
:101F800093793BBB2346324601A9384602F0A3FAB7
:101F90000446264B03EBC5039B7923BB6CB3032C90
:101FA00040D02348FEF724FD0CE02248FEF720FD38
:101FB0002148FEF71DFD2148FEF71AFD02E02048EA
:101FC000FEF716FD13B0F0BD04F1600004F06BFBEA
:101FD0000446CDE7154B11460022898853F8350099
:101FE00004F083F9CEE7114B03EBC5010122898888
:101FF00053F8350004F079F9D0E7354631461148F9
:10200000FEF704FDA54209DD04F148036B4413F813
:10201000441C0D48FEF7FAFC0134F3E70B48FEF7C9
:10202000E7FCCFE70A48FEF7E3FCCBE7CC01002052
:10203000988D0008308D0008608D0008888C00089D
:10204000CC8C0008808D0008708600085C80000839
:10205000788600082DE9F041C2B090F82031012BBC
:1020600016D9054600F120042046FEF7E9FA80461D
:10207000D8B10368CBB1204604F015FBC7B2013FCD
:10208000FFB28022002122A804F020FD012418E0E4
:102090004448FEF7ADFC4448FEF7AAFC4348FEF76F
:1020A000A7FC4348FEF7A4FC02E04248FEF7A0FC70
:1020B00042B0BDE8F081013405EB441122A804F0E0
:1020C00029FD95F82031A34209DD012CF3DD22AE74
:1020D0003046FEF76FF8384B1B883352EBE740244D
:1020E0002246002102A804F0F1FC224612A922A8EF
:1020F000FEF70EFC054640B3304B03EBC7039B795C
:102100003BBB4FF47A7300932B4602AA12A94046B8
:1021100002F0B8F80446294B03EBC7039B7913BBC5
:10212000002C3BD129462648FEF770FC2548FEF7D7
:102130005FFCA54221DD04F584736B4413F8C01CD9
:102140002148FEF763FC0134F3E72048FEF750FC1A
:10215000AEE71A4B03EBC7010022898853F837001A
:1021600004F0C3F8CDE7154B03EBC70101228988C2
:1021700053F8370004F0B9F8D2E71548FEF738FCF9
:102180000024A54206DD02AB195D0F48FEF73EFCB8
:102190000134F6E70F48FEF72BFC89E70E48FEF7FF
:1021A00027FC85E7B08D0008D88D0008008E000858
:1021B000888C0008CC8C0008EC840008CC0100203E
:1021C000348E0008588E000870860008008D0008C4
:1021D000608E00085C8000086C8E000830B58DB001
:1021E00090F82031012B26D9044600F120050DF18D
:1021F0002A020BA92846FEF7B4FC38B30B984B4BC8
:10220000984228D04A4B984259D04A4B984263D0C2
:10221000494B98426DD0494B984228D100230493F2
:10222000474B1A6B42F010021A631B6B03F010034A
:102230000493049B1BE04348FEF7DAFB4248FEF799
:10224000D7FB4248FEF7D4FB0DB030BD29464048CD
:10225000FEF7DCFBF8E700230093394B1A6B42F0E2
:1022600001021A631B6B03F001030093009B05A995
:10227000002305934B608B60CB600B61BDF82A3067
:102280000593012306930323089303F043FF40348F
:1022900030492046FDF784FF002837D02E492046DC
:1022A000FDF77EFF00283CD10022BDF82A100B98D4
:1022B00004F01BF829462948FEF7A8FBC4E70023D1
:1022C00001931F4B1A6B42F002021A631B6B03F05F
:1022D00002030193019BCAE700230293184B1A6B78
:1022E00042F004021A631B6B03F004030293029B87
:1022F000BDE700230393124B1A6B42F008021A63E6
:102300001B6B03F008030393039BB0E70122BDF8A6
:102310002A100B9803F0E9FF29461148FEF776FBD7
:1023200092E71048FEF764FB8EE700BF0000024012
:102330000004024000080240000C0240001002406D
:1023400000380240888E0008AC8E0008D88E000845
:102350002C810008989F0008A89F0008248F00087F
:10236000048F0008448F000870B59EB03848FEF70F
:102370003FFB384C19AD04F138060FCE0FC533685A
:102380002B6014AD4C340FCC0FC523682B603C225E
:10239000002105A804F09AFB2F4B05932F4B0693C1
:1023A0002F4B08932F4B09932F4B0B932F4B0C93D1
:1023B0002F4B0E932F4B0F932F4B11932F4B1293A9
:1023C000002427E003F096FEEB69C3F3C202022368
:1023D0009340B0FBF3F31EAA02EB840252F8141CE4
:1023E0006A68B2F5827F23D0254A04EB44001EAE12
:1023F00006EB800050F8646C50F8600CED68B5F5A1
:10240000006F17D01F4D0295019000961E48FEF7F1
:10241000FDFA0134042C18DC1EAB03EB840353F8E3
:10242000285C2B6843B1002CCCD003F053FECBE7E3
:10243000164ADAE7164DE6E71EAB03EB840353F8C2
:10244000141C1448FEF7E2FAE3E71EB070BD00BFAB
:10245000788F00086C7F0008888F0008948F000830
:10246000988F0008A88F0008B08F0008BC8F000864
:10247000C48F0008D08F0008D48F0008E48F0008B4
:10248000AC8A0008708F0008EC8F0008A48A00084E
:10249000688F00080C90000810B504460A49FDF743
:1024A0007FFE68B109492046FDF77AFE50B1084920
:1024B0002046FDF775FE08B9064802E0002000E05E
:1024C000054810BD0548FCE70C8000083480000872
:1024D00040800008D0000020780100202401002066
:1024E00010B58AB0002305930693079308930993C8
:1024F000384B984207D0384B98421FD0374B984200
:1025000038D00AB010BD00230193354B1A6B42F04E
:1025100002021A631B6B03F002030193019BC023A9
:10252000059312230693012307930323089304239F
:10253000099305A92B4803F0EDFDE2E70023029380
:10254000274B1A6B42F002021A631B6B03F0020363
:102550000293029B4FF440630593122306930123D9
:102560000793032308930423099305A91D4803F047
:10257000D1FDC6E70021039103F5EE331A6B42F05B
:1025800001021A631A6B02F001020392039A04918A
:102590001A6B42F004021A631B6B03F004030493EA
:1025A000049B4FF480730593122306930123079332
:1025B000032308930423099305AC21460A4803F03A
:1025C000A9FD4FF4007305932146084803F0A2FDCE
:1025D00097E700BF0054004000580040005C0040F6
:1025E000003802400004024000000240000802409F
:1025F0002DE9F04385B090F82031022B66D90446CE
:1026000000F12008404604F04EF8461E022E69D81C
:102610004046FFF741FF0546002860D004F140071F
:102620005C49384604F05AFA002863D05A493846C3
:1026300004F054FA002859D104F1600004F033F892
:102640000746A0F57A72554B9A425DD84FF00009C3
:10265000534B9D425CD0534B9D426AD0524B9D429E
:1026600078D00023AB604FF480422A616B61AB618C
:10267000EB612B62B9F1000F7DD04C4B6B607B009E
:10268000EB6094F82031032B08D9494904F180000C
:10269000FDF786FD10B94FF440432B61284602F048
:1026A00013FB00286BD1434B03F80690B9F1000FE0
:1026B00069D0384A41464048FEF7A8F9B9F1000F01
:1026C00063D039463D48FEF7A1F908E03C48FEF7E3
:1026D0008FF93C48FEF78CF93B48FEF789F905B0C5
:1026E000BDE8F0833948FEF783F9F8E73848FEF78C
:1026F0007FF9F4E71022002104F1600004F052F8A1
:1027000007464FF00109A3E73248FEF771F9E6E703
:1027100000230193304B1A6C42F400121A641B6CB4
:1027200003F400130193019B2C482860FFF7D8FEA7
:1027300097E700230293284B1A6C42F480021A6434
:102740001B6C03F480030293029B25482860FFF76B
:10275000C7FE86E7002303931F4B1A6C42F4000266
:102760001A641B6C03F400030393039B1D48286049
:10277000FFF7B6FE75E76F600023EB6081E71A484C
:10278000FEF736F9ABE7044A94E739461748FEF7F7
:102790003DF9A4E7AC8A0008A48A00089816060050
:1027A0007801002024010020D0000020A086010034
:1027B00020910008CC0000204091000860910008A2
:1027C000249000086490000898900008D0900008B9
:1027D000B48A0008F8900008003802400054004015
:1027E00000580040005C00402491000874910008EB
:1027F00070B590F820317BB100F120042046FFF73E
:102800004BFE064660B1036853B121461548FEF7FA
:10281000FDF80124002509E01348FEF7E9F802E07D
:102820001248FEF7E5F870BD0134A4B27F2C0FD832
:10283000610089B202231A46304603F065F8002889
:10284000F2D121460A48FEF7E1F80135EDB2EBE797
:102850001DB90848FEF7CCF8E5E729460648FEF71B
:10286000D5F8E0E7D491000888910008A09100080D
:10287000EC910008089200081C9200082DE9F04332
:10288000B3B090F82031022B1ED9054600F1200488
:10289000204603F008FF461E022E1ED82046FFF7F2
:1028A000FBFD8146E8B10368DBB11022002105F190
:1028B000400003F077FF1FFA80F88022002112A861
:1028C00004F004F902241DE02A48FEF791F82A4892
:1028D000FEF78EF833B0BDE8F0832848FEF788F89D
:1028E000F8E72748FEF784F8F4E712AF3846FDF71B
:1028F00061FC244B1B883B52013405EB441112A8A8
:1029000004F008F995F82031A34202DD022CF3DD32
:10291000EBE7402202A912A8FDF7FAFF044698B19E
:10292000194B9B5DA3B11948FEF762F841F2883359
:10293000224602A9484602F0DDFC0146A9B921461B
:102940001348FEF763F8C5E71248FEF751F8C1E7F0
:102950004FEA480189B24FF47A730093034602AA02
:10296000484602F08FFA0146E8E70B48FEF74EF8BA
:10297000B0E700BF409200086C92000890920008F7
:10298000B0920008EC840008CC000020D09200082F
:10299000F0920008008D000810930008F0B595B083
:1029A00090F82031022B3BD9044600F12006304636
:1029B00003F079FE451E022D3AD83046FFF76CFD34
:1029C0000746002838D00368002B35D0102200219C
:1029D00004F1400003F0E6FE86B204F1600003F06B
:1029E00062FE84B2402C00D940244122002103A879
:1029F00004F06CF8224B5B5D13B32248FDF7F8FF3F
:102A000041F28833224603A9384602F043FD0146CD
:102A100089BB254621461C48FDF7F8FF002424E029
:102A20001A48FDF7E5FF1A48FDF7E2FF15B0F0BDC3
:102A30001848FDF7DDFFF9E71748FDF7D9FFF5E77F
:102A4000700081B24FF47A730093234603AA38468C
:102A500002F0D2FA0146DBE704F150036B4413F8AD
:102A6000441C0E48FDF7D2FF0134A542F4DC0C48AB
:102A7000FDF7BEFFDAE70B48FDF7C8FFD6E700BF5A
:102A8000CC0000207C9300089C930008349300083D
:102A90005C93000890920008B092000870860008CD
:102AA0005C800008B09300082DE9F041A6B090F8D2
:102AB0002031032B44D904462030FFF7EDFC0646B5
:102AC000002844D00368002B41D01022002104F1DB
:102AD000400003F067FE074685B2402216A904F1C4
:102AE0006000FDF715FF804604F1800003F0DBFD78
:102AF00084B2402C00D940244122002105A803F0D3
:102B0000E5FFB8F1010F26D0B8F1020F33D06D0008
:102B1000ADB24FF47A730093434616AA2946304665
:102B200002F0B0F90146002839D14FF47A730093CE
:102B3000234605AA2946304602F05EFA01462DE0FA
:102B40002548FDF755FF2548FDF752FF2AE02448A8
:102B5000FDF74EFF26E0690089B24FF47A730293C5
:102B6000019405AB009301239DF85820304602F0F4
:102B70004FFD014612E09DF858009DF8592069006C
:102B800089B24FF47A730293019405AB009310233A
:102B900042EA0022304602F03BFD014629B11148CD
:102BA000FDF734FF26B0BDE8F0812546BAB22146D4
:102BB0000D48FDF72BFF002408E004F198036B4457
:102BC00013F8841C0948FDF721FF0134A542F4DC09
:102BD0000748FDF70DFFE5E7D493000814940008BB
:102BE000B0920008709400085094000870860008A5
:102BF0005C80000870B58CB03048FDF7F9FE304CB1
:102C000004F1600393E807000CAB03E9070006AB8F
:102C100004F16C0207CA83E807006D4678340FCCD4
:102C20000FC594E8030085E80300002410E0254A5E
:102C300021E0254A2548FDF7E9FE0CAB03EBC40370
:102C400053F82C2C53F8301C2148FDF7DFFE0134DB
:102C5000022C31DC0CAB03EB840353F8185C2B68BB
:102C60000BB31C4B1E5D0CAB03EB840353F80C1C25
:102C7000002EDCD0184A1948FDF7C8FE3EB1E968BD
:102C800049082B69B3F5404FD3D0154AD2E769689C
:102C90002B69B3F5404F04D0114A1248FDF7B6FE38
:102CA000CBE7094AF9E70CAB03EB840353F80C1CA0
:102CB0000D48FDF7ABFECAE70CB070BDA894000844
:102CC0006C7F0008A48A000898940008D494000837
:102CD00018950008CC000020AC8A0008B8940008C1
:102CE000A0940008F49400080C90000808B542482D
:102CF000FDF77EFE4148FDF77BFE4148FDF778FE7B
:102D00004048FDF775FE4048FDF772FE3F48FDF76D
:102D10006FFE3F48FDF76CFE3E48FDF769FE3E48FA
:102D2000FDF766FE3D48FDF763FE3D48FDF760FE9A
:102D30003C48FDF75DFE3C48FDF75AFE3B48FDF779
:102D400057FE3B48FDF754FE3A48FDF751FE3A481E
:102D5000FDF74EFE3948FDF74BFE3948FDF748FEBA
:102D60003848FDF745FE3848FDF742FE3748FDF785
:102D70003FFE3748FDF73CFE3648FDF739FE364842
:102D8000FDF736FE3548FDF733FE3548FDF730FEDA
:102D90003448FDF72DFE3448FDF72AFE3348FDF791
:102DA00027FE3348FDF724FE3248FDF721FE324866
:102DB000FDF71EFE3148FDF71BFE3148FDF718FEFA
:102DC0003048FDF715FE3048FDF712FE2F48FDF79D
:102DD0000FFE2F48FDF70CFE2E48FDF709FE2E488A
:102DE000FDF706FE2D48FDF703FE2D48FDF700FE1A
:102DF0002C48FDF7FDFD08BD5C80000830950008FB
:102E00005495000868950008B0950008E095000802
:102E100024960008509600087C960008AC9600089E
:102E2000D8960008149700082897000854970008BF
:102E300078970008A4970008C8970008FC97000836
:102E4000109800085898000884980008B89800085E
:102E5000F098000814990008489900087C99000827
:102E6000B0990008C4990008089A00083C9A000824
:102E7000749A0008A89A0008E89A0008249B0008A1
:102E8000389B0008689B0008949B0008C49B0008BE
:102E9000F09B0008049C0008389C0008709C000807
:102EA000A09C0008DC9C000808B506490648FDF710
:102EB000ADFD0648FDF79CFD054A06490648FDF7AD
:102EC000A5FD08BDB4800008289D0008409D0008AD
:102ED000649D0008709D00087C9D000808B521488D
:102EE000FDF786FD03F034FB01461F48FDF78EFD1C
:102EF0001E4B59681E48FDF789FD1E48FDF778FDF9
:102F00001D4B1B6B13F0010F17D11B4B1B6B13F0E9
:102F1000020F16D1184B1B6B13F0040F15D1164B73
:102F20001B6B13F0080F14D1134B1B6B13F0100F16
:102F300013D11248FDF75CFD08BD1148FDF758FD9F
:102F4000E3E71048FDF754FDE4E70F48FDF750FDB7
:102F5000E5E70E48FDF74CFDE6E70D48FDF748FDB7
:102F6000E7E700BF8C9D0008A89D000884000020B2
:102F7000BC9D0008D49D0008003802405C80000819
:102F8000F09D0008FC9D0008089E0008149E0008A3
:102F9000209E000808B50448FDF72AFD642003F0D0
:102FA000DDFAFDF7CDFA00BF2C9E00082DE9F043B5
:102FB00093B090F82031022B2BD905462030FDF735
:102FC00001FB074690B30368A3B305F1400905F17F
:102FD000600003F068FB044695F82031032B2DD8E0
:102FE0004FF4FA7801AD4B46254A4221284603F0BA
:102FF000A7FC2846FDF7DEF8C6B22CB322464346AE
:1030000049462048FDF702FD1F48FDF7F1FC002569
:1030100020E01E48FDF7ECFC1D48FDF7E9FC1D48CB
:10302000FDF7E6FC1C48FDF7E3FC25E01B48FDF737
:10303000DFFC21E01A48FDF7DBFC1DE005F1800014
:1030400003F031FB8046CDE74FF0FF32D7E7404633
:1030500003F084FA0CB1A5420AD26423324601A9D6
:10306000384600F00EFC0135002CF0D0AC42EED812
:1030700029460C48FDF7CAFC13B0BDE8F08300BF39
:10308000F49E0008FC9E0008289F00083C9E000853
:10309000749E00089C9E0008C89E00089884000842
:1030A000B88400084C9F000800B5CBB001A9FDF71B
:1030B000F9FC78B19DF8043063B1864901A8FDF7A9
:1030C0006FF820B1844901A8FDF76AF828B901A872
:1030D000FDF76AFD4BB05DF804FB804901A8FDF7E0
:1030E0005FF820B17E4901A8FDF75AF818B901A888
:1030F000FDF700FEEEE77B4901A8FDF751F820B18E
:10310000794901A8FDF74CF818B901A8FDF780FE30
:10311000E0E7764901A8FDF743F820B1744901A81A
:10312000FDF73EF818B901A8FDF71CFFD2E7714979
:1031300001A8FDF735F820B16F4901A8FDF730F877
:1031400018B901A8FDF738FFC4E76C4901A8FDF7DD
:1031500027F820B16A4901A8FDF722F818B901A89B
:10316000FDF754FFB6E7674901A8FDF719F820B14C
:10317000654901A8FDF714F818B901A8FDF776FF15
:10318000A8E7624901A8FDF70BF820B1604901A842
:10319000FDF706F818B901A8FDF79EFF9AE75D490B
:1031A00001A8FCF7FDFF20B15B4901A8FCF7F8FF7F
:1031B00018B901A8FEF74CF88CE7584901A8FCF7AC
:1031C000EFFF20B1564901A8FCF7EAFF18B901A8A2
:1031D000FEF70AF97EE7534901A8FCF7E1FF20B1A9
:1031E000514901A8FCF7DCFF18B901A8FEF7B8F9AE
:1031F00070E74E4901A8FCF7D3FF90B14C4901A8F4
:10320000FCF7CEFF88B14B4901A8FCF7C9FF20B1FC
:10321000494901A8FCF7C4FF58B901A8FFF7C6FE49
:1032200058E701A8FEF7AEFA54E701A8FEF7DEFA68
:1032300050E7424901A8FCF7B3FF20B1404901A87B
:10324000FCF7AEFF18B901A8FEF754FB42E73D4971
:1032500001A8FCF7A5FF20B13B4901A8FCF7A0FF9E
:1032600018B901A8FEF7B6FD34E7384901A8FCF704
:1032700097FF20B1364901A8FCF792FF18B901A8C1
:10328000FEF750FE26E7334901A8FCF789FF20B17D
:10329000314901A8FCF784FF18B901A8FEF7DAFE4E
:1032A00018E72E4901A8FCF77BFF20B12C4901A8A3
:1032B000FCF776FF18B901A8FEF790FF0AE7294945
:1032C00001A8FCF76DFF00284ED101A8FFF74CF8CC
:1032D00000E700BF649F0008709F0008749F00080B
:1032E000809F0008849F0008909F0008949F00081A
:1032F000A09F0008A49F0008AC9F0008B09F000892
:10330000BC9F0008C09F0008CC9F0008D09F000809
:10331000DC9F0008E09F0008EC9F0008F09F000879
:10332000E8A00008FC9F000808A000080CA0000806
:1033300018A0000824A000080C82000830A0000893
:103340003CA0000840A000084CA0000850A00008C5
:103350005CA0000860A0000870A0000874A000082D
:103360007CA0000880A00008404901A8FCF718FFD5
:1033700020B13F4901A8FCF713FF18B901A8FFF7D6
:1033800037F9A7E63B4901A8FCF70AFF20B13A4903
:1033900001A8FCF705FF18B901A8FFF729FA99E67B
:1033A000364901A8FCF7FCFE20B1354901A8FCF71D
:1033B000F7FE18B901A8FFF761FA8BE6314901A8B9
:1033C000FCF7EEFE20B1304901A8FCF7E9FE18B980
:1033D00001A8FFF7E3FA7DE62C4901A8FCF7E0FE1F
:1033E00020B12B4901A8FCF7DBFE18B901A8FFF7B3
:1033F0005BFB6FE6274901A8FCF7D2FE18B901A8CC
:10340000FFF7F8FB66E6244901A8FCF7C9FE20B1E6
:10341000224901A8FCF7C4FE18B901A8FFF766FC11
:1034200058E61F4901A8FCF7BBFE20B11D4901A8C1
:10343000FCF7B6FE18B901A8FFF736FD4AE61A49AF
:1034400001A8FCF7ADFE18B901A8FFF747FD41E65A
:10345000164901A8FCF7A4FE10B901A8FFF79AFDD0
:1034600001A91348FDF7D2FA34E600BF8CA000088A
:1034700098A000089CA00008A8A00008ACA0000824
:10348000B8A00008BCA00008C8A00008CCA0000894
:10349000DCA00008E0A00008ECA00008F4A00008F0
:1034A000F8A0000800A10008E4A0000804A100089A
:1034B0000CA1000830B583B003E0264B93F88030B0
:1034C00043BBFDF74FF8002842D0FDF759F88DF8BF
:1034D00007000A2301220DF107011F4800F0D1F96E
:1034E0009DF807300D2BE8D00A2BE6D0082B22D010
:1034F0007F2B20D0A3F12002D2B25E2AE1D8154A58
:1035000092F880207E2ADCD81249501C81F8800075
:103510008B54D6E71148FDF76BFA0E4C94F88030C7
:103520000025E5542046FFF7BFFD84F880500C4885
:10353000FDF75EFAC5E7074B93F88030002BC0D04B
:10354000013B044A82F880300648FDF751FAB8E79B
:1035500003B030BD44050020840000205C800008DA
:103560002CA1000830A10008FEE7FEE7FEE7FEE719
:10357000FEE770477047704708B502F0DDFF08BDF1
:1035800008B5024800F0D4FA08BD00BF840000204E
:1035900000B583B0002100910C4B5A6C42F480427C
:1035A0005A645A6C02F480420092009A01911A6C9B
:1035B00042F080521A641B6C03F080530193019B0C
:1035C000072002F03FFF03B05DF804FB0038024023
:1035D000026802F10C0353E8003F23F490730C32AD
:1035E00042E800310029F3D1026802F1140353E8E4
:1035F000003F23F00103143242E800310029F3D1E7
:10360000036B012B05D0202380F842300023036395
:103610007047026802F10C0353E8003F23F01003E7
:103620000C3242E800310029F3D1ECE790F8413048
:10363000212B01D0022070478368B3F5805F17D03B
:10364000036A5A1C02621A7803685A60C38C9BB2E0
:10365000013B9BB2C3844BB90268D36823F080035B
:10366000D3600268D36843F04003D3600020704702
:103670000369002BE4D1036A1B880268C3F30803C3
:103680005360036A02330362E0E7000010B50446AA
:103690000268136923F44053C1680B4313618368C4
:1036A00002691A4343691A43C3691A430168CB6824
:1036B00023F4164323F00C031343CB6002685369D1
:1036C00023F4407381690B4353610368314A934289
:1036D00006D002F58062934202D002F0FBFC01E0CA
:1036E00002F008FDE369B3F5004F29D0002103186B
:1036F00049411B1841F10001C90041EA5371DB0047
:10370000181863684FEA83024FEA937341F100018E
:10371000FCF7AEFD204AA2FB00314909642303FBFC
:1037200011031B013233A2FB03235B0903F0F002F8
:1037300002EB011203F00F03216813448B6010BDEC
:103740000023021843EB0301121841F10001C900E4
:1037500041EA5271D200101841F1000162689218DA
:103760005B41FCF785FD0C4AA2FB0031490964234B
:1037700003FB1103DB003233A2FB03235B095A0076
:1037800002F4F87202EB011203F0070321681344FC
:103790008B60D4E7001001401F85EB512DE9F04309
:1037A00083B005460E4617469946DDF828802B68FB
:1037B0001C6836EA04040CBF01240024BC4228D152
:1037C000B8F1FF3FF3D002F0C3FEA0EB0900404583
:1037D00023D8B8F1000F22D02B68DA6812F0040F5A
:1037E000E5D0802EE3D0402EE1D01A6812F0080F09
:1037F000DDD0002401941A6801925B680193019B5B
:103800002846FFF7E5FE08236B6485F84040012059
:1038100000E0002003B0BDE8F0830320FAE70320B6
:10382000F8E760B310B5044690F8413013B3242391
:1038300084F841302268D36823F40053D3602046D3
:10384000FFF724FF2268136923F490431361226871
:10385000536923F02A0353612268D36843F4005369
:10386000D36000206064202384F8413084F8423023
:10387000606310BD80F84030FCF7CAFDD7E7012037
:1038800070472DE9F04182B01E4690F84130202B60
:1038900056D104460D469046002955D00AB901205C
:1038A0004FE000234364212380F8413002F050FEB2
:1038B0000746A4F82480A4F82680A368B3F5805FA7
:1038C00002D04FF0000814E023692BB34FF000083A
:1038D0000FE0202384F84130032032E038F8023B27
:1038E0002268C3F308035360E28C92B2013A92B2A9
:1038F000E284E38C9BB293B100963B460022802188
:103900002046FFF74BFF0028E3D1002DE6D015F845
:10391000012B23685A60E7E7A8460025E9E70096EF
:103920003B46002240212046FFF738FF18B92023EC
:1039300084F8413005E0202384F84130032000E082
:10394000022002B0BDE8F0810120FAE72DE9F04144
:1039500082B01E4690F84230202B5AD104460D46C4
:103960009046002959D00AB9012053E0002343644E
:10397000222280F84220036302F0EAFD0746A4F801
:103980002C80A4F82E80A368B3F5805F02D04FF09E
:1039900000081AE02369002B33D04FF0000814E030
:1039A000202384F84230032034E023685B68C3F3AB
:1039B000080328F8023B03E023685B682B7001359D
:1039C000E28D92B2013A92B2E285E38D9BB2DBB115
:1039D00000963B46002220212046FFF7DFFE00280C
:1039E000DED1002DE1D0A368B3F5805FE4D013B938
:1039F0002369002BE0D023685B6803F07F032B7002
:103A0000DDE7A8460025E0E7202384F842300020C7
:103A100000E0022002B0BDE8F0810120FAE7704723
:103A200008B50168CA6822F04002CA60202280F806
:103A30004120FFF7F4FF002008BD704708B5806BF8
:103A40000023C385FFF7F9FF08BD704790F84230A7
:103A5000222B69D18368B3F5805F4FD0826AB3F5BA
:103A6000805F04D0002B56D10369002B53D103682B
:103A70005B681370836A01338362C38D9BB2013B21
:103A80009BB2C385002B51D100B583B00268D368C7
:103A900023F02003D3600268D36823F48073D360DB
:103AA0000268536923F001035361202380F84230F8
:103AB00000234363036B012B33D1002303630268AC
:103AC00002F10C0353E8003F23F010030C3242E8EC
:103AD00000310029F3D103681A6812F0100F06D0E4
:103AE000002201921A6801925B680193019B818D0B
:103AF000FFF7ABFF002003B05DF804FB0269002A6A
:103B0000ACD1826A03685B68C3F308031380836ADD
:103B100002338362B1E703685B6803F07F031370CD
:103B2000A8E7FCF737FFE5E7022070470020704761
:103B300010B582B0044602681368D068516913F06A
:103B40000F0F09D113F0200F0CD010F0200F09D067
:103B50002046FFF77BFF16E011F0010115D110F4AC
:103B6000907F12D1216B012979D013F0800F03D0FF
:103B700010F0800F40F0218113F0400F03D010F0BF
:103B8000400F40F01E8102B010BD13F0010F06D0AF
:103B900010F4807F03D0626C42F00102626413F083
:103BA000040F04D019B1626C42F00202626413F097
:103BB000020F04D019B1626C42F00402626413F087
:103BC000080F07D010F0200F00D119B1626C42F03D
:103BD00008026264626C002AD5D013F0200F02D074
:103BE00010F0200F29D123685B6903F04003626C59
:103BF00012F0080F00D163B32046FFF7E9FC2368F9
:103C00005B6913F0400F20D0226802F1140353E8DF
:103C1000003F23F04003143242E800310029F3D181
:103C2000E36B73B1694A1A65E06B02F0B6FB0028DA
:103C3000A9D0E06B036D9847A5E72046FFF706FF84
:103C4000D1E72046FFF7F9FE9DE72046FFF7F5FE96
:103C500099E72046FFF7F1FE0023636493E713F032
:103C6000100F82D010F0100F3FF47FAF00230193AC
:103C70001368019353680193019B536913F0400F3C
:103C80005FD0E26B13685B689BB2002B4AD0A18DBA
:103C9000994247D9E385D369B3F5807F37D022684D
:103CA00002F10C0353E8003F23F480730C3242E826
:103CB00000310029F3D1226802F1140353E8003FD8
:103CC00023F00103143242E800310029F3D12268C5
:103CD00002F1140353E8003F23F04003143242E89A
:103CE00000310029F3D1202384F8423000232363DC
:103CF000226802F10C0353E8003F23F010030C325A
:103D000042E800310029F3D1E06B02F0FDFA022312
:103D10006363A18DE38D9BB2C91A89B22046FFF778
:103D200094FE30E7A18D99427FF42DAFD369B3F5AE
:103D3000807F7FF428AF022363632046FFF785FE70
:103D400021E7A18DE38D9BB2C91A89B2E38D9BB2A5
:103D5000002B3FF418AF00293FF415AF226802F1A1
:103D60000C0353E8003F23F490730C3242E8003018
:103D70000028F3D1226802F1140353E8003F23F036
:103D80000103143242E800300028F3D1202384F8E4
:103D9000423000232363226802F10C0353E8003F02
:103DA00023F010030C3242E800300028F3D1022344
:103DB00063632046FFF749FEE5E62046FFF736FC41
:103DC000E1E62046FFF72CFEDDE600BF3D3A0008A5
:103DD00081628285C28500234364222380F84230B9
:103DE000036923B10268D36843F48073D360026827
:103DF000536943F0010353610268D36843F0200321
:103E0000D3600020704708B590F84230202B08D1CD
:103E100049B10AB9012008BD00230363FFF7D8FFA9
:103E2000F9E70220F7E70120F5E700002DE9F04768
:103E300082B00546884617461E4602F089FB0A9B5B
:103E40001B1A03EB060902F083FB8246284B1B6812
:103E5000C3F3CB3309FB03F301932B689C6838EA67
:103E600004040CBF01230023BB423DD0B6F1FF3F49
:103E7000F3D002F06DFBA0EB0A00484503D2019B92
:103E800073BB9946E9E72A68536823F0E00353605F
:103E90006B68B3F5827F0BD0AB6AB3F5005F14D0CB
:103EA000012385F85130002385F8503003201CE0B1
:103EB000AB68B3F5004F02D0B3F5806FECD12A6840
:103EC000136823F040031360E6E72A68136823F4BD
:103ED000005313602A68136843F400531360DFE74C
:103EE000019B013B0193B8E7002002B0BDE8F087D9
:103EF0000800002070B584B004460D4616460092B6
:103F00000B4601220221FFF791FFD0B9174B1B6826
:103F1000174AA2FB03235B0D4FF47A7202FB03F3F3
:103F200003936368B3F5827F11D0039B3BB1039B7E
:103F3000013B039323689B6813F0800FF5D104B015
:103F400070BD636D43F0200363650320F7E70096BF
:103F50002B46002280212046FFF768FF0028EED084
:103F6000636D43F0200363650320E8E70800002049
:103F7000819F5E1610B582B004460B464168B1F5CC
:103F8000827F14D06168B1F5827F2AD1A168B1F532
:103F9000806F19D00092002280212046FFF746FF53
:103FA00030B3636D43F020036365032020E0816834
:103FB000B1F5004F02D0B1F5806FE3D12068016800
:103FC00021F040010160DDE700920022012120463E
:103FD000FFF72CFF60B1636D43F02003636503209E
:103FE00006E00092002201212046FFF71FFF08B9DA
:103FF00002B010BD636D43F0200363650320F7E753
:10400000704700285AD010B50446436A33B9436854
:10401000B3F5827F05D00023C36102E00023036172
:1040200043610023A36294F85130002B40D0022357
:1040300084F851302268136823F0400313606368EA
:1040400003F48273A26802F404421343E26802F4A8
:1040500000621343226902F002021343626902F014
:1040600001021343A26902F400721343E26902F0F1
:1040700038021343226A02F080021343A26A02F458
:104080000052216813430B60638B03F00403626AE0
:1040900002F01002216813434B602268D36923F4B5
:1040A0000063D36100206065012384F8513010BDA6
:1040B00084F850302046FFF7A3FFB8E7012070478F
:1040C0002DE9F04383B00446894690461D4602F030
:1040D0003FFA94F85130012B40F0CD800646DFB214
:1040E000B9F1000F00F0C880B8F1000F00F0C480F3
:1040F00094F85030012B00F0C380012384F8503035
:10410000032384F8513000236365C4F83090A4F889
:104110003480A4F83680A363A387E38763642364B1
:10412000A368B3F5004F1ED023681A6812F0400F41
:1041300003D11A6842F040021A60E368B3F5006FD9
:104140001CD0636813B1B8F1010F5FD1226B2368F3
:1041500012781A73236B01332363E38E9BB2013B06
:104160009BB2E38652E02268136823F04003136099
:104170002268136843F480431360D5E7636813B182
:10418000B8F1010F15D1226B23681288DA60236B16
:1041900002332363E38E9BB2013B9BB2E38608E0CC
:1041A00002F0D6F9801BA84202D3B5F1FF3F15D12A
:1041B000A5B1E38E9BB2002B42D023689A6812F01F
:1041C000020FEDD0226B1288DA60236B0233236377
:1041D000E38E9BB2013B9BB2E386EAE7012384F8BE
:1041E0005130002384F85030032745E0226B1278C9
:1041F0001A73236B01332363B4F836C01FFA8CFCA7
:104200000CF1FF3C1FFA8CFCA4F836C0E38E9BB285
:10421000B3B123689A6812F0020FE7D102F098F95F
:10422000801BA84202D3B5F1FF3F01D1002DEDD193
:10423000012384F85130002384F8503003271BE019
:10424000324629462046FFF755FE08B12023636514
:10425000A36833B901932368DA6801929B680193DC
:10426000019B012384F85130002384F85030636DA2
:1042700013B9002700E00227384603B0BDE8F083F9
:104280000227F9E72DE9F04383B0044688469146BA
:104290001F460A9D02F05CF9064694F851306268A8
:1042A000012B0BD0D9B2B2F5827F40F00481A36814
:1042B000002B40F00481042940F00381B8F1000F85
:1042C00000F00181B9F1000F00F0FF80002F00F035
:1042D000FE8094F85030012B00F0FB80012384F81D
:1042E000503094F85130042B02D0052384F851301B
:1042F00000236365C4F83890E787A787C4F8308047
:10430000E786A7862364636423681A6812F0400F67
:1043100003D11A6842F040021A60E368B3F5006FF7
:1043200011D063680BB1012F0BD1226B2368127877
:104330001A73236B01332363E38E9BB2013B9BB261
:10434000E386012771E063680BB1012F0BD1226B6B
:1043500023681288DA60236B02332363E38E9BB2F7
:10436000013B9BB2E38601271BE023689A6812F0A9
:10437000010F0ED0E28F92B25AB1DA68A36B1A80A5
:10438000A36B0233A363E38F9BB2013B9BB2E38732
:10439000012702F0DDF8801BA84202D3B5F1FF3FF0
:1043A0001ED1E38E9BB21BB9E38F9BB2002B62D070
:1043B00023689A6812F0020FD7D0E28E92B2002AD8
:1043C000D3D0002FD1D0226B1288DA60236B023356
:1043D0002363E38E9BB2013B9BB2E3860027C4E7D5
:1043E000012384F85130002384F85030032063E027
:1043F00023689A6812F0010F0ED0E28F92B25AB180
:10440000DA68A36B1A70A36B0133A363E38F9BB2CB
:10441000013B9BB2E387012702F09AF8831BAB4272
:1044200002D3B5F1FF3F1ED1EDB1E38E9BB213B9BC
:10443000E38F9BB2FBB123689A6812F0020FD7D0CA
:10444000E28E92B2002AD3D0002FD1D0226B127804
:104450001A73236B01332363E38E9BB2013B9BB240
:10446000E3860027C4E7012384F85130002384F851
:104470005030032020E0324629462046FFF73AFD1F
:1044800090B9A36833B901932368DA6801929B68F5
:104490000193019B012384F85130002384F85030AC
:1044A000636D4BB1012007E020236365002384F88E
:1044B0005030012000E0022003B0BDE8F08302206C
:1044C000FAE70220F8E70120F6E70120F4E70120EF
:1044D000F2E70220F0E72DE9F04383B01D4690F8A3
:1044E0005130012B40F0B280044689469046DFB23D
:1044F000002900F0AC80002A00F0A9804368B3F5E1
:10450000827F01D1836853B302F022F8064694F803
:104510005030012B00F09F80012384F85030042399
:1045200084F8513000236365C4F83890A4F83C80C7
:10453000A4F83E802363A386E38623646364A368B0
:10454000B3F5004F15D023681A6812F0400F03D15D
:104550001A6842F040021A60E368F3B143E00423B2
:1045600080F85130009513460A46FFF78BFE074648
:104570006DE02268136823F040031360226813681B
:1045800023F480431360DEE701F0E2FF801BA842C2
:1045900002D3B5F1FF3F15D1A5B1E38F9BB2002B3C
:1045A00042D023689A6812F0010FEDD0A26B1B7BFA
:1045B0001370A36B0133A363E38F9BB2013B9BB2E8
:1045C000E387EAE7012384F85130002384F8503070
:1045D00003273CE001F0BCFF801BA84202D3B5F1E9
:1045E000FF3F19D1C5B1E38F9BB2EBB123689A6845
:1045F00012F0010FEED0DA68A36B1A80A36B0233BE
:10460000A363B4F83EC01FFA8CFC0CF1FF3C1FFA08
:104610008CFCA4F83EC0E6E7012384F85130002367
:1046200084F85030032712E0324629462046FFF72F
:10463000A1FC08B120236365012384F851300023D5
:1046400084F85030636D13B9002700E00227384624
:1046500003B0BDE8F0830227F9E703685A6912F452
:10466000806F01D1002070476FF480625A6100238F
:104670000363202280F83D2080F83E30026C42F037
:104680000402026480F83C30012070472DE9F041BB
:1046900006460C46174698463BE001F059FF069B3C
:1046A000C01A404502D8B8F1000F32D1012D18D000
:1046B00033689B6924EA03039BB2B3FA83F35B0973
:1046C0009F4226D100233363202286F83D2086F8BE
:1046D0003E30326C42F02002326486F83C300120D9
:1046E00027E033685B6924EA03039BB2B3FA83F3E0
:1046F0005B09E5E733685B6924EA030C1FFA8CFC6D
:10470000BCFA8CFC4FEA5C1C674511D1B8F1FF3F45
:10471000C3D1C4F30745012DECD033689B6924EA6B
:10472000030C1FFA8CFCBCFA8CFC4FEA5C1CEBE718
:104730000020BDE8F0812DE9F84305460E4690467D
:10474000994653E01A6842F400721A602B686FF4BD
:1047500080625A6100232B63202285F83D2085F872
:104760003E302A6C42F004022A6485F83C30012075
:104770004AE001F0EDFEA0EB0900404502D8B8F197
:10478000000F33D1012F17D02B689B6926EA030352
:104790009BB2003B18BF012343B300232B632022AD
:1047A00085F83D2085F83E302A6C42F020022A64CC
:1047B00085F83C30012027E02B685B6926EA03037B
:1047C0009BB2003B18BF0123E6E72B689C6926EAF1
:1047D0000404A4B2003C18BF0124A4B12B685A6998
:1047E00012F4806FAED1B8F1FF3FC2D1C6F30747D4
:1047F000012FEAD12B685C6926EA0404A4B2003CCC
:1048000018BF0124E9E70020BDE8F883F0B583B0C4
:1048100004460D4616461F46C36A082B0DD0012BD1
:104820000BD013F5803F08D0036B122B0AD102681E
:10483000136843F48073136004E02268136843F440
:10484000807313600097334600224FF00111204619
:10485000FFF71CFF80B92369B3F5804F16D1236899
:1048600005F0FE051D613B46324613492046FFF721
:1048700062FFF8B903B0F0BD23681B6813F4807FB2
:1048800002D04FF4007323640320F3E7EB11226896
:1048900003F0060343F0F00313613B463246074939
:1048A0002046FFF748FF18B92368EDB21D61DAE72B
:1048B0000120DFE70120DDE7020001000800010020
:1048C0002DE9F04184B004460D4616461F46C26AE3
:1048D00001680B6843F480630B60082A0DD0012A3D
:1048E0000BD012F5803F08D0036B112B0AD1026860
:1048F000136843F48073136004E02268136843F480
:10490000807313600097334600224FF00111204658
:10491000FFF7BCFE98B92369B3F5804F19D123681E
:1049200045F00105EDB21D613B4632462A4920465D
:10493000FFF701FF00284CD104B0BDE8F0812368E7
:104940001B6813F4807F02D04FF4007323640320AC
:10495000F2E74FEAE51808F00608236848F0F0028D
:104960001A613B4632461D492046FFF7E4FE08B176
:104970000120E1E72368EDB21D613B46324616494E
:104980002046FFF7D8FE08B10120D5E700220392A8
:10499000236859690391996903910399196841F44E
:1049A00080711960009733464FF001112046FFF7E0
:1049B0006DFE20B9226848F0F1031361B4E7236863
:1049C0001B6813F4807F02D04FF40073236403202C
:1049D000B2E70120B0E700BF0200010008000100BB
:1049E00070B504460D46164623685B6913F0800FC8
:1049F00021D12046FFF731FEF8B9B5F1FF3FF3D0E2
:104A000001F0A6FD801BA84201D8002DECD123683F
:104A10005B6913F0800FE7D100232363202284F821
:104A20003D2084F83E30226C42F02002226484F85B
:104A30003C30012000E0002070BD0120FCE70000B8
:104A40002DE9F04784B004460D46164699460C9F62
:104A5000DDF834800268136843F4806313600368F0
:104A6000196841F480711960CDF800803B4600223E
:104A70004FF00111FFF70AFE70B95FFA85FA23685B
:104A800005F0FE051D6143463A4641492046FFF7C1
:104A900052FE68B1012008E023681B6813F4807F90
:104AA00002D04FF400732364032004B0BDE8F08704
:104AB0000023039323685A6903929B690393039B22
:104AC000424639462046FFF78BFF80B9B9F1010F06
:104AD00018D12368F6B21E61424639462046FFF7D8
:104AE0007FFF68B3236C042B24D00120DDE7236C07
:104AF000042B01D00120D8E72268136843F4007327
:104B00001360F7E72368320A1A61424639462046A5
:104B1000FFF766FF18B92368F6B21E61DCE7236C65
:104B2000042B01D00120C0E72268136843F400730E
:104B30001360F7E72268136843F400731360D4E747
:104B40002268136843F480731360CDF800803B46FD
:104B500000224FF001112046FFF798FD68B9226846
:104B60004AF00103136143463A4609492046FFF7DC
:104B7000E2FD002899D0012097E723681B6813F411
:104B8000807F02D04FF40073236403208DE700BFC1
:104B90000200010070B504460D46164623685B69A5
:104BA00013F0040F21D12046FFF757FDF8B9B5F1F6
:104BB000FF3FF3D001F0CCFC801BA84201D8002DB0
:104BC000ECD123685B6913F0040FE7D10023236362
:104BD000202284F83D2084F83E30226C42F02002EE
:104BE000226484F83C30012000E0002070BD0120E8
:104BF000FCE770B504460D46164614E06FF010024F
:104C00005A6100232363202284F83D2084F83E303B
:104C1000226C226484F83C30012025E023685B6923
:104C200013F0400F10D02368586910F0400F1AD1CC
:104C3000586910F0100FE1D101F08AFC801BA842E6
:104C4000ECD8002DEFD1E9E700232363202284F87C
:104C50003D2084F83E30226C42F02002226484F829
:104C60003C30012000E0002070BD70B504460D46C8
:104C7000164604E023685B6913F0100F10D0236818
:104C80005B6913F0100F1AD12046FFF7E6FCC0B99C
:104C900001F05EFC801BA842ECD8002DEFD1E9E7C3
:104CA00000232363202284F83D2084F83E30226CC8
:104CB00042F02002226484F83C30012000E0002011
:104CC00070BD0120FCE77047002800F0CC8070B573
:104CD000044690F83D30002B77D0242384F83D30F3
:104CE0002268136823F0010313602268136843F4F9
:104CF000004313602268136823F40043136001F03B
:104D0000E9F962685A4B9A4264D85A4B98428CBF70
:104D100000230123002B40F0A8805749A1FB00315C
:104D20008B0C25686A6822F03F0242EA91426A6071
:104D300021680A6A22F03F0266684D4DAE424FD8A4
:104D4000013313430B622168CA6922F44F4222F0F7
:104D5000FF026568464B9D424CD8431E6D00B3FB75
:104D6000F5F3013340F6FC70034278D0C3F30B0334
:104D70001A43CA6121680B6823F0C003E269206A04
:104D8000024313430B6021688B6823F4034323F031
:104D9000FF032269E068024313438B602168CB68FC
:104DA00023F0FF036269A06902431343CB602268CA
:104DB000136843F00103136000202064202384F86B
:104DC0003D30206384F83E0070BD80F83C30FFF732
:104DD0007AFF82E7294B98428CBF0023012399E791
:104DE0004FF4967505FB03F3254DA5FB03539B0973
:104DF0000133A6E7A668BEB9431E05EB450CB3FB1D
:104E0000FCF30133C3F30B03B3FA83F35B0943BB36
:104E1000C6B9431E05EB4505B3FBF5F30133C3F3F8
:104E20000B0343F40043A3E7431E05EB850C0CEB97
:104E30008C0CB3FBFCF30133C3F30B03B3FA83F322
:104E40005B09E4E7431E05EB850505EB8505B3FB30
:104E5000F5F30133C3F30B0343F4404388E7042322
:104E600086E7012384E7012070470120ACE700BFFB
:104E7000A08601007F841E0083DE1B43FF083D00E7
:104E8000D34D62102DE9F04385B004460F4690469D
:104E900099460C9E01F05CFB94F83D10202904D04B
:104EA0000227384605B0BDE8F08305460090192377
:104EB00001224F492046FFF7E9FB002840F092808D
:104EC00094F83C30012B00F08F80012384F83C30B3
:104ED00023681A6812F0010F03D11A6842F0010228
:104EE0001A602268136823F400631360212384F896
:104EF0003D30102384F83E3000232364C4F824801E
:104F0000A4F82A90638D23853A4BE3622B46324600
:104F100039462046FFF77AFC0746002866D1002371
:104F2000039323685A6903929B690393039B11E0DF
:104F3000236C042B01D00127B3E72268136843F4E4
:104F400000731360F7E72A4631462046FFF722FE3A
:104F500000282ED1238D002B36D02A4631462046FC
:104F6000FFF73EFD0028E3D1626A236812781A61D8
:104F7000606A431C6362618D89B2013989B26185BF
:104F8000238D013B9BB223852268516911F0040FE8
:104F9000D9D0002BD7D043781361636A01336362A1
:104FA000638D9BB2013B9BB26385238D013B2385BF
:104FB000C9E7236C042B01D0012772E7226813682C
:104FC00043F400731360F7E72268136843F4007337
:104FD0001360202384F83D30002384F83E3084F8A9
:104FE0003C305EE702275CE702275AE7012758E7D3
:104FF000020010000000FFFF2DE9F04387B00446D7
:105000000F46904699460E9E01F0A2FA94F83D1084
:10501000202904D00227384607B0BDE8F0830546B2
:105020000090192301228A492046FFF72FFB002810
:1050300040F0508194F83C30012B00F04D81012369
:1050400084F83C3023681A6812F0010F03D11A6803
:1050500042F001021A602268136823F400631360AF
:10506000222384F83D30102384F83E30002323644B
:10507000C4F82480A4F82A90638D2385754BE362DD
:105080002B46324639462046FFF71AFC07460028D1
:1050900040F02481238D5BB9029323685A69029200
:1050A0009A690292029A1A6842F400721A607AE0CF
:1050B000012B0FD0022B1FD02268136843F48063AA
:1050C00013600023059323685A6905929B69059331
:1050D000059B68E02268136823F480631360002353
:1050E000039323685A6903929A690392039A1A6890
:1050F00042F400721A6056E02268136823F4806359
:1051000013602268136843F4006313600023049360
:1051100023685A6904929B690493049B43E02A46DE
:1051200031462046FFF765FD002840F0D98023680E
:105130001A69636A1A70636A01336362238D013BE3
:105140002385638D9BB2013B9BB263852BE0009569
:105150003346002240492046FFF798FA002840F0E5
:10516000C1802268136843F40073136023681A69CE
:10517000636A1A70626A531C6362238D013B238544
:10518000638D9BB2013B9BB2638523681B6953709F
:10519000636A01336362238D013B2385638D9BB278
:1051A000013B9BB26385218D002900F08A80032991
:1051B00054D80129B3D00229C9D000953346002222
:1051C00025492046FFF762FA002840F08D802268CA
:1051D000136823F48063136023681A69636A1A7082
:1051E000636A01336362238D013B2385618D89B23C
:1051F000013989B26185009533460022164920465F
:10520000FFF744FA002871D12268136843F4007351
:10521000136023681A69636A1A70626A531C6362B6
:10522000238D013B2385638D9BB2013B9BB263853C
:1052300023681B695370636A01336362238D013BEA
:105240002385638D9BB2013B9BB26385ABE700BFB7
:10525000020010000000FFFF040001002A46314652
:105260002046FFF7C6FC002842D123681A69636A0A
:105270001A70636A01336362228D013A92B2228509
:10528000638D9BB2013B9BB263852368596911F022
:10529000040F88D0032A0FD023681A69636A1A7032
:1052A000636A01336362238D013B2385638D9BB267
:1052B000013B9BB2638576E71A6822F480621A602C
:1052C000EAE7202384F83D30002384F83E3084F858
:1052D0003C30A0E602279EE602279CE601279AE6DC
:1052E000012798E6012796E6012794E6012792E632
:1052F000012790E62DE9F04184B004460D46904622
:105300001E4601F025F994F83D30202B40F0AE8088
:105310000746002D00F0AE80B8F1000F00F0AC8021
:1053200094F83C30012B00F0A980012384F83C3034
:1053300023681A6812F0010F03D11A6842F00102C3
:105340001A602268136823F400631360212384F831
:105350003D30202384F83E30002222646562A4F8A8
:105360002A80638D2385494BE36221680B6843F4EF
:1053700080630B600097334645492046FFF786F966
:1053800000287DD10023029323685A6902929B6909
:105390000293029B2369B3F5404F33D0238D002B3A
:1053A00049D03A4631462046FFF71AFB00283BD148
:1053B000626A236812781A61626A531C6362B4F8E5
:1053C0002AC01FFA8CFC0CF1FF3C1FFA8CFCA4F8DD
:1053D0002AC0258D013DADB225852368596911F09C
:1053E000040FDBD0002DD9D052781A61636A0133E3
:1053F0006362638D9BB2013B9BB26385238D013B4E
:105400002385CBE700973346002221492046FFF74A
:105410003DF9002836D10023039323685A6903928B
:105420009B690393039BB9E72268136823F48063A5
:10543000136001201BE00097334600224FF48231B5
:105440002046FFF723F9F8B923686FF480625A61A8
:105450002268136823F480631360202384F83D30AE
:10546000002384F83E3084F83C3000E0022004B091
:10547000BDE8F0810120FAE70120F8E70220F6E715
:105480000120F4E70120F2E70120F0E70000FFFF30
:10549000020001002DE9F04184B004460D4690461B
:1054A0001E4601F055F894F83D30202B40F0A080C6
:1054B0000746002D00F0A080B8F1000F00F09E809C
:1054C00094F83C30012B00F09B80012384F83C30A1
:1054D00023681A6812F0010F03D11A6842F0010222
:1054E0001A602268136823F400631360222384F88F
:1054F0003D30202384F83E30002222646562A4F807
:105500002A80638D2385404BE36221680B6843F456
:1055100080630B60009733463C492046FFF7B6F89E
:1055200000286FD10023029323685A6902929B6975
:105530000293029B238D002B36D03A4631462046FB
:10554000FFF757FB48BB23681A69636A1A70636ADE
:105550005A1C6262258D013DADB22585B4F82AC082
:105560001FFA8CFC0CF1FF3C1FFA8CFCA4F82AC03B
:105570002268516911F0040FDCD0002DDAD01269D5
:105580005A70636A01336362238D013B2385638D07
:105590009BB2013B9BB26385CCE72268136823F47E
:1055A00080631360012024E03A4631462046FFF72D
:1055B0005CFB30B12268136823F480631360012020
:1055C00017E000230393226851690391116841F0A9
:1055D00001011160039A21680A6822F480620A605E
:1055E000202284F83D2084F83E3084F83C3000E0EE
:1055F000022004B0BDE8F0810120FAE70120F8E7BD
:105600000220F6E70120F4E70000FFFF020001009E
:105610002DE9F04387B004460F4690469946109E08
:1056200000F096FF94F83D20202A04D00227384647
:1056300007B0BDE8F083054600901923012289498F
:105640002046FFF723F8002840F04E8194F83C30C4
:10565000012B00F04B81012384F83C3023681A6849
:1056600012F0010F03D11A6842F001021A60226899
:10567000136823F400631360222384F83D30402331
:1056800084F83E30002323640E9B6362BDF83C30F7
:105690006385638D2385744BE362019500964B46C9
:1056A000424639462046FFF7CBF90746002840F02E
:1056B0001F81238D5BB9029323685A6902929A690C
:1056C0000292029A1A6842F400721A6075E0012B85
:1056D0000AD0022B1AD00023059323685A69059239
:1056E0009B690593059B68E02268136823F4806337
:1056F00013600023039323685A6903929A69039203
:10570000039A1A6842F400721A6056E0226813681D
:1057100023F4806313602268136843F4006313600A
:105720000023049323685A6904929B690493049BA1
:1057300043E02A4631462046FFF75BFA002840F056
:10574000D98023681A69636A1A70636A01336362D5
:10575000238D013B2385638D9BB2013B9BB2638507
:105760002BE000953346002240492046FEF78EFF8D
:10577000002840F0C1802268136843F4007313606E
:1057800023681A69636A1A70626A531C6362238D04
:10579000013B2385638D9BB2013B9BB263852368EC
:1057A0001B695370636A01336362238D013B238558
:1057B000638D9BB2013B9BB26385238D002B00F070
:1057C0008A80032B54D8012BB3D0022BC9D000956B
:1057D0003346002225492046FEF758FF002840F0B6
:1057E0008D802268136823F48063136023681A692C
:1057F000636A1A70636A01336362238D013B2385F8
:10580000638D9BB2013B9BB26385009533460022BA
:1058100016492046FEF73AFF002871D12268136826
:1058200043F40073136023681A69636A1A70626A2A
:10583000531C6362238D013B2385638D9BB2013B27
:105840009BB2638523681B695370636A013363628B
:10585000238D013B2385638D9BB2013B9BB2638506
:10586000ABE700BF020010000000FFFF04000100D2
:105870002A4631462046FFF7BCF9002842D123686A
:105880001A69636A1A70636A01336362228D013A8E
:1058900092B22285638D9BB2013B9BB263852368E4
:1058A000596911F0040F88D0032A0FD023681A69B0
:1058B000636A1A70636A01336362238D013B238537
:1058C000638D9BB2013B9BB2638576E71A6822F435
:1058D00080621A60EAE7202384F83D30002384F8D0
:1058E0003E3084F83C30A2E60227A0E602279EE67E
:1058F00001279CE601279AE6012798E6012796E60C
:10590000012794E6012792E62DE9F04385B004468D
:10591000884691461D4600F01BFE94F83D30202B32
:1059200003D0022005B0BDE8F0830646009019239D
:10593000012256492046FEF7A9FE002840F09D802E
:1059400094F83C30012B00F09A80012384F83C301D
:1059500023681A6812F0010F03D11A6842F001029D
:105960001A602268136823F400631360242384F808
:105970003D3000272764464BE3623DE023681B6807
:1059800013F4807F02D04FF4007323640320C9E72F
:10599000A02384F83D3022685369C3F34003526961
:1059A000C2F3802294F83D10A02909D043B93AB936
:1059B00000F0CEFD801BA842EAD8002DEBD1E7E72E
:1059C000202384F83D3023685A6912F0020F31D148
:1059D0001A6842F400721A6023686FF480625A6198
:1059E00000961923012229492046FEF74FFE002880
:1059F00049D101374F4538D22268136843F4807388
:105A0000136000962B4600224FF001112046FEF74E
:105A10003DFE0028B2D1236808F0FE021A6100F0B2
:105A200097FD064622685369C3F340035269C2F3E7
:105A30008022B7E71A6842F400721A6000230393C9
:105A400023685A6903929B690393039B0096192369
:105A500001220E492046FEF719FE90B9202384F852
:105A60003D30002384F83C305CE7202384F83D304F
:105A7000002384F83C30012054E7022052E7022042
:105A800050E701204EE701204CE700BF0200100064
:105A90000000FFFF002800F0E08170B582B00446EE
:105AA000036813F0010F3BD09F4B9B6803F00C037E
:105AB000042B2CD09C4B9B6803F00C03082B21D0AB
:105AC0006368B3F5803F4FD0B3F5A02F52D0964B0B
:105AD0001A6822F480321A601A6822F480221A604E
