:020000040800F2
:10000000000002208D300008091C00080B1C0008AD
:100010000D1C00080F1C0008111C00080000000047
:10002000000000000000000000000000131C000899
:10003000151C000800000000171C0008191C00080F
:10004000DD300008DD300008DD300008DD3000085C
:10005000DD300008DD300008DD300008DD3000084C
:10006000DD300008DD300008DD300008DD3000083C
:10007000DD300008DD300008DD300008DD3000082C
:10008000DD300008DD300008DD3000080000000031
:10009000000000000000000000000000DD3000084B
:1000A000DD300008DD300008DD300008DD300008FC
:1000B000DD300008DD300008DD300008DD300008EC
:1000C000DD300008DD300008DD300008DD300008DC
:1000D000DD300008DD300008211C000800000000B1
:1000E000DD300008DD300008DD30000800000000D1
:1000F000000000000000000000000000DD300008EB
:1001000000000000DD300008DD300008DD300008B0
:1001100000000000000000000000000000000000DF
:10012000DD300008DD300008DD300008DD3000087B
:10013000DD300008000000000000000000000000AA
:10014000000000000000000000000000DD3000089A
:10015000DD300008DD300008DD300008DD3000084B
:10016000DD300008DD300008000000000000000065
:10017000000000000000000000000000000000007F
:1001800000000000DD30000800000000000000005A
:08019000DD300008DD3000083D
:1001A00010F8012B11F8013B012A28BF9A42F7D021
:1001B000D01A7047034613F8012B002AFBD1181AF6
:1001C000013870470000000000000000000000003F
:1001D00001F0FF01102A2BDB10F0070F08D010F8F8
:1001E000013B013A8B422DD010F0070F42B3F6D1FC
:1001F000F0B441EA012141EA014122F007047FF015
:1002000000070023F0E80256083C85EA010586EA6B
:10021000010685FA47F5A3FA87F586FA47F6A5FAA7
:1002200087F68EB9EED1F0BC01F0FF0102F00702B3
:1002300032B110F8013B013A83EA010313B1F8D15E
:100240000020704701387047002D06BF354603383F
:10025000073815F0010F07D1013015F4807F02BF78
:10026000013015F4C03F0130F0BC0138704700BFC9
:1002700053B94AB9002908BF00281CBF4FF0FF310D
:100280004FF0FF3000F00CB8ADF1080C6DE904CE72
:1002900004F002FADDF804E0DDE9022304B070475F
:1002A000704700BF10B5054C237833B9044B13B128
:1002B0000448AFF300800123237010BD68000020C4
:1002C000000000005449000808B5034B1BB1034966
:1002D0000348AFF3008008BD000000006C00002060
:1002E0005449000872B6FEE710B594B008AC30224D
:1002F0000021204603F006F900230393049305939D
:100300000693079301931E4A116C41F080511164CA
:10031000126C02F080520192019A0293194A1168FC
:1003200041F440411160126802F440420292029A84
:100330000222089201210B9110210C910E920F9331
:1003400008231093642311931292042313932046DD
:1003500002F0BCF880B90F23039302230493002317
:1003600005934FF4805206920793032103A802F0ED
:1003700017FB18B914B010BDFFF7B4FFFFF7B2FFB9
:10038000003802400070004008B502F0D7FDFFF7CA
:10039000ABFF00F007F800F021F800F0F5F901F0EC
:1003A000D9FBFCE782B0002100910B4B1A6B42F0A5
:1003B00001021A631A6B02F001020092009A019185
:1003C0001A6B42F004021A631B6B03F004030193DF
:1003D000019B02B0704700BF0038024008B50A48D0
:1003E0000A4B03604FF41653436000238360C360DD
:1003F00003610C2242618361C36101F062FD00B9B7
:1004000008BDFFF76FFFFBE78400002000440040B9
:1004100010B58CB000230793089309930A930B93AC
:100420000368414A934207D0404A934231D0404A40
:10043000934254D00CB010BD002401943D4B1A6C73
:1004400042F400321A641A6C02F400320192019AEA
:1004500002941A6B42F001021A631B6B03F0010352
:100460000293029B0C230793022308930123099311
:1004700003230A9307230B9307A92F4802F066FB77
:1004800022462146262002F00BFD262002F018FD10
:10049000D0E700210391274B5A6C42F010025A64B6
:1004A0005A6C02F010020392039A04911A6B42F004
:1004B00001021A631B6B03F001030493049B4FF4C6
:1004C000C0630793022308930123099303230A932C
:1004D00007230B9307A9184802F038FBAAE700216D
:1004E0000591144B5A6C42F020025A645A6C02F087
:1004F00020020592059A06911A6B42F004021A63D3
:100500001B6B03F004030693069BC023079302238F
:1005100008930123099303230A9308230B9307A944
:10052000064802F013FB85E700440040001001403C
:100530000014014000380240000002400008024060
:10054000BFF34F8F0549CA6802F4E062044B1343BE
:10055000CB60BFF34F8F00BFFDE700BF00ED00E0B1
:100560000400FA05044B188880B2044B1B889BB228
:10057000C01A18BF012070475E0100205C010020F6
:100580000D4B1A8892B20D4B1B889BB29A4210D029
:100590000A4A13889BB20A49C85CC0B213889BB24E
:1005A00001335942DBB2C9B258BF4B429BB21380F0
:1005B00070470020704700BF5E0100205C010020F2
:1005C0006001002010B504461549FFF7E9FDE0B1D0
:1005D00014492046FFF7E4FDC8B113492046FFF750
:1005E000DFFDB0B111492046FFF7DAFD98B110499F
:1005F0002046FFF7D5FD80B10E492046FFF7D0FD1C
:1006000008B90D4802E0002000E00C4810BD0B487E
:10061000FCE70A48FAE70848F8E70748F6E700BFAA
:10062000A4490008AC490008B4490008B8490008CA
:10063000C0490008C8490008CC000020140100206F
:1006400000B589B0002303930493059306930793A1
:1006500003F1804303F58833984205D01E4B98423E
:100660001ED009B05DF804FB002301931B4B1A6BED
:1006700042F001021A631B6B03F001030193019B1B
:100680004FF4C063039302230493012305930323D0
:1006900006930723079303A9114802F057FAE0E7EE
:1006A000002302930D4B1A6B42F004021A631B6B7A
:1006B00003F004030293029BC023039302230493D9
:1006C00001230593032306930823079303A90548F1
:1006D00002F03CFAC5E700BF0014014000380240B8
:1006E0000000024000080240114B834200D07047D6
:1006F00010B5104B1B889BB201335A42DBB2D2B209
:1007000058BF53429BB20C4A128892B29A4208D008
:100710000848028892B209490978C9B2084CA15424
:10072000038001220549024801F0BDFE10BD00BF53
:10073000840000205E0100205C0100206002002097
:100740006001002010B50446FFF734FD642382B237
:100750002146024801F0E5FB10BD00BF84000020E7
:100760000FB410B5A2B024AB53F8042B019302AC24
:100770008021204602F0A8FE2046FFF7E3FF22B0CA
:10078000BDE8104004B0704710B582220021104827
:1007900002F0B8FE01220F490F4801F084FE0F4815
:1007A000FFF7D0FF0E4C2046FFF7CCFF0D48FFF7B8
:1007B000C9FF0D490D48FFF7D3FF0D48FFF7C2FFF2
:1007C0002046FFF7BFFF0B48FFF7BCFF10BD00BF7F
:1007D000640200206002002084000020CC49000850
:1007E000D0490008FC490008244A00082C4A0008A7
:1007F0003C4A00085C4A000870B5A0B004460D46AB
:1008000040F221120021284602F07CFE7F22214680
:10081000684602F08EFE1549684602F09DFE10B350
:100820000146002301E0EC540133CC5C74B1A4F127
:100830006102D2B2192AF6D8203CE4B2F3E70134BF
:100840001F2205EB441002F074FEE4B207490020B9
:1008500002F082FE014608B1072CF0D985F820414C
:10086000012020B070BD0020FBE700BF684A0008EF
:100870000146A0F16103DBB2192B02D8A0F12001DF
:10088000C9B2002200E00132054B03EBC2035868F5
:1008900020B1034B13F832308B42F4D1704700BFC4
:1008A000245A00080F2804D8012303FA00F080B26C
:1008B00070470020704770B504460D461646FFF796
:1008C00079FC012811D92078FFF7D2FF286070B198
:1008D000601C02F004FCC0B2FFF7E4FF308040B9B6
:1008E0006378302B07D1012000E0002070BD00208C
:1008F000FCE70120FAE70020F8E700002DE9F047C7
:1009000090B090F8203153B100F120050DF13A027A
:100910000FA92846FFF7CFFF28B1002309E03F4881
:10092000FFF710FF75E029463D48FFF719FF70E01B
:1009300001330F2B08DCBDF83A201A4112F0010FE9
:10094000F6D05FFA83FC01E04FF0000CDDF83CE0EC
:10095000DEF800304FEA4C0A23FA0AF909F00309DD
:10096000304C0AAE94E80F0086E80F00DEF8043041
:1009700023FA0CF808F0010808AB04F1100292E821
:10098000030083E80300DEF8087027FA0AF707F08F
:10099000030704AE04F118030FCB86E80F00DEF85E
:1009A0000C6026FA0AF606F00306283494E80F00D5
:1009B0008DE80F00BDF83A10704602F0ABF904461E
:1009C00029461948FFF7CCFE10AB03EB890959F80B
:1009D000181C1648FFF7C4FE10AB03EB880858F844
:1009E000201C1348FFF7BCFE10AB03EB870757F83A
:1009F000301C1048FFF7B4FE10AB03EB860656F828
:100A0000401C0D48FFF7ACFE34B10C490C48FFF711
:100A1000A7FE10B0BDE8F0870A49F7E76C4A000866
:100A20009C4A00086C490008B84A0008C44A0008FB
:100A3000D44A0008E44A0008F44A0008CC580008E8
:100A4000044B0008DC58000810B58CB090F8203139
:100A50002BB300F120040DF12A020BA92046FFF769
:100A60002AFF00B30B98364B984221D0354B984261
:100A70003ED0354B984248D0344B984252D0344BFC
:100A8000984221D100230493324B1A6B42F010029A
:100A90001A631B6B03F010030493049B14E02E48AD
:100AA000FFF750FE22E021462C48FFF759FE1DE0DB
:100AB00000230093274B1A6B42F001021A631B6B51
:100AC00003F001030093009B05A9002305934B60ED
:100AD0008B60CB600B61BDF82A3005930123069330
:100AE00002F034F821461E48FFF73AFE0CB010BD64
:100AF00000230193174B1A6B42F002021A631B6B1F
:100B000003F002030193019BDEE700230293114BE4
:100B10001A6B42F004021A631B6B03F00403029386
:100B2000029BD1E7002303930A4B1A6B42F00802A1
:100B30001A631B6B03F008030393039BC4E700BF16
:100B4000000002400004024000080240000C024085
:100B50000010024000380240144B00089C4A000874
:100B6000304B000870B58CB090F8203133B3044698
:100B700000F120060DF12A020BA93046FFF79BFE7B
:100B800000B30B9D414B9D4221D0414B9D423DD036
:100B9000404B9D4247D0404B9D4251D03F4B9D42E0
:100BA00021D1002304933E4B1A6B42F010021A63CA
:100BB0001B6B03F010030493049B14E03948FFF708
:100BC000C1FD5DE031463848FFF7CAFD58E000231B
:100BD0000093334B1A6B42F001021A631B6B03F054
:100BE00001030093009B94F82031012B35D9403448
:100BF0002E492046FFF7D4FA002843D02C4920463E
:100C0000FFF7CEFA00283FD0002227E0002301930F
:100C1000234B1A6B42F002021A631B6B03F00203B0
:100C20000193019BDFE7002302931D4B1A6B42F0F7
:100C300004021A631B6B03F004030293029BD2E7C6
:100C400000230393164B1A6B42F008021A631B6BC6
:100C500003F008030393039BC5E7002205A90023C3
:100C600005934B608B60CB600B61BDF82A30059318
:100C70000792284601F06AFF31460E48FFF770FDE3
:100C80000CB070BD0122E9E70222E7E70000024054
:100C90000004024000080240000C02400010024024
:100CA00000380240504B00089C4A00087C4B00086A
:100CB000804B0008884B000810B582B090F82031B6
:100CC000A3B100F120040DF1020201A92046FFF7B3
:100CD000F2FD78B10122BDF80210019802F021F86E
:100CE00021460748FFF73CFD02B010BD0548FFF75D
:100CF00029FDF9E721460448FFF732FDF4E700BF7C
:100D0000C04B0008A84B00089C4A000810B582B0F0
:100D100090F82031A3B100F120040DF1020201A9E5
:100D20002046FFF7C8FD78B10022BDF802100198F7
:100D300001F0F7FF21460748FFF712FD02B010BD92
:100D40000548FFF7FFFCF9E721460448FFF708FDD7
:100D5000F4E700BFE84B0008D04B00089C4A0008AD
:100D600010B582B090F82031ABB100F120040DF144
:100D7000020201A92046FFF79EFD80B1BDF80210D6
:100D8000019801F0C7FF78B1084A21460848FFF7EB
:100D9000E7FC02B010BD0748FFF7D4FCF9E7214695
:100DA0000548FFF7DDFCF4E7044AEEE7CC580008FD
:100DB000104C0008F84B00089C4A0008DC5800085A
:100DC00010B582B090F82031D3B100F120040DF1BC
:100DD000020201A92046FFF76EFDA8B1BDF802107E
:100DE000019801F0A4FFBDF80210019801F092FFF4
:100DF00078B1094A21460948FFF7B2FC02B010BD9C
:100E00000748FFF79FFCF9E721460648FFF7A8FCD3
:100E1000F4E7054AEEE700BFCC580008384C00085C
:100E20001C4C00089C4A0008DC58000870B58CB0C7
:100E300090F82031012B26D9044600F120060DF14F
:100E40002A020BA93046FFF736FD00B30B9D474B36
:100E50009D4221D0464B9D424CD0464B9D4256D0A0
:100E6000454B9D4260D0454B9D4221D100230493C8
:100E7000434B1A6B42F010021A631B6B03F0100312
:100E80000493049B14E03F48FFF75CFC30E03146DC
:100E90003D48FFF765FC2BE000230093384B1A6BAD
:100EA00042F001021A631B6B03F001030093009BE5
:100EB000002305930693079308930993BDF82A30FE
:100EC0000593403431492046FFF76AF938B130497B
:100ED0002046FFF765F9002833D10123069305A9C1
:100EE000284601F033FE224631462A48FFF738FCF7
:100EF0000CB070BD00230193214B1A6B42F002022B
:100F00001A631B6B03F002030193019BD0E70023DC
:100F100002931B4B1A6B42F004021A631B6B03F023
:100F200004030293029BC3E700230393144B1A6B41
:100F300042F008021A631B6B03F008030393039B40
:100F4000B6E715492046FFF72BF910B9022306939F
:100F5000C5E712492046FFF723F910B9032306938A
:100F6000BDE70F48FFF7EEFBC2E700BF00000240FD
:100F70000004024000080240000C02400010024041
:100F800000380240504C00089C4A0008FC590008F8
:100F9000B0580008AC4C0008784C00087C4C0008A5
:100FA000804C0008F0B583B090F82031012B2ED989
:100FB000054600F120073846FFF704FB044668B3F6
:100FC00005F1400002F08BF80646A0F596724D4BF5
:100FD0009A4227D84C4B9C4228D04C4B9C4236D04E
:100FE00066600023A360E36023610C226261A36159
:100FF000E36195F82031022B49D995F86030652BD3
:101000003FD035D8452B3CD04F2B33D03FE0404824
:10101000FFF798FB3F48FFF795FB70E03E48FFF76E
:1010200091FB6CE03D48FFF78DFB68E000230093E7
:101030003B4B5A6C42F010025A645B6C03F0100395
:101040000093009B37482060FFF7FAFAC8E70023B7
:101050000193334B5A6C42F020025A645B6C03F0EC
:1010600020030193019B30482060FFF7E9FAB7E7BE
:101070006F2B0CD14FF4C06323614FF48053A360F6
:1010800005E04FF4806323614FF48053A36095F82B
:101090002031032B03D995F88030322B14D0204611
:1010A00000F00FFFA0B9202384F8413084F84230CB
:1010B00023681C4A93420FD002F5806293420BD002
:1010C00001F024FD05460AE04FF40053E360E6E733
:1010D0001648FFF737FB12E001F028FD05462368AC
:1010E0009B6839461248FFF73BFB31461148FFF732
:1010F00037FB23689A6829460F48FFF731FB03B096
:10110000F0BD00BF94C52D0014010020CC000020CC
:10111000C44C0008F84C00081C4D0008544D000851
:101120000038024000100140001401407C4D0008CE
:10113000984D0008B44D0008CC4D0008F0B5C1B082
:1011400090F82031012B0FD905462030FFF73AFAED
:10115000064668B103687BB1802200210DEB0200D6
:1011600002F0D0F9012411E04C48FFF7EBFA8EE0D1
:101170004B48FFF7E7FA8AE04A48FFF7E3FA86E0D0
:10118000013405EB441120A802F0C4F995F8203190
:10119000A34209DD012CF3DD20AF3846FFF70AF842
:1011A000414B1B883B52EBE7002420AA1BE00A219D
:1011B0000DF80410013415E00D210DF80410013470
:1011C00010E009210DF8041001340BE05C210DF84A
:1011D0000410013406E00DF80410013402E00DF8AB
:1011E0000430013401321378002B41D07E2C3FDCD7
:1011F0005C2BF4D151780029F1D00132A1F15C03CC
:10120000182BE8D801A050F823F000BFCD1100083A
:10121000D7110008D7110008D7110008D71100080E
:10122000D7110008D7110008D7110008D7110008FE
:10123000D7110008D7110008D7110008D7110008EE
:10124000D7110008D7110008D7110008D7110008DE
:10125000D7110008AF110008D7110008D7110008F6
:10126000D7110008B9110008D7110008C3110008F0
:10127000694600230DF804304FF47A73A2B2304669
:1012800000F04FFE28B921460848FFF769FA41B03F
:10129000F0BD0748FFF756FAF9E700BFE84D000830
:1012A000084E0008284E00085C4E0008604E0008FA
:1012B000744E00082DE9F04395B090F82031012BD1
:1012C0006ED906462030FFF77DF9044600286BD022
:1012D0000368002B6CD090F84130202B6CD1002299
:1012E0000092236819680091596800910099019251
:1012F0001968019159680191019902921A68029244
:101300005B680293029B06F1400001F0E8FE85B2A3
:10131000402D00D9402596F82031022B57D84FF4A4
:101320007A772E463A4629464048FFF719FA404B4D
:101330001B68196811F0400FF9D094F8411094F827
:101340004220636C3B48FFF70BFA3949096809688A
:1013500011F0400FF9D00DF10C0841220021404658
:1013600002F0D0F801F010FE81463B462A46414685
:10137000204600F03BFE044601F006FE2246A0EBAC
:1013800009012D48FFF7ECF93CB3032C46D0022CA1
:1013900048D021462948FFF7E3F915B0BDE8F083AE
:1013A0002748FFF7CFF9F8E72648FFF7CBF9F4E72E
:1013B0002548FFF7C7F9F0E790F841102348FFF7F9
:1013C000CFF9202384F8413084F8423087E706F1D2
:1013D000600001F084FE0746A3E706F150036B446A
:1013E00003F8444C1A48FFF7ADF94046FFF7AAF955
:1013F0001848FFF7A7F91848FFF7A4F908E004F127
:1014000050036B4413F8441C1448FFF7A9F9013446
:10141000A642F4DC0F48FFF795F9BEE71048FFF746
:1014200091F9BAE70F48FFF78DF9B6E70C4F0008BE
:1014300084000020384F0008744F0008DC4F00087B
:10144000904E0008084E0008C04E0008E04E00080C
:10145000944F0008CC4900089C4F0008A44F000896
:10146000AC4F0008C84F000808B51048FFF76AF9EC
:101470000F4B59680F48FFF773F90F4B1B686BB19F
:101480000D4B59680D48FFF76BF90D4B1B684BB1BD
:101490000B4B59680B48FFF763F908BD0A48FFF783
:1014A00051F9F2E70948FFF74DF9F6E70050000857
:1014B000840000201050000814010020345000085F
:1014C000CC000020705000085450000890500008D4
:1014D00030B589B090F820317BB300F1200420466C
:1014E000FFF770F8054680B3036893B3202200210C
:1014F000684602F007F821462848FFF731F9284CE2
:10150000132221462748FFF72BF964231322214693
:10151000284600F006FD00BB4FF4FA73132269461B
:10152000284600F063FDE0B1032830D01E48FFF7E5
:1015300009F91E48FFF706F905E01D48FFF702F913
:101540001C48FFF7FFF809B030BD1B48FFF7FAF859
:10155000F9E71A48FFF7F6F8F5E71948FFF7F2F848
:10156000F1E700238DF81330132269461548FFF781
:10157000F7F8132269460A4801F0B4FF18B9124877
:10158000FFF7E0F8DFE71148FFF7DCF8DBE710488A
:10159000FFF7D8F80F48FFF7D5F8D4E7EC5000086C
:1015A0000C51000820510008F051000800520008BA
:1015B000AC500008C8500008084E0008284E00082B
:1015C0003851000848510008605100088051000857
:1015D000A4510008C851000808B52748FFF7B2F821
:1015E0002648FFF7AFF82648FFF7ACF82548FFF785
:1015F000A9F82548FFF7A6F82448FFF7A3F82448E0
:10160000FFF7A0F82348FFF79DF82348FFF79AF863
:101610002248FFF797F82248FFF794F82148FFF790
:1016200091F82148FFF78EF82048FFF78BF8204803
:10163000FFF788F81F48FFF785F81F48FFF782F883
:101640001E48FFF77FF81E48FFF77CF81D48FFF79C
:1016500079F81D48FFF776F81C48FFF773F81C4827
:10166000FFF770F81B48FFF76DF81B48FFF76AF8A3
:101670001A48FFF767F808BDCC4900081452000863
:10168000385200084C52000894520008C452000816
:1016900008530008345300086053000890530008B2
:1016A000BC530008F85300080C54000838540008D4
:1016B0005C54000888540008AC540008E05400084A
:1016C000F4540008245500085055000880550008BF
:1016D000AC550008C0550008F45500082C56000809
:1016E00008B506490648FFF73BF80648FFF72AF811
:1016F000054A06490648FFF733F808BD244A0008A2
:101700005C5600087456000898560008A456000855
:10171000B056000808B52148FFF714F801F034FC72
:1017200001461F48FFF71CF81E4B59681E48FFF77B
:1017300017F81E48FFF706F81D4B1B6B13F0010F3F
:1017400017D11B4B1B6B13F0020F16D1184B1B6BE1
:1017500013F0040F15D1164B1B6B13F0080F14D1A7
:10176000134B1B6B13F0100F13D11248FEF7EAFF57
:1017700008BD1148FEF7E6FFE3E71048FEF7E2FF79
:10178000E4E70F48FEF7DEFFE5E70E48FEF7DAFF75
:10179000E6E70D48FEF7D6FFE7E700BFC0560008B2
:1017A000DC56000884000020F056000808570008A6
:1017B00000380240CC490008245700083057000880
:1017C0003C570008485700085457000808B504481B
:1017D000FEF7B8FF642001F0DDFBFEF7B1FE00BFAD
:1017E000605700082DE9F04393B090F82031022BA8
:1017F0002BD905462030FEF7E5FE074690B3036877
:10180000A3B305F1400905F1600001F068FC04464E
:1018100095F82031032B2DD84FF4FA7801AD4B46C3
:10182000254A4221284601F0A7FD2846FEF7C2FCC2
:10183000C6B22CB32246434649462048FEF790FFE5
:101840001F48FEF77FFF002520E01E48FEF77AFFC5
:101850001D48FEF777FF1D48FEF774FF1C48FEF792
:1018600071FF25E01B48FEF76DFF21E01A48FEF7E7
:1018700069FF1DE005F1800001F031FC8046CDE7F5
:101880004FF0FF32D7E7404601F084FB0CB1A54290
:101890000AD26423324601A9384600F042FB0135E2
:1018A000002CF0D0AC42EED829460C48FEF758FF89
:1018B00013B0BDE8F08300BF285800083058000876
:1018C0005C58000870570008A8570008D057000857
:1018D000FC570008084E0008284E000880580008F1
:1018E00000B5CBB001A9FEF787FF78B19DF80430B1
:1018F00063B1774901A8FEF753FC20B1754901A8EF
:10190000FEF74EFC28B901A8FEF7F8FF4BB05DF8D2
:1019100004FB714901A8FEF743FC20B16F4901A8FF
:10192000FEF73EFC18B901A8FFF78EF8EEE76C4908
:1019300001A8FEF735FC20B16A4901A8FEF730FC8A
:1019400018B901A8FFF70EF9E0E7674901A8FEF70B
:1019500027FC20B1654901A8FEF722FC18B901A8AF
:10196000FFF7AAF9D2E7624901A8FEF719FC20B1F6
:10197000604901A8FEF714FC18B901A8FFF7C6F9E1
:10198000C4E75D4901A8FEF70BFC20B15B4901A843
:10199000FEF706FC18B901A8FFF7E2F9B6E75849C7
:1019A00001A8FEF7FDFB20B1564901A8FEF7F8FBA0
:1019B00018B901A8FFF704FAA8E7534901A8FEF7F0
:1019C000EFFB20B1514901A8FEF7EAFB18B901A8C5
:1019D000FFF72CFA9AE74E4901A8FEF7E1FB20B188
:1019E0004C4901A8FEF7DCFB18B901A8FFF7DAFAA9
:1019F0008CE7494901A8FEF7D3FB20B1474901A86C
:101A0000FEF7CEFB18B901A8FFF798FB7EE7444923
:101A100001A8FEF7C5FB20B1424901A8FEF7C0FBB3
:101A200018B901A8FFF746FC70E73F4901A8FEF787
:101A3000B7FB90B13D4901A8FEF7B2FB88B13C4924
:101A400001A8FEF7ADFB20B13A4901A8FEF7A8FBBB
:101A500058B901A8FFF7C6FE58E701A8FFF704FD33
:101A600054E701A8FFF734FD50E7334901A8FEF71A
:101A700097FB20B1314901A8FEF792FB18B901A8E4
:101A8000FFF7AAFD42E72E4901A8FEF789FB20B126
:101A90002C4901A8FEF784FB18B901A8FFF720FE26
:101AA00034E7294901A8FEF77BFB48B1274901A883
:101AB000FEF776FB40B101A92548FEF751FE25E768
:101AC00001A8FFF727FE21E701A8FFF77FFE00BF6F
:101AD00098580008A4580008A8580008B4580008EE
:101AE000B8580008C4580008C8580008D45800085E
:101AF000D8580008E0580008E4580008F0580008DA
:101B0000F45800080059000804590008105900084A
:101B1000145900082059000824590008A05800084A
:101B2000305900083C590008405900084C59000839
:101B3000585900087C4B0008645900086C5900088B
:101B400070590008785900089C5800087C59000812
:101B50008459000830B583B003E0264B93F88030F9
:101B600043BBFEF7FFFC002842D0FEF709FD8DF8CD
:101B700007000A2301220DF107011F4800F0D1F9E7
:101B80009DF807300D2BE8D00A2BE6D0082B22D089
:101B90007F2B20D0A3F12002D2B25E2AE1D8154AD1
:101BA00092F880207E2ADCD81249501C81F88000EF
:101BB0008B54D6E71148FEF7C5FD0E4C94F88030E3
:101BC0000025E5542046FFF78BFE84F880500C4832
:101BD000FEF7B8FDC5E7074B93F88030002BC0D067
:101BE000013B044A82F880300648FEF7ABFDB8E7B7
:101BF00003B030BD6402002084000020CC490008FE
:101C0000A4590008A8590008FEE7FEE7FEE7FEE732
:101C1000FEE770477047704708B501F0A9F908BDA5
:101C200008B5024800F0D4FA08BD00BF84000020C7
:101C300000B583B0002100910C4B5A6C42F48042F5
:101C40005A645A6C02F480420092009A01911A6C14
:101C500042F080521A641B6C03F080530193019B85
:101C6000072001F00BF903B05DF804FB00380240D7
:101C7000026802F10C0353E8003F23F490730C3226
:101C800042E800310029F3D1026802F1140353E85D
:101C9000003F23F00103143242E800310029F3D160
:101CA000036B012B05D0202380F84230002303630F
:101CB0007047026802F10C0353E8003F23F0100361
:101CC0000C3242E800310029F3D1ECE790F84130C2
:101CD000212B01D0022070478368B3F5805F17D0B5
:101CE000036A5A1C02621A7803685A60C38C9BB25A
:101CF000013B9BB2C3844BB90268D36823F08003D5
:101D0000D3600268D36843F04003D360002070477B
:101D10000369002BE4D1036A1B880268C3F308033C
:101D20005360036A02330362E0E7000010B5044623
:101D30000268136923F44053C1680B43136183683D
:101D400002691A4343691A43C3691A430168CB689D
:101D500023F4164323F00C031343CB60026853694A
:101D600023F4407381690B4353610368314A934202
:101D700006D002F58062934202D000F0C7FE01E077
:101D800000F0D4FEE369B3F5004F29D00021031819
:101D900049411B1841F10001C90041EA5371DB00C0
:101DA000181863684FEA83024FEA937341F1000108
:101DB000FEF75EFA204AA2FB00314909642303FBC7
:101DC00011031B013233A2FB03235B0903F0F00272
:101DD00002EB011203F00F03216813448B6010BD66
:101DE0000023021843EB0301121841F10001C9005E
:101DF00041EA5271D200101841F100016268921854
:101E00005B41FEF735FA0C4AA2FB00314909642315
:101E100003FB1103DB003233A2FB03235B095A00EF
:101E200002F4F87202EB011203F007032168134475
:101E30008B60D4E7001001401F85EB512DE9F04382
:101E400083B005460E4617469946DDF828802B6874
:101E50001C6836EA04040CBF01240024BC4228D1CB
:101E6000B8F1FF3FF3D001F08FF8A0EB0900404537
:101E700023D8B8F1000F22D02B68DA6812F0040FD3
:101E8000E5D0802EE3D0402EE1D01A6812F0080F82
:101E9000DDD0002401941A6801925B680193019BD4
:101EA0002846FFF7E5FE08236B6485F840400120D3
:101EB00000E0002003B0BDE8F0830320FAE7032030
:101EC000F8E760B310B5044690F8413013B324230B
:101ED00084F841302268D36823F40053D36020464D
:101EE000FFF724FF2268136923F4904313612268EB
:101EF000536923F02A0353612268D36843F40053E3
:101F0000D36000206064202384F8413084F842309C
:101F1000606310BD80F84030FEF77AFAD7E7012001
:101F200070472DE9F04182B01E4690F84130202BD9
:101F300056D104460D469046002955D00AB90120D5
:101F40004FE000234364212380F8413001F01CF866
:101F50000746A4F82480A4F82680A368B3F5805F20
:101F600002D04FF0000814E023692BB34FF00008B3
:101F70000FE0202384F84130032032E038F8023BA0
:101F80002268C3F308035360E28C92B2013A92B222
:101F9000E284E38C9BB293B100963B460022802101
:101FA0002046FFF74BFF0028E3D1002DE6D015F8BF
:101FB000012B23685A60E7E7A8460025E9E7009669
:101FC0003B46002240212046FFF738FF18B9202366
:101FD00084F8413005E0202384F84130032000E0FC
:101FE000022002B0BDE8F0810120FAE72DE9F041BE
:101FF00082B01E4690F84230202B5AD104460D463E
:102000009046002959D00AB9012053E000234364C7
:10201000222280F84220036300F0B6FF0746A4F8AE
:102020002C80A4F82E80A368B3F5805F02D04FF017
:1020300000081AE02369002B33D04FF0000814E0A9
:10204000202384F84230032034E023685B68C3F324
:10205000080328F8023B03E023685B682B70013516
:10206000E28D92B2013A92B2E285E38D9BB2DBB18E
:1020700000963B46002220212046FFF7DFFE002885
:10208000DED1002DE1D0A368B3F5805FE4D013B9B1
:102090002369002BE0D023685B6803F07F032B707B
:1020A000DDE7A8460025E0E7202384F84230002041
:1020B00000E0022002B0BDE8F0810120FAE770479D
:1020C00008B50168CA6822F04002CA60202280F880
:1020D0004120FFF7F4FF002008BD704708B5806B72
:1020E0000023C385FFF7F9FF08BD704790F8423021
:1020F000222B69D18368B3F5805F4FD0826AB3F534
:10210000805F04D0002B56D10369002B53D10368A4
:102110005B681370836A01338362C38D9BB2013B9A
:102120009BB2C385002B51D100B583B00268D36840
:1021300023F02003D3600268D36823F48073D36054
:102140000268536923F001035361202380F8423071
:1021500000234363036B012B33D100230363026825
:1021600002F10C0353E8003F23F010030C3242E865
:1021700000310029F3D103681A6812F0100F06D05D
:10218000002201921A6801925B680193019B818D84
:10219000FFF7ABFF002003B05DF804FB0269002AE3
:1021A000ACD1826A03685B68C3F308031380836A57
:1021B00002338362B1E703685B6803F07F03137047
:1021C000A8E7FEF791FAE5E7022070470020704784
:1021D00010B582B0044602681368D068516913F0E4
:1021E0000F0F09D113F0200F0CD010F0200F09D0E1
:1021F0002046FFF77BFF16E011F0010115D110F426
:10220000907F12D1216B012979D013F0800F03D078
:1022100010F0800F40F0218113F0400F03D010F038
:10222000400F40F01E8102B010BD13F0010F06D028
:1022300010F4807F03D0626C42F00102626413F0FC
:10224000040F04D019B1626C42F00202626413F010
:10225000020F04D019B1626C42F00402626413F000
:10226000080F07D010F0200F00D119B1626C42F0B6
:1022700008026264626C002AD5D013F0200F02D0ED
:1022800010F0200F29D123685B6903F04003626CD2
:1022900012F0080F00D163B32046FFF7E9FC236872
:1022A0005B6913F0400F20D0226802F1140353E859
:1022B000003F23F04003143242E800310029F3D1FB
:1022C000E36B73B1694A1A65E06B00F082FD002888
:1022D000A9D0E06B036D9847A5E72046FFF706FFFE
:1022E000D1E72046FFF7F9FE9DE72046FFF7F5FE10
:1022F00099E72046FFF7F1FE0023636493E713F0AC
:10230000100F82D010F0100F3FF47FAF0023019325
:102310001368019353680193019B536913F0400FB5
:102320005FD0E26B13685B689BB2002B4AD0A18D33
:10233000994247D9E385D369B3F5807F37D02268C6
:1023400002F10C0353E8003F23F480730C3242E89F
:1023500000310029F3D1226802F1140353E8003F51
:1023600023F00103143242E800310029F3D122683E
:1023700002F1140353E8003F23F04003143242E813
:1023800000310029F3D1202384F842300023236355
:10239000226802F10C0353E8003F23F010030C32D3
:1023A00042E800310029F3D1E06B00F0C9FC0223C0
:1023B0006363A18DE38D9BB2C91A89B22046FFF7F2
:1023C00094FE30E7A18D99427FF42DAFD369B3F528
:1023D000807F7FF428AF022363632046FFF785FEEA
:1023E00021E7A18DE38D9BB2C91A89B2E38D9BB21F
:1023F000002B3FF418AF00293FF415AF226802F11B
:102400000C0353E8003F23F490730C3242E8003091
:102410000028F3D1226802F1140353E8003F23F0AF
:102420000103143242E800300028F3D1202384F85D
:10243000423000232363226802F10C0353E8003F7B
:1024400023F010030C3242E800300028F3D10223BD
:1024500063632046FFF749FEE5E62046FFF736FCBA
:10246000E1E62046FFF72CFEDDE600BFDD20000898
:1024700081628285C28500234364222380F8423032
:10248000036923B10268D36843F48073D3600268A0
:10249000536943F0010353610268D36843F020039A
:1024A000D3600020704708B590F84230202B08D147
:1024B00049B10AB9012008BD00230363FFF7D8FF23
:1024C000F9E70220F7E70120F5E70000002800F017
:1024D000E08170B582B00446036813F0010F3BD071
:1024E0009F4B9B6803F00C03042B2CD09C4B9B68E8
:1024F00003F00C03082B21D06368B3F5803F4FD065
:10250000B3F5A02F52D0964B1A6822F480321A608D
:102510001A6822F480221A606368002B50D000F001
:1025200033FD05468E4B1B6813F4003F14D100F0B9
:102530002BFD401B6428F5D90320B1E1884B5B6873
:1025400013F4800FD8D0864B1B6813F4003F03D0E0
:102550006368002B00F09F81236813F0020F54D0B2
:102560007F4B9B6813F00C0F3ED07D4B9B6803F0B4
:102570000C03082B33D0E368002B68D0794B012281
:102580001A6000F001FD0546754B1B6813F0020F41
:1025900054D100F0F9FC401B0228F5D903207FE15B
:1025A0006F4A136843F480331360B5E76C4B1A68C5
:1025B00042F480221A601A6842F480321A60ABE753
:1025C00000F0E2FC0546664B1B6813F4003FC3D0E5
:1025D00000F0DAFC401B6428F5D9032060E1604B71
:1025E0005B6813F4800FC6D15D4B1B6813F0020FBC
:1025F00003D0E368012B40F05081594A136823F05F
:10260000F803216943EAC1031360236813F0080F3C
:1026100042D063696BB3534B0122C3F8802E00F0A4
:10262000B3FC05464E4B5B6F13F0020F34D100F044
:10263000ABFC401B0228F5D9032031E1484A13685E
:1026400023F0F803216943EAC1031360DDE7454B3A
:1026500000221A6000F098FC0546414B1B6813F0FD
:10266000020FD2D000F090FC401B0228F5D90320C5
:1026700016E13C4B0022C3F8802E00F085FC054695
:10268000374B5B6F13F0020F06D000F07DFC401B50
:102690000228F5D9032003E1236813F0040F77D053
:1026A0002F4B1B6C13F0805F33D1002301932C4B15
:1026B0001A6C42F080521A641B6C03F08053019331
:1026C000019B0125284B1B6813F4807F23D0A3684E
:1026D000012B34D0052B38D0214B1A6F22F0010288
:1026E0001A671A6F22F004021A67A368002B3DD004
:1026F00000F04AFC06461A4B1B6F13F0020F46D13E
:1027000000F042FC801B41F288339842F3D9032049
:10271000C6E00025D6E7144A136843F480731360BB
:1027200000F032FC0646104B1B6813F4807FCED1BC
:1027300000F02AFC801B0228F5D90320B0E0084AEB
:10274000136F43F001031367CFE7054B1A6F42F095
:1027500004021A671A6F42F001021A67C5E700BF48
:1027600000380240000047420070004000F00CFCBE
:102770000646524B1B6F13F0020F08D000F004FC0A
:10278000801B41F288339842F3D9032088E0EDB9E9
:10279000A369002B00F08380484A926802F00C0283
:1027A000082A51D0022B17D0454B00221A6600F0A0
:1027B000EBFB0446414B1B6813F0007F42D000F056
:1027C000E3FB001B0228F5D9032069E03B4A136CA8
:1027D00023F080531364DBE7394B00221A6600F0C4
:1027E000D3FB0546354B1B6813F0007F06D000F085
:1027F000CBFB401B0228F5D9032051E0E369226A94
:102800001343626A43EA8213A26A5208013A43EA16
:102810000243E26A43EA0263284A5360284B0122DA
:102820001A6600F0B1FB0446244B1B6813F0007FCE
:1028300006D100F0A9FB001B0228F5D903202FE0E8
:1028400000202DE000202BE0012B2BD01B4B5B68E0
:1028500003F48001E269914226D103F03F02216A2C
:102860008A4223D1616A47F6C0721A40B2EB811FD7
:102870001ED103F44031A26A5208013AB1EB024F73
:1028800018D103F07063E26AB3EB026F14D1002039
:1028900006E001207047012002E0012000E0002056
:1028A00002B070BD0120FBE70120F9E70120F7E746
:1028B0000120F5E70120F3E70120F1E700380240AD
:1028C0000000474208B5334B9B6803F00C03042B10
:1028D0005BD0082B5BD12F4B5A6802F03F025B683C
:1028E00013F4800F2CD02B4B5868C0F388104FEA9C
:1028F000401CBCEB000C6EEB0E0E4FEA8E1343EA4D
:102900009C634FEA8C11B1EB0C0163EB0E03DB000F
:1029100043EA5173C90011EB000C43F10003590263
:1029200000234FEA4C2041EADC51FDF7A1FC194B92
:102930005B68C3F3014301335B00B0FBF3F008BDF8
:10294000144B5868C0F388104FEA401CBCEB000CD5
:102950006EEB0E0E4FEA8E1343EA9C634FEA8C1126
:10296000B1EB0C0163EB0E03DB0043EA5173C900CA
:1029700011EB000C43F10003990200234FEA8C2075
:1029800041EA9C51FDF774FCD1E70348D7E70348BF
:10299000D5E700BF0038024000127A000024F4009E
:1029A000002800F09B8070B50D4604464F4B1B6815
:1029B00003F007038B4208D2CBB24C4A1370136862
:1029C00003F007038B4240F08B80236813F0020F63
:1029D00017D013F0040F04D0454A936843F4E05332
:1029E0009360236813F0080F04D0414A936843F4BE
:1029F000604393603E4A936823F0F003A1680B4361
:102A00009360236813F0010F32D06368012B21D04B
:102A10009A1E012A25D9364A126812F0020F61D097
:102A200033498A6822F0030213438B6000F0ACFA4A
:102A300006462F4B9B6803F00C036268B3EB820FD2
:102A400016D000F0A1FA801B41F288339842F0D9E9
:102A5000032042E0264A126812F4003FE0D1012030
:102A60003BE0234A126812F0007FD9D1012034E004
:102A70001E4B1B6803F00703AB4207D9EAB21B4B9E
:102A80001A701B6803F00703AB422DD1236813F0C3
:102A9000040F06D0164A936823F4E053E1680B4311
:102AA0009360236813F0080F07D0114A936823F44A
:102AB0006043216943EAC1039360FFF703FF0C4BB6
:102AC0009B68C3F303130B4AD35CD8400A4B1860CE
:102AD0000A4B186800F00CFA002070BD0120704706
:102AE0000120FAE70120F8E70120F6E7003C024068
:102AF00000380240645A000808000020040000204A
:102B0000014B1868704700BF0800002008B5FFF7A8
:102B1000F7FF044B9B68C3F38223034AD35CD8407E
:102B200008BD00BF003802405C5A000808B5FFF736
:102B3000E7FF044B9B68C3F34233034AD35CD8409E
:102B400008BD00BF003802405C5A000800230F2B6C
:102B500000F2D78070B582B065E085684FEA430E19
:102B6000032404FA0EF425EA0405CC6804FA0EF4F2
:102B70002C438460446824EA02044A68C2F30012C9
:102B80009A40224342605CE0DC08083450F824207C
:102B900003F00705AD004FF00F0E0EFA05FE22EA16
:102BA0000E0E0A69AA4042EA0E0240F824205CE0B8
:102BB000042200E0002202FA0EF22A430234514DB0
:102BC00045F82420504A94686FEA0C0224EA0C0568
:102BD0004E6816F4801F01D04CEA04054A4CA560EB
:102BE000E46802EA04054E6816F4001F01D04CEABE
:102BF0000405454CE560646802EA04054E6816F475
:102C0000003F01D04CEA04053F4C65602468224037
:102C10004D6815F4803F01D04CEA04023A4C226022
:102C200001330F2B6BD801229A400C6804EA020C86
:102C300032EA0404F4D14C6804F00304013C012C92
:102C40008BD94A6802F00302032A09D0C4685D00E8
:102C50000322AA4024EA02048A68AA402243C260EE
:102C60004A6802F00302022A8ED004684FEA430E3B
:102C7000032202FA0EF224EA02044A6802F0030276
:102C800002FA0EF2224302604A6812F4403FC7D0B3
:102C9000002201921D4A546C44F480445464526CE6
:102CA00002F480420192019A9C08A51C154A52F830
:102CB000255003F0030E4FEA8E0E0F2202FA0EF299
:102CC00025EA0205124A90423FF474AF02F5806291
:102CD00090420ED002F5806290420CD002F58062E4
:102CE00090420AD002F5806290423FF461AF072221
:102CF00061E701225FE702225DE703225BE702B0A2
:102D000070BD704700380140003C0140003802406F
:102D1000000002400369194201D0012070470020E1
:102D200070470AB181617047090481617047436946
:102D300001EA030221EA030141EA0241816170478D
:102D400070B50446866D00F01FF994F83530022BFB
:102D500006D080236365002384F83430012070BDE1
:102D600005462268136823F016031360226853692E
:102D700023F080035361236CE3B12268136823F0CE
:102D8000080313602268136823F0010313602368AB
:102D90001B6813F0010F11D000F0F6F8431B052B50
:102DA000F5D920236365032084F83500002384F8D7
:102DB0003430D4E7A36C002BDFD1E3E7E26D3F238F
:102DC0009340B360012384F83530002084F8340048
:102DD000C5E790F83530022B03D0802343650120EE
:102DE0007047052380F835300268136823F001032B
:102DF0001360002070470000002807DB00F01F026E
:102E0000400901239340024A42F82030704700BF36
:102E100000E100E0002808DB0901C9B200F16040D0
:102E200000F5614080F80013704700F00F000901C1
:102E3000C9B2014B1954704714ED00E000B500F021
:102E40000700C0F1070CBCF1040F28BF4FF0040CC1
:102E5000031D062B0FD9C31E4FF0FF3E0EFA0CF0D8
:102E600021EA000199400EFA03FE22EA0E0241EA2D
:102E700002005DF804FB0023EEE70000074AD36878
:102E800023F4E0631B041B0C000200F4E060034326
:102E900043F0BF6343F40033D360704700ED00E0BC
:102EA00010B50446054BD868C0F30220FFF7C6FFF3
:102EB00001462046FFF7AEFF10BD00BF00ED00E069
:102EC00008B5FFF799FF08BD0138B0F1807F0BD23C
:102ED0004FF0E0235861054AF02182F823100020CA
:102EE000986107221A6170470120704700ED00E0E9
:102EF00010B504460E4B1A784FF47A73B3FBF2F315
:102F00000C4A1068B0FBF3F0FFF7DEFF68B90F2C36
:102F100001D901200AE0002221464FF0FF30FFF7DF
:102F2000BFFF054B1C60002000E0012010BD00BF6A
:102F300000000020080000200400002008B50B4B12
:102F40001A6842F400721A601A6842F480621A60C9
:102F50001A6842F480721A600320FFF78FFF002086
:102F6000FFF7C6FFFEF764FE002008BD003C0240EC
:102F7000034A1168034B1B780B441360704700BF72
:102F8000E802002000000020014B1868704700BFD5
:102F9000E802002038B50446FFF7F6FF0546B4F115
:102FA000FF3F02D0044B1B781C44FFF7EDFF401B92
:102FB000A042FAD338BD00BF00000020034AD2F877
:102FC000883043F47003C2F88830704700ED00E0A9
:102FD00010B503460C4A0D490D48006840B10C4835
:102FE00000680344521A934206D8094A136010BD80
:102FF0000748084C0460F2E700F050FB0C23036024
:103000004FF0FF30F3E700BF000002200004000093
:10301000EC020020400400200120704708B500F0B9
:103020003DFB162303604FF0FF3008BD08B54FF09D
:10303000FF31FFF7F3FFFEE770B50C46164600259B
:1030400006E0AFF30080214601F8010B01350C4684
:10305000B542F6DB304670BD70B50C46164600250D
:1030600004E014F8010BAFF300800135B542F8DB42
:10307000304670BD4FF0FF3070474FF400534B6047
:10308000002070470120704700207047DFF834D0DF
:10309000FFF794FF0C480D490D4A002302E0D45875
:1030A000C4500433C4188C42F9D30A4A0A4C002392
:1030B00001E013600432A242FBD300F0F5FAFDF701
:1030C00063F9704700000220000000206800002023
:1030D000505C0008680000203C040020FEE70A2243
:1030E000002100F07BB80000242B2DE9F047864634
:1030F000904601D8012B06D100F0D0FA16230360C8
:103100000020BDE8F08734480D462A4615F8014BEB
:10311000065D16F00806F8D12D2C10D12C7801266A
:10312000951C33F0100215D1302C0DD12A7802F005
:10313000DF02582A08D16C78023510230AE02B2CC4
:1031400004BF2C78951CECE7002BF6D1302C14BF73
:103150000A23082306F1004C0CF1FF3C0022BCFBC3
:10316000F3F9104603FB19CAA4F13007092F0FD851
:103170003C46A3421BDD571C07D0814514D301D127
:10318000A24511DB00FB0340012215F8014BEBE7E0
:10319000A4F14107192F01D8373CEAE7A4F16107F0
:1031A000192F04D8573CE4E74FF0FF32EDE7531CEA
:1031B00008D12223CEF800306046B8F1000FA0D02D
:1031C000691E06E006B14042B8F1000F99D0002A0E
:1031D000F6D1C8F8001094E7755A000813460A465D
:1031E000014602480068FFF77FBF00BF18000020BB
:1031F000002310B50446C0E90033C0E904338360FE
:1032000081814366C2818361194608225C3000F0E7
:1032100079F90D4B63620D4BA3620D4BE3620D4BCD
:1032200023630D4B24629C4206D003F16802944252
:1032300002D0D0339C4205D104F15800BDE81040C3
:1032400000F056BA10BD00BFE5330008073400088F
:103250003F34000865340008F0020020024A0349A8
:10326000034800F06BB800BF0C0000200D400008C0
:103270001C00002041680C4B994210B5044601D057
:1032800000F0C4FEA168094B994202D0204600F02C
:10329000BDFEE168064B994204D02046BDE81040CF
:1032A00000F0B4BE10BD00BFF002002058030020A3
:1032B000C00300200C4B0D4A0D4810B504211A60C4
:1032C0000022FFF795FF0A4B01221C46092103F15A
:1032D0006800FFF78DFF04F1D0000222BDE8104026
:1032E0001221FFF785BF00BF280400205D320008CF
:1032F000F0020020014800F0FCB900BF31040020BA
:10330000014800F0F7B900BF3104002010B50446B1
:10331000FFF7F0FF236A1BB1BDE81040FFF7F0BFD5
:10332000044B2362044B1B68002BF5D1FFF7C2FF4F
:10333000F2E700BF75320008280400202DE9F843A9
:103340000746884614460026D4E90195B9F10109DB
:1033500005D52468002CF7D13046BDE8F883AB8949
:10336000012B07D9B5F90E30013303D02946384671
:10337000C04706436835E9E70CB430B5184B0C1E5E
:103380001D689DB008DA8B232B604FF0FF301DB015
:10339000BDE8304002B070474FF40273ADF814300E
:1033A0004FF000031B9314BF04F1FF332346049333
:1033B00007934FF6FF7302900690ADF81630209AEF
:1033C00021AB02A92846019300F014FB431CBCBFAB
:1033D0008B232B60002CDAD0029B00221A70D6E7D8
:1033E0001800002010B50C46B1F90E1000F032F9AB
:1033F0000028ABBF636DA3891B1823F48053ACBFB7
:103400006365A38110BD2DE9F0411F468B89DB0563
:1034100005460C46164605D5B1F90E1002230022CA
:1034200000F006F9A389B4F90E1023F48053A381A8
:1034300032463B462846BDE8F04100F01DB910B5C4
:103440000C46B1F90E1000F0F3F8B4F90C30421C40
:103450000BBF23F4805343F48053A381A38118BF8F
:10346000606510BDB1F90E1000F0D2B830B5144649
:10347000002C9BB005461A4605DA8B2303604FF0FB
:10348000FF301BB030BD4FF40273ADF80C304FF07D
:103490000003199314BF04F1FF33234602930593ED
:1034A0004FF6FF7300910491ADF80E3069461E9BF4
:1034B00000F0A0FA431CBCBF8B232B60002CE0D093
:1034C000009B00221A70DCE707B5009313460A46FA
:1034D000014603480068FFF7C9FF03B05DF804FB2D
:1034E0001800002010B501390244904201D100209B
:1034F00005E0037811F8014FA34201D0181B10BD5D
:103500000130F2E702440346934200D1704703F8CA
:10351000011BF9E710B50246147813460132002C5E
:10352000FAD1013B11F8012B03F8012F002AF9D140
:1035300010BD10B50139034632B111F8014F03F83F
:10354000014B013A002CF7D11A440021934200D1DB
:1035500010BD03F8011BF9E7164B70B51E68726CBD
:1035600004460D46F2B9502000F02EF90246706470
:1035700020B9114B11485B2100F0BEF80023C0E9CF
:103580000033C0E90233C0E90433C0E90A33C0E9BB
:103590000C33C0E90E33C0E91033C0E91233836144
:1035A00003774362294620460123BDE8704000F0BE
:1035B00007B800BF18000020755B00088C5B00088E
:1035C000F0B5044608B9146844B1204614F8015B0C
:1035D0000F4617F8016B1EB965B91560002005E0AC
:1035E000B542F6D1002BF0D114600370F0BD1C463B
:1035F0000CE01DB9274614F8013B0E4616F8015B96
:10360000AB42F6D1002BF2D000233B701460EDE703
:1036100038B5064D0023044608462B60FFF72AFD07
:10362000431C02D12B6803B1236038BD2C04002059
:1036300038B5074D04460846114600222A601A464E
:10364000FFF722FD431C02D12B6803B1236038BD74
:103650002C04002038B5074D0446084611460022C8
:103660002A601A46FFF7E8FC431C02D12B6803B11D
:10367000236038BD2C04002038B5074D04460846A9
:10368000114600222A601A46FFF7E6FC431C02D1CD
:103690002B6803B1236038BD2C040020014B18684F
:1036A000704700BF1800002070B50D4B0D4D5B1B1F
:1036B0009C100026A64209D101F04CF90A4D0B4B93
:1036C0005B1B9C100026A64205D170BD55F8043B3B
:1036D00098470136EEE755F8043B98470136F2E784
:1036E000485C0008485C0008485C00084C5C000826
:1036F00070477047704700001FB514461A46094BC3
:103700001B680546D8684CB1074B0091CDE90134E0
:1037100006492B4600F0A2FC00F0EAFC044B1C46D4
:10372000F3E700BF18000020D05B0008DD5B000855
:103730000B5C000838B50546002941D051F8043C1F
:103740000C1F002BB8BFE41800F0E8F81D4A1368FE
:1037500033B9636014602846BDE8384000F0E4B82F
:10376000A34208D9206821188B4201BF19685B6801
:1037700009182160EDE71A465B680BB1A342FAD93C
:1037800011685018A0420BD12068014450188342A0
:103790001160E0D118685B68536008441060DAE794
:1037A00002D90C232B60D6E7206821188B4204BF76
:1037B00019685B68636004BF091821605460CAE738
:1037C00038BD00BF38040020024B0146186800F0E5
:1037D00025B800BF1800002070B50F4E0C463168A8
:1037E000054611B900F066FC30602146284600F01D
:1037F00061FC431C03D14FF0FF34204670BDC41C54
:1038000024F00304A042F8D0211A284600F052FC0C
:103810000130F2D1EFE700BF340400202DE9F84376
:10382000CD1C25F0030508350C2D38BF0C25002DC7
:10383000064601DBA94204D90C2333600020BDE811
:10384000F883DFF8D48000F069F8D8F800301C461F
:1038500044BB29463046FFF7BFFF431C044658D1FE
:10386000D8F800402746002F43D1002C4BD02368C6
:103870003946304604EB030900F01CFC814542D177
:1038800021686D1A29463046FFF7A6FF01303AD06D
:1038900023682B442360D8F800305A6862BBC8F80C
:1038A00000700FE02268521B20D40B2A17D961192F
:1038B000A342256018BF5960636808BFC8F80010AC
:1038C00062514B60304600F02FF804F10B00231DCD
:1038D00020F00700C21A1CBF1B1AA350AFE7626892
:1038E000A3420CBFC8F800205A60EBE72346646887
:1038F000AEE73C467F68B6E71A465B68A342FBD159
:1039000000235360DEE70C233360304600F00CF8F0
:1039100094E70560D6E700BF380400200148FFF7B0
:10392000E8BE00BF300400200148FFF7E3BE00BF3F
:10393000300400202DE9F0478E681F46BE428246C3
:103940000C469046334653D8B1F90C0010F4906FF2
:103950002BD065692368096905EB4505A3EB0109CF
:1039600005EBD5757B1C6D104B44AB422A4684BFDA
:103970001D462A46430527D511465046FFF74EFF00
:10398000064658B321694A4600F0A4FBA38923F4F4
:10399000906343F08003A381266165614E44A5EBEB
:1039A00009052660A5603E463B461F4620683A460C
:1039B000414600F065FBA3689B1BA36023683B4462
:1039C00023600020BDE8F087504600F098FB0646D3
:1039D0000028E1D121695046FFF7ACFE0C23CAF85C
:1039E0000030A38943F04003A3814FF0FF30E9E7A3
:1039F0003E46DBE72DE9F04F98468B891B069DB0CC
:103A000007460D46144610D50B6973B94021FFF7E0
:103A100005FF2860286130B90C233B604FF0FF3070
:103A20001DB0BDE8F08F40236B6100230993202374
:103A30008DF82930CDF80C803023DFF89C818DF88B
:103A40002A304FF0010923469A4613F8012B0AB198
:103A5000252AF9D1BAEB040B0BD05B462246294646
:103A60003846FFF767FF013000F0A780099A5A44F3
:103A700009929AF80030002B00F09F8000234FF04D
:103A8000FF32CDE905230AF1010A049307938DF86B
:103A900053301A935446052214F8011B4E48FCF784
:103AA00097FB049AD8B9D00644BF20238DF8533031
:103AB000110744BF2B238DF853309AF800302A2B7E
:103AC00015D0079A544600204FF00A0C214611F8F1
:103AD000013B303B092B4BD9B0B1079214E0A0EB6E
:103AE000080309FA03F313430493A246D2E7039BA6
:103AF000191D1B680391002BBBBF5B4242F0020201
:103B000007930793B8BF049223782E2B0AD16378CA
:103B10002A2B32D1039B1A1D1B68039243EAE373DD
:103B200002340593DFF8C0A0217803225046FCF749
:103B30004FFB38B1049BA0EB0A00402282401343A4
:103B40000134049314F8011B24488DF82810062230
:103B5000FCF73EFB002836D0214B1BBB039B0733F1
:103B600023F0070308330393099B334409936AE75F
:103B70000CFB02320C460120A8E700230134059318
:103B800019464FF00A0C204610F8012B303A092A4A
:103B900003D9002BC6D00591C4E70CFB01210446D4
:103BA0000123F0E703AB00932A460E4B04A93846E5
:103BB000AFF30080421C0646D6D1AB895B063FF5C9
:103BC0002DAF09982CE703AB00932A46054B04A9B7
:103BD000384600F079F8EDE70C5C0008165C000848
:103BE0000000000035390008125C00082DE9F0479C
:103BF000164698468A680B69DDF820909342B8BF54
:103C00001346336091F8432007460C460AB101334E
:103C100033602368990642BF3368023333602568F6
:103C200015F0060506D104F1190AE36832689B1AFB
:103C3000AB4226DC94F843302268003B18BF0123D6
:103C400092062BD404F1430241463846C84701305E
:103C50001ED02368226903F00603042B02BFE56827
:103C60003368ED1AA3680CBF25EAE5750025934279
:103C7000C4BF9B1AED1800261A34B5421AD1002091
:103C800008E00123524641463846C847013003D177
:103C90004FF0FF30BDE8F0870135C6E7E1185A1C48
:103CA000302081F84300224494F8451082F84310F4
:103CB0000233C7E70123224641463846C847013050
:103CC000E6D00136D9E700002DE9FF470F7E0C9EB4
:103CD000782F914680460C469A4601F1430207D858
:103CE000622F0AD8002F00F0D280582F00F0B78042
:103CF00004F1420684F842703AE0A7F16303152B01
:103D0000F6D801A151F823F0613D0008753D000887
:103D1000F13C0008F13C0008F13C0008F13C0008CF
:103D2000753D0008F13C0008F13C0008F13C00083A
:103D3000F13C0008753E00089F3D00082B3E00083E
:103D4000F13C0008F13C0008973E0008F13C0008F7
:103D50009F3D0008F13C0008F13C0008333E00089C
:103D600033681A1D1B68326004F1420684F8423041
:103D700001239DE033682068191D3160060601D5D6
:103D80001D6803E04506FBD5B3F90050002D03DAAA
:103D90002D236D4284F8433059480A2310E02168EE
:103DA0003368080653F8045B02D4490648BFADB235
:103DB0006F2F5348336059D10823002184F84310F2
:103DC0006668A660002E05DB21682E4321F0040101
:103DD00021604DD01646B5FBF3F103FB1157C75DCB
:103DE00006F8017D2F46BB420D46F4D9082B0BD1B6
:103DF0002368DF0708D5236961689942DEBF302355
:103E000006F8013C06F1FF36921B2261CDF800A0B6
:103E10004B4603AA21464046FFF7E8FE01304CD14D
:103E20004FF0FF3004B0BDE8F087236843F0200373
:103E300023603448782784F84570236831681F066A
:103E400051F8045B02D45F0648BFADB23160D907B8
:103E500044BF43F0200323601DB11023ADE7284881
:103E6000E9E7236823F020032360F6E70A23A4E7A9
:103E70001646BBE7336825686169181D30602E0659
:103E80001B6801D5196002E06806FBD51980002384
:103E900023611646BAE733681A1D32601E686268ED
:103EA00000213046FCF794F908B1801B606063681C
:103EB0002361002384F84330A8E72369324649464A
:103EC0004046D0470130ABD023689B0713D4E0684D
:103ED000039B9842B8BF1846A4E7012332464946DF
:103EE0004046D04701309BD00135E36803995B1A07
:103EF000AB42F2DCEBE7002504F11906F5E700BF61
:103F00001D5C00082E5C0008B1F90C202DE9F04181
:103F1000160705460C4651D44B68002B02DC0B6C8F
:103F2000002B49DDE66A002E46D0002312F48052B1
:103F30002F682B6031D0626DA389590705D563685E
:103F4000D21A636B0BB1236CD21A0023E66A216A82
:103F50002846B047421CB4F90C3006D129681D2907
:103F600046D8294ACA40D60742D500226260D90401
:103F70002269226004D5421C01D12B6803B9606517
:103F8000616B2F60C1B104F14403994202D028460D
:103F9000FFF7D0FB002363630EE0216A012328466C
:103FA000B0470246501CC7D12B68002BC4D01D2B34
:103FB00001D0162B1AD12F6000201EE00F69002FB0
:103FC000FAD093070E6808BF4B690F6018BF002333
:103FD000A6EB07088B60B8F1000FEDDD216AA66A39
:103FE00043463A462846B047002808DCB4F90C306E
:103FF00043F04003A3814FF0FF30BDE8F081074458
:10400000A8EB0008E7E700BF0100402038B50B69C6
:1040100005460C4613B90025284638BD18B1036A79
:104020000BB9FFF773F9B4F90C30002BF3D0626EC3
:10403000D00704D4990502D4A06DFFF75AFB284697
:104040002146FFF761FF636EDA070546E4D4A389D2
:104050009B05E1D4A06DFFF74DFBDDE70EB403B582
:10406000014603AB054853F8042B0068019300F0A8
:104070009DF802B05DF804EB03B070471800002013
:10408000884210B501EB020402D98442234607D8C6
:10409000431EA14207D011F8012B03F8012FF8E7C6
:1040A0000244824200D110BD13F8011D02F8011D27
:1040B000F7E7000038B5064D0023044608462B609C
:1040C000FEF786FF431C02D12B6803B1236038BD85
:1040D0002C0400200A44914200F1FF3300D17047C4
:1040E00010B511F8014B03F8014F9142F9D110BD01
:1040F00008B5062000F02CFA0120FEF797FF2DE905
:10410000F041074614460D4621B9BDE8F04111467D
:10411000FFF784BB2AB9FFF70DFB25462846BDE80B
:10412000F08100F031FA8442064602D8B4EB500F19
:10413000F4D821463846FFF771FB804608B945465A
:10414000ECE7B4422246294628BF3246FFF7C2FFB9
:1041500029463846FFF7EEFAF1E79368013B002B5A
:1041600010B4936008DA9469A34201DB0A2903D1F1
:104170005DF8044B00F032B91368581C10601970D8
:1041800008465DF8044B7047F8B506460F461446DE
:10419000D518AC4201D1002007E014F8011B3A46C3
:1041A0003046FFF7DAFF431CF3D1F8BD2DE9F04F9D
:1041B0000D469DB014469846064618B1036A0BB9E1
:1041C000FFF7A4F86B6ED90705D4AB899A0502D422
:1041D000A86DFFF78EFAAB891B0701D52B699BB938
:1041E0002946304600F038F970B16B6EDC0704D513
:1041F0004FF0FF301DB0BDE8F08FAB899805F7D4C4
:10420000A86DFFF777FAF3E70023099320238DF8D1
:104210002930CDF80C803023DFF8AC818DF82A30BE
:104220004FF0010923469A4613F8012B0AB1252ABB
:10423000F9D1BAEB040B0BD05B4622462946304637
:10424000FFF7A2FF013000F0A780099A5A440992B3
:104250009AF80030002B00F09F8000234FF0FF32CF
:10426000CDE905230AF1010A049307938DF8533031
:104270001A935446052214F8011B5348FBF7A8FF74
:10428000049AD8B9D10644BF20238DF853301307C0
:1042900044BF2B238DF853309AF800302A2B15D0C9
:1042A000079A544600204FF00A0C214611F8013BB2
:1042B000303B092B4BD9B0B1079214E0A0EB0803B7
:1042C00009FA03F313430493A246D2E7039B191D93
:1042D0001B680391002BBBBF5B4242F002020793B5
:1042E0000793B8BF049223782E2B0AD163782A2B28
:1042F00032D1039B1A1D1B68039243EAE373023415
:104300000593DFF8D4A0217803225046FBF760FF25
:1043100038B1049BA0EB0A004022824013430134D1
:10432000049314F8011B29488DF828100622FBF786
:104330004FFF00283FD0264B1BBB039B073323F0C6
:10434000070308330393099B3B4409936AE70CFB7B
:1043500002320C460120A8E70023013405931946D8
:104360004FF00A0C204610F8012B303A092A03D9E5
:10437000002BC6D00591C4E70CFB012104460123A4
:10438000F0E703AB00932A46124B04A93046AFF383
:1043900000800746781CD6D16B6ED90705D4AB894F
:1043A0009A0502D4A86DFFF7A5F9AB895B063FF526
:1043B0001FAF09981EE703AB00932A46054B04A9DB
:1043C0003046FFF781FCE4E70C5C0008165C00084F
:1043D0000000000089410008125C0008F8B50E4694
:1043E0001446054618B1036A0BB9FEF78FFFA3699F
:1043F000A360A3891A0701D5236943B9214628463A
:1044000000F02AF818B14FF0FF373846F8BD23689E
:104410002269981A6369F6B28342374605DC214661
:104420002846FFF7F3FD0028EDD1A368013BA36008
:1044300023685A1C22601E706269431C9A4204D091
:10444000A389DB07E1D50A2EDFD121462846FFF7F5
:10445000DDFD0028D9D0D6E738B5284B05461868C9
:104460000C4618B1036A0BB9FEF750FFB4F90C30D3
:10447000190721D4DA0607D409222A6043F0400341
:10448000A3814FF0FF3031E0580712D5616B41B185
:1044900004F14403994202D02846FFF74BF9002368
:1044A00063630022B4F90C3062602269226023F059
:1044B000240343F00803A381226942B903F4207363
:1044C000B3F5007F03D02146284600F089F8B4F9FF
:1044D0000C3013F001020AD00022A260626952423D
:1044E000A261226942B913F08000C7D138BD990793
:1044F00058BF6269A260F4E70020F7E718000020C7
:104500001F2938B505460C4604D9162303604FF021
:10451000FF3038BDC26B12B152F821304BB928467A
:1045200000F030F8224601462846BDE8384000F049
:1045300017B8012B0AD0591C03D1162303600120A0
:10454000E7E7002142F82410204698470020E0E7E2
:10455000024B01461868FFF7D3BF00BF18000020C8
:1045600038B5074D00230446084611462B60FEF778
:1045700055FD431C02D12B6803B1236038BD00BF39
:104580002C040020FEF748BD51F8043C181F002BF6
:10459000BCBF0B58C018704770B50C46B1F90E106F
:1045A000002996B015461E460ADAA18911F080014D
:1045B00013D14FF48062002031602A6016B070BDC4
:1045C0006A4600F047F80028EFDB019901F47041DA
:1045D000A1F5005359425941EBE700214022EAE797
:1045E0008B8973B59E0705460C4607D504F1470332
:1045F000236023610123636102B070BD01AB6A4691
:10460000FFF7CAFF009E28463146FFF707F9B4F9C5
:104610000C3038B99A05EFD423F0030343F00203BA
:10462000A381E3E743F08003A381019B2060C4E9F9
:104630000406002BE0D0B4F90E10284600F01CF858
:104640000028D9D0A38923F0030343F00103A381F9
:10465000D2E7000038B5074D00230446084611464E
:104660002B60FEF70AFD431C02D12B6803B12360C7
:1046700038BD00BF2C04002038B5064D0023044689
:1046800008462B60FEF7FEFC431C02D12B6803B1E9
:10469000236038BD2C0400202DE9F0478C468E465F
:1046A000089E154604461946002B40F0D0807245FE
:1046B00047D9B2FA82F74FB1C7F120030EFA07FCCF
:1046C00020FA03F3BD4043EA0C0CBC404FEA154E00
:1046D000A8B2BCFBFEF8230C0EFB18CC08FB00F9BB
:1046E00043EA0C43994528D9EB1808F1FF3204D26C
:1046F000994502D9A8F102022B44A3EB0903A4B205
:10470000B3FBFEFC0EFB1C330CFB00F044EA03443D
:10471000A04214D92C190CF1FF3304D2A04202D9C3
:10472000ACF102032C44241A43EA02401EB1FC40BF
:10473000002334607360BDE8F0874246DDE76346DE
:10474000F1E7002A79D0B2FA82F3002B3FD0194664
:10475000C1F1200302FA01F52EFA03F20EFA01FE6E
:1047600020FA03F343EA0E034FEA154E00FA01F470
:10477000B2FBFEFCAFB20EFB1C201A0C0CFB07F8C0
:1047800042EA004290455AD9AA180CF1FF3004D2EF
:10479000904502D9ACF102002A44A2EB08029BB278
:1047A000B2FBFEFC0EFB1C220CFB07F743EA0243A4
:1047B0009F4246D9EB180CF1FF3204D29F4202D936
:1047C000ACF102022B44DB1B42EA004202E0AEEBFA
:1047D000020301224FEA154EAFB2B3FBFEFC200CE0
:1047E0000EFB1C330CFB07F840EA034398452AD91B
:1047F000EB180CF1FF3004D2984502D9ACF102005D
:104800002B44A3EB0803A4B2B3FBFEFC0EFB1C334A
:104810000CFB07F744EA0344A74216D92C190CF104
:10482000FF3304D2A74202D9ACF102032C44E41BAB
:1048300043EA00400F46114678E71F2188E76046AB
:10484000ABE76246BFE76046DBE76346EFE77345E9
:1048500006D916B9002108466DE7C6E9000EF9E74A
:10486000B3FA83F787B9734501D3824207D8841A14
:104870006EEB030301209C461EB900215BE738461E
:10488000FAE7C6E9004CF8E7C7F1200CBB4022FA72
:104890000CF51D4320FA0CF12EFA0CF30EFA07FE6C
:1048A00041EA0E014FEA154900FA07F4B3FBF9F8A3
:1048B0001FFA85FE09FB18300B0C08FB0EFA43EAC1
:1048C00000439A4502FA07F240D9EB1808F1FF308D
:1048D00004D29A4502D9A8F102002B44A3EB0A03A3
:1048E00089B2B3FBF9F809FB183308FB0EFE41EA65
:1048F00003418E452CD9691808F1FF3304D28E4547
:1049000002D9A8F10203294443EA0040A0FB02981F
:10491000A1EB0E014145CE46434602D306D14C459C
:1049200004D2B9EB020E68EB05030138002EA4D0C7
:10493000B4EB0E0261EB030101FA0CFC22FA07F35F
:104940004CEA0303F940C6E9003196E74046C5E763
:104950004346D9E7F8B500BFF8BC08BC9E4670478F
:0C496000F8B500BFF8BC08BC9E467047CC
:10496C00005A0008085A0008105A00081C5A00087F
:10497C00E8590008F4590008DC580008D45900081C
:10498C00CC580008DC590008AC590008B459000890
:10499C00BC590008C8590008554152543100000058
:1049AC0055534152543100003100000055415254CE
:1049BC0036000000555341525436000036000000BA
:1049CC000D0A00003D3D3D3D3D3D3D3D3D3D3D3DE8
:1049DC003D3D3D3D3D3D3D3D3D3D3D3D3D3D3D3DFB
:1049EC003D3D3D3D3D3D3D3D3D3D3D3D0D0A0000C8
:1049FC0020204D494D4943202D2048617264776138
:104A0C00726520436F6E74726F6C20496E746572A0
:104A1C00666163650D0A0000312E302E30000000F7
:104A2C00202056657273696F6E3A2025730D0A004B
:104A3C00202054797065202748454C502720666FFC
:104A4C007220636F6D6D616E64730D0A000000005F
:104A5C0052454144590D0A3E200000002009000037
:104A6C0055736167653A2050494E5F535441545514
:104A7C0053203C50494E3E2028652E672E2C20504A
:104A8C00494E5F535441545553204135290D0A006A
:104A9C004552524F523A20496E76616C69642070CF
:104AAC00696E20272573270D0A00000050494E20FF
:104ABC0025733A0D0A00000020204D6F64653A20E2
:104ACC00202025730D0A00002020547970653A20AF
:104ADC00202025730D0A0000202053706565643A70
:104AEC00202025730D0A0000202050756C6C3A2094
:104AFC00202025730D0A0000202053746174653A40
:104B0C00202025730D0A000055736167653A20500B
:104B1C00494E5F5345545F4F5554203C50494E3ECF
:104B2C000D0A00004F4B3A20257320636F6E6669A7
:104B3C006775726564206173204F55545055540D40
:104B4C000A00000055736167653A2050494E5F5367
:104B5C0045545F494E203C50494E3E205B55507C9D
:104B6C00444F574E7C4E4F4E455D0D0A00000000E1
:104B7C0055500000444F574E000000004F4B3A2058
:104B8C00257320636F6E6669677572656420617347
:104B9C0020494E5055540D0A0000000055736167B2
:104BAC00653A2050494E5F48494748203C50494E91
:104BBC003E0D0A004F4B3A202573203D20484947B3
:104BCC00480D0A0055736167653A2050494E5F4C99
:104BDC004F57203C50494E3E0D0A00004F4B3A2097
:104BEC002573203D204C4F570D0A0000557361670B
:104BFC00653A2050494E5F52454144203C50494E45
:104C0C003E0D0A002573203D2025730D0A0000007F
:104C1C0055736167653A2050494E5F544F47474C76
:104C2C0045203C50494E3E0D0A0000004F4B3A20A7
:104C3C00257320746F67676C656420746F2025730F
:104C4C000D0A000055736167653A2050494E5F4D5F
:104C5C004F4445203C50494E3E203C494E7C4F55DC
:104C6C00547C41467C414E3E0D0A000041460000FA
:104C7C00414E00004552524F523A204D6F64652010
:104C8C006D75737420626520494E2C204F55542C41
:104C9C002041462C206F7220414E0D0A000000006E
:104CAC004F4B3A202573206D6F646520736574201B
:104CBC00746F2025730D0A0055736167653A205592
:104CCC004152545F494E4954203C317C363E203C85
:104CDC0042415544524154453E205B4E7C457C4FED
:104CEC005D205B317C325D0D0A0000002020457890
:104CFC00616D706C653A20554152545F494E495470
:104D0C0020312039363030204E20310D0A00000081
:104D1C004552524F523A20496E76616C6964205567
:104D2C0041525420287573652031206F7220362C27
:104D3C002055415254322069732072657365727626
:104D4C006564290D0A0000004552524F523A204921
:104D5C006E76616C69642062617564726174652041
:104D6C00283330302D33303030303030290D0A00BC
:104D7C004552524F523A205541525420696E697433
:104D8C00206661696C65640D0A0000004F4B3A2087
:104D9C0055415254257320696E697469616C697A46
:104DAC0065640D0A00000000202052657175657362
:104DBC007465643A20256C7520626175640D0A0077
:104DCC00202050434C4B3A20256C7520487A2C20DF
:104DDC004252523A20256C750D0A000055736167DA
:104DEC00653A20554152545F53454E44203C317C2A
:104DFC00363E203C444154413E0D0A004552524F30
:104E0C00523A20496E76616C6964205541525420A7
:104E1C00696E7374616E63650D0A00004552524FE2
:104E2C00523A2055415254206E6F7420696E697449
:104E3C0069616C697A65642E205573652055415201
:104E4C00545F494E49542066697273742E0D0A00E2
:104E5C00200000004F4B3A2053656E7420256420CF
:104E6C0062797465730D0A004552524F523A2054C0
:104E7C0072616E736D6974206661696C65640D0A8C
:104E8C000000000055736167653A20554152545F2C
:104E9C0052454356203C317C363E203C4C454E47D7
:104EAC0054483E205B54494D454F55545F4D535D1E
:104EBC000D0A00004552524F523A2055415254208F
:104ECC006E6F7420696E697469616C697A65640DC2
:104EDC000A0000005741524E494E473A2055415264
:104EEC00542073746174653D3078253032582C2011
:104EFC00726573657474696E672E2E2E0D0A000030
:104F0C0057616974696E6720666F72202564206230
:104F1C0079746573202874696D656F75743A2025F2
:104F2C006C75206D73292E2E2E0D0A0044454255AA
:104F3C00473A206753746174653D30782530325898
:104F4C002C20527853746174653D3078253032587A
:104F5C002C204572726F72436F64653D307825303A
:104F6C00326C580D0A000000287761697465642062
:104F7C00256C75206D732C207374617475733D25CD
:104F8C0064290D0A00000000444154413A200000FD
:104F9C004845583A200000002530325820000000C7
:104FAC0054494D454F55543A204E6F2064617461FD
:104FBC002072656365697665640D0A004552524F2F
:104FCC00523A205541525420627573790D0A0000F3
:104FDC004552524F523A2052656365697665206698
:104FEC0061696C656420287374617475733D256404
:104FFC00290D0A0055415254205374617475733A4B
:10500C000D0A0000202055415254322028486F735D
:10501C0074293A20256C75206261756420284143FF
:10502C0054495645290D0A00202055415254313A15
:10503C0020256C75206261756420285041392F50F1
:10504C00413130290D0A0000202055415254313A8B
:10505C00204E6F7420696E697469616C697A65643D
:10506C000D0A0000202055415254363A20256C750B
:10507C00206261756420285043362F504337290D28
:10508C000A000000202055415254363A204E6F74CD
:10509C0020696E697469616C697A65640D0A000037
:1050AC0055736167653A20554152545F54455354CA
:1050BC00203C317C363E0D0A000000002020526559
:1050CC007175697265732054582D3E5258206C6F5F
:1050DC006F706261636B2077697265210D0A000045
:1050EC0054657374696E6720554152542573206C56
:1050FC006F6F706261636B2E2E2E0D0A0000000024
:10510C004D494D49435F4C4F4F504241434B5F54C7
:10511C0045535400202054583A202225732220282D
:10512C002564206279746573290D0A002020545877
:10513C00204641494C4544210D0A0000202052587C
:10514C003A20222573222028256420627974657305
:10515C00290D0A002020524553554C543A205041F9
:10516C005353202D204C6F6F706261636B204F4B3B
:10517C00210D0A002020524553554C543A204641EB
:10518C00494C202D2044617461206D69736D6174EC
:10519C006368210D0A000000202052583A2054491F
:1051AC004D454F5554202D204E6F20646174612065
:1051BC0072656365697665640D0A000020205245AE
:1051CC0053554C543A204641494C202D2043686598
:1051DC00636B2054582D3E52582077697265210D0F
:1051EC000A000000202052583A204552524F520DCE
:1051FC000A0000002020524553554C543A20464199
:10520C00494C0D0A000000003D3D3D204D494D49E3
:10521C004320436F6D6D616E6420526566657265E7
:10522C006E6365203D3D3D0D0A0D0A005B475049FC
:10523C004F20436F6D6D616E64735D0D0A0000004D
:10524C00202050494E5F535441545553203C5049F3
:10525C004E3E2020202020202020202D2053686F1F
:10526C00772070696E20636F6E6669672028652EE3
:10527C00672E2C2050494E5F5354415455532044B3
:10528C003132290D0A000000202050494E5F534551
:10529C00545F4F5554203C50494E3E202020202036
:1052AC002020202D20536574206173206F7574703D
:1052BC0075740D0A00000000202050494E5F5345C4
:1052CC00545F494E203C50494E3E205B50554C4C4F
:1052DC005D20202D2053657420617320696E7075DC
:1052EC0074202850554C4C3A2055507C444F574E06
:1052FC007C4E4F4E45290D0A0000000020205049DD
:10530C004E5F48494748203C50494E3E20202020C3
:10531C00202020202020202D205365742070696EC1
:10532C0020484947480D0A00202050494E5F4C4FF9
:10533C0057203C50494E3E20202020202020202069
:10534C002020202D205365742070696E204C4F57FF
:10535C000D0A0000202050494E5F52454144203C2C
:10536C0050494E3E20202020202020202020202D7F
:10537C0020526561642070696E2073746174650DD0
:10538C000A000000202050494E5F544F47474C45BF
:10539C00203C50494E3E2020202020202020202D33
:1053AC0020546F67676C652070696E0D0A000000F1
:1053BC00202050494E5F4D4F4445203C50494E3EB5
:1053CC00203C4D4F44453E202020202D2053657419
:1053DC00206D6F64652028494E7C4F55547C4146A6
:1053EC007C414E290D0A0D0A000000005B5541520C
:1053FC005420436F6D6D616E64735D0D0A00000087
:10540C002020554152545F494E4954203C317C3642
:10541C003E203C424155443E205B50415249545938
:10542C005D205B53544F505D0D0A0000202020205E
:10543C004578616D706C653A20554152545F494E08
:10544C00495420312039363030204E20310D0A009D
:10545C002020554152545F53454E44203C317C36FC
:10546C003E203C444154413E2020202D2053656E6B
:10547C006420646174610D0A000000002020554115
:10548C0052545F52454356203C317C363E203C4CB6
:10549C00454E3E205B54494D454F55545D0D0A0019
:1054AC002020554152545F535441545553202020D1
:1054BC0020202020202020202020202D2053686F09
:1054CC00772055415254207374617475730D0A0D15
:1054DC000A0000005B53797374656D20436F6D6D2A
:1054EC00616E64735D0D0A00202048454C502020ED
:1054FC0020202020202020202020202020202020A0
:10550C002020202D2053686F7720746869732068E1
:10551C00656C700D0A000000202056455253494F0F
:10552C004E20202020202020202020202020202041
:10553C002020202D2053686F772076657273696F59
:10554C006E0D0A0020205354415455532020202026
:10555C002020202020202020202020202020202D32
:10556C002053797374656D207374617475730D0AAF
:10557C0000000000202052455345542020202020BC
:10558C002020202020202020202020202020202D02
:10559C00205265736574204D43550D0A0D0A0000A9
:1055AC005B53686F727420436F6D6D616E64735DD5
:1055BC000D0A0000202050533D50494E5F5354417A
:1055CC005455532C2050534F3D50494E5F53455426
:1055DC005F4F55542C205053493D50494E5F534515
:1055EC00545F494E0D0A0000202050483D50494E52
:1055FC005F484947482C20504C3D50494E5F4C4F1A
:10560C00572C2050523D50494E5F524541442C205E
:10561C0050543D50494E5F544F47474C450D0A007E
:10562C00202055493D554152545F494E49542C2038
:10563C0055533D554152545F53454E442C205552C1
:10564C003D554152545F524543560D0A0D0A000018
:10565C004D494D4943204669726D776172652076DC
:10566C0025730D0A000000005461726765743A20BE
:10567C0053544D33324634313156455436204469F7
:10568C0073636F766572790D0A00000031373A3317
:10569C00353A3032000000004A616E20203820324A
:1056AC00303236004275696C743A202573202573AC
:1056BC000D0A00000D0A3D3D3D2053797374656D54
:1056CC0020537461747573203D3D3D0D0A0000003C
:1056DC00557074696D653A20256C75206D730D0AD3
:1056EC0000000000486F737420554152543A202535
:1056FC006C7520626175640D0A0000000D0A47503C
:10570C00494F20436C6F636B7320456E61626C650F
:10571C00643A0D0A0000000020204750494F4120F8
:10572C000000000020204750494F4220000000009C
:10573C0020204750494F43200000000020204750B4
:10574C00494F44200000000020204750494F45207D
:10575C0000000000526573657474696E672E2E2EFE
:10576C000D0A000055736167653A20554152545F2C
:10577C00504F4C4C203C317C363E203C4D455353D5
:10578C004147453E203C434F554E543E205B4445DB
:10579C004C41595F4D535D0D0A00000020204578A7
:1057AC00616D706C653A20554152545F504F4C4CB2
:1057BC0020312048656C6C6F203130203530300D35
:1057CC000A000000202053656E6473202748656C26
:1057DC006C6F272031302074696D65732077697484
:1057EC0068203530306D732064656C61790D0A006A
:1057FC00202055736520434F554E543D3020666F25
:10580C007220696E66696E6974652028756E74699C
:10581C006C207265736574290D0A000025730D0ADE
:10582C000000000053656E64696E6720272573279E
:10583C0020256C752074696D6573202864656C6116
:10584C00793A20256C75206D73290D0A0000000033
:10585C00285265736574204D435520746F20737402
:10586C006F7020696620696E66696E697465290DB2
:10587C000A0000004F4B3A2053656E7420256C755E
:10588C00206D657373616765730D0A0050494E5F37
:10589C0053544154555300005053000050494E5F2F
:1058AC005345545F4F55540050534F0050494E5F71
:1058BC005345545F494E00005053490050494E5FC8
:1058CC0048494748000000005048000050494E5FCE
:1058DC004C4F5700504C000050494E5F52454144CC
:1058EC00000000005052000050494E5F544F474793
:1058FC004C4500005054000050494E5F4D4F4445FC
:10590C0000000000504D0000554152545F494E4973
:10591C005400000055490000554152545F53454E08
:10592C0044000000554152545F524543560000005C
:10593C0055520000554152545F5354415455530035
:10594C00554152545F544553540000005541525434
:10595C005F504F4C4C00000048454C50000000007C
:10596C003F00000056455253494F4E0056455200D9
:10597C0052455345540000004552524F523A20555F
:10598C006E6B6E6F776E20636F6D6D616E6420272A
:10599C002573270D0A0000003E200000200800009F
:1059AC004E4F4E450000000050554C4C5F5550007A
:1059BC0050554C4C5F444F574E00000052455345D8
:1059CC0052564544000000004D454449554D0000D9
:1059DC00564552595F4849474800000050555348B6
:1059EC005F50554C4C0000004F50454E5F445241A7
:1059FC00494E0000494E5055540000004F5554502C
:105A0C0055540000414C545F46554E430000000075
:105A1C00414E414C4F470000410000000000024045
:105A2C004200000000040240430000000008024055
:105A3C0044000000000C0240450000000010024031
:105A4C0048000000001C02400000000000000000A4
:105A5C000000000001020304000000000000000030
:105A6C000102030406070809002020202020202022
:105A7C0020202828282828202020202020202020F2
:105A8C002020202020202020208810101010101002
:105A9C00101010101010101010040404040404044E
:105AAC0004040410101010101010414141414141E8
:105ABC0001010101010101010101010101010101CA
:105ACC0001010101101010101010424242424242DA
